:100000000C9463000C94C00E0C94990E0C948B000D
:100010000C948B000C948B000C948B000C948B0034
:100020000C94F1110C948B000C948B000C942B11FC
:100030000C948B000C948B000C948B000C948B0014
:100040000C94350E0C948B000C940D0F0C94E70E51
:100050000C948B000C948B000C948B000C948B00F4
:100060000C94450F0C948B00000000002400270026
:100070002A0000000000250028002B0000000000DE
:1000800023002600290004040404040404040202DA
:100090000202020203030303030301020408102007
:1000A0004080010204081020010204081020000012
:1000B0000008000201000003040700000000000027
:1000C00000001C0EEA1111241FBECFEFD8E0DEBFE6
:1000D000CDBF11E0A0E0B1E0EEEBFBE202C0059085
:1000E0000D92A033B107D9F723E0A0E3B1E001C03E
:1000F0001D92AC32B207E1F710E0C2E6D0E004C0D6
:100100002197FE010E94D412C136D107C9F70E947F
:10011000900E0C94D2150C9400008330B1F060F076
:100120008730E9F0883009F1843021F5E0E8F0E02B
:1001300080818F7D80830895813069F0823021F441
:1001400084B58F7D84BD08950895E0E8F0E0808156
:100150008F778083089584B58F7784BD0895E0EB11
:10016000F0E080818F7780830895E0EBF0E080817C
:100170008F7D80830895CF93DF93282F30E0F9019E
:10018000E255FF4F8491F901E656FF4FD491F901F2
:10019000EA57FF4FC491CC23B1F081110EC0EC2F70
:1001A000F0E0EE0FFF1FE458FF4FA591B491EC91E2
:1001B000ED2331F490E080E008C00E948D00EFCF85
:1001C00081E090E002C090E080E0DF91CF9108955F
:1001D0001F93CF93DF93282F30E0F901E255FF4FB3
:1001E0008491F901E656FF4F1491F901EA57FF4F48
:1001F000C491CC23A9F0D62F811116C0EC2FF0E0CA
:10020000EE0FFF1FEE58FF4FA591B4918FB7F894F2
:10021000D1110DC09C91E12FE095E923EC938FBFA4
:10022000DF91CF911F9108950E948D00E7CFEC914F
:10023000E12BEC93F4CFCF93DF9390E0FC01E656F3
:10024000FF4F24918A579F4FFC018491882319F115
:1002500090E0880F991FFC01E859FF4FA591B491D8
:10026000FC01EE58FF4FC591D491662349F06230EE
:10027000A9F08FB7F894EC91E22BEC938FBF0BC0F1
:100280009FB7F8948C91E22FE0958E238C93888110
:10029000E823E8839FBFDF91CF9108959FB7F8943B
:1002A0003C91822F809583238C93E881E22BE88315
:1002B0009FBFF1CF1F93CF93DF93182FEB0161E026
:1002C0000E941B012097D9F0CF3FD10501F1E12F0A
:1002D000F0E0E255FF4FE491E33061F1E8F0E73000
:1002E000E9F1E83009F442C0E43071F1C038D105D9
:1002F0000CF444C061E0812F0E94E80004C060E07B
:10030000812F0E94E800DF91CF911F91089561E055
:10031000812F0E94E800F7CFE13039F0E23031F769
:1003200084B5806284BDC8BDEECF84B5806884BDCD
:10033000C7BDE9CFE0E8F0E0808180688083D0939A
:100340008900C0938800DFCFE0E8F0E08081806220
:100350008083D0938B00C0938A00D5CFE0EBF0E090
:10036000808180688083C093B300CDCFE0EBF0E064
:10037000808180628083C093B400C5CF60E0812F0C
:100380000E94E800C0CF789484B5826084BD84B5B3
:10039000816084BD85B5826085BD85B5816085BD80
:1003A000EEE6F0E0808181608083E1E8F0E0108299
:1003B000808182608083808181608083E0E8F0E0DA
:1003C000808181608083E1EBF0E0808184608083C4
:1003D000E0EBF0E0808181608083EAE7F0E08081FB
:1003E000846080838081826080838081816080835B
:1003F0008081806880831092C100089582309105C9
:1004000038F0880F991F880F991F05970197F1F70A
:1004100008953FB7F8948091240390912503A0910B
:100420002603B091270326B5A89B05C02F3F19F0DE
:100430000196A11DB11D3FBFBA2FA92F982F882764
:10044000BC01CD01620F711D811D911D660F771FCB
:10045000881F991F660F771F881F991F08952FB750
:10046000F894609120037091210380912203909170
:1004700023032FBF0895089508958F929F92AF92FE
:10048000BF92CF92DF92EF92FF926B017C010E94AC
:1004900009024B015C011BC021E0C21AD108E1082E
:1004A000F10888EE880E83E0981EA11CB11CC114CF
:1004B000D104E104F10459F00E9409026819790994
:1004C0008A099B09683E73408105910528F7C1148C
:1004D000D104E104F10459F7FF90EF90DF90CF9041
:1004E000BF90AF909F908F9008954F925F926F92C0
:1004F0007F92AF92BF92CF92DF92EF92FF920F93D3
:100500001F93CF93DF93CDB7DEB729013A019B014B
:10051000AC01241935094609570989899A89AB899B
:10052000BC89BC01CD016A197B098C099D090E9417
:10053000A412A801970124193509460957090E94F8
:100540004912CA01B9016A0D7B1D8C1D9D1DDF91E9
:10055000CF911F910F91FF90EF90DF90CF90BF90C0
:10056000AF907F906F905F904F900895823008F029
:100570000895E82FF0E0EE0FFF1FEF5FFE4F71834D
:100580006083882319F0813059F00895E9E6F0E09E
:1005900080818C7F482B40838DB381608DBB089513
:1005A000E9E6F0E08081837F440F551F440F551F1B
:1005B000482B40838DB382608DBBDACF0895CF92F4
:1005C000DF92EF92FF920F931F93CF93DF938C01F3
:1005D000DB01D0E0C0E07A0181E0E81AF108452BA8
:1005E000A1F0F80180819181FC01208131816D01B0
:1005F000FFEFCF1ADF0A6C91C801F9010995892B29
:1006000021F02196A701D601E6CFCE01DF91CF914F
:100610001F910F91FF90EF90DF90CF900895019779
:1006200009F008956F3F7F4FE1F7E2E8F2E01382AF
:10063000128288EE93E0A0E0B0E084839583A683E5
:10064000B78381E291E09183808385EC90E0958788
:10065000848784EC90E09787868780EC90E0918B8C
:10066000808B81EC90E0938B828B82EC90E0958B79
:10067000848B86EC90E0978B868B118E128E138E76
:10068000148ECFCFFC01938D848D981720F4891B95
:10069000990B019708952FE330E0291B3109820F50
:1006A000932F911D0895FC01918D828D981761F013
:1006B000A28DAE0FBF2FB11D5D968C91928D9F5F65
:1006C0009F73928F90E008958FEF9FEF0895FC0144
:1006D000918D828D981731F0828DE80FF11D858DF7
:1006E00090E008958FEF9FEF0895FC01218D30E099
:1006F000205C3F4F828DA901481B5109CA018F73AD
:100700009927089582E892E00E94750321E0892BE1
:1007100009F420E0822F0895CF92DF92EF92FF92AA
:100720001F93CF93DF93EC016A017B01122F60E0EE
:1007300079E08DE390E0A70196010E9473122150A9
:100740003109410951095695479537952795E8890B
:10075000F98982E08083C11481EED806E104F104B6
:1007600021F0211580E1380798F0E889F989108295
:1007700060E874E88EE190E0A70196010E94731290
:1007800021503109410951095695479537952795CB
:10079000EC85FD853083EE85FF852083188EEC89FE
:1007A000FD891083EA89FB89808180618083EA89E1
:1007B000FB89808188608083EA89FB8980818068E9
:1007C0008083EA89FB8980818F7D8083DF91CF914F
:1007D0001F91FF90EF90DF90CF900895FC01A48DC2
:1007E000A80FB92FB11DA35ABF4F2C91848D90E053
:1007F00001968F739078848FA689B7892C93A089EE
:10080000B1898C91837080648C93938D848D9813BF
:1008100008950288F389E02D80818F7D8083F8CF51
:100820000F931F93CF93DF93EC0181E0888F9B8D13
:100830008C8D9817B1F0062F8B8D90E001968F73F9
:100840009078182F8C8D81131EC00FB607FCFACF3D
:10085000E889F989808185FFF5CFCE010E94EE03FA
:10086000F1CFE889F989808185FFE5CF9FB7F894BA
:10087000EE89FF896083E889F989808183708064CB
:1008800080839FBF10C0EB8DEC0FFD2FF11DE35A4D
:10089000FF4F00839FB7F8941B8FEA89FB89808103
:1008A000806280839FBF81E090E0DF91CF911F91B4
:1008B0000F910895CF93DF93EC01888D811104C0CF
:1008C0000DC00FB607FE0DC0EA89FB89808185FD4A
:1008D000F8CFA889B9898C9186FFF3CFDF91CF91AA
:1008E0000895808185FFF0CFE889F989808185FFAF
:1008F000EBCFCE010E94EE03E7CF80E090E0892BA2
:1009000021F00E948203811101C008950E9400001D
:10091000FCCF85EC8093BC0010925C02089581119D
:1009200004C085E88093BC00089585EC8093BC00EA
:10093000089590933502809334020895909339027C
:10094000809338020895AC0120913602260F332798
:10095000331F21323105F4F480915C028430E1F4DC
:1009600090E00FC0E0913602292F30E0E20FF32F24
:10097000F11D240F351FD9012C91EC5EFD4F208312
:100980009F5F961778F380913602680F6093360266
:1009900080E0089581E0089582E00895880F8093B3
:1009A000BA000895ECEBF0E080818A7B808360E000
:1009B00082E10E94E80060E083E10E94E80008957F
:1009C00010925C0281E080935E0210925D0261E011
:1009D00082E10E94E80061E083E10E94E800E9EB27
:1009E000F0E080818E7F808380818D7F808388E4AA
:1009F0008093B80085E48093BC000895EF92FF9245
:100A00000F931F93CF93DF9391E090931302811183
:100A100007C0DF91CF911F910F91FF90EF90089544
:100A2000C8EBD0E0F8800AEB10E0F801E0800E940B
:100A3000D2040E94E004F801E082F882EACF7093C9
:100A400001026093000208957093FF016093FE011C
:100A50000895E0910002F0910102309729F0109280
:100A6000FD011092FC0109950895CF93DF93EC01ED
:100A7000E091FE01F091FF013097E1F09091FB01D0
:100A80008091FA019817B0F090E0292F30E02617F6
:100A9000370754F4DE01A90FB11D4C9126523E4F89
:100AA000D9014C939F5FF1CFCB011092FB01609372
:100AB000FA010995DF91CF9108950895E091FB0126
:100AC0008091FA01E81730F4F0E0E652FE4F8081A1
:100AD00090E008958FEF9FEF08959091FB01809132
:100AE000FA01981758F4E92FF0E0E652FE4F208102
:100AF00030E09F5F9093FB01C90108952FEF3FEF16
:100B0000FBCF8091FA019091FB01891B990B08950D
:100B1000CF93DF93CB01C42FD52F642F0E94A30462
:100B20008C2F9D2FDF91CF910895CF93DF931F924C
:100B3000CDB7DEB7698361E0CE0101960E94A304C0
:100B400081E090E00F90DF91CF9108951092FB012A
:100B50001092FA011092FD011092FC010E94E00433
:100B600089E295E00E94990485E395E00E949E0445
:100B70000895CF93C62F0E94A6058C2F0E94CE0405
:100B8000CF9108950E94B9050895FC011382128245
:100B900088EE93E0A0E0B0E084839583A683B783DA
:100BA0008FE091E0918380830895019709F0089583
:100BB0006F3F7F4FE1F782E092E00E94C505F7CFDB
:100BC00090E080E008958F929F92AF92BF92CF9273
:100BD000DF92EF92FF920F931F93CF93DF93FC016D
:100BE000828193816817790708F04AC04A01AA24D4
:100BF000BB24D82DC32ED42EE52EFF24CC2D922F2E
:100C00008085882399F0A82FB0E08A9EE0018B9E12
:100C1000D00D1124CA9E8001CB9E100D1124C12F2E
:100C20002A9F80012B9F100D1124912FA685B3853B
:100C3000AB1799F101851285660F771F660F771F35
:100C4000600F711FC52EDD24EE24FF241C2D882388
:100C500021F08C9D90011124132FA60FB72FB11DE9
:100C60001C93A385A60FB72FB11DDC93A485A60FF7
:100C7000B72FB11DCC938585680F711DFB01908343
:100C8000DF91CF911F910F91FF90EF90DF90CF9068
:100C9000BF90AF909F908F900895418552859B01A2
:100CA000220F331F620F731F640F751FDACF0F936C
:100CB0001F93CF93DF93EC01162F072F8981882391
:100CC00021F08E819F819923F4F41E830F83898103
:100CD00081111DC0812F902FFC01EA57FF4FE49135
:100CE000F0E0EE0FFF1FEE58FF4F259134913C8B43
:100CF0002B8BFC01E656FF4FE491ED8BDF91CF91FA
:100D00001F910F91089560E00E941B01DECF61E00A
:100D1000812F0E941B0160E0812F0E94E800DACF42
:100D2000CF92DF92EF92FF920F931F93CF93DF93B7
:100D3000CDB7DEB729970FB6F894DEBF0FBECDBF93
:100D40008C01DC0119968D919C91892B79F471C0ED
:100D5000F801C784D088E188F2886C197D098E0972
:100D60009F096C3271408105910588F40E94090247
:100D7000F801C784D088E188F2886C157D058E055E
:100D80009F0530F76787708B818B928BE1CFF8944A
:100D9000D80114968D919C9115979A838983199601
:100DA000ED91FC91DF01119680818B83F8018081A8
:100DB000882309F44DC0E388F488F7019081F80195
:100DC0008589982B9C83F7019081809589238D8359
:100DD0008D81898788E088875C816D814B8138852A
:100DE000298589819A81508347FD252F3A95208353
:100DF000262F39F0441F00C000006083000000C0AF
:100E0000F2CF38E04D9160830000019761F7D8017F
:100E10005496FC93EE9353974B83388729879A8394
:100E2000898378940E940902F8016787708B818B0F
:100E3000928B29960FB6F894DEBF0FBECDBFDF911F
:100E4000CF911F910F91FF90EF90DF90CF90089579
:100E5000E388F488F7019081F8018589982B9C83B9
:100E6000F7019081809589238D838D818F8388E020
:100E70008E835C816D814B813E812F8189819A8136
:100E8000508347FD252F00C000C0208300C000C054
:100E900000C000C000C060830000262F3A9541F0DA
:100EA000441F000000C000C000C000C000C0E8CF68
:100EB00038E04D9100C0608300C0019709F7D80168
:100EC0005496FC93EE9353974B833E832F839A83E0
:100ED0008983A7CFCF93DF93EC018E819F819923E4
:100EE0003CF061E00E941B0160E08E810E94E800FE
:100EF00081E08983DF91CF9108950F931F93CF9362
:100F0000DF93EC018A81811161C060E088810E94D9
:100F1000E80082E090E00E94FE0161E088810E948A
:100F2000E8008AE090E00E94FE0160E088810E9473
:100F3000E8008A8181114FC00E9409026B837C8383
:100F40008D839E8389810E94BB00892B99F40E9426
:100F500009020B811C812D813E81601B710B820B6C
:100F6000930B0F81188529853A85061717072807DF
:100F7000390740F70E9409026B837C838D839E832F
:100F800089810E94BB00892B99F00E9409020B8184
:100F90001C812D813E81601B710B820B930B0F8195
:100FA000188529853A85061717072807390740F756
:100FB0000E9409020B811C812D813E81CB01801B87
:100FC000910BDF91CF911F910F91089561E088817E
:100FD0000E941B019ACF60E088810E941B01ACCF68
:100FE000CF93C62F0E947D076C2F70E00E94C01225
:100FF000CB0196958795CF910895CF92DF92EF928E
:10100000FF920F931F93CF93DF93EC01862F68011C
:1010100079016883498391E0641390E09A8361E0E9
:101020000E941B0160E089810E941B01CF82D8864B
:10103000E986FA86DF91CF911F910F91FF90EF9093
:10104000DF90CF9008950F931F93FC0140814C30A7
:1010500008F04DC0518128E830E0251B310957FDCB
:101060003395220F331F220F331F621773077CF053
:10107000828128E532E0281B310987FD3395220F54
:10108000331F220F331F261737070CF09B01C901AE
:101090000297092E000CAA0BBB0B880F991FAA1FE1
:1010A000BB1F880F991FAA1FBB1F8C019D01000F3A
:1010B000111F221F331F000F111F221F331FB5FDE9
:1010C00019C0689412F835952795179507951694C9
:1010D000D1F75FB7F894842F90E0FC01EE0FFF1F6B
:1010E000E80FF91FEA54FE4F128301835FBF1F917F
:1010F0000F910895095F1F4F2F4F3F4FE2CFAF92DF
:10110000BF92CF92DF92EF92FF920F931F93CF93F4
:10111000DF93EC01603282E078070CF041C0772366
:1011200034F0653B71052CF064EB70E002C070E0B8
:1011300060E08A8128E532E0281B310987FD33957C
:10114000220F331F220F331F89810F2EF8E8AF2E95
:10115000B12CF02DA81AB10887FDB394AA0CBB1CC2
:10116000AA0CBB1C0B2C000CCC08DD08072E000CB5
:10117000880B990B8901330F220B330B3F932F936D
:101180001F930F9314EBE12EF12C00E010E020E010
:1011900030E0A9010E9475020F900F900F900F9000
:1011A000CE010E942308DF91CF911F910F91FF90F4
:1011B000EF90DF90CF90BF90AF900895FC01909199
:1011C000B5019C3018F08FEF8083089581E0890F7E
:1011D0008093B5019083892F90E0FC01EE0FFF1FF3
:1011E000E80FF91FEA54FE4F88EB9BE0928381835E
:1011F0000895AC0190E09C30B8F49A01220F331F9F
:10120000240F351F220F331F220F331F290F311DCB
:10121000F901EE0FFF1FE20FF31FEA54FE4F80812A
:1012200086FD04C09F5FE7CF80E0089581E00895C8
:10123000892B89F41092800082E0809381001092C3
:1012400085001092840086B3826086BBEFE6F0E0F2
:101250008081826080830895DF92EF92FF920F93E6
:101260001F93CF93DF93EC01D62E7A0189018881F9
:101270008C3048F08881DF91CF911F910F91FF90C2
:10128000EF90DF90089561E08D2D0E941B01E881B1
:101290008E2F90E0FC01EE0FFF1FE80FF91FEA54BC
:1012A000FE4F8D2D8F73D0809D2D907CD92ED82A06
:1012B000D08220E232E02E193F09C901992354F16E
:1012C0009595879595958795898320E639E0201B2C
:1012D000310BC901992304F19595879595958795CB
:1012E0008A8388816CE00E94B412082F10E0C80144
:1012F0000E94F908882391F0E8818E2F90E0FC018C
:10130000EE0FFF1FE80FF91FEA54FE4F8081806443
:101310008083B0CF0396D4CF0396DECFC8010E945E
:101320001809EACF20E639E040E252E00E942C0999
:1013300008956CE180E891E00E94F00790935E01CF
:1013400080935D016CE185E791E00E94F007909346
:101350005C0180935B016CE18AE691E00E94F007FA
:1013600090935A01809359016CE18FE591E00E94BE
:10137000F00790935801809357010895CF93DF931E
:1013800080914B01813059F1823031F560915D01DE
:10139000C2E0D2E0E881F9810190F081E02DCE0138
:1013A000099560915B01E881F9810190F081E02D60
:1013B000CE01099560915901E881F9810190F08190
:1013C000E02DCE01099560915701E881F9810190E6
:1013D000F081E02DCE010995DF91CF9108958091A4
:1013E000470190914801A0914901B0914A01E3E47D
:1013F000F1E080838091470190914801A0914901DB
:10140000B0914A0191838091470190914801A09148
:101410004901B0914A01A28380914701909148010E
:10142000A0914901B0914A01B38344E050E0BF016B
:1014300082E092E00E948805CFCF80910001811167
:1014400027C08091520190915301A0915401B09115
:1014500055010197A109B10980935201909353015D
:10146000A0935401B0935501809147019091480198
:10147000A0914901B0914A010197A109B109809356
:10148000470190934801A0934901B0934A01089500
:101490008091520190915301A0915401B091550156
:1014A0000196A11DB11D8093520190935301A09309
:1014B0005401B09355018091470190914801A0914A
:1014C0004901B0914A010196A11DB11D80934701C8
:1014D00090934801A0934901B0934A010895CF9396
:1014E000DF93EB01DD2394F081E08093000161E064
:1014F00080E10E94E80060E081E10E94E800BE0116
:1015000085E00E945A01DF91CF9108951092000169
:1015100060E080E10E94E80061E081E10E94E80073
:10152000662777276C1B7D0B85E00E945A01EBCF65
:101530008F929F92AF92BF92CF92DF92EF92FF92E3
:101540000F931F93CF93DF93EC018A01CA01861B8F
:10155000970BBC01072E000C880B990B0E9484137B
:101560006B017C01CF82D886E986FA862AE939E9BF
:1015700049E95EE30E9439142B813C814D815E81F3
:101580000E94DB124B015C012B853C854D855E85FD
:10159000C701B6010E94DA1220E030E040E450E4D6
:1015A0000E9439149B01AC01C501B4010E94DB12F9
:1015B0004B015C0120E030E04FE753EC0E94471301
:1015C00088239CF020E030E04FE753E4C501B401EC
:1015D0000E94341418168CF40F2E812C912CFFE7E6
:1015E000AF2EF3E4BF2EF02D08C00F2E812C912CCE
:1015F000FFE7AF2EF3ECBF2EF02D8B829C82AD82E5
:10160000BE82CB86DC86ED86FE86012BA1F0C5016D
:10161000B4010E944C13CE010E946F0ADF91CF915A
:101620001F910F91FF90EF90DF90CF90BF90AF9000
:101630009F908F90089570E060E0CE010E946F0A45
:10164000EDCF0F931F93CF93DF930E942F02009152
:101650003D0110913E0120913F013091400106175C
:10166000170728073907A0F00E942F0200913D01BB
:1016700010913E0120913F0130914001061717075C
:1016800028073907B0F0DF91CF911F910F9108958E
:101690000E9499090E942F026B5F7F4F8F4F9F4FCF
:1016A00060933D0170933E0180933F019093400110
:1016B000DBCF60914E0170914F018091500190916C
:1016C0005101C0914101D09142010E944C13AE01E1
:1016D00081EA91E00E94980A0E942F02615F7F4F89
:1016E0008F4F9F4F60933D0170933E0180933F0168
:1016F00090934001C8CFCF93DF93FC01862FD42F66
:10170000C22F138214821582168260834183228342
:1017100061E00E941B0161E08D2F0E941B0161E0CE
:101720008C2F0E941B01DF91CF910895AF92BF9241
:10173000CF92DF92EF92FF920F931F93CF93DF939D
:10174000EC01653E8FEF780734F06C3171052CF0B9
:101750006BE170E002C065EE7FEF072E000C880B96
:10176000990B1F921F921F9223E42F930F2EFDE0DF
:10177000AF2EB12CC12CD12CF02D1BE1E12EF12C80
:1017800000E010E025EE3FEF4FEF5FEF0E947502A3
:101790000F900F900F900F90CE0101960E947F083E
:1017A000DF91CF911F910F91FF90EF90DF90CF903D
:1017B000BF90AF9008950F931F93CF93DF93EC01E9
:1017C0001CC082E092E00E946D05909342018093DC
:1017D000410182E092E00E946D0501974091410134
:1017E00050914201849F9001859F300D949F300D50
:1017F000112430934201209341011C161D0664F50B
:1018000082E092E00E946D0580934B012197833026
:10181000C1F2843059F0853081F782E092E00E9475
:101820006D05682F8EE00E94E800E7CF82E092E02D
:101830000E946D058C0182E092E00E946D05019787
:10184000809FB001819F700D909F700D112480EBDF
:1018500091E00E94960BD1CFDF91CF911F910F9114
:101860000895FC016191CF0170E00E9492090895F2
:101870001F93CF93DF93EC01162F01960E94DE0891
:101880001883DF91CF911F910895FC018FEF808322
:1018900012821182148613868FEF9FEFDC018783FB
:1018A0009087A187B2870895019709F008956F3F47
:1018B0007F4FE1F780E391E00E94450CF7CF85ED83
:1018C0008093BC0040910F02509110026091110270
:1018D00070911202495F5F4F6F4F7F4F689412F80B
:1018E00076956795579547951694D1F78091BC00EA
:1018F00084FF1FC080910F0290911002A0911102ED
:10190000B0911202892B8A2B8B2B81F34115510543
:101910006105710549F085E38A95F1F700004150B2
:10192000510961097109E2CF80910E020E94FE0403
:10193000089510925C020895FC014481558170E085
:1019400060E0818592850E94CB150895CF93DF9347
:1019500061E08EE00E941B0161E08EE00E94E800E1
:1019600060E082E00E941B0141E050E06DE17AE01E
:1019700080E00E94B60280EB91E00E94310C64E0AE
:1019800070E082E092E00E94C2056BED7BE082E0B5
:1019900092E00E9424056EEB79E082E092E00E94E2
:1019A0001F0526E040E052EC61E070E082E892E042
:1019B0000E948C038BE891E00E946A0764E670E065
:1019C00080E090E00E943D028BE891E00E949C0C38
:1019D000D0E0C0E0C830D10554F420E030E0A901E7
:1019E000BE018BE891E00E94E3052196F3CF8BE8DE
:1019F00091E00E94900670E060E080EB91E00E9430
:101A0000960BF8941092B000E1EBF0E01082808128
:101A100087608083E0E7F0E08081846080838FEFDF
:101A20008093B4007894DF91CF910895EF92FF9264
:101A30000F931F93CF93DF93EC017B0189859A85E8
:101A40000E9442159E858B859817E9F084E090E00E
:101A50008E9D80018F9D100D9E9D100D11241D8364
:101A60000C83C8010E94A6149A878987009771F495
:101A70001D821C821B821A82DF91CF911F910F91D0
:101A8000FF90EF90089583E090E0E2CFA80170E02E
:101A900060E00E94CB15FB82EA82EECFFC019685C6
:101AA000838531E0981330E0CB010024880F991F23
:101AB000001C880F991F001C892F902D282F237040
:101AC0002687CB01929582958F7089279F708927F1
:101AD00083708387AB01569547955695479543701C
:101AE0004487962F9370958791E06F3F710511F0B1
:101AF00008F090E0908341855285452B51F091E0AC
:101B0000281390E0391729F0CF01628173810E9478
:101B1000160D0895EF92FF920F931F93CF93DF93CB
:101B2000EC017B018A01198218861A8619861F86A4
:101B3000188A198A1A8AB9010E944E0DB701CE017E
:101B40000E94160DB801CE010E945706DF91CF9179
:101B50001F910F91FF90EF900895CF93DF93EC01C9
:101B600089859A850E9442158E819F8199231CF058
:101B700060E00E941B01DF91CF910895EF92FF92E8
:101B80000F931F93CF93DF93EC017B01019769F0D3
:101B9000CD2B21F4EF20E09409F449C0DF91CF91DF
:101BA0001F910F91FF90EF9008956F3F7F4F81F746
:101BB00069E080EB91E00E94380C21E140E165E0B2
:101BC00081EA91E00E947B0B22E531E04CE050E09D
:101BD00068E070E08BE891E00E948A0D00E117E276
:101BE00020E030E044E06BE080E891E00E94FD07F7
:101BF00000E117E220E030E048E063E085E791E0B3
:101C00000E94FD0700E117E220E030E046E067E0D7
:101C10008AE691E00E94FD0700E117E220E030E053
:101C20004FE06DE08FE591E00E94FD07B1CF8BE8BA
:101C300091E00E94AD0DB2CF6FEF7FEF81E090E0B9
:101C40000E940F036FEF7FEF81E090E00E94D505C7
:101C50006FEF7FEF81E090E00E94BE0D6FEF7FEFAE
:101C600081E090E00E94540C08951F920F920FB6ED
:101C70000F9211240F931F932F933F934F935F93D2
:101C80006F937F938F939F93AF93BF9300912003A4
:101C900010912103209122033091230390911F037F
:101CA000B901A8014F5F5F4F6F4F7F4F83E0890FEE
:101CB0008D3740F086E8890FB901A8014E5F5F4F6C
:101CC0006F4F7F4F80931F03409320035093210356
:101CD0006093220370932303809124039091250342
:101CE000A0912603B09127030196A11DB11D8093F9
:101CF000240390932503A0932603B0932703BF9159
:101D0000AF919F918F917F916F915F914F913F9193
:101D10002F911F910F910F900FBE0F901F9018954C
:101D20000E94C3010E94A60C0E94210B0E947D0408
:101D3000FBCF1F920F920FB60F9211242F933F9358
:101D40004F935F936F937F938F939F93AF93BF93C3
:101D5000EF93FF93E0910301F09104010995FF9146
:101D6000EF91BF91AF919F918F917F916F915F9113
:101D70004F913F912F910F900FBE0F901F9018958C
:101D80001F920F920FB60F9211242F933F934F93F0
:101D90005F936F937F938F939F93AF93BF93EF93D3
:101DA000FF93E0910101F09102010995FF91EF91FC
:101DB000BF91AF919F918F917F916F915F914F9163
:101DC0003F912F910F900FBE0F901F9018951F926B
:101DD0000F920FB60F9211242F933F934F935F935F
:101DE0006F937F938F939F93AF93BF93EF93FF93E3
:101DF00082E892E00E94EE03FF91EF91BF91AF91D4
:101E00009F918F917F916F915F914F913F912F9112
:101E10000F900FBE0F901F9018951F920F920FB644
:101E20000F9211242F938F939F93AF93BF93EF93B0
:101E3000FF93E0919202F0919302808182FD14C0A1
:101E4000E2E8F2E0A689B7892C91818D8F5F8F73CC
:101E5000928D891771F0DF01E18DF0E0EE57FD4FB3
:101E6000258F59968C9305C0E0919802F0919902C4
:101E70008081FF91EF91BF91AF919F918F912F91B1
:101E80000F900FBE0F901F9018951F920F920FB6D4
:101E90000F9211242F933F934F935F936F937F93F0
:101EA0008F939F93AF93BF93EF93FF93E091B9000C
:101EB000E87FE93C08F0D5C0F0E0EF59F04F0C9412
:101EC000D41226113110311031103110311031106F
:101ED00031102A1031103110311031103110311001
:101EE00031102A10311031103110311031103110F1
:101EF00031104210311031103110311031103110C9
:101F00003110681031103110311031103110311092
:101F100031104210311031103110311031103110A8
:101F200031106E103110311031103110311031106C
:101F30003110741031103110311031103110311056
:101F40003110861031103110311031103110311034
:101F50003110B010311031103110311031103110FA
:101F600031107A1031103110311031103110311020
:101F700031109410311031103110311031103110F6
:101F80003110B310311031103110311031103110C7
:101F90003110B310311031103110311031103110B7
:101FA0003110B310311031103110311031103110A7
:101FB0003110B31031103110311031103110311097
:101FC0003110BC103110311031103110311031107E
:101FD0003110ED103110311031103110311031103D
:101FE0003110BC103110311031103110311031105E
:101FF0003110ED103110311031103110311031101D
:102000003110D41031103110311031103110311025
:102010003110F110311031103110311031103110F8
:102020003110F110311031103110311031103110E8
:1020300031100611311031103110311031103110C2
:102040003110201131103110311031103110311098
:1020500031102011809181028093BB0081E00E94A9
:102060008F04FF91EF91BF91AF919F918F917F91DD
:102070006F915F914F913F912F910F900FBE0F90F5
:102080001F9018959091800280917F02981768F0B8
:1020900080915E02811119C081E080935D0284EA23
:1020A0008093BC0010925C02DCCFE091800281E062
:1020B0008E0F80938002F0E0E15AFD4F8081809383
:1020C000BB0081E00E948F04CCCF0E945F0CC9CF7F
:1020D00080E280935B020E945F0CC3CF80E3809319
:1020E0005B020E945F0CBDCF88E380935B020E947D
:1020F0008904B7CFE091800281E08E0F8093800247
:10210000F0E08091BB00E15AFD4F80839091800206
:1021100080917F02981720F481E00E948F04A1CF64
:1021200080E00E948F049DCFE091800281E08E0FBD
:1021300080938002F0E08091BB00E15AFD4F8083E4
:1021400080915E02811109C081E080935D0284EA82
:102150008093BC0010925C0284CF0E945F0C81CF00
:102160000E945F0C7ECF83E080935C0210925A0243
:1021700081E00E948F0475CF80915A02803280F4F2
:10218000E0915A0281E08E0F80935A02F0E0809134
:10219000BB00E65CFD4F808381E00E948F0461CF2D
:1021A00080E00E948F045DCF0E94890480915A02D2
:1021B000803230F4E0915A02F0E0E65CFD4F10828C
:1021C00060915A0270E0E0913802F09139028AE39E
:1021D00092E0099510925A0244CF80E00E948F0449
:1021E00040CF84E080935C02109237021092360256
:1021F000E0913402F0913502099580913602811107
:1022000005C081E08093360210921402E0913702FB
:1022100081E08E0F80933702F0E0EC5EFD4F80810D
:102220008093BB009091370280913602981720F47A
:1022300081E00E948F0415CF80E00E948F0411CFAF
:1022400081E00E948F0410925C020BCF10925B021F
:102250000E945F0C06CF1F920F920FB60F921124AF
:102260002F933F934F935F936F937F938F939F939E
:10227000AF93BF93EF93FF938091B401882364F1F0
:102280008091B401082E000C990B2091B5012817FC
:10229000190631F12CF1E091B4018E2FEE0F990B5C
:1022A000FC01EE0FFF1FE80FF91FEA54FE4F80817B
:1022B00086FF16C0E091B4018E2FEE0F990BFC0142
:1022C000EE0FFF1FE80FF91FEA54FE4F808160E018
:1022D0008F730E94E80004C0109285001092840061
:1022E0008091B4018F5F8093B4018091B401082E76
:1022F000000C990B2091B5012817190629F024F03C
:102300008091B4018C309CF0809184009091850084
:10231000049680349C4908F443C0809184009091D5
:102320008500049690938900809388003FC0209197
:10233000840030918500E091B4018E2FEE0F990B4F
:10234000FC01EE0FFF1FE80FF91FEA54FE4F8181D9
:102350009281820F931F9093890080938800E0916F
:10236000B4018E2FEE0F990BFC01EE0FFF1FE80F4B
:10237000F91FEA54FE4F808186FF1BC0E091B40133
:102380008E2FEE0F990BFC01EE0FFF1FE80FF91FC8
:10239000EA54FE4F808161E08F730E94E80009C01B
:1023A00080E49CE990938900809388008FEF80936C
:1023B000B401FF91EF91BF91AF919F918F917F9168
:1023C0006F915F914F913F912F910F900FBE0F90A2
:1023D0001F9018956FEF7FEF90E080E00E94BE0D98
:1023E00008951F920F920FB60F9211242F933F93CF
:1023F0004F935F936F937F938F939F93AF93BF930D
:10240000EF93FF9380915601811114C081E0809376
:102410005601FF91EF91BF91AF919F918F917F9165
:102420006F915F914F913F912F910F900FBE0F9041
:102430001F90189560915201709153018091540141
:10244000909155010E94841360934E0170934F0147
:1024500080935001909351018091520190915301CA
:10246000A0915401B091550120914C0130914D0142
:10247000820F931F90934D0180934C011092520153
:10248000109253011092540110925501109256016E
:10249000C0CF052E97FB1EF400940E94601257FDDA
:1024A00007D00E94731207FC03D04EF40C94601204
:1024B00050954095309521953F4F4F4F5F4F089570
:1024C00090958095709561957F4F8F4F9F4F0895A0
:1024D0000E949512A59F900DB49F900DA49F800D12
:1024E000911D11240895A1E21A2EAA1BBB1BFD0108
:1024F0000DC0AA1FBB1FEE1FFF1FA217B307E407E3
:10250000F50720F0A21BB30BE40BF50B661F771F3A
:10251000881F991F1A9469F760957095809590951A
:102520009B01AC01BD01CF010895A29FB001B39FF3
:10253000C001A39F700D811D1124911DB29F700DCC
:10254000811D1124911D0895DB018F939F930E949B
:102550006812BF91AF91A29F800D911DA39F900D16
:10256000B29F900D11240895991B79E004C0991F22
:10257000961708F0961B881F7A95C9F780950895DD
:10258000AA1BBB1B51E107C0AA1FBB1FA617B70799
:1025900010F0A61BB70B881F991F5A95A9F78095B5
:1025A0009095BC01CD010895EE0FFF1F0590F491A9
:1025B000E02D09945058BB27AA270E94F2120C94D0
:1025C000FA130E94EC1338F00E94F31320F039F450
:1025D0009F3F19F426F40C94E9130EF4E095E7FB01
:1025E0000C94E313E92F0E940B1458F3BA176207F7
:1025F00073078407950720F079F4A6F50C942D1441
:102600000EF4E0950B2EBA2FA02D0B01B90190010D
:102610000C01CA01A0011124FF27591B99F0593F51
:1026200050F4503E68F11A16F040A22F232F342F99
:102630004427585FF3CF469537952795A795F040E7
:102640005395C9F77EF41F16BA0B620B730B840BFC
:10265000BAF09150A1F0FF0FBB1F661F771F881FB4
:10266000C2F70EC0BA0F621F731F841F48F487950C
:1026700077956795B795F7959E3F08F0B0CF9395FE
:10268000880F08F09927EE0F9795879508950E9477
:10269000BF1308F481E008950E9453136894B111A8
:1026A0000C942E1408950E94131488F09F5798F0EC
:1026B000B92F9927B751B0F0E1F0660F771F881F47
:1026C000991F1AF0BA95C9F714C0B13091F00E9461
:1026D0002D14B1E008950C942D14672F782F8827BE
:1026E000B85F39F0B93FCCF3869577956795B39588
:1026F000D9F73EF490958095709561957F4F8F4FF7
:102700009F4F0895E89409C097FB3EF490958095FB
:10271000709561957F4F8F4F9F4F9923A9F0F92FA7
:1027200096E9BB279395F695879577956795B79525
:10273000F111F8CFFAF4BB0F11F460FF1BC06F5F0B
:102740007F4F8F4F9F4F16C0882311F096E911C01D
:10275000772321F09EE8872F762F05C0662371F03E
:1027600096E8862F70E060E02AF09A95660F771F52
:10277000881FDAF7880F9695879597F90895990F2E
:102780000008550FAA0BE0E8FEEF16161706E8073B
:10279000F907C0F012161306E407F50798F0621B5C
:1027A000730B840B950B39F40A2661F0232B242B31
:1027B000252B21F408950A2609F4A140A6958FEF50
:1027C000811D811D089597F99F6780E870E060E0A2
:1027D00008959FEF80EC089500240A9416161706BA
:1027E00018060906089500240A9412161306140602
:1027F00005060895092E0394000C11F4882352F065
:10280000BB0F40F4BF2B11F460FF04C06F5F7F4F1C
:102810008F4F9F4F089557FD9058440F551F59F003
:102820005F3F71F04795880F97FB991F61F09F3FBD
:1028300079F087950895121613061406551FF2CFE6
:102840004695F1DF08C0161617061806991FF1CF36
:1028500086957105610508940895E894BB2766275D
:102860007727CB0197F908950E94BF1308F48FEFE3
:1028700008950E944C140C94FA130E94EC1338F043
:102880000E94F31320F0952311F00C94E3130C94A1
:10289000E91311240C942E140E940B1470F3959FCD
:1028A000C1F3950F50E0551F629FF001729FBB2747
:1028B000F00DB11D639FAA27F00DB11DAA1F649FE3
:1028C0006627B00DA11D661F829F2227B00DA11D96
:1028D000621F739FB00DA11D621F839FA00D611D1C
:1028E000221F749F3327A00D611D231F849F600D3D
:1028F000211D822F762F6A2F11249F5750409AF066
:10290000F1F088234AF0EE0FFF1FBB1F661F771FF1
:10291000881F91505040A9F79E3F510580F00C94BC
:10292000E3130C942E145F3FE4F3983ED4F38695A2
:1029300077956795B795F795E7959F5FC1F7FE2B5C
:10294000880F911D9695879597F908950F931F937A
:10295000CF93DF938230910510F482E090E0E09114
:102960002A03F0912B0330E020E0B0E0A0E03097A4
:1029700099F42115310509F44AC0281B390B24307C
:102980003105D8F58A819B816115710589F1FB01BB
:1029900093838283FE0111C04081518102811381A2
:1029A00048175907E0F04817590799F4109761F054
:1029B00012960C93129713961C933296CF01DF91C7
:1029C000CF911F910F91089500932A0310932B0329
:1029D000F4CF2115310551F04217530738F0A90102
:1029E000DB019A01BD01DF01F801C1CFEF01F9CF91
:1029F00090932B0380932A03CDCFFE01E20FF31FA8
:102A0000819391932250310939832883D7CF209124
:102A1000280330912903232B41F4209107013091A1
:102A20000801309329032093280320910501309158
:102A300006012115310541F42DB73EB7409109013A
:102A400050910A01241B350BE0912803F0912903D2
:102A5000E217F307A0F42E1B3F0B2817390778F075
:102A6000AC014E5F5F4F2417350748F04E0F5F1FD4
:102A70005093290340932803819391939FCFF0E0D3
:102A8000E0E09CCFCF93DF930097E9F0FC01329711
:102A900013821282A0912A03B0912B03ED0130E042
:102AA00020E01097A1F420813181820F931F2091A3
:102AB0002803309129032817390709F061C0F093E2
:102AC0002903E0932803DF91CF910895EA01CE17FF
:102AD000DF07E8F54A815B819E0141155105B1F799
:102AE000E901FB83EA8349915991C40FD51FEC1783
:102AF000FD0761F4808191810296840F951FE901A1
:102B000099838883828193819B838A83F0E0E0E0CC
:102B100012968D919C9113970097B9F52D913C9148
:102B20001197CD010296820F931F209128033091B7
:102B300029032817390739F6309751F510922B03DE
:102B400010922A03B0932903A0932803BCCFD38308
:102B5000C28340815181840F951FC817D90761F442
:102B60004E5F5F4F88819981480F591F5183408381
:102B70008A819B81938382832115310509F0B0CF2F
:102B8000F0932B03E0932A039ECFFD01DC01C0CF1D
:102B900013821282D7CFDC0101C06D9341505040A7
:102BA000E0F7089510E0C2E6D0E004C0FE010E9404
:0E2BB000D4122196C336D107C9F7F894FFCF8F
:102BBE0001DE02DE0200002C038000000000009502
:102BCE00058805E0055D0581056D055E05000000C3
:102BDE00001004DF0242035A047503530367030017
:00000001FF
