:100000000C9463000C9401080C94DA070C948B0098
:100010000C948B000C948B000C948B000C948B0034
:100020000C945B0A0C948B000C948B000C949F092D
:100030000C948B000C948B000C948B000C948B0014
:100040000C9490070C948B000C944E080C94280888
:100050000C948B000C948B000C948B000C948B00F4
:100060000C9480080C948B000000000024002700F2
:100070002A000000000023002600290000000008DC
:10008000000201000003040700000000000000005F
:10009000010204081020408001020408102001021F
:1000A0000408102000000000250028002B00040494
:1000B0000404040404040202020202020303030310
:1000C0000303A10A340F11241FBECFEFD8E0DEBF17
:1000D000CDBF11E0A0E0B1E0E4EAF5E202C0059096
:1000E0000D92A434B107D9F723E0A4E4B1E001C034
:1000F0001D92A734B207E1F710E0C2E6D0E004C0D9
:100100002197FE010E94C70FC136D107C9F70E948F
:100110001D0C0C94C5120C9400004F925F926F92CC
:100120007F928F929F92AF92BF92FF9220910D0388
:1001300030910E038217930708F043C02B01662409
:100140007724852E962EA72EBB24B82DA42F209180
:100150001303F42C222391F0E22FF0E0E49DD00170
:10016000E59DB00DF49DB00D1124FB2E289D40019E
:100170001124B92D249F90011124A32FE09119037C
:10018000209114033091150350911603E51323C0F9
:10019000FC01EE0FFF1F8E0F9F1F820F931FE09138
:1001A0001603E80FF92FF11DF082E0911703E80F15
:1001B000F92FF11DB08320911803820F911DFC01CE
:1001C000A083FF90BF90AF909F908F907F906F9093
:1001D0005F904F900895880F991F880F991F820F85
:1001E000931FE80FF92FF11D1082D9CF8F929F92A4
:1001F000AF92BF92FF920F931F93CF93DF939C0117
:10020000990F440B550B2C593F4F4F4F5F4FA1E3B4
:10021000B0E00E94630F28EC30E040E050E00E9424
:10022000440FDA01C9018A5B9F4FAF4FBF4F86343D
:1002300091050CF063C086E490E0909332038093C4
:100240003103A6E4B0E0F09033038BE08F1508F49F
:100250004BC08091350308E512E0081B110987FDAA
:100260001395000F111F000F111F80913403C8E870
:10027000D0E0C81BD10987FDD395CC0FDD1FCC0F73
:10028000DD1F4E010D2E000CAA08BB089801012E9F
:10029000000C440B550B281939094A095B090E94C7
:1002A0006E0F24EB30E040E050E00E94440F820EDD
:1002B000931EA41EB51E8C169D062CF0E801801618
:1002C00091060CF4E4012297CC0FDD1F2FB7F894B0
:1002D0008F2D90E0FC01EE0FFF1FE80FF91FE65491
:1002E000FD4FD283C1832FBFDF91CF911F910F911B
:1002F000FF90BF90AF909F908F900895DC0188375A
:10030000910514F0A7E7B0E0B0933203A093310356
:100310009ACF833081F028F4813099F08230A9F0AF
:1003200008958730A9F08830C9F08430B1F4809105
:1003300080008F7D03C0809180008F778093800044
:10034000089584B58F7784BD089584B58F7DFBCFE4
:100350008091B0008F778093B00008958091B000B5
:100360008F7DF9CFCF93DF93282F30E0F901E45848
:10037000FF4F8491F901E057FF4FD491F901E25505
:10038000FF4FC491CC23A1F081110E948901EC2F71
:10039000F0E0EE0FFF1FEE58FF4FA591B491EC91E6
:1003A000ED2381E090E009F480E0DF91CF910895A2
:1003B00080E090E0FACF1F93CF93DF93282F30E0B7
:1003C000F901E458FF4F8491F901E057FF4FD491B0
:1003D000F901E255FF4FC491CC23A9F0162F8111EA
:1003E0000E948901EC2FF0E0EE0FFF1FEC55FF4F4C
:1003F000A591B4918FB7F894EC91111108C0D095E4
:10040000DE23DC938FBFDF91CF911F910895DE2B08
:10041000F8CFCF93DF9390E0FC01E057FF4F24919A
:1004200082559F4FFC0184918823D1F090E0880F82
:10043000991FFC01E859FF4FA591B491FC01EC55BF
:10044000FF4FC591D49161110EC09FB7F8948C9164
:10045000E22FE0958E238C932881E223E8839FBFCF
:10046000DF91CF9108958FB7F894EC91E22BEC9344
:100470008FBFF6CF1F93CF93DF93182FEB0161E06F
:100480000E940902209739F460E0812FDF91CF911B
:100490001F910C94DB01CF3FD10511F461E0F5CF42
:1004A000E12FF0E0E458FF4FE491E33031F140F404
:1004B000E130B1F0E230E1F0C038D1057CF7E4CFB3
:1004C000E73029F1E83059F1E430B1F7809180004C
:1004D000806280938000D0938B00C0938A0004C018
:1004E00084B5806884BDC7BDDF91CF911F91089509
:1004F00084B5806284BDC8BDF7CF809180008068DC
:1005000080938000D0938900C0938800EDCF8091C4
:10051000B00080688093B000C093B300E5CF8091B5
:10052000B00080628093B000C093B400DDCF3FB7CD
:10053000F89480910D0290910E02A0910F02B0915B
:10054000100226B5A89B05C02F3F19F00196A11DEA
:10055000B11D3FBFBA2FA92F982F8827BC01CD010D
:10056000620F711D811D911D42E0660F771F881F6C
:10057000991F4A95D1F708950F931F93CF93DF9357
:10058000CDB7DEB729970FB6F894DEBF0FBECDBF4B
:100590008091140390911503892B09F47CC00E946B
:1005A000970200911A0310911B0320911C033091B4
:1005B0001D03601771078207930740F460931A03C5
:1005C00070931B0380931C0390931D0300911A03E7
:1005D00010911B0320911C0330911D03601B710BB4
:1005E000820B930B6C32714081059105C0F2F89437
:1005F00080910F03909110039A838983E0911403F3
:10060000F0911503DF0111968081898790910B038A
:10061000E0911E03F0911F0380912003992309F4B8
:1006200045C09081982B98879081809589238F83EE
:100630008F818C8388E08B8358856F8149853B81CE
:100640002C8189819A81508347FD252F3A952083FB
:10065000262F39F0441F00C000006083000000C056
:10066000F2CF38E04D9160830000019761F7F0937D
:100670001F03E0931E0349873B832C839A8389835E
:1006800078940E94970260931A0370931B038093DF
:100690001C0390931D0329960FB6F894DEBF0FBE7E
:1006A000CDBFDF91CF911F910F9108959081982B2D
:1006B00098879081809589238F838F818E8388E0AE
:1006C0008D8358856F8149853D812E8189819A81ED
:1006D000508347FD252F00C000C0208300C000C00C
:1006E00000C000C000C060830000262F3A9541F092
:1006F000441F000000C000C000C000C000C0E8CF20
:1007000038E04D9100C0608300C0019709F7F09375
:100710001F03E0931E0349873D832E83AFCF8F9243
:100720009F92AF92BF92CF92DF92EF92FF924B01D6
:100730005C010E9497026B017C010E9497026C1978
:100740007D098E099F09683E734081059105A8F3D4
:1007500021E0821A9108A108B10888EEC80E83E052
:10076000D81EE11CF11C81149104A104B10429F7E5
:10077000FF90EF90DF90CF90BF90AF909F908F90C1
:100780000895E091ED01F091EE01309729F010927B
:10079000E8011092E70109940895CF93DF93AC012B
:1007A000E091EB01F091EC013097F1F09091EA01CA
:1007B0008091E9019817C0F090E0292F30E02617CA
:1007C000370754F4D901AD5ABE4F240F351FE90144
:1007D00028812C939F5FF1CF1092EA016093E90189
:1007E000CB01DF91CF910994DF91CF9108950895C6
:1007F000AF92BF92CF92DF92EF92FF920F931F932F
:10080000CF93DF936C017B018B01040F151FEB016C
:100810005E01AE18BF08C017D10759F06991D60123
:10082000ED91FC910190F081E02DC6010995892B95
:1008300079F7C501DF91CF911F910F91FF90EF9054
:10084000DF90CF90BF90AF900895FC01538D448D01
:10085000252F30E0842F90E0821B930B541710F06B
:10086000CF96089501970895FC01918D828D981778
:1008700061F0A28DAE0FBF2FB11D5D968C91928D50
:100880009F5F9F73928F90E008958FEF9FEF089581
:10089000FC01918D828D981731F0828DE80FF11D4A
:1008A000858D90E008958FEF9FEF0895FC01918D65
:1008B000228D892F90E0805C9F4F821B91098F735E
:1008C0009927089581E192E00E94560421E0892B46
:1008D00009F420E0822F089580E090E0892B29F030
:1008E0000E94620481110C9400000895FC01A48D03
:1008F000A80FB92FB11DA35ABF4F2C91848D90E042
:1009000001968F739927848FA689B7892C93A08924
:10091000B1898C91837080648C93938D848D9813AE
:1009200006C00288F389E02D80818F7D8083089541
:10093000EF92FF920F931F93CF93DF93EC0181E02F
:10094000888F9B8D8C8D98131AC0E889F9898081D6
:1009500085FF15C09FB7F894EE89FF896083E88909
:10096000F98980818370806480839FBF81E090E0FB
:10097000DF91CF911F910F91FF90EF900895F62E88
:100980000B8D10E00F5F1F4F0F731127E02E8C8D22
:100990008E110CC00FB607FCFACFE889F989808167
:1009A00085FFF5CFCE010E947604F1CFEB8DEC0FE1
:1009B000FD2FF11DE35AFF4FF0829FB7F8940B8F84
:1009C000EA89FB8980818062CFCFCF93DF93EC01EE
:1009D000888D8823B9F0AA89BB89E889F9898C9127
:1009E00085FD03C0808186FD0DC00FB607FCF7CFE3
:1009F0008C9185FFF2CF808185FFEDCFCE010E94E3
:100A00007604E9CFDF91CF91089520919901260FC7
:100A10003327331F21323105ECF42091BD01FC0155
:100A200090E080E0243069F082E00895A09199017F
:100A30002191AC0147585E4FA40FB52FB11D2C93E7
:100A40000196861798F380919901680F6093990138
:100A500080E0089581E008951092BD0181E08093C7
:100A6000BF011092BE0161E082E10E94DB0161E002
:100A700083E10E94DB01E9EBF0E080818E7F8083DF
:100A800080818D7F808388E48093B80085E48093A3
:100A9000BC0008950895E091EA018091E901E8170A
:100AA00030F4F0E0ED5AFE4F808190E008958FEF32
:100AB0009FEF08959091EA018091E9012FEF3FEFB8
:100AC000981748F4E92FF0E0ED5AFE4F208130E00E
:100AD0009F5F9093EA01C90108958091E901909187
:100AE000EA01891B990B0895CF93DF93CB01EA01AB
:100AF000642F0E940505CE01DF91CF910895CF9319
:100B0000DF931F92CDB7DEB7698361E0CE01019616
:100B10000E94050581E090E00F90DF91CF9108954C
:100B2000682F8EEA92E00C947F0590E080E00895B3
:100B30000F931F93CF93DF93EC018A81882321F0D9
:100B400061E088810E94090260E088810E94DB01E7
:100B500083E090E00197F1F761E088810E94DB017A
:100B600083E290E00197F1F760E088810E94DB0169
:100B70008A81882321F060E088810E9409020E9416
:100B800097026B837C838D839E8389810E94B2014F
:100B9000892B99F40E9497020B811C812D813E8143
:100BA000601B710B820B930B0F81188529853A8589
:100BB000061717072807390740F70E9497026B832B
:100BC0007C838D839E8389810E94B201892B99F059
:100BD0000E9497020B811C812D813E81601B710B4D
:100BE000820B930B0F81188529853A850617170705
:100BF0002807390740F70E9497022B813C81CB01DF
:100C0000821B930BDF91CF911F910F9108958091DB
:100C10004C01813081F58091480190914901A0916A
:100C20004A01B0914B018093440180914801909119
:100C30004901A0914A01B0914B01909345018091E7
:100C4000480190914901A0914A01B0914B01A093B4
:100C500046018091480190914901A0914A01B091CB
:100C60004B01B093470144E050E064E471E08EEA48
:100C700092E00C9474058230C1F48091F50190915A
:100C8000F6010E9490058091F3019091F4010E9479
:100C900090058091F1019091F2010E949005809160
:100CA000EF019091F0010C9490050895282F30E009
:100CB000861307C040E050E06FE070E0C9010C947B
:100CC0008D00862F90E0BC01621B730B649F900126
:100CD000659F300D749F300D11242F3F320729F48A
:100CE00040E050E068E070E0EACF2E3F4FEF34077D
:100CF00029F440E050E064E070E0E1CF2D3F3F4F49
:100D0000C1F340E050E0BA01DACF809104018823BA
:100D100039F180914D0190914E01A0914F01B09118
:100D200050010196A11DB11D80934D0190934E017C
:100D3000A0934F01B09350018091480190914901D7
:100D4000A0914A01B0914B010196A11DB11D809364
:100D5000480190934901A0934A01B0934B01089533
:100D600080914D0190914E01A0914F01B0915001A1
:100D70000197A109B10980934D0190934E01A09371
:100D80004F01B09350018091480190914901A09189
:100D90004A01B0914B010197A109B109D8CFEF9257
:100DA000FF920F931F93CF93DF938C0185E8E82E7A
:100DB00086E0F82E101611060CF054C08EEA92E070
:100DC0000E945A0580934C01015011098330B9F4F7
:100DD0008EEA92E00E945A05EC019093FF01809305
:100DE000FE018EEA92E00E945A05892B19F7D195EF
:100DF000C195D109D093FF01C093FE01DBCF8430B0
:100E000091F48EEA92E00E945A05EC018EEA92E09B
:100E10000E945A05892B19F4D195C195D109CE01AB
:100E20000E94F600C7CF853029F68EEA92E00E9434
:100E30005A05EC01019779F461E08EE00E94DB0134
:100E4000F0920101E0920001809169008C7F816045
:100E500080936900E89A81E0CD2B09F480E08093CB
:100E6000F901A8CFDF91CF911F910F91FF90EF90E3
:100E70000895CF93DF9385ED8093BC008091750139
:100E800090917601A0917701B09178010796A11D0C
:100E9000B11D23E0B695A795979587952A95D1F72B
:100EA0002091BC0024FD03C01092BD0136C04091CA
:100EB0007501509176016091770170917801452B11
:100EC000462B472B69F30097A105B10541F025E3B7
:100ED0002A95F1F700000197A109B109E1CF8091AE
:100EE000740191E0909373018823B9F0C091B80028
:100EF000D091BA008091BC008A7B8093BC0060E0F6
:100F000082E10E94DB0160E083E10E94DB010E943C
:100F10002C05D093BA00C093B800DF91CF9108950B
:100F20001F920F920FB60F9211242F933F938F931E
:100F30009F93AF93BF938091090290910A02A09171
:100F40000B02B0910C023091080223E0230F2D37E1
:100F500058F50196A11DB11D209308028093090246
:100F600090930A02A0930B02B0930C0280910D02A1
:100F700090910E02A0910F02B09110020196A11D56
:100F8000B11D80930D0290930E02A0930F02B093B7
:100F90001002BF91AF919F918F913F912F910F9030
:100FA0000FBE0F901F90189526E8230F0296A11DE3
:100FB000B11DD2CF1F920F920FB60F9211242F9313
:100FC0003F934F935F936F937F938F939F93AF93D1
:100FD000BF93EF93FF93E0910201F0910301099514
:100FE000FF91EF91BF91AF919F918F917F916F9101
:100FF0005F914F913F912F910F900FBE0F901F90D7
:1010000018951F920F920FB60F9211242F933F93B2
:101010004F935F936F937F938F939F93AF93BF9300
:10102000EF93FF93E0910001F09101010995FF9189
:10103000EF91BF91AF919F918F917F916F915F9150
:101040004F913F912F910F900FBE0F901F901895C9
:101050001F920F920FB60F9211242F933F934F932D
:101060005F936F937F938F939F93AF93BF93EF9310
:10107000FF9381E192E00E947604FF91EF91BF918E
:10108000AF919F918F917F916F915F914F913F9120
:101090002F910F900FBE0F901F9018951F920F92D7
:1010A0000FB60F9211242F938F939F93EF93FF937B
:1010B000E0912102F09122028081E0912702F091DB
:1010C000280282FD1BC0908180912A028F5F8F735E
:1010D00020912B02821741F0E0912A02F0E0EF5EAE
:1010E000FD4F958F80932A02FF91EF919F918F91F1
:1010F0002F910F900FBE0F901F9018958081F4CF05
:101100001F920F920FB60F9211242F933F934F937C
:101110005F936F937F938F939F93AF93BF93EF935F
:10112000FF938091B900887F803609F44AC0F0F5BA
:10113000883209F4A7C018F5803109F49BC0B8F4CF
:10114000882309F4F9C0883009F494C0FF91EF9125
:10115000BF91AF919F918F917F916F915F914F91CF
:101160003F912F910F900FBE0F901F9018958831CF
:1011700009F488C0803251F78093BC0114C08034D8
:1011800009F49DC040F48033B9F38833F9F68093B5
:10119000BC0185ECB0C0803509F485C0883509F400
:1011A00096C0883499F60E943907D0CF883909F45F
:1011B0008CC038F5883729F050F4883611F0803724
:1011C00029F683E08093BD011092BB0157C0883897
:1011D00009F47BC0803919F0803809F0B7CF8091CD
:1011E000BB01803208F071C0E091BB0181E08E0F3D
:1011F0008093BB018091BB00F0E0E556FE4F8083F9
:101200003DC0803B39F0E0F4803A09F479C0883A77
:1012100009F09CCF84E08093BD0110929A01109256
:101220009901E091E501F091E6010995809199011C
:1012300081110FC081E0809399011092790109C05A
:10124000803C09F4A6CF883C09F4A3CF883B09F081
:101250007DCFE0919A0181E08E0F80939A01F0E0BA
:10126000E758FE4F80818093BB0090919A01809156
:10127000990129C08091E2018093BB0085EC8093A5
:10128000BC0064CF9091E1018091E001981758F57E
:10129000E091E10181E08E0F8093E101F0E0E05404
:1012A000FE4F8081E9CFE091E10181E08E0F8093D4
:1012B000E1018091BB00F0E0E054FE4F808390910B
:1012C000E1018091E0019817C8F285E8D8CFE0915C
:1012D000E10181E08E0F8093E1018091BB00F0E09D
:1012E000E054FE4F80838091BF0181115CCF81E08B
:1012F0008093BE0184EA8093BC001092BD0126CF8A
:1013000085EC8093BC001092BD018091BB018032BE
:1013100030F4E091BB01F0E0E556FE4F10826091A1
:10132000BB0170E0E091E301F091E4018BE991E011
:1013300009951092BB010ACF1092BC0134CF1F92C5
:101340000F920FB60F9211242F933F934F935F93F9
:101350006F937F938F939F93AF93BF93CF93DF93BD
:10136000EF93FF9380915201C091DE02D0E087FF9E
:1013700024C01092850010928400809152018F5FEA
:101380008093520180915201082E000C990B8C170A
:101390009D0724F4809152018C30C4F18091840027
:1013A00090918500049680349C4908F47AC080911D
:1013B000840090918500049676C080915201082E99
:1013C000000C990B8C179D07C4F6E09152018E2FEB
:1013D000EE0F990BFC01EE0FFF1FE80FF91FE6540B
:1013E000FD4F808186FFC9CFE09152018E2FEE0F15
:1013F000990BFC01EE0FFF1FE80FF91FE654FD4F9C
:10140000808160E08F730E94DB01B7CF2091840060
:1014100030918500E09152018E2FEE0F990BFC0167
:10142000EE0FFF1FE80FF91FE654FD4F81819281F7
:10143000820F931F9093890080938800E09152015E
:101440008E2FEE0F990BFC01EE0FFF1FE80FF91F17
:10145000E654FD4F808186FF11C0E09152018E2F2E
:10146000EE0F990BFC01EE0FFF1FE80FF91FE6547A
:10147000FD4F808161E08F730E94DB01FF91EF914E
:10148000DF91CF91BF91AF919F918F917F916F919C
:101490005F914F913F912F910F900FBE0F901F9032
:1014A000189580E49CE990938900809388008FEFE1
:1014B00080935201E3CF1F920F920FB60F92112427
:1014C0002F933F934F935F936F937F938F939F934C
:1014D000AF93BF93EF93FF9380915101882369F1FC
:1014E00060914D0170914E0180914F01909150019A
:1014F0000E9477106093FA017093FB018093FC01C6
:101500009093FD0110924D0110924E0110924F01E7
:101510001092500110925101FF91EF91BF91AF9144
:101520009F918F917F916F915F914F913F912F91FB
:101530000F900FBE0F901F90189581E0809351017E
:10154000EBCFCF92DF92EF92FF92109214021092A3
:10155000130288EE93E0A0E0B0E080931502909330
:101560001602A0931702B093180221E131E03093E4
:1015700012022093110225EC30E030931E022093DA
:101580001D0224EC30E03093200220931F0220EC57
:1015900030E0309322022093210221EC30E030939E
:1015A00024022093230222EC30E030932602209381
:1015B000250226EC30E03093280220932702109277
:1015C0002A0210922B0210922C0210922D021092DD
:1015D000B1021092B0028093B2029093B302A09332
:1015E000B402B093B50283E291E09093AF0280938E
:1015F000AE0210923203109231038091DE028C30E1
:1016000008F00EC191E0980F9093DE0280933303AF
:1016100090E0FC01EE0FFF1FE80FF91FE654FD4FAD
:1016200088EB9BE09283818389E080933003109262
:10163000240310922503109226031092270385E0BD
:101640008093210381E18093220380E1809323032F
:1016500061E085E00E94090261E081E10E940902E7
:1016600061E080E10E94090210920C0310921303C2
:1016700010921A0310921B0310921C0310921D0368
:1016800081E080931903809316031092170392E070
:101690009093180380930B038BE190E090931003D9
:1016A00080930F030E949911909315038093140364
:1016B000009709F4B9C02BE1FC0111922A95E9F7D2
:1016C00089E090E090930E0380930D038CE090E00E
:1016D000909312038093110380910C03882341F0AF
:1016E00061E08CE00E94090260E08CE00E94DB0176
:1016F000EAEBF0E0E491F0E0EE0FFF1FEC55FF4F56
:101700008591949190931F0380931E03ECE9F0E080
:10171000E491E09320038DE0809300038FE08093B9
:1017200001031092020361E08DE00E94090260E073
:10173000809101030E94090298E2C92E93E2D92EFA
:10174000E12CF12CC0920703D0920803E092090328
:10175000F0920A0383E08093F50288E08093F6021A
:101760001092F70261E083E00E94090260E080913C
:10177000F6020E940902C092FC02D092FD02E092A1
:10178000FE02F092FF028BE08093EA0284E08093F5
:10179000EB021092EC0261E08BE00E94090260E033
:1017A0008091EB020E940902C092F102D092F202F3
:1017B000E092F302F092F40287E08093DF0286E089
:1017C0008093E0021092E10261E087E00E9409024A
:1017D00060E08091E0020E940902C092E602D0928D
:1017E000E702E092E802F092E9028FEF809336037D
:1017F0001092380310923703109242031092410363
:101800008FEF9FEFDC0180933D0390933E03A09305
:101810003F03B0934003FF90EF90DF90CF90089587
:101820008FEF8093330300CF1092100310920F03B9
:1018300010920E0310920D0349CF789484B5826004
:1018400084BD84B5816084BD85B5826085BD85B564
:10185000816085BD80916E00816080936E001092E2
:10186000810080918100826080938100809181005D
:1018700081608093810080918000816080938000EE
:101880008091B10084608093B1008091B00081604C
:101890008093B00080917A00846080937A00809178
:1018A0007A00826080937A0080917A0081608093D0
:1018B0007A0080917A00806880937A001092C1004B
:1018C000809111039091120397FD08C061E00E947E
:1018D000090260E0809111030E94DB0181E08093A6
:1018E0000C0364E670E080E090E00E948F0340917A
:1018F0000F035091100370E060E080911403909109
:1019000015030E94BE12E0912102F091220282E0B2
:101910008083E0911D02F0911E021082E0911F026F
:10192000F091200280E1808310922902E09125024B
:10193000F091260286E08083E0912302F091240258
:10194000808180618083E0912302F0912402808174
:1019500088608083E0912302F09124028081806876
:101960008083E0912302F091240280818F7D808327
:101970004EE050E061E371E081E192E00E94F80303
:1019800042E050E060E471E081E192E00E94F803FF
:1019900061E08EE00E94090260E082E00E9409029C
:1019A000C0913003809133038C3008F051C061E066
:1019B0008C2F0E940902E09133038E2F90E0DC010E
:1019C000AA0FBB1FA80FB91FA654BD4FCF738C9190
:1019D000807C8C2B8C9310923403109235032CE076
:1019E0008E2F622F0E94A70F829FB001112430E03A
:1019F00020E0AB01420F531FDA01AA0FBB1FA40F57
:101A0000B51FA654BD4F9C9196FD16C02F5F3F4F4A
:101A10002C30310571F781110FC01092800082E0E7
:101A2000809381001092850010928400B19A809179
:101A30006F00826080936F008E2F90E0FC01EE0FAC
:101A4000FF1FE80FF91FE654FD4F808180648083FB
:101A500090E080E00E94F6001092EA011092E90105
:101A60001092E8011092E7010E942C0581EC93E0AE
:101A70009093E6018093E5018DEC93E09093E4016F
:101A80008093E30188E08093BA008FEC96E0909316
:101A9000EC018093EB0187E096E09093EE01809358
:101AA000ED01D1E000E0C0E08091F90181111EC09C
:101AB00010E04D2F502F612F8C2F0E9456061F5F74
:101AC0001930B9F70E94BC0268E770E080E090E04E
:101AD0000E948F03C83021F0CC2329F0CD0FE4CF32
:101AE000DFEF0FEFFBCFD1E000E0F8CFD0E0C0E0B8
:101AF0004FE05FE06FE070E0CE010E948D00219624
:101B0000C930D105A9F70E94BC02F8941092B00028
:101B10001092B1008091B10087608093B1008091F4
:101B200070008460809370008FEF8093B40078948D
:101B3000C8E3D0E020E0222E20E0322E88248394D7
:101B4000912CAA24AA94BA2C2FB7F8948091090258
:101B500090910A02A0910B02B0910C022FBF40910C
:101B60000402509105026091060270910702481725
:101B700059076A077B0708F04BC08091040188234E
:101B800009F4E3C01091F70111110FC080E093E058
:101B90000E949805BE010E94B30F7093F6016093F6
:101BA000F5011F5F1093F7011DC0113061F48AEE3B
:101BB00092E00E949805BE010E94B30F7093F40159
:101BC0006093F301EECF85EF92E00E949805BE018D
:101BD0000E94B30F7093F2016093F101123009F784
:101BE0001092F7012FB7F8948091090290910A02A0
:101BF000A0910B02B0910C022FBF0796A11DB11D41
:101C00008093040290930502A0930602B09307020A
:101C10002FB7F8948091090290910A02A0910B02CB
:101C2000B0910C022FBF40910002509101026091CF
:101C3000020270910302481759076A077B0708F0F0
:101C4000C8C00091FE011091FF016091FA017091EE
:101C5000FB018091FC019091FD010E943F109801D1
:101C6000261B370BB901072E000C880B990B0E941D
:101C700077102B013C014092280350922903609277
:101C80002A0370922B032AE939E949E95EE30E94AD
:101C90002C1120912403309125034091260350916B
:101CA00027030E94CE0F6B017C0120912C03309101
:101CB0002D0340912E0350912F03C301B2010E94C6
:101CC000CD0F9B01AC010E94CE0F9B01AC01C7015F
:101CD000B6010E94CE0F6B017C0120E030E046E1AE
:101CE00053EC0E943A1087FD3CC020E030E046E112
:101CF00053E4C701B6010E942711181634F4C12C11
:101D0000D12C96E1E92E93E4F92EC0922403D092CF
:101D10002503E0922603F092270340922C03509271
:101D20002D0360922E0370922F0370902203012BDB
:101D3000F9F460E0872D0E94DB0160E080912303CD
:101D40000E94DB0168EC70E02AC08FED92E00E94F7
:101D50009805BE010E94B30F7093F0016093EF01EC
:101D600041CFC12CD12C86E1E82E83ECF82ECDCFCB
:101D7000C701B6010E943F106B01CB01181619066E
:101D80000CF058C081E08093040161E0872D0E942F
:101D9000DB0160E0809123030E94DB01B6018091AA
:101DA00021030E943A022FB7F89480910902909182
:101DB0000A02A0910B02B0910C022FBF0F96A11D39
:101DC000B11D8093000290930102A0930202B09390
:101DD00003028091F901811121C000E01091F80106
:101DE0004091050150910601602F812F0E945606F7
:101DF0000F5F093099F70E94BC0268E770E080E04D
:101E000090E00E948F03183041F5B0920601A09235
:101E1000050180910501180F1093F8012114310478
:101E200009F492CE0E946204882309F48DCE0E94A8
:101E300000008ACE892B09F47CCF1092040160E067
:101E4000872D0E94DB0161E0809123030E94DB016A
:101E5000662777276C197D09A2CF1111DACF9092EE
:101E6000060180920501D5CF80911403909115034E
:101E70000E943512809111039091120397FD03C0C7
:101E800060E00C9409020895052E97FB1EF400945F
:101E90000E945B0F57FD07D00E94760F07FC03D00E
:101EA0004EF40C945B0F50954095309521953F4F23
:101EB0004F4F5F4F089590958095709561957F4F36
:101EC0008F4F9F4F08950E94980FA59F900DB49F2C
:101ED000900DA49F800D911D11240895B7FF0C94BF
:101EE000630F0E94630F821B930B0895A1E21A2EC9
:101EF000AA1BBB1BFD010DC0AA1FBB1FEE1FFF1FAE
:101F0000A217B307E407F50720F0A21BB30BE40BFD
:101F1000F50B661F771F881F991F1A9469F7609544
:101F20007095809590959B01AC01BD01CF010895FE
:101F3000A29FB001B39FC001A39F700D811D11240A
:101F4000911DB29F700D811D1124911D0895991B43
:101F500079E004C0991F961708F0961B881F7A95A0
:101F6000C9F780950895AA1BBB1B51E107C0AA1FA2
:101F7000BB1FA617B70710F0A61BB70B881F991F2A
:101F80005A95A9F780959095BC01CD010895EE0F63
:101F9000FF1F0590F491E02D09945058BB27AA2704
:101FA0000E94E50F0C94ED100E94DF1038F00E94A3
:101FB000E61020F039F49F3F19F426F40C94DC105D
:101FC0000EF4E095E7FB0C94D610E92F0E94FE106A
:101FD00058F3BA17620773078407950720F079F45E
:101FE000A6F50C9420110EF4E0950B2EBA2FA02D1F
:101FF0000B01B90190010C01CA01A0011124FF27B6
:10200000591B99F0593F50F4503E68F11A16F040B0
:10201000A22F232F342F4427585FF3CF46953795AF
:102020002795A795F0405395C9F77EF41F16BA0B74
:10203000620B730B840BBAF09150A1F0FF0FBB1F22
:10204000661F771F881FC2F70EC0BA0F621F731F6B
:10205000841F48F4879577956795B795F7959E3FC8
:1020600008F0B0CF9395880F08F09927EE0F979559
:10207000879508950E94B21008F481E008950E94A7
:1020800046106894B1110C94211108950E94061114
:1020900088F09F5798F0B92F9927B751B0F0E1F029
:1020A000660F771F881F991F1AF0BA95C9F714C0D9
:1020B000B13091F00E942011B1E008950C942011EC
:1020C000672F782F8827B85F39F0B93FCCF3869512
:1020D00077956795B395D9F73EF49095809570956F
:1020E00061957F4F8F4F9F4F0895E89409C097FBEC
:1020F0003EF490958095709561957F4F8F4F9F4FDF
:102100009923A9F0F92F96E9BB279395F695879522
:1021100077956795B795F111F8CFFAF4BB0F11F4E5
:1021200060FF1BC06F5F7F4F8F4F9F4F16C088238C
:1021300011F096E911C0772321F09EE8872F762FC2
:1021400005C0662371F096E8862F70E060E02AF003
:102150009A95660F771F881FDAF7880F96958795EF
:1021600097F90895990F0008550FAA0BE0E8FEEFC4
:1021700016161706E807F907C0F012161306E4074B
:10218000F50798F0621B730B840B950B39F40A2644
:1021900061F0232B242B252B21F408950A2609F422
:1021A000A140A6958FEF811D811D089597F99F6726
:1021B00080E870E060E008959FEF80EC08950024CF
:1021C0000A941616170618060906089500240A949C
:1021D00012161306140605060895092E0394000C22
:1021E00011F4882352F0BB0F40F4BF2B11F460FFB1
:1021F00004C06F5F7F4F8F4F9F4F089557FD9058DA
:10220000440F551F59F05F3F71F04795880F97FBBA
:10221000991F61F09F3F79F0879508951216130674
:102220001406551FF2CF4695F1DF08C016161706A3
:102230001806991FF1CF86957105610508940895D8
:10224000E894BB2766277727CB0197F908950E946A
:10225000B21008F48FEF08950E943F110C94ED1016
:102260000E94DF1038F00E94E61020F0952311F054
:102270000C94D6100C94DC1011240C9421110E94A3
:10228000FE1070F3959FC1F3950F50E0551F629FAC
:10229000F001729FBB27F00DB11D639FAA27F00DBF
:1022A000B11DAA1F649F6627B00DA11D661F829FE6
:1022B0002227B00DA11D621F739FB00DA11D621FCB
:1022C000839FA00D611D221F749F3327A00D611DE8
:1022D000231F849F600D211D822F762F6A2F1124CA
:1022E0009F5750409AF0F1F088234AF0EE0FFF1FFD
:1022F000BB1F661F771F881F91505040A9F79E3F54
:10230000510580F00C94D6100C9421115F3FE4F33A
:10231000983ED4F3869577956795B795F795E795A9
:102320009F5FC1F7FE2B880F911D9695879597F9B2
:1023300008950F931F93CF93DF938230910510F48C
:1023400082E090E0E0914503F091460330E020E028
:10235000B0E0A0E0309799F42115310509F44AC0A6
:10236000281B390B24303105D8F58A819B816115F2
:10237000710589F1FB0193838283FE0111C04081C5
:1023800051810281138148175907E0F04817590716
:1023900099F4109761F012960C93129713961C9370
:1023A0003296CF01DF91CF911F910F910895009345
:1023B000450310934603F4CF2115310551F0421720
:1023C000530738F0A901DB019A01BD01DF01F801D3
:1023D000C1CFEF01F9CF9093460380934503CDCF52
:1023E000FE01E20FF31F819391932250310939834B
:1023F0002883D7CF2091430330914403232B41F40A
:102400002091090130910A01309344032093430342
:1024100020910701309108012115310541F42DB7B4
:102420003EB740910B0150910C01241B350BE091FC
:102430004303F0914403E217F307A0F42E1B3F0B74
:102440002817390778F0AC014E5F5F4F2417350726
:1024500048F04E0F5F1F5093440340934303819312
:1024600091939FCFF0E0E0E09CCFCF93DF93009774
:10247000E9F0FC01329713821282A0914503B091DA
:102480004603ED0130E020E01097A1F42081318176
:10249000820F931F2091430330914403281739077B
:1024A00009F061C0F0934403E0934303DF91CF91BF
:1024B0000895EA01CE17DF07E8F54A815B819E01A6
:1024C00041155105B1F7E901FB83EA83499159911F
:1024D000C40FD51FEC17FD0761F48081918102962E
:1024E000840F951FE90199838883828193819B835F
:1024F0008A83F0E0E0E012968D919C91139700970B
:10250000B9F52D913C911197CD010296820F931F41
:1025100020914303309144032817390739F6309747
:1025200051F51092460310924503B0934403A093D3
:102530004303BCCFD383C28340815181840F951F55
:10254000C817D90761F44E5F5F4F88819981480FA2
:10255000591F518340838A819B81938382832115F4
:10256000310509F0B0CFF0934603E09345039ECFC9
:10257000FD01DC01C0CF13821282D7CFDC0101C084
:102580006D9341505040E0F7089510E0C2E6D0E06E
:1025900004C0FE010E94C70F2196C336D107C9F7B8
:0425A000F894FFCFDD
:1025A400F703F70301010000004703800000000067
:1025B400009804F8032504E5045604340448040090
:1025C4000000007F05740595054A056D055A054B05
:1025D4000553657269616C20612070756E746F00BB
:0425E4000D0A0000DC
:00000001FF
