:100000000C9463000C940D080C94E6070C948B0080
:100010000C948B000C948B000C948B000C948B0034
:100020000C94670A0C948B000C948B000C94AB0915
:100030000C948B000C948B000C948B000C948B0014
:100040000C949C070C948B000C945A080C94340864
:100050000C948B000C948B000C948B000C948B00F4
:100060000C948C080C948B000000000024002700E6
:100070002A000000000023002600290000000008DC
:10008000000201000003040700000000000000005F
:10009000010204081020408001020408102001021F
:1000A0000408102000000000250028002B00040494
:1000B0000404040404040202020202020303030310
:1000C0000303C00A0D0F11241FBECFEFD8E0DEBF1F
:1000D000CDBF11E0A0E0B1E0E6E5F5E202C0059099
:1000E0000D92A233B107D9F723E0A2E3B1E001C03A
:1000F0001D92A033B207E1F710E0C2E6D0E004C0E1
:100100002197FE010E94A00FC136D107C9F70E94B6
:10011000380C0C949E120C9400004F925F926F92D8
:100120007F928F929F92AF92BF92FF922091F8029E
:100130003091F9028217930708F043C02B0166241F
:100140007724852E962EA72EBB24B82DA42F209180
:10015000FE02F42C222391F0E22FF0E0E49DD00186
:10016000E59DB00DF49DB00D1124FB2E289D40019E
:100170001124B92D249F90011124A32FE091040391
:100180002091FF023091000350910103E51323C039
:10019000FC01EE0FFF1F8E0F9F1F820F931FE09138
:1001A0000103E80FF92FF11DF082E0910203E80F3F
:1001B000F92FF11DB08320910303820F911DFC01E3
:1001C000A083FF90BF90AF909F908F907F906F9093
:1001D0005F904F900895880F991F880F991F820F85
:1001E000931FE80FF92FF11D1082D9CF8F929F92A4
:1001F000AF92BF92FF920F931F93CF93DF939C0117
:10020000F0901C038BE08F1508F46CC080911E03E6
:1002100008E512E0081B110987FD1395000F111F57
:10022000000F111F80911D03C8E8D0E0C81BD10941
:1002300087FDD395CC0FDD1FCC0FDD1F4E010D2E9A
:10024000000CAA08BB08032E000C440B550B2C59BC
:100250003F4F4F4F5F4FA1E3B0E00E943C0F28ECAF
:1002600030E040E050E00E941D0F2A5B3F4F4F4FAF
:100270005F4FD9012837310514F0A7E7B0E0A63465
:10028000B10514F4A6E4B0E09801012E000C440B73
:10029000550B281939094A095B090E94470F24EBBD
:1002A00030E040E050E00E941D0F820E931EA41E1D
:1002B000B51E8C169D062CF0E801801691060CF4F4
:1002C000E4012297CC0FDD1F2FB7F8948F2D90E01B
:1002D000FC01EE0FFF1FE80FF91FEB55FD4FD28316
:1002E000C1832FBFDF91CF911F910F91FF90BF90DE
:1002F000AF909F908F900895833081F028F48130E3
:1003000099F08230A9F008958730A9F08830C9F0BB
:100310008430B1F4809180008F7D03C08091800093
:100320008F7780938000089584B58F7784BD08957A
:1003300084B58F7DFBCF8091B0008F778093B00024
:1003400008958091B0008F7DF9CFCF93DF93282F50
:1003500030E0F901E458FF4F8491F901E057FF4F75
:10036000D491F901E255FF4FC491CC23A1F0811142
:100370000E947C01EC2FF0E0EE0FFF1FEE58FF4FC4
:10038000A591B491EC91ED2381E090E009F480E037
:10039000DF91CF91089580E090E0FACF1F93CF9343
:1003A000DF93282F30E0F901E458FF4F8491F901E1
:1003B000E057FF4FD491F901E255FF4FC491CC2390
:1003C000A9F0162F81110E947C01EC2FF0E0EE0FB6
:1003D000FF1FEC55FF4FA591B4918FB7F894EC91A6
:1003E000111108C0D095DE23DC938FBFDF91CF9130
:1003F0001F910895DE2BF8CFCF93DF9390E0FC019F
:10040000E057FF4F249182559F4FFC018491882330
:10041000D1F090E0880F991FFC01E859FF4FA5919A
:10042000B491FC01EC55FF4FC591D49161110EC000
:100430009FB7F8948C91E22FE0958E238C932881BE
:10044000E223E8839FBFDF91CF9108958FB7F8949F
:10045000EC91E22BEC938FBFF6CFCF93DF93EC01BF
:1004600061E085E00E94FC01209731F460E085E0C6
:10047000DF91CF910C94CE01CF3FD10511F461E013
:10048000F6CFE1E8F0E0E491E33029F140F4E13027
:10049000B1F0E230D9F0C038D1058CF7E7CFE730C2
:1004A00021F1E83051F1E430B1F7809180008062B1
:1004B00080938000D0938B00C0938A0004C084B5E1
:1004C000806884BDC7BDDF91CF91089584B58062F7
:1004D00084BDC8BDF8CF8091800080688093800083
:1004E000D0938900C0938800EECF8091B0008068DF
:1004F0008093B000C093B300E6CF8091B0008062DB
:100500008093B000C093B400DECF3FB7F8948091E1
:10051000F8019091F901A091FA01B091FB0126B583
:10052000A89B05C02F3F19F00196A11DB11D3FBF2B
:10053000BA2FA92F982F8827BC01CD01620F711DFA
:10054000811D911D42E0660F771F881F991F4A95F4
:10055000D1F708950F931F93CF93DF93CDB7DEB7F5
:1005600029970FB6F894DEBF0FBECDBF8091FF0272
:1005700090910003892B09F47CC00E9485020091B0
:1005800005031091060320910703309108036017BB
:1005900071078207930740F4609305037093060385
:1005A00080930703909308030091050310910603BD
:1005B0002091070330910803601B710B820B930B92
:1005C0006C32714081059105C0F2F8948091FA0275
:1005D0009091FB029A838983E091FF02F0910003DE
:1005E000DF011196808189879091F602E0910903DD
:1005F000F0910A0380910B03992309F445C090817F
:10060000982B98879081809589238F838F818C8305
:1006100088E08B8358856F8149853B812C81898156
:100620009A81508347FD252F3A952083262F39F054
:10063000441F00C000006083000000C0F2CF38E01B
:100640004D9160830000019761F7F0930A03E093F6
:10065000090349873B832C839A83898378940E947A
:1006600085026093050370930603809307039093BC
:10067000080329960FB6F894DEBF0FBECDBFDF91F9
:10068000CF911F910F9108959081982B9887908119
:10069000809589238F838F818E8388E08D83588511
:1006A0006F8149853D812E8189819A81508347FDE3
:1006B000252F00C000C0208300C000C000C000C0C3
:1006C00000C060830000262F3A9541F0441F0000CF
:1006D00000C000C000C000C000C0E8CF38E04D91AD
:1006E00000C0608300C0019709F7F0930A03E0930C
:1006F000090349873D832E83AFCF8F929F92AF929C
:10070000BF92CF92DF92EF92FF924B015C010E9469
:1007100085026B017C010E9485026C197D098E099E
:100720009F09683E734081059105A8F321E0821A74
:100730009108A108B10888EEC80E83E0D81EE11C1C
:10074000F11C81149104A104B10429F7FF90EF90EA
:10075000DF90CF90BF90AF909F908F900895E091E1
:10076000E501F091E601309729F01092E001109236
:10077000DF0109940895CF93DF93AC01E091E30189
:10078000F091E4013097F1F09091E2018091E10164
:100790009817C0F090E0292F30E02617370754F45F
:1007A000D901A55BBE4F240F351FE90128812C9389
:1007B0009F5FF1CF1092E2016093E101CB01DF91E5
:1007C000CF910994DF91CF9108950895AF92BF9290
:1007D000CF92DF92EF92FF920F931F93CF93DF930D
:1007E0006C017B018B01040F151FEB015E01AE183C
:1007F000BF08C017D10759F06991D601ED91FC915E
:100800000190F081E02DC6010995892B79F7C5018A
:10081000DF91CF911F910F91FF90EF90DF90CF90DC
:10082000BF90AF900895FC01538D448D252F30E08B
:10083000842F90E0821B930B541710F0CF960895ED
:1008400001970895FC01918D828D981761F0A28D1A
:10085000AE0FBF2FB11D5D968C91928D9F5F9F73E0
:10086000928F90E008958FEF9FEF0895FC01918D96
:10087000828D981731F0828DE80FF11D858D90E003
:1008800008958FEF9FEF0895FC01918D228D892FA0
:1008900090E0805C9F4F821B91098F739927089588
:1008A0008CEF91E00E94440421E0892B09F420E0C0
:1008B000822F089580E090E0892B29F00E94500457
:1008C00081110C9400000895FC01A48DA80FB92F8C
:1008D000B11DA35ABF4F2C91848D90E001968F7368
:1008E0009927848FA689B7892C93A089B1898C9187
:1008F000837080648C93938D848D981306C00288D6
:10090000F389E02D80818F7D80830895EF92FF929F
:100910000F931F93CF93DF93EC0181E0888F9B8D22
:100920008C8D98131AC0E889F989808185FF15C0DC
:100930009FB7F894EE89FF896083E889F9898081FF
:100940008370806480839FBF81E090E0DF91CF91CE
:100950001F910F91FF90EF900895F62E0B8D10E0F0
:100960000F5F1F4F0F731127E02E8C8D8E110CC05F
:100970000FB607FCFACFE889F989808185FFF5CFAA
:10098000CE010E946404F1CFEB8DEC0FFD2FF11D21
:10099000E35AFF4FF0829FB7F8940B8FEA89FB89E7
:1009A00080818062CFCFCF93DF93EC01888D882345
:1009B000B9F0AA89BB89E889F9898C9185FD03C0C2
:1009C000808186FD0DC00FB607FCF7CF8C9185FFA7
:1009D000F2CF808185FFEDCFCE010E946404E9CF84
:1009E000DF91CF91089520919101260F3327331F76
:1009F00021323105ECF42091B501FC0190E080E05A
:100A0000243069F082E00895A09191012191AC0118
:100A10004F585E4FA40FB52FB11D2C93019686172A
:100A200098F380919101680F6093910180E008959F
:100A300081E008951092B50181E08093B701109292
:100A4000B60161E082E10E94CE0161E083E10E9493
:100A5000CE01E9EBF0E080818E7F808380818D7F05
:100A6000808388E48093B80085E48093BC00089577
:100A70000895E091E2018091E101E81730F4F0E09F
:100A8000E55BFE4F808190E008958FEF9FEF089522
:100A90009091E2018091E1012FEF3FEF981748F428
:100AA000E92FF0E0E55BFE4F208130E09F5F9093FF
:100AB000E201C90108950F931F93CF93DF93EC01D7
:100AC0001C161D060CF045C089E992E00E944805FD
:100AD00080933A0121978330B1F489E992E00E9432
:100AE00048058C0189E992E00E9448050197809FA2
:100AF0009001819F300D909F300D11243093EE01B5
:100B00002093ED01DDCF843091F489E992E00E94D9
:100B100048058C0189E992E00E944805892B19F467
:100B2000119501951109C8010E94F600C9CF8530C1
:100B300039F689E992E00E9448058C01682F8EE021
:100B40000E94CE0181E0012B09F480E08093E8014E
:100B5000B7CFDF91CF911F910F9108958091E1015F
:100B60009091E201891B990B0895CF93DF93CB01FC
:100B7000EA01642F0E94F304CE01DF91CF91089522
:100B8000CF93DF931F92CDB7DEB7698361E0CE01CB
:100B900001960E94F30481E090E00F90DF91CF91E5
:100BA0000895682F89E992E00C94C00590E080E0F8
:100BB00008950F931F93CF93DF93EC018A818823CD
:100BC00021F061E088810E94FC0160E088810E9440
:100BD000CE0183E090E00197F1F761E088810E9407
:100BE000CE0183E290E00197F1F760E088810E94F6
:100BF000CE018A81882321F060E088810E94FC0177
:100C00000E9485026B837C838D839E8389810E94F1
:100C1000A501892B99F40E9485020B811C812D81ED
:100C20003E81601B710B820B930B0F811885298508
:100C30003A85061717072807390740F70E948502EB
:100C40006B837C838D839E8389810E94A501892B80
:100C500099F00E9485020B811C812D813E81601BD1
:100C6000710B820B930B0F81188529853A85061726
:100C700017072807390740F70E9485022B813C811E
:100C8000CB01821B930BDF91CF911F910F910895A0
:100C9000CF93DF9380910401882331F18BEE92E0B2
:100CA0000E94D905C8E3D0E0BE010E948C0F70936A
:100CB00047016093460180EE92E00E94D905BE0193
:100CC0000E948C0F709345016093440185ED92E082
:100CD0000E94D905BE010E948C0F7093430160935E
:100CE0004201DF91CF9108958AEC92E00E94D905EC
:100CF00068E370E00E948C0F709349016093480193
:100D0000F0CF80913A01813081F580913601909148
:100D10003701A0913801B09139018093320180915F
:100D2000360190913701A0913801B091390190932B
:100D300033018091360190913701A0913801B09133
:100D40003901A09334018091360190913701A0912F
:100D50003801B0913901B093350144E050E062E3CD
:100D600071E089E992E00C94B5058230C1F480917C
:100D70004601909147010E94D105809144019091D4
:100D800045010E94D10580914201909143010E944A
:100D9000D10580914801909149010C94D1050895A5
:100DA000282F30E0861307C040E050E06EE170E08D
:100DB000C9010C948D00862F90E0BC01621B730B5F
:100DC000649F9001659F300D749F300D11242F3F5B
:100DD000320729F440E050E06CE070E0EACF2E3FAB
:100DE0003F4F29F440E050E064E070E0E2CF40E0A3
:100DF00050E0BA01DECF80910401882339F180915F
:100E00003D0190913E01A0913F01B09140010196BA
:100E1000A11DB11D80933D0190933E01A0933F0120
:100E2000B09340018091360190913701A091380133
:100E3000B09139010196A11DB11D809336019093A7
:100E40003701A0933801B0933901089580913D0195
:100E500090913E01A0913F01B09140010197A109FD
:100E6000B10980933D0190933E01A0933F01B0935F
:100E700040018091360190913701A0913801B091E5
:100E800039010197A109B109D8CFCF93DF9385ED3F
:100E90008093BC0080916D0190916E01A0916F01D3
:100EA000B09170010796A11DB11D23E0B695A795DD
:100EB000979587952A95D1F72091BC0024FD03C012
:100EC0001092B50136C040916D0150916E01609154
:100ED0006F0170917001452B462B472B69F30097EA
:100EE000A105B10541F025E32A95F1F7000001972E
:100EF000A109B109E1CF80916C0191E090936B0160
:100F00008823B9F0C091B800D091BA008091BC009C
:100F10008A7B8093BC0060E082E10E94CE0160E0A9
:100F200083E10E94CE010E941A05D093BA00C093BB
:100F3000B800DF91CF9108951F920F920FB60F92D4
:100F400011242F933F938F939F93AF93BF938091DF
:100F5000F4019091F501A091F601B091F701309163
:100F6000F30123E0230F2D3758F50196A11DB11D84
:100F70002093F3018093F4019093F501A093F6017F
:100F8000B093F7018091F8019091F901A091FA01D5
:100F9000B091FB010196A11DB11D8093F8019093C2
:100FA000F901A093FA01B093FB01BF91AF919F911A
:100FB0008F913F912F910F900FBE0F901F9018951A
:100FC00026E8230F0296A11DB11DD2CF1F920F92CA
:100FD0000FB60F9211242F933F934F935F936F930C
:100FE0007F938F939F93AF93BF93EF93FF93E09182
:100FF0000201F09103010995FF91EF91BF91AF912B
:101000009F918F917F916F915F914F913F912F9120
:101010000F900FBE0F901F9018951F920F920FB652
:101020000F9211242F933F934F935F936F937F936E
:101030008F939F93AF93BF93EF93FF93E091000142
:10104000F09101010995FF91EF91BF91AF919F91AF
:101050008F917F916F915F914F913F912F910F9061
:101060000FBE0F901F9018951F920F920FB60F9200
:1010700011242F933F934F935F936F937F938F939D
:101080009F93AF93BF93EF93FF938CEF91E00E94F8
:101090006404FF91EF91BF91AF919F918F917F91E8
:1010A0006F915F914F913F912F910F900FBE0F90D5
:1010B0001F9018951F920F920FB60F9211242F9325
:1010C0008F939F93EF93FF93E0910C02F0910D02A9
:1010D0008081E0911202F091130282FD1BC0908189
:1010E000809115028F5F8F7320911602821741F055
:1010F000E0911502F0E0E450FE4F958F80931502C9
:10110000FF91EF919F918F912F910F900FBE0F90B4
:101110001F9018958081F4CF1F920F920FB60F92F7
:1011200011242F933F934F935F936F937F938F93EC
:101130009F93AF93BF93EF93FF938091B900887F04
:10114000803609F44AC0F0F5883209F4A7C018F5D2
:10115000803109F49BC0B8F4882309F4F9C08830C1
:1011600009F494C0FF91EF91BF91AF919F918F913E
:101170007F916F915F914F913F912F910F900FBE93
:101180000F901F901895883109F488C0803251F76C
:101190008093B40114C0803409F49DC040F48033BE
:1011A000B9F38833F9F68093B40185ECB0C080358B
:1011B00009F485C0883509F496C0883499F60E94F0
:1011C0004507D0CF883909F48CC038F5883729F025
:1011D00050F4883611F0803729F683E08093B5010A
:1011E0001092B30157C0883809F47BC0803919F0D8
:1011F000803809F0B7CF8091B301803208F071C018
:10120000E091B30181E08E0F8093B3018091BB0028
:10121000F0E0ED56FE4F80833DC0803B39F0E0F4B6
:10122000803A09F479C0883A09F09CCF84E0809331
:10123000B5011092920110929101E091DD01F091BF
:10124000DE0109958091910181110FC081E08093A9
:1012500091011092710109C0803C09F4A6CF883C2D
:1012600009F4A3CF883B09F07DCFE091920181E0A2
:101270008E0F80939201F0E0EF58FE4F80818093B3
:10128000BB00909192018091910129C08091DA0177
:101290008093BB0085EC8093BC0064CF9091D90112
:1012A0008091D801981758F5E091D90181E08E0F0F
:1012B0008093D901F0E0E854FE4F8081E9CFE091BE
:1012C000D90181E08E0F8093D9018091BB00F0E0BD
:1012D000E854FE4F80839091D9018091D8019817EE
:1012E000C8F285E8D8CFE091D90181E08E0F8093D4
:1012F000D9018091BB00F0E0E854FE4F80838091DB
:10130000B70181115CCF81E08093B60184EA8093BC
:10131000BC001092B50126CF85EC8093BC001092E2
:10132000B5018091B301803230F4E091B301F0E077
:10133000ED56FE4F10826091B30170E0E091DB0149
:10134000F091DC0183E991E009951092B3010ACF95
:101350001092B40134CF1F920F920FB60F92112446
:101360002F933F934F935F936F937F938F939F93AD
:10137000AF93BF93CF93DF93EF93FF9380914A0195
:10138000C091C902D0E087FF24C01092850010925E
:10139000840080914A018F5F80934A0180914A01C5
:1013A000082E000C990B8C179D0724F480914A019C
:1013B0008C30C4F180918400909185000496803433
:1013C0009C4908F47AC0809184009091850004962D
:1013D00076C080914A01082E000C990B8C179D074E
:1013E000C4F6E0914A018E2FEE0F990BFC01EE0F2F
:1013F000FF1FE80FF91FEB55FD4F808186FFC9CF16
:10140000E0914A018E2FEE0F990BFC01EE0FFF1FAA
:10141000E80FF91FEB55FD4F808160E08F730E944C
:10142000CE01B7CF2091840030918500E0914A0130
:101430008E2FEE0F990BFC01EE0FFF1FE80FF91F27
:10144000EB55FD4F81819281820F931F909389000C
:1014500080938800E0914A018E2FEE0F990BFC01DA
:10146000EE0FFF1FE80FF91FEB55FD4F808186FF40
:1014700011C0E0914A018E2FEE0F990BFC01EE0F87
:10148000FF1FE80FF91FEB55FD4F808161E08F735F
:101490000E94CE01FF91EF91DF91CF91BF91AF916B
:1014A0009F918F917F916F915F914F913F912F917C
:1014B0000F900FBE0F901F90189580E49CE99093B9
:1014C0008900809388008FEF80934A01E3CF1F92B9
:1014D0000F920FB60F9211242F933F934F935F9368
:1014E0006F937F938F939F93AF93BF93EF93FF93EC
:1014F00080914101882309F43FC060913D017091C2
:101500003E0180913F01909140010E9450106093F4
:10151000E9017093EA018093EB019093EC018091D3
:101520003D0190913E01A0913F01B0914001209179
:101530003B0130913C01820F931F90933C018093BB
:101540003B0110923D0110923E0110923F0110921A
:10155000400110924101FF91EF91BF91AF919F9196
:101560008F917F916F915F914F913F912F910F904C
:101570000FBE0F901F90189581E080934101EBCF33
:10158000CF92DF92EF92FF921092FF011092FE0134
:1015900088EE93E0A0E0B0E0809300029093010217
:1015A000A0930202B093030221E131E03093FD01E8
:1015B0002093FC0125EC30E03093090220930802CF
:1015C00024EC30E030930B0220930A0220EC30E050
:1015D00030930D0220930C0221EC30E030930F0287
:1015E00020930E0222EC30E030931102209310027F
:1015F00026EC30E030931302209312021092150271
:1016000010921602109217021092180210929C0269
:1016100010929B0280939D0290939E02A0939F0242
:10162000B093A00283E291E090939A028093990292
:101630008091C9028C3008F00EC191E0980F909310
:10164000C90280931C0390E0FC01EE0FFF1FE80F1E
:10165000F91FEB55FD4F88EB9BE09283818389E076
:1016600080931B0310920F0310921003109211032A
:101670001092120385E080930C0380E180930D03A8
:1016800081E180930E0361E085E00E94FC0161E04E
:1016900080E10E94FC0161E081E10E94FC01109266
:1016A000F7021092FE0210920503109206031092A8
:1016B00007031092080381E08093040380930103E1
:1016C0001092020392E0909303038093F60288E164
:1016D00090E09093FB028093FA020E947211909323
:1016E00000038093FF02009709F4B9C028E1FC01D0
:1016F00011922A95E9F788E090E09093F90280939F
:10170000F8028CE090E09093FD028093FC028091BF
:10171000F702882341F061E08CE00E94FC0160E068
:101720008CE00E94CE01EAEBF0E0E491F0E0EE0FF5
:10173000FF1FEC55FF4F8591949190930A0380937E
:101740000903ECE9F0E0E491E0930B0387E0809378
:10175000EB0286E08093EC021092ED0261E087E0FC
:101760000E94FC0160E08091EC020E94FC0198E57F
:10177000C92E9BE1D92EE12CF12CC092F202D0921D
:10178000F302E092F402F092F5028BE08093E00223
:1017900084E08093E1021092E20261E08BE00E941B
:1017A000FC0160E08091E1020E94FC01C092E7022E
:1017B000D092E802E092E902F092EA0283E080939C
:1017C000D50288E08093D6021092D70261E083E0D0
:1017D0000E94FC0160E08091D6020E94FC01C09250
:1017E000DC02D092DD02E092DE02F092DF028DE0B8
:1017F0008093CA028FE08093CB021092CC0261E00A
:101800008DE00E94FC0160E08091CB020E94FC010F
:10181000C092D102D092D202E092D302F092D402CE
:101820008FEF80931F0310922103109220031092D8
:101830002B0310922A038FEF9FEFDC018093260386
:1018400090932703A0932803B0932903FF90EF9070
:10185000DF90CF9008958FEF80931C0300CF1092FC
:10186000FB021092FA021092F9021092F80249CF8C
:10187000789484B5826084BD84B5816084BD85B56B
:10188000826085BD85B5816085BD80916E00816077
:1018900080936E001092810080918100826080931D
:1018A000810080918100816080938100809180001F
:1018B0008160809380008091B10084608093B1004A
:1018C0008091B00081608093B00080917A00846044
:1018D00080937A0080917A00826080937A00809170
:1018E0007A00816080937A0080917A00806880938A
:1018F0007A001092C1008091FC029091FD0297FD48
:1019000008C061E00E94FC0160E08091FC020E943E
:10191000CE0181E08093F70264E670E080E090E021
:101920000E947D034091FA025091FB0270E060E05A
:101930008091FF02909100030E949712E0910C02A7
:10194000F0910D0282E08083E0910802F09109029B
:101950001082E0910A02F0910B0280E180831092E4
:101960001402E0911002F091110286E08083E09170
:101970000E02F0910F02808180618083E0910E025F
:10198000F0910F02808188608083E0910E02F091D7
:101990000F02808180688083E0910E02F0910F0237
:1019A00080818F7D808361E08EE00E94FC0161E098
:1019B0008EE00E94CE018BEF96E090930101809320
:1019C0000001809169008C7F816080936900E89AB2
:1019D00060E082E00E94FC01C0911B0380911C0327
:1019E0008C3008F052C061E08C2F0E94FC01809185
:1019F0001C03282F30E0F901EE0FFF1FE20FF31F49
:101A0000EB55FD4FCF739081907C9C2B908310926F
:101A10001D0310921E032CE0622F0E94800F829FF4
:101A2000B001112430E020E0AB01420F531FFA0156
:101A3000EE0FFF1FE40FF51FEB55FD4F908196FD54
:101A400016C02F5F3F4F2C30310571F781110FC049
:101A50001092800082E080938100109285001092A5
:101A60008400B19A80916F00826080936F00E09152
:101A70001C038E2F90E0FC01EE0FFF1FE80FF91FF3
:101A8000EB55FD4F80818064808390E080E00E9470
:101A9000F6001092E2011092E1011092E001109222
:101AA000DF010E941A058FEA93E09093DE01809394
:101AB000DD018BEB93E09093DC018093DB0188E008
:101AC0008093BA008BE595E09093E4018093E30165
:101AD00081E896E09093E6018093E5010E94480634
:101AE000D1E000E0C0E08091E80181111DC010E06C
:101AF0004D2F502F612F8C2F0E94D0061F5F183062
:101B0000B9F70E94AA0268E770E080E090E00E94C6
:101B10007D03C73031F0C11102C0D1E000E0CD0F2C
:101B2000E2CFDFEF0FEFFBCFD0E0C0E044E654E6BA
:101B300064E670E0CE010E948D002196C830D10588
:101B4000A9F70E94AA02F8941092B0001092B10076
:101B50008091B10087608093B100809170008460B3
:101B6000809370008FEF8093B400789420E0822EF1
:101B700020E0922E01E010E0AA24AA94BA2C2FB7FC
:101B8000F8948091F4019091F501A091F601B09143
:101B9000F7012FBF4091EF015091F0016091F101E9
:101BA0007091F201481759076A077B07C0F40E9439
:101BB00048062FB7F8948091F4019091F501A09117
:101BC000F601B091F7012FBF0596A11DB11D8093BD
:101BD000EF019093F001A093F101B093F2012FB7C0
:101BE000F8948091F4019091F501A091F601B091E3
:101BF000F7012FBF4091EF015091F0016091F10189
:101C00007091F201481759076A077B0708F094C0E2
:101C1000C091ED01D091EE016091E9017091EA016E
:101C20008091EB019091EC010E9418109E01261BFF
:101C3000370BB901072E000C880B990B0E9450102E
:101C40002B013C0140921303509214036092150340
:101C5000709216032AE939E949E95EE30E94051109
:101C600020910F0330911003409111035091120302
:101C70000E94A70F6B017C0120911703309118037C
:101C80004091190350911A03C301B2010E94A60F9B
:101C90009B01AC010E94A70F9B01AC01C701B601DB
:101CA0000E94A70F6B017C0120E030E046E153EC7D
:101CB0000E94131087FD72C020E030E046E153E43B
:101CC000C701B6010E94001118160CF46EC0C09234
:101CD0000F03D0921003E0921103F092120340928E
:101CE0001703509218036092190370921A03CD2BB8
:101CF00009F062C088EC90E00E942D0260E080E173
:101D00000E94CE0160E081E10E94CE012FB7F894DD
:101D10008091F4019091F501A091F601B091F70145
:101D20002FBF0F96A11DB11D8093EF019093F0017D
:101D3000A093F101B093F2018091E801811122C0DA
:101D4000D0E0C091E70140910501509106016D2F4F
:101D50008C2F0E94D006DF5FD83099F70E94AA022C
:101D600068E770E080E090E00E947D03C73009F0F2
:101D70004DC0B0920601A092050180910501C80FE7
:101D8000C093E7018114910409F4F9CE0E94500434
:101D9000882309F4F4CE0E940000F1CEC12CD12C8E
:101DA00096E1E92E93ECF92E92CFC12CD12C86E14D
:101DB000E82E83E4F82E8BCFC701B6010E941810DD
:101DC0006B01CB01181619067CF481E080930401A5
:101DD00061E080E10E94CE0160E081E10E94CE01DD
:101DE000C6010E942D0292CF892B09F483CF109255
:101DF000040160E080E10E94CE0161E081E10E9487
:101E0000CE01882799278C199D09EBCFC111B5CF39
:101E10001093060100930501B0CF8091FF029091CD
:101E200000030E940E128091FC029091FD0297FD2A
:101E300003C060E00C94FC010895052E97FB1EF48E
:101E400000940E94340F57FD07D00E944F0F07FCEB
:101E500003D04EF40C94340F509540953095219555
:101E60003F4F4F4F5F4F08959095809570956195C6
:101E70007F4F8F4F9F4F08950E94710FA59F900D28
:101E8000B49F900DA49F800D911D11240895B7FF5C
:101E90000C943C0F0E943C0F821B930B0895A1E20F
:101EA0001A2EAA1BBB1BFD010DC0AA1FBB1FEE1FD4
:101EB000FF1FA217B307E407F50720F0A21BB30B1F
:101EC000E40BF50B661F771F881F991F1A9469F79B
:101ED00060957095809590959B01AC01BD01CF01F7
:101EE0000895A29FB001B39FC001A39F700D811DF3
:101EF0001124911DB29F700D811D1124911D089513
:101F0000991B79E004C0991F961708F0961B881F4B
:101F10007A95C9F780950895AA1BBB1B51E107C0AC
:101F2000AA1FBB1FA617B70710F0A61BB70B881F69
:101F3000991F5A95A9F780959095BC01CD010895F8
:101F4000EE0FFF1F0590F491E02D09945058BB2728
:101F5000AA270E94BE0F0C94C6100E94B81038F039
:101F60000E94BF1020F039F49F3F19F426F40C941E
:101F7000B5100EF4E095E7FB0C94AF10E92F0E942A
:101F8000D71058F3BA17620773078407950720F034
:101F900079F4A6F50C94F9100EF4E0950B2EBA2FF7
:101FA000A02D0B01B90190010C01CA01A00111245F
:101FB000FF27591B99F0593F50F4503E68F11A160B
:101FC000F040A22F232F342F4427585FF3CF46959C
:101FD00037952795A795F0405395C9F77EF41F16BE
:101FE000BA0B620B730B840BBAF09150A1F0FF0F88
:101FF000BB1F661F771F881FC2F70EC0BA0F621F74
:10200000731F841F48F4879577956795B795F79563
:102010009E3F08F0B0CF9395880F08F09927EE0FF8
:102020009795879508950E948B1008F481E0089594
:102030000E941F106894B1110C94FA1008950E9428
:10204000DF1088F09F5798F0B92F9927B751B0F05B
:10205000E1F0660F771F881F991F1AF0BA95C9F72C
:1020600014C0B13091F00E94F910B1E008950C94C1
:10207000F910672F782F8827B85F39F0B93FCCF374
:10208000869577956795B395D9F73EF490958095A9
:10209000709561957F4F8F4F9F4F0895E89409C0C9
:1020A00097FB3EF490958095709561957F4F8F4F8B
:1020B0009F4F9923A9F0F92F96E9BB279395F695A1
:1020C000879577956795B795F111F8CFFAF4BB0F1F
:1020D00011F460FF1BC06F5F7F4F8F4F9F4F16C083
:1020E000882311F096E911C0772321F09EE8872F0D
:1020F000762F05C0662371F096E8862F70E060E0C9
:102100002AF09A95660F771F881FDAF7880F969541
:10211000879597F90895990F0008550FAA0BE0E8E5
:10212000FEEF16161706E807F907C0F01216130699
:10213000E407F50798F0621B730B840B950B39F4D9
:102140000A2661F0232B242B252B21F408950A263F
:1021500009F4A140A6958FEF811D811D089597F97F
:102160009F6780E870E060E008959FEF80EC08953D
:1021700000240A9416161706180609060895002466
:102180000A9412161306140605060895092E0394E0
:10219000000C11F4882352F0BB0F40F4BF2B11F454
:1021A00060FF04C06F5F7F4F8F4F9F4F089557FDB3
:1021B0009058440F551F59F05F3F71F04795880FB5
:1021C00097FB991F61F09F3F79F08795089512164C
:1021D00013061406551FF2CF4695F1DF08C01616F8
:1021E00017061806991FF1CF8695710561050894A9
:1021F0000895E894BB2766277727CB0197F90895C0
:102200000E948B1008F48FEF08950E9418110C940F
:10221000C6100E94B81038F00E94BF1020F095231D
:1022200011F00C94AF100C94B51011240C94FA100A
:102230000E94D71070F3959FC1F3950F50E0551F82
:10224000629FF001729FBB27F00DB11D639FAA270B
:10225000F00DB11DAA1F649F6627B00DA11D661F5A
:10226000829F2227B00DA11D621F739FB00DA11D7B
:10227000621F839FA00D611D221F749F3327A00D35
:10228000611D231F849F600D211D822F762F6A2FD1
:1022900011249F5750409AF0F1F088234AF0EE0F36
:1022A000FF1FBB1F661F771F881F91505040A9F763
:1022B0009E3F510580F00C94AF100C94FA105F3FD4
:1022C000E4F3983ED4F3869577956795B795F7959F
:1022D000E7959F5FC1F7FE2B880F911D9695879517
:1022E00097F908950F931F93CF93DF938230910551
:1022F00010F482E090E0E0912E03F0912F0330E0A3
:1023000020E0B0E0A0E0309799F42115310509F400
:102310004AC0281B390B24303105D8F58A819B81AE
:102320006115710589F1FB0193838283FE0111C060
:10233000408151810281138148175907E0F0481705
:10234000590799F4109761F012960C93129713960F
:102350001C933296CF01DF91CF911F910F91089579
:1023600000932E0310932F03F4CF2115310551F064
:102370004217530738F0A901DB019A01BD01DF01C3
:10238000F801C1CFEF01F9CF90932F0380932E0373
:10239000CDCFFE01E20FF31F8193919322503109BB
:1023A00039832883D7CF20912C0330912D03232B01
:1023B00041F42091090130910A0130932D032093BB
:1023C0002C0320910701309108012115310541F4BA
:1023D0002DB73EB740910B0150910C01241B350BDA
:1023E000E0912C03F0912D03E217F307A0F42E1BCC
:1023F0003F0B2817390778F0AC014E5F5F4F241769
:10240000350748F04E0F5F1F50932D0340932C0368
:10241000819391939FCFF0E0E0E09CCFCF93DF9347
:102420000097E9F0FC01329713821282A0912E03EB
:10243000B0912F03ED0130E020E01097A1F420814E
:102440003181820F931F20912C0330912D03281787
:10245000390709F061C0F0932D03E0932C03DF915D
:10246000CF910895EA01CE17DF07E8F54A815B8135
:102470009E0141155105B1F7E901FB83EA834991BA
:102480005991C40FD51FEC17FD0761F4808191812C
:102490000296840F951FE901998388838281938135
:1024A0009B838A83F0E0E0E012968D919C911397D4
:1024B0000097B9F52D913C911197CD010296820FAD
:1024C000931F20912C0330912D032817390739F6DB
:1024D000309751F510922F0310922E03B0932D03D5
:1024E000A0932C03BCCFD383C28340815181840F3E
:1024F000951FC817D90761F44E5F5F4F8881998196
:10250000480F591F518340838A819B819383828323
:102510002115310509F0B0CFF0932F03E0932E037E
:102520009ECFFD01DC01C0CF13821282D7CFDC0128
:1025300001C06D9341505040E0F7089510E0C2E6AD
:10254000D0E004C0FE010E94A00F2196C336D1073F
:06255000C9F7F894FFCF6B
:10255600E503E503010100000030038000000000F0
:10256600008604E6031304D304440422043604005C
:10257600000000C005B505D6053805AE0548053985
:0225860005004E
:00000001FF
