:100000000C9463000C9403090C94DC080C948B0092
:100010000C948B000C948B000C948B000C948B0034
:100020000C945D0B0C948B000C948B000C94A10A27
:100030000C948B000C948B000C948B000C948B0014
:100040000C9492080C948B000C9450090C942A097F
:100050000C948B000C948B000C948B000C948B00F4
:100060000C9482090C948B000000000024002700EF
:100070002A000000000023002600290000000008DC
:10008000000201000003040700000000000000005F
:10009000010204081020408001020408102001021F
:1000A0000408102000000000250028002B00040494
:1000B0000404040404040202020202020303030310
:1000C0000303A30B0A1111241FBECFEFD8E0DEBF3C
:1000D000CDBF11E0A0E0B1E0EEE3FAE202C005908E
:1000E0000D92A835B107D9F723E0A8E5B1E001C02A
:1000F0001D92A136B207E1F710E0C2E6D0E004C0DD
:100100002197FE010E949D11C136D107C9F70E94B7
:100110001B0D0C9412150C9400004F925F926F927D
:100120007F928F929F92AF92BF92FF92209129036C
:1001300030912A038217930708F043C02B016624ED
:100140007724852E962EA72EBB24B82DA42F209180
:100150002F03F42C222391F0E22FF0E0E49DD00154
:10016000E59DB00DF49DB00D1124FB2E289D40019E
:100170001124B92D249F90011124A32FE091350360
:10018000209130033091310350913203E51323C0A5
:10019000FC01EE0FFF1F8E0F9F1F820F931FE09138
:1001A0003203E80FF92FF11DF082E0913303E80FDD
:1001B000F92FF11DB08320913403820F911DFC01B2
:1001C000A083FF90BF90AF909F908F907F906F9093
:1001D0005F904F900895880F991F880F991F820F85
:1001E000931FE80FF92FF11D1082D9CF8F929F92A4
:1001F000AF92BF92FF920F931F93CF93DF939C0117
:10020000F0904D038BE08F1508F46CC080914F0384
:1002100008E512E0081B110987FD1395000F111F57
:10022000000F111F80914E03C8E8D0E0C81BD10910
:1002300087FDD395CC0FDD1FCC0FDD1F4E010D2E9A
:10024000000CAA08BB08032E000C440B550B2C59BC
:100250003F4F4F4F5F4FA1E3B0E00E94391128ECB0
:1002600030E040E050E00E941A112A5B3F4F4F4FB0
:100270005F4FD9012837310514F0A7E7B0E0A63465
:10028000B10514F4A6E4B0E09801012E000C440B73
:10029000550B281939094A095B090E94441124EBBE
:1002A00030E040E050E00E941A11820E931EA41E1E
:1002B000B51E8C169D062CF0E801801691060CF4F4
:1002C000E4012297CC0FDD1F2FB7F8948F2D90E01B
:1002D000FC01EE0FFF1FE80FF91FEA52FD4FD2831A
:1002E000C1832FBFDF91CF911F910F91FF90BF90DE
:1002F000AF909F908F900895833081F028F48130E3
:1003000099F08230A9F008958730A9F08830C9F0BB
:100310008430B1F4809180008F7D03C08091800093
:100320008F7780938000089584B58F7784BD08957A
:1003300084B58F7DFBCF8091B0008F778093B00024
:1003400008958091B0008F7DF9CFCF93DF93282F50
:1003500030E0F901E458FF4F8491F901E057FF4F75
:10036000D491F901E255FF4FC491CC23A1F0811142
:100370000E947C01EC2FF0E0EE0FFF1FEE58FF4FC4
:10038000A591B491EC91ED2381E090E009F480E037
:10039000DF91CF91089580E090E0FACF1F93CF9343
:1003A000DF93282F30E0F901E458FF4F8491F901E1
:1003B000E057FF4FD491F901E255FF4FC491CC2390
:1003C000A9F0162F81110E947C01EC2FF0E0EE0FB6
:1003D000FF1FEC55FF4FA591B4918FB7F894EC91A6
:1003E000111108C0D095DE23DC938FBFDF91CF9130
:1003F0001F910895DE2BF8CFCF93DF9390E0FC019F
:10040000E057FF4F249182559F4FFC018491882330
:10041000D1F090E0880F991FFC01E859FF4FA5919A
:10042000B491FC01EC55FF4FC591D49161110EC000
:100430009FB7F8948C91E22FE0958E238C932881BE
:10044000E223E8839FBFDF91CF9108958FB7F8949F
:10045000EC91E22BEC938FBFF6CFCF93DF93EC01BF
:1004600061E085E00E94FC01209731F460E085E0C6
:10047000DF91CF910C94CE01CF3FD10511F461E013
:10048000F6CFE1E8F0E0E491E33029F140F4E13027
:10049000B1F0E230D9F0C038D1058CF7E7CFE730C2
:1004A00021F1E83051F1E430B1F7809180008062B1
:1004B00080938000D0938B00C0938A0004C084B5E1
:1004C000806884BDC7BDDF91CF91089584B58062F7
:1004D00084BDC8BDF8CF8091800080688093800083
:1004E000D0938900C0938800EECF8091B0008068DF
:1004F0008093B000C093B300E6CF8091B0008062DB
:100500008093B000C093B400DECF3FB7F8948091E1
:10051000290290912A02A0912B02B0912C0226B5BB
:10052000A89B05C02F3F19F00196A11DB11D3FBF2B
:10053000BA2FA92F982F8827BC01CD01620F711DFA
:10054000811D911D42E0660F771F881F991F4A95F4
:10055000D1F708950F931F93CF93DF93CDB7DEB7F5
:1005600029970FB6F894DEBF0FBECDBF8091300340
:1005700090913103892B09F47CC00E94850200917F
:1005800036031091370320913803309139036017F7
:1005900071078207930740F4609336037093370323
:1005A00080933803909339030091360310913703F9
:1005B0002091380330913903601B710B820B930B30
:1005C0006C32714081059105C0F2F89480912B0343
:1005D00090912C039A838983E0913003F091310349
:1005E000DF0111968081898790912703E0913A037A
:1005F000F0913B0380913C03992309F445C090811D
:10060000982B98879081809589238F838F818C8305
:1006100088E08B8358856F8149853B812C81898156
:100620009A81508347FD252F3A952083262F39F054
:10063000441F00C000006083000000C0F2CF38E01B
:100640004D9160830000019761F7F0933B03E093C5
:100650003A0349873B832C839A83898378940E9449
:100660008502609336037093370380933803909329
:10067000390329960FB6F894DEBF0FBECDBFDF91C8
:10068000CF911F910F9108959081982B9887908119
:10069000809589238F838F818E8388E08D83588511
:1006A0006F8149853D812E8189819A81508347FDE3
:1006B000252F00C000C0208300C000C000C000C0C3
:1006C00000C060830000262F3A9541F0441F0000CF
:1006D00000C000C000C000C000C0E8CF38E04D91AD
:1006E00000C0608300C0019709F7F0933B03E093DB
:1006F0003A0349873D832E83AFCF8F929F92AF926B
:10070000BF92CF92DF92EF92FF924B015C010E9469
:1007100085026B017C010E9485026C197D098E099E
:100720009F09683E734081059105A8F321E0821A74
:100730009108A108B10888EEC80E83E0D81EE11C1C
:10074000F11C81149104A104B10429F7FF90EF90EA
:10075000DF90CF90BF90AF909F908F900895E091E1
:100760000102F0910202309729F01092FC011092E0
:10077000FB0109940895CF93DF93AC01E091FF0151
:10078000F09100023097F1F09091FE018091FD010F
:100790009817C0F090E0292F30E02617370754F45F
:1007A000D901A959BE4F240F351FE90128812C9387
:1007B0009F5FF1CF1092FE016093FD01CB01DF91AD
:1007C000CF910994DF91CF9108950895AF92BF9290
:1007D000CF92DF92EF92FF920F931F93CF93DF930D
:1007E0006C017B018B01040F151FEB015E01AE183C
:1007F000BF08C017D10759F06991D601ED91FC915E
:100800000190F081E02DC6010995892B79F7C5018A
:10081000DF91CF911F910F91FF90EF90DF90CF90DC
:10082000BF90AF900895FC01538D448D252F30E08B
:10083000842F90E0821B930B541710F0CF960895ED
:1008400001970895FC01918D828D981761F0A28D1A
:10085000AE0FBF2FB11D5D968C91928D9F5F9F73E0
:10086000928F90E008958FEF9FEF0895FC01918D96
:10087000828D981731F0828DE80FF11D858D90E003
:1008800008958FEF9FEF0895FC01918D228D892FA0
:1008900090E0805C9F4F821B91098F739927089588
:1008A0008DE292E00E94440421E0892B09F420E0CB
:1008B000822F089580E090E0892B29F00E94500457
:1008C00081110C9400000895FC01A48DA80FB92F8C
:1008D000B11DA35ABF4F2C91848D90E001968F7368
:1008E0009927848FA689B7892C93A089B1898C9187
:1008F000837080648C93938D848D981306C00288D6
:10090000F389E02D80818F7D80830895EF92FF929F
:100910000F931F93CF93DF93EC0181E0888F9B8D22
:100920008C8D98131AC0E889F989808185FF15C0DC
:100930009FB7F894EE89FF896083E889F9898081FF
:100940008370806480839FBF81E090E0DF91CF91CE
:100950001F910F91FF90EF900895F62E0B8D10E0F0
:100960000F5F1F4F0F731127E02E8C8D8E110CC05F
:100970000FB607FCFACFE889F989808185FFF5CFAA
:10098000CE010E946404F1CFEB8DEC0FFD2FF11D21
:10099000E35AFF4FF0829FB7F8940B8FEA89FB89E7
:1009A00080818062CFCFCF93DF93EC01888D882345
:1009B000B9F0AA89BB89E889F9898C9185FD03C0C2
:1009C000808186FD0DC00FB607FCF7CF8C9185FFA7
:1009D000F2CF808185FFEDCFCE010E946404E9CF84
:1009E000DF91CF9108952091AD01260F3327331F5A
:1009F00021323105ECF42091D101FC0190E080E03E
:100A0000243069F082E00895A091AD012191AC01FC
:100A100043575E4FA40FB52FB11D2C930196861737
:100A200098F38091AD01680F6093AD0180E0089567
:100A300081E008951092D10181E08093D30110925A
:100A4000D20161E082E10E94CE0161E083E10E9477
:100A5000CE01E9EBF0E080818E7F808380818D7F05
:100A6000808388E48093B80085E48093BC00089577
:100A70000895E091FE018091FD01E81730F4F0E067
:100A8000E959FE4F808190E008958FEF9FEF089520
:100A90009091FE018091FD012FEF3FEF981748F4F0
:100AA000E92FF0E0E959FE4F208130E09F5F9093FD
:100AB000FE01C90108950F931F93CF93DF938C011B
:100AC000101611060CF047C08AEC92E00E9448050F
:100AD00080936001015011098330B9F48AEC92E0EF
:100AE0000E944805EC0190931A02809319028AEC47
:100AF00092E00E944805892B19F7D195C195D1093B
:100B0000D0931A02C0931902DBCF843091F48AEC9F
:100B100092E00E944805EC018AEC92E00E944805B0
:100B2000892B19F4D195C195D109CE010E94F60007
:100B3000C7CF853029F68AEC92E00E944805EC0187
:100B4000682F8EE00E94CE0181E0CD2B09F480E079
:100B500080931402B5CFDF91CF911F910F9108952B
:100B60008091FD019091FE01891B990B0895CF930F
:100B7000DF93CB01EA01642F0E94F304CE01DF91E1
:100B8000CF910895CF93DF931F92CDB7DEB76983DE
:100B900061E0CE0101960E94F30481E090E00F90A5
:100BA000DF91CF910895682F8AEC92E00C94C205F2
:100BB00090E080E008950F931F93CF93DF93EC01B3
:100BC0008A81882321F061E088810E94FC0160E035
:100BD00088810E94CE0183E090E00197F1F761E007
:100BE00088810E94CE0183E290E00197F1F760E0F6
:100BF00088810E94CE018A81882321F060E088816B
:100C00000E94FC010E9485026B837C838D839E83FE
:100C100089810E94A501892B99F40E9485020B818C
:100C20001C812D813E81601B710B820B930B0F8108
:100C3000188529853A85061717072807390740F7C9
:100C40000E9485026B837C838D839E8389810E94B1
:100C5000A501892B99F00E9485020B811C812D81B1
:100C60003E81601B710B820B930B0F8118852985C8
:100C70003A85061717072807390740F70E948502AB
:100C80002B813C81CB01821B930BDF91CF911F9174
:100C90000F91089580916001813081F580915C0110
:100CA00090915D01A0915E01B0915F018093580128
:100CB00080915C0190915D01A0915E01B0915F0116
:100CC0009093590180915C0190915D01A0915E012A
:100CD000B0915F01A0935A0180915C0190915D01F8
:100CE000A0915E01B0915F01B0935B0144E050E0E0
:100CF00068E571E08AEC92E00C94B7058230C1F4AB
:100D000080911102909112020E94D30580910502F8
:100D1000909106020E94D3058091090290910A02E7
:100D20000E94D30580910D0290910E020C94D30580
:100D30000895282F30E0861307C040E050E06EE1B0
:100D400070E0C9010C948D00862F90E0BC01621BFD
:100D5000730B649F9001659F300D749F300D1124BB
:100D60002F3F320729F440E050E06CE070E0EACF1A
:100D70002E3F3F4F29F440E050E064E070E0E2CFC6
:100D800040E050E0BA01DECF80910801882339F1BC
:100D90008091610190916201A0916301B091640121
:100DA0000196A11DB11D8093610190936201A093F2
:100DB0006301B093640180915C0190915D01A09109
:100DC0005E01B0915F010196A11DB11D80935C0190
:100DD00090935D01A0935E01B0935F0108958091AF
:100DE000610190916201A0916301B091640101974A
:100DF000A109B1098093610190936201A0936301FD
:100E0000B093640180915C0190915D01A0915E01BD
:100E1000B0915F010197A109B109D8CFFC01019000
:100E20000020E9F73197AF01481B590BBC018DE257
:100E300092E00C94E6038F929F92AF92BF920F9331
:100E40001F93CF93DF93CDB7DEB7A1970FB6F8947A
:100E5000DEBF0FBECDBF19A2423008F44AE08E01BA
:100E60000F5D1F4F842E912CB12CA12CA501940154
:100E70000E944C11E62FB901CA01EA30F4F4E05D9A
:100E8000D801EE938D01232B242B252B79F790E0AD
:100E900080E0109719F0CD010E940E07A1960FB6C1
:100EA000F894DEBF0FBECDBFDF91CF911F910F91A0
:100EB000BF90AF909F908F900895E95CE1CF4F92E3
:100EC0005F926F927F928F929F92AF92BF92CF92DA
:100ED000DF92EF92FF920F931F93CF936B017C01F0
:100EE000742EAC019B010E94E113882399F085E3E5
:100EF00091E0CF911F910F91FF90EF90DF90CF90F5
:100F0000BF90AF909F908F907F906F905F904F9029
:100F10000C940E0746015701E894B7F82FEF3FEF06
:100F20004FE75FE7C501B4010E94E11381110DC0D5
:100F30002FEF3FEF4FE75FE7C501B4010E941012AA
:100F400018161CF489E391E0D4CF2FEF3FEF4FE761
:100F50005FE4C701B6010E946F1318161CF48DE3FD
:100F600091E0C7CF2FEF3FEF4FE75FECC701B6012E
:100F70000E94101287FDF3CF20E030E0A901C701E5
:100F8000B6010E94101210E000E087FF0AC06DE277
:100F90008DE292E00E9486048C01F7FAF094F7F853
:100FA000F094C0E060E070E080E09FE37C1641F0E8
:100FB00020E030E040E251E40E941512CF5FF6CF0E
:100FC000A70196010E94A4112B013C010E948E12E0
:100FD0004B015C014AE00E941B077C01E00EF11E00
:100FE000CC23C1F1C501B4010E94BD129B01AC012B
:100FF000C301B2010E94A3114B015C016EE28DE2BC
:1010000092E00E948604E80EF91EC15018F120E01B
:1010100030E040E251E4C501B4010E9474132B0199
:101020003C010E948E124B01B12CA12C4AE0C5015B
:10103000B4010E941B07E80EF91EC501B4010E940D
:10104000BD129B01AC01C301B2010E94A3114B016F
:101050005C01DBCFC701CF911F910F91FF90EF9003
:10106000DF90CF90BF90AF909F908F907F906F90C8
:101070005F904F900895CF93DF9385ED8093BC00F0
:101080008091890190918A01A0918B01B0918C018E
:101090000796A11DB11D23E0B695A7959795879555
:1010A0002A95D1F72091BC0024FD03C01092D101F4
:1010B00036C04091890150918A0160918B017091F5
:1010C0008C01452B462B472B69F30097A105B105F1
:1010D00041F025E32A95F1F700000197A109B10934
:1010E000E1CF8091880191E0909387018823B9F046
:1010F000C091B800D091BA008091BC008A7B8093E7
:10110000BC0060E082E10E94CE0160E083E10E94C9
:10111000CE010E941A05D093BA00C093B800DF91A7
:10112000CF9108951F920F920FB60F9211242F9313
:101130003F938F939F93AF93BF938091250290919C
:101140002602A0912702B09128023091240223E0C8
:10115000230F2D3758F50196A11DB11D20932402B0
:101160008093250290932602A0932702B093280231
:101170008091290290912A02A0912B02B0912C0219
:101180000196A11DB11D8093290290932A02A0937C
:101190002B02B0932C02BF91AF919F918F913F9101
:1011A0002F910F900FBE0F901F90189526E8230FD8
:1011B0000296A11DB11DD2CF1F920F920FB60F92B2
:1011C00011242F933F934F935F936F937F938F934C
:1011D0009F93AF93BF93EF93FF93E0910201F09140
:1011E00003010995FF91EF91BF91AF919F918F916D
:1011F0007F916F915F914F913F912F910F900FBE13
:101200000F901F9018951F920F920FB60F921124F6
:101210002F933F934F935F936F937F938F939F93FE
:10122000AF93BF93EF93FF93E0910001F091010121
:101230000995FF91EF91BF91AF919F918F917F9110
:101240006F915F914F913F912F910F900FBE0F9033
:101250001F9018951F920F920FB60F9211242F9383
:101260003F934F935F936F937F938F939F93AF932E
:10127000BF93EF93FF938DE292E00E946404FF918D
:10128000EF91BF91AF919F918F917F916F915F91FE
:101290004F913F912F910F900FBE0F901F90189577
:1012A0001F920F920FB60F9211242F938F939F933B
:1012B000EF93FF93E0913D02F0913E028081E09137
:1012C0004302F091440282FD1BC09081809146024E
:1012D0008F5F8F7320914702821741F0E0914602A1
:1012E000F0E0E35DFD4F958F80934602FF91EF9113
:1012F0009F918F912F910F900FBE0F901F90189577
:101300008081F4CF1F920F920FB60F9211242F936A
:101310003F934F935F936F937F938F939F93AF937D
:10132000BF93EF93FF938091B900887F803609F4D3
:101330004AC0F0F5883209F4A7C018F5803109F4E5
:101340009BC0B8F4882309F4F9C0883009F494C02C
:10135000FF91EF91BF91AF919F918F917F916F918D
:101360005F914F913F912F910F900FBE0F901F9063
:101370001895883109F488C0803251F78093D001E4
:1013800014C0803409F49DC040F48033B9F388332D
:10139000F9F68093D00185ECB0C0803509F485C0A2
:1013A000883509F496C0883499F60E943B08D0CF5E
:1013B000883909F48CC038F5883729F050F488361C
:1013C00011F0803729F683E08093D1011092CF018C
:1013D00057C0883809F47BC0803919F0803809F08B
:1013E000B7CF8091CF01803208F071C0E091CF017A
:1013F00081E08E0F8093CF018091BB00F0E0E1553A
:10140000FE4F80833DC0803B39F0E0F4803A09F420
:1014100079C0883A09F09CCF84E08093D101109282
:10142000AE011092AD01E091F901F091FA01099538
:101430008091AD0181110FC081E08093AD011092C8
:101440008D0109C0803C09F4A6CF883C09F4A3CFE4
:10145000883B09F07DCFE091AE0181E08E0F809353
:10146000AE01F0E0E357FE4F80818093BB00909186
:10147000AE018091AD0129C08091F6018093BB003F
:1014800085EC8093BC0064CF9091F5018091F401CC
:10149000981758F5E091F50181E08E0F8093F501E2
:1014A000F0E0EC52FE4F8081E9CFE091F50181E060
:1014B0008E0F8093F5018091BB00F0E0EC52FE4F5F
:1014C00080839091F5018091F4019817C8F285E826
:1014D000D8CFE091F50181E08E0F8093F5018091E6
:1014E000BB00F0E0EC52FE4F80838091D30181116C
:1014F0005CCF81E08093D20184EA8093BC0010929B
:10150000D10126CF85EC8093BC001092D10180914F
:10151000CF01803230F4E091CF01F0E0E155FE4F91
:1015200010826091CF0170E0E091F701F091F80135
:101530008FEA91E009951092CF010ACF1092D00165
:1015400034CF1F920F920FB60F9211242F933F9317
:101550004F935F936F937F938F939F93AF93BF93BB
:10156000CF93DF93EF93FF9380916601C091FA02CE
:10157000D0E087FF24C010928500109284008091F3
:1015800066018F5F8093660180916601082E000CD2
:10159000990B8C179D0724F4809166018C30C4F15F
:1015A0008091840090918500049680349C4908F4D1
:1015B0007AC08091840090918500049676C08091D5
:1015C0006601082E000C990B8C179D07C4F6E0915C
:1015D00066018E2FEE0F990BFC01EE0FFF1FE80F37
:1015E000F91FEA52FD4F808186FFC9CFE091660165
:1015F0008E2FEE0F990BFC01EE0FFF1FE80FF91F66
:10160000EA52FD4F808160E08F730E94CE01B7CF18
:101610002091840030918500E09166018E2FEE0FBD
:10162000990BFC01EE0FFF1FE80FF91FEA52FD4F67
:1016300081819281820F931F90938900809388000B
:10164000E09166018E2FEE0F990BFC01EE0FFF1F4C
:10165000E80FF91FEA52FD4F808186FF11C0E0912B
:1016600066018E2FEE0F990BFC01EE0FFF1FE80FA6
:10167000F91FEA52FD4F808161E08F730E94CE0115
:10168000FF91EF91DF91CF91BF91AF919F918F919A
:101690007F916F915F914F913F912F910F900FBE6E
:1016A0000F901F90189580E49CE990938900809397
:1016B00088008FEF80936601E3CF1F920F920FB6E1
:1016C0000F9211242F933F934F935F936F937F93C8
:1016D0008F939F93AF93BF93EF93FF938091650197
:1016E000882369F1609161017091620180916301C9
:1016F000909164010E94BF126093150270931602CC
:101700008093170290931802109261011092620167
:10171000109263011092640110926501FF91EF91A4
:10172000BF91AF919F918F917F916F915F914F91F9
:101730003F912F910F900FBE0F901F90189581E051
:1017400080936501EBCFCF92DF92EF92FF921092E0
:10175000300210922F0288EE93E0A0E0B0E0809378
:10176000310290933202A0933302B093340225E108
:1017700031E030932E0220932D0225EC30E030939F
:101780003A022093390224EC30E030933C0220935B
:101790003B0220EC30E030933E0220933D0221ECEE
:1017A00030E03093400220933F0222EC30E030934F
:1017B00042022093410226EC30E030934402209311
:1017C0004302109246021092470210924802109271
:1017D00049021092CD021092CC028093CE029093D7
:1017E000CF02A093D002B093D10287E291E0909310
:1017F000CB028093CA028091FA028C3008F00EC1AD
:1018000091E0980F9093FA0280934D0390E0FC01D1
:10181000EE0FFF1FE80FF91FEA52FD4F88EB9BE028
:101820009283818389E080934C031092400310924D
:101830004103109242031092430385E080933D03DD
:1018400080E180933E0381E180933F0361E085E086
:101850000E94FC0161E080E10E94FC0161E081E105
:101860000E94FC011092280310922F03109236035D
:1018700010923703109238031092390381E080935D
:101880003503809332031092330392E09093340334
:101890008093270388E190E090932C0380932B039F
:1018A0000E94E6139093310380933003009709F46C
:1018B000B9C028E1FC0111922A95E9F788E090E08F
:1018C00090932A03809329038CE090E090932E0359
:1018D00080932D0380912803882341F061E08CE000
:1018E0000E94FC0160E08CE00E94CE01EAEBF0E097
:1018F000E491F0E0EE0FFF1FEC55FF4F85919491BE
:1019000090933B0380933A03ECE9F0E0E491E09399
:101910003C0387E080931C0386E080931D031092B4
:101920001E0361E087E00E94FC0160E080911D03DE
:101930000E94FC0198E2C92E93E2D92EE12CF12CF1
:10194000C0922303D0922403E0922503F092260351
:101950008BE08093110384E08093120310921303B1
:1019600061E08BE00E94FC0160E0809112030E9424
:10197000FC01C0921803D0921903E0921A03F0926E
:101980001B0383E08093060388E080930703109293
:10199000080361E083E00E94FC0160E0809107039E
:1019A0000E94FC01C0920D03D0920E03E0920F033F
:1019B000F09210038DE08093FB028FE08093FC0295
:1019C0001092FD0261E08DE00E94FC0160E08091D8
:1019D000FC020E94FC01C0920203D0920303E09239
:1019E0000403F09205038FEF80935003109252038B
:1019F0001092510310925C0310925B038FEF9FEFE4
:101A0000DC018093570390935803A0935903B0933C
:101A10005A03FF90EF90DF90CF9008958FEF80935F
:101A20004D0300CF10922C0310922B0310922A0327
:101A30001092290349CF789484B5826084BD84B51F
:101A4000816084BD85B5826085BD85B5816085BDB9
:101A500080916E00816080936E0010928100809171
:101A600081008260809381008091810081608093F9
:101A70008100809180008160809380008091B1001E
:101A800084608093B1008091B00081608093B00049
:101A900080917A00846080937A0080917A008260DD
:101AA00080937A0080917A00816080937A0080919F
:101AB0007A00806880937A001092C10080912D0393
:101AC00090912E0397FD08C061E00E94FC0160E048
:101AD00080912D030E94CE0181E08093280364E66B
:101AE00070E080E090E00E947D0340912B035091D4
:101AF0002C0370E060E080913003909131030E94EC
:101B00000B15E0913D02F0913E0282E08083E0916E
:101B10003902F0913A021082E0913B02F0913C02CE
:101B200080E1808310924502E0914102F0914202EF
:101B300086E08083E0913F02F091400280818061E5
:101B40008083E0913F02F091400280818860808331
:101B5000E0913F02F0914002808180688083E091B3
:101B60003F02F091400280818F7D808381E491E08B
:101B70000E940E0780E591E00E940E0761E08EE072
:101B80000E94FC0184EC96E0909301018093000197
:101B9000809169008C7F816080936900E89A60E0A1
:101BA00082E00E94FC01C0914C0380914D038C3077
:101BB00008F052C061E08C2F0E94FC0180914D031F
:101BC000282F30E0F901EE0FFF1FE20FF31FEA525A
:101BD000FD4FCF739081907C9C2B908310924E038D
:101BE00010924F032CE0622F0E947D11829FB00162
:101BF000112430E020E0AB01420F531FFA01EE0F39
:101C0000FF1FE40FF51FEA52FD4F908196FD16C0AD
:101C10002F5F3F4F2C30310571F781110FC01092AB
:101C2000800082E0809381001092850010928400F1
:101C3000B19A80916F00826080936F00E0914D03B4
:101C40008E2F90E0FC01EE0FFF1FE80FF91FEA5204
:101C5000FD4F80818064808390E080E00E94F600E8
:101C60001092FE011092FD011092FC011092FB01F6
:101C70000E941A058FEA93E09093FA018093F9018C
:101C80008BEB93E09093F8018093F70188E08093C9
:101C9000BA008BE595E0909300028093FF018AE4FF
:101CA00096E09093020280930102C5E06CE271E03D
:101CB00080E090E00E947D03C150C1F7D1E000E0D8
:101CC0008091140281111EC010E04D2F502F612F02
:101CD0008C2F0E9499061F5F1830B9F70E94AA0244
:101CE00068E770E080E090E00E947D03C73021F05B
:101CF000CC2329F0CD0FE4CFDFEF0FEFFBCFD1E006
:101D000000E0F8CFD0E0C0E044E654E664E670E0DE
:101D1000CE010E948D002196C830D105A9F70E94FE
:101D2000AA02F8941092B0001092B1008091B10014
:101D300087608093B1008091700084608093700010
:101D40008FEF8093B4007894C8E3D0E09924939403
:101D500022242394312CAA24AA94BA2C2FB7F894C5
:101D60008091250290912602A0912702B09128022D
:101D70002FBF409120025091210260912202709168
:101D80002302481759076A077B0708F0A7C010917C
:101D90001F0280910801882309F4E9C11111CDC106
:101DA0008CE193E00E94DB05BE010E9489117093D3
:101DB00012026093110280911102909112028739F0
:101DC00091057CF080910401882309F4DCC18091A5
:101DD0000F029091100290931202809311021092C0
:101DE000040180910D0290910E02873991057CF0DB
:101DF00080910501882309F4C9C180910B0290915B
:101E00000C0290930E0280930D02109205018091B6
:101E1000090290910A02873991057CF080910601B0
:101E2000882309F4B6C1809107029091080290932B
:101E30000A02809309021092060180910502909196
:101E40000602873991057CF080910701882309F407
:101E5000A3C18091030290910402909306028093A3
:101E60000502109207018091110290911202909345
:101E7000100280930F0280910D0290910E029093B8
:101E80000C0280930B028091090290910A029093B8
:101E900008028093070280910502909106029093B8
:101EA000040280930302123009F079C110921F02DC
:101EB0002FB7F8948091250290912602A0912702D5
:101EC000B09128022FBF0796A11DB11D809320025B
:101ED00090932102A0932202B09323022FB7F8948B
:101EE0008091250290912602A0912702B0912802AC
:101EF0002FBF40911B0250911C0260911D027091F6
:101F00001E02481759076A077B0708F0E3C00091D3
:101F1000190210911A0260911502709116028091B7
:101F20001702909118020E9487129801261B370B06
:101F3000B901072E000C880B990B0E94BF122B01D0
:101F40003C014092440350924503609246037092D4
:101F500047032AE939E949E95EE30E9474132091B5
:101F600040033091410340914203509143030E944A
:101F7000A4116B017C0120914803309149034091E9
:101F80004A0350914B03C301B2010E94A3119B016C
:101F9000AC010E94A4119B01AC01C701B6010E94D3
:101FA000A4116B017C0120E030E046E153EC0E947B
:101FB000101287FDF8C020E030E046E153E4C7018D
:101FC000B6010E946F13181634F4C12CD12C96E17F
:101FD000E92E93E4F92EC0924003D0924103E0929F
:101FE0004203F092430340924803509249036092A7
:101FF0004A0370924B03012B09F0DCC088EC90E09F
:102000000E942D0260E080E10E94CE0160E081E14B
:102010000E94CE0183E591E00E940E0760911502B7
:1020200070911602809117029091180242E00E946E
:102030005F0785E591E00E940E0783E591E00E942D
:102040000E07C0901902D0901A020D2C000CEE0859
:10205000FF084AE0C701B601F7FE0DC06DE28DE250
:1020600092E00E94860466277727CB016C197D09D0
:102070008E099F094AE00E941B0785E591E00E94B6
:102080000E0783E591E00E940E0760914003709176
:102090004103809142039091430342E00E945F0715
:1020A00080E591E00E940E072FB7F89480912502F9
:1020B00090912602A0912702B09128022FBF0F967F
:1020C000A11DB11D80931B0290931C02A0931D02C1
:1020D000B0931E0280911402811122C000E0109181
:1020E00013024091090150910A01602F812F0E9433
:1020F00099060F5F083099F70E94AA0268E770E01E
:1021000080E090E00E947D03173009F07CC0B0921F
:102110000A01A092090180910901180F109313027E
:1021200080E090E0892B09F419CE0E9450048823A6
:1021300009F414CE0E94000011CE113061F486E043
:1021400093E00E94DB05BE010E94891170930A0290
:102150006093090230CE81E193E00E94DB05BE016D
:102160000E948911709306026093050224CE8BEFC2
:1021700092E00E94DB05BE010E94891170930E025D
:1021800060930D0218CE909204012BCE909205011F
:102190003ECE9092060151CE9092070164CE1F5F11
:1021A00010931F0285CEC12CD12C86E1E82E83EC42
:1021B000F82E11CFC701B6010E9487126B01CB0127
:1021C0001816190674F49092080161E080E10E94EB
:1021D000CE0160E081E10E94CE01C6010E942D0285
:1021E00019CF892B09F40ACF1092080160E080E131
:1021F0000E94CE0161E081E10E94CE0188279927EB
:102200008C199D09EBCF111186CF30920A012092D3
:10221000090181CF80913003909131030E94821493
:1022200080912D0390912E0397FD03C060E00C94E4
:10223000FC010895052E97FB1EF400940E943111B5
:1022400057FD07D00E944C1107FC03D04EF40C94AC
:10225000311150954095309521953F4F4F4F5F4F2D
:10226000089590958095709561957F4F8F4F9F4F02
:1022700008950E946E11A59F900DB49F900DA49F8C
:10228000800D911D11240895B7FF0C9439110E94FF
:102290003911821B930B0895A1E21A2EAA1BBB1BB6
:1022A000FD010DC0AA1FBB1FEE1FFF1FA217B30722
:1022B000E407F50720F0A21BB30BE40BF50B661F38
:1022C000771F881F991F1A9469F7609570958095FC
:1022D00090959B01AC01BD01CF010895A29FB00173
:1022E000B39FC001A39F700D811D1124911DB29F4A
:1022F000700D811D1124911D0895991B79E004C072
:10230000991F961708F0961B881F7A95C9F7809534
:102310000895AA1BBB1B51E107C0AA1FBB1FA6172C
:10232000B70710F0A61BB70B881F991F5A95A9F77E
:1023300080959095BC01CD010895EE0FFF1F05908B
:10234000F491E02D09945058BB27AA270E94BB1195
:102350000C9435130E94271338F00E942E1320F09E
:1023600039F49F3F19F426F40C9424130EF4E095ED
:10237000E7FB0C941E13E92F0E94461358F3BA177B
:10238000620773078407950720F079F4A6F50C948B
:1023900068130EF4E0950B2EBA2FA02D0B01B90196
:1023A00090010C01CA01A0011124FF27591B99F0CB
:1023B000593F50F4503E68F11A16F040A22F232FD7
:1023C000342F4427585FF3CF469537952795A79527
:1023D000F0405395C9F77EF41F16BA0B620B730BCE
:1023E000840BBAF09150A1F0FF0FBB1F661F771F3F
:1023F000881FC2F70EC0BA0F621F731F841F48F4F4
:10240000879577956795B795F7959E3F08F0B0CF7C
:102410009395880F08F09927EE0F97958795089563
:102420000E94FA1208F481E008950E9429120C9487
:1024300035130E942E1358F00E94271340F029F400
:102440005F3F29F00C941E1351110C9469130C94E6
:1024500024130E94461368F39923B1F3552391F393
:10246000951B550BBB27AA2762177307840738F003
:102470009F5F5F4F220F331F441FAA1FA9F335D060
:102480000E2E3AF0E0E832D091505040E695001C14
:10249000CAF72BD0FE2F29D0660F771F881FBB1FCE
:1024A000261737074807AB07B0E809F0BB0B802DAC
:1024B000BF01FF2793585F4F3AF09E3F510578F0D8
:1024C0000C941E130C9469135F3FE4F3983ED4F30D
:1024D000869577956795B795F7959F5FC9F7880FAC
:1024E000911D9695879597F90895E1E0660F771FFE
:1024F000881FBB1F621773078407BA0720F0621B8F
:10250000730B840BBA0BEE1F88F7E09508950E94B9
:102510008E126894B1110C94691308950E944E13A1
:1025200088F09F5798F0B92F9927B751B0F0E1F094
:10253000660F771F881F991F1AF0BA95C9F714C044
:10254000B13091F00E946813B1E008950C946813C3
:10255000672F782F8827B85F39F0B93FCCF386957D
:1025600077956795B395D9F73EF4909580957095DA
:1025700061957F4F8F4F9F4F0895E89409C097FB57
:102580003EF490958095709561957F4F8F4F9F4F4A
:102590009923A9F0F92F96E9BB279395F69587958E
:1025A00077956795B795F111F8CFFAF4BB0F11F451
:1025B00060FF1BC06F5F7F4F8F4F9F4F16C08823F8
:1025C00011F096E911C0772321F09EE8872F762F2E
:1025D00005C0662371F096E8862F70E060E02AF06F
:1025E0009A95660F771F881FDAF7880F969587955B
:1025F00097F90895990F0008550FAA0BE0E8FEEF30
:1026000016161706E807F907C0F012161306E407B6
:10261000F50798F0621B730B840B950B39F40A26AF
:1026200061F0232B242B252B21F408950A2609F48D
:10263000A140A6958FEF811D811D089597F99F6791
:1026400080E870E060E008959FEF80EC089500243A
:102650000A941616170618060906089500240A9407
:1026600012161306140605060895092E0394000C8D
:1026700011F4882352F0BB0F40F4BF2B11F460FF1C
:1026800004C06F5F7F4F8F4F9F4F089557FD905845
:10269000440F551F59F05F3F71F04795880F97FB26
:1026A000991F61F09F3F79F08795089512161306E0
:1026B0001406551FF2CF4695F1DF08C0161617060F
:1026C0001806991FF1CF8695710561050894089544
:1026D000E894BB2766277727CB0197F908950E94D6
:1026E000FA1208F48FEF08950E9487130C943513A3
:1026F0000E94271338F00E942E1320F0952311F02A
:102700000C941E130C94241311240C9469130E942E
:10271000461370F3959FC1F3950F50E0551F629FCC
:10272000F001729FBB27F00DB11D639FAA27F00D2A
:10273000B11DAA1F649F6627B00DA11D661F829F51
:102740002227B00DA11D621F739FB00DA11D621F36
:10275000839FA00D611D221F749F3327A00D611D53
:10276000231F849F600D211D822F762F6A2F112435
:102770009F5750409AF0F1F088234AF0EE0FFF1F68
:10278000BB1F661F771F881F91505040A9F79E3FBF
:10279000510580F00C941E130C9469135F3FE4F311
:1027A000983ED4F3869577956795B795F795E79515
:1027B0009F5FC1F7FE2B880F911D9695879597F91E
:1027C00008950E94FA12880B990B08950F931F9396
:1027D000CF93DF938230910510F482E090E0E09196
:1027E0005F03F091600330E020E0B0E0A0E03097BC
:1027F00099F42115310509F44AC0281B390B2430FE
:102800003105D8F58A819B816115710589F1FB013C
:1028100093838283FE0111C0408151810281138123
:1028200048175907E0F04817590799F4109761F0D5
:1028300012960C93129713961C933296CF01DF9148
:10284000CF911F910F91089500935F031093600340
:10285000F4CF2115310551F04217530738F0A90183
:10286000DB019A01BD01DF01F801C1CFEF01F9CF12
:102870009093600380935F03CDCFFE01E20FF31FBF
:10288000819391932250310939832883D7CF2091A6
:102890005D0330915E03232B41F420910D013091B3
:1028A0000E0130935E0320935D0320910B01309164
:1028B0000C012115310541F42DB73EB740910F01B0
:1028C00050911001241B350BE0915D03F0915E03E4
:1028D000E217F307A0F42E1B3F0B2817390778F0F7
:1028E000AC014E5F5F4F2417350748F04E0F5F1F56
:1028F00050935E0340935D03819391939FCFF0E0EB
:10290000E0E09CCFCF93DF930097E9F0FC01329792
:1029100013821282A0915F03B0916003ED0130E059
:1029200020E01097A1F420813181820F931F209124
:102930005D0330915E032817390709F061C0F093F9
:102940005E03E0935D03DF91CF910895EA01CE1716
:10295000DF07E8F54A815B819E0141155105B1F71A
:10296000E901FB83EA8349915991C40FD51FEC1704
:10297000FD0761F4808191810296840F951FE90122
:1029800099838883828193819B838A83F0E0E0E04E
:1029900012968D919C9113970097B9F52D913C91CA
:1029A0001197CD010296820F931F20915D03309104
:1029B0005E032817390739F6309751F510926003F6
:1029C00010925F03B0935E03A0935D03BCCFD383EB
:1029D000C28340815181840F951FC817D90761F4C4
:1029E0004E5F5F4F88819981480F591F5183408303
:1029F0008A819B81938382832115310509F0B0CFB1
:102A0000F0936003E0935F039ECFFD01DC01C0CF34
:102A100013821282D7CFDC0101C06D934150504028
:102A2000E0F7089510E0C2E6D0E004C0FE010E9485
:0E2A30009D112196C336D107C9F7F894FFCF48
:102A3E00E503E503010101010101000000610380CE
:102A4E0000000000008604E6031304D304440422AD
:102A5E0004360400000000C205B705D8053805B0DD
:102A6E0005480539056E616E00696E66006F766603
:102A7E000053657269616C20612070756E746F0011
:082A8E000D0A0009002C0000F4
:00000001FF
