:100000000C9463000C94F5070C94CE070C948B00B1
:100010000C948B000C948B000C948B000C948B0034
:100020000C944F0A0C948B000C948B000C94930945
:100030000C948B000C948B000C948B000C948B0014
:100040000C9484070C948B000C9442080C941C08AC
:100050000C948B000C948B000C948B000C948B00F4
:100060000C9474080C948B000000000024002700FE
:100070002A000000000023002600290000000008DC
:10008000000201000003040700000000000000005F
:10009000010204081020408001020408102001021F
:1000A0000408102000000000250028002B00040494
:1000B0000404040404040202020202020303030310
:1000C0000303950A7B1011241FBECFEFD8E0DEBFDB
:1000D000CDBF11E0A0E0B1E0E2E3F8E202C005909C
:1000E0000D92AA34B107D9F723E0AAE4B1E001C028
:1000F0001D92A535B207E1F710E0C2E6D0E004C0DA
:100100002197FE010E940E11C136D107C9F70E9446
:10011000110C0C940C140C9400004F925F926F928F
:100120007F928F929F92AF92BF92FF9220911B037A
:1001300030911C038217930708F043C02B016624FB
:100140007724852E962EA72EBB24B82DA42F209180
:100150002103F42C222391F0E22FF0E0E49DD00162
:10016000E59DB00DF49DB00D1124FB2E289D40019E
:100170001124B92D249F90011124A32FE09127036E
:10018000209122033091230350912403E51323C0CF
:10019000FC01EE0FFF1F8E0F9F1F820F931FE09138
:1001A0002403E80FF92FF11DF082E0912503E80FF9
:1001B000F92FF11DB08320912603820F911DFC01C0
:1001C000A083FF90BF90AF909F908F907F906F9093
:1001D0005F904F900895880F991F880F991F820F85
:1001E000931FE80FF92FF11D1082D9CF8F929F92A4
:1001F000AF92BF92FF920F931F93CF93DF939C0117
:10020000990F440B550B2C593F4F4F4F5F4FA1E3B4
:10021000B0E00E94AA1028EC30E040E050E00E94DC
:100220008B10DA01C9018A5B9F4FAF4FBF4F8634F5
:1002300091050CF063C086E490E0909340038093B6
:100240003F03A6E4B0E0F09041038BE08F1508F483
:100250004BC08091430308E512E0081B110987FD9C
:100260001395000F111F000F111F80914203C8E862
:10027000D0E0C81BD10987FDD395CC0FDD1FCC0F73
:10028000DD1F4E010D2E000CAA08BB089801012E9F
:10029000000C440B550B281939094A095B090E94C7
:1002A000B51024EB30E040E050E00E948B10820E4D
:1002B000931EA41EB51E8C169D062CF0E801801618
:1002C00091060CF4E4012297CC0FDD1F2FB7F894B0
:1002D0008F2D90E0FC01EE0FFF1FE80FF91FE85390
:1002E000FD4FD283C1832FBFDF91CF911F910F911B
:1002F000FF90BF90AF909F908F900895DC0188375A
:10030000910514F0A7E7B0E0B0934003A0933F033A
:100310009ACF833081F028F4813099F08230A9F0AF
:1003200008958730A9F08830C9F08430B1F4809105
:1003300080008F7D03C0809180008F778093800044
:10034000089584B58F7784BD089584B58F7DFBCFE4
:100350008091B0008F778093B00008958091B000B5
:100360008F7DF9CFCF93DF93282F30E0F901E45848
:10037000FF4F8491F901E057FF4FD491F901E25505
:10038000FF4FC491CC23A1F081110E948901EC2F71
:10039000F0E0EE0FFF1FEE58FF4FA591B491EC91E6
:1003A000ED2381E090E009F480E0DF91CF910895A2
:1003B00080E090E0FACF1F93CF93DF93282F30E0B7
:1003C000F901E458FF4F8491F901E057FF4FD491B0
:1003D000F901E255FF4FC491CC23A9F0162F8111EA
:1003E0000E948901EC2FF0E0EE0FFF1FEC55FF4F4C
:1003F000A591B4918FB7F894EC91111108C0D095E4
:10040000DE23DC938FBFDF91CF911F910895DE2B08
:10041000F8CFCF93DF9390E0FC01E057FF4F24919A
:1004200082559F4FFC0184918823D1F090E0880F82
:10043000991FFC01E859FF4FA591B491FC01EC55BF
:10044000FF4FC591D49161110EC09FB7F8948C9164
:10045000E22FE0958E238C932881E223E8839FBFCF
:10046000DF91CF9108958FB7F894EC91E22BEC9344
:100470008FBFF6CFCF93DF93EC0161E085E00E9460
:100480000902209731F460E085E0DF91CF910C9470
:10049000DB01CF3FD10511F461E0F6CFE1E8F0E0F8
:1004A000E491E33029F140F4E130B1F0E230D9F0E9
:1004B000C038D1058CF7E7CFE73021F1E83051F1B2
:1004C000E430B1F780918000806280938000D09307
:1004D0008B00C0938A0004C084B5806884BDC7BD0A
:1004E000DF91CF91089584B5806284BDC8BDF8CFF7
:1004F00080918000806880938000D0938900C093B1
:100500008800EECF8091B00080688093B000C093E7
:10051000B300E6CF8091B00080628093B000C093BA
:10052000B400DECF3FB7F89480911B0290911C027B
:10053000A0911D02B0911E0226B5A89B05C02F3FB9
:1005400019F00196A11DB11D3FBFBA2FA92F982FF9
:100550008827BC01CD01620F711D811D911D42E0F4
:10056000660F771F881F991F4A95D1F708950F933B
:100570001F93CF93DF93EC018A81882321F061E000
:1005800088810E94090260E088810E94DB0183E08B
:1005900090E00197F1F761E088810E94DB0183E23E
:1005A00090E00197F1F760E088810E94DB018A8189
:1005B000882321F060E088810E9409020E94920253
:1005C0006B837C838D839E8389810E94B201892BFA
:1005D00099F40E9492020B811C812D813E81601B47
:1005E000710B820B930B0F81188529853A850617AD
:1005F00017072807390740F70E9492026B837C8314
:100600008D839E8389810E94B201892B99F00E947B
:1006100092020B811C812D813E81601B710B820B2C
:10062000930B0F81188529853A8506171707280728
:10063000390740F70E9492022B813C81CB01821B3B
:10064000930B68E370E00E94FA10CB01DF91CF9129
:100650001F910F9108950F931F93CF93DF93CDB701
:10066000DEB729970FB6F894DEBF0FBECDBF8091DD
:10067000220390912303892B09F47CC00E949202EB
:10068000009128031091290320912A0330912B0314
:10069000601771078207930740F4609328037093F3
:1006A000290380932A0390932B0300912803109130
:1006B000290320912A0330912B03601B710B820BBD
:1006C000930B6C32714081059105C0F2F8948091D2
:1006D0001D0390911E039A838983E0912203F09178
:1006E0002303DF0111968081898790911903E0919E
:1006F0002C03F0912D0380912E03992309F445C01A
:100700009081982B98879081809589238F838F8102
:100710008C8388E08B8358856F8149853B812C8150
:1007200089819A81508347FD252F3A952083262F72
:1007300039F0441F00C000006083000000C0F2CF09
:1007400038E04D9160830000019761F7F0932D032D
:10075000E0932C0349873B832C839A838983789485
:100760000E949202609328037093290380932A03C6
:1007700090932B0329960FB6F894DEBF0FBECDBF22
:10078000DF91CF911F910F9108959081982B9887B9
:100790009081809589238F838F818E8388E08D83DC
:1007A00058856F8149853D812E8189819A81508349
:1007B00047FD252F00C000C0208300C000C000C03E
:1007C00000C000C060830000262F3A9541F0441F0E
:1007D000000000C000C000C000C000C0E8CF38E08A
:1007E0004D9100C0608300C0019709F7F0932D037D
:1007F000E0932C0349873D832E83AFCF8F929F9246
:10080000AF92BF92CF92DF92EF92FF924B015C01C9
:100810000E9492026B017C010E9492026C197D0978
:100820008E099F09683E734081059105A8F321E078
:10083000821A9108A108B10888EEC80E83E0D81E7C
:10084000E11CF11C81149104A104B10429F7FF906B
:10085000EF90DF90CF90BF90AF909F908F900895D2
:10086000E091F301F091F401309729F01092EE013C
:100870001092ED0109940895CF93DF93AC01E091BC
:10088000F101F091F2013097F1F09091F001809137
:10089000EF019817C0F090E0292F30E026173707B6
:1008A00054F4D901A75ABE4F240F351FE9012881FE
:1008B0002C939F5FF1CF1092F0016093EF01CB0179
:1008C000DF91CF910994DF91CF9108950895AF9270
:1008D000BF92CF92DF92EF92FF920F931F93CF932D
:1008E000DF936C017B018B01040F151FEB015E018F
:1008F000AE18BF08C017D10759F06991D601ED9124
:10090000FC910190F081E02DC6010995892B79F7C2
:10091000C501DF91CF911F910F91FF90EF90DF9074
:10092000CF90BF90AF900895FC01538D448D252F3B
:1009300030E0842F90E0821B930B541710F0CF9679
:10094000089501970895FC01918D828D981761F0AB
:10095000A28DAE0FBF2FB11D5D968C91928D9F5FC2
:100960009F73928F90E008958FEF9FEF0895FC01A1
:10097000918D828D981731F0828DE80FF11D858D54
:1009800090E008958FEF9FEF0895FC01918D228DE7
:10099000892F90E0805C9F4F821B91098F7399276C
:1009A00008958FE192E00E94C50421E0892B09F4AB
:1009B00020E0822F089580E090E0892B29F00E94AA
:1009C000D10481110C9400000895FC01A48DA80F9E
:1009D000B92FB11DA35ABF4F2C91848D90E0019681
:1009E0008F739927848FA689B7892C93A089B189A1
:1009F0008C91837080648C93938D848D981306C042
:100A00000288F389E02D80818F7D80830895EF92A5
:100A1000FF920F931F93CF93DF93EC0181E0888FB8
:100A20009B8D8C8D98131AC0E889F989808185FF88
:100A300015C09FB7F894EE89FF896083E889F9892A
:100A400080818370806480839FBF81E090E0DF912C
:100A5000CF911F910F91FF90EF900895F62E0B8D7F
:100A600010E00F5F1F4F0F731127E02E8C8D8E113A
:100A70000CC00FB607FCFACFE889F989808185FFA1
:100A8000F5CFCE010E94E504F1CFEB8DEC0FFD2FE9
:100A9000F11DE35AFF4FF0829FB7F8940B8FEA895C
:100AA000FB8980818062CFCFCF93DF93EC01888D6B
:100AB0008823B9F0AA89BB89E889F9898C9185FDD9
:100AC00003C0808186FD0DC00FB607FCF7CF8C9167
:100AD00085FFF2CF808185FFEDCFCE010E94E50436
:100AE000E9CFDF91CF91089520919F01260F332701
:100AF000331F21323105ECF42091C301FC0190E059
:100B000080E0243069F082E00895A0919F01219156
:100B1000AC0141585E4FA40FB52FB11D2C93019627
:100B2000861798F380919F01680F60939F0180E082
:100B3000089581E008951092C30181E08093C5017A
:100B40001092C40161E082E10E94DB0161E083E177
:100B50000E94DB01E9EBF0E080818E7F8083808161
:100B60008D7F808388E48093B80085E48093BC0007
:100B700008950895E091F0018091EF01E81730F4B5
:100B8000F0E0E75AFE4F808190E008958FEF9FEFED
:100B900008959091F0018091EF012FEF3FEF9817AA
:100BA00048F4E92FF0E0E75AFE4F208130E09F5FE4
:100BB0009093F001C90108950F931F93CF93DF9392
:100BC0008C01101611060CF047C08CEB92E00E94CD
:100BD000C90580935201015011098330B9F48CEB9F
:100BE00092E00E94C905EC0190930C0280930B02E5
:100BF0008CEB92E00E94C905892B19F7D195C1951C
:100C0000D109D0930C02C0930B02DBCF843091F456
:100C10008CEB92E00E94C905EC018CEB92E00E9403
:100C2000C905892B19F4D195C195D109CE010E942E
:100C3000F600C7CF853029F68CEB92E00E94C905FB
:100C4000EC01682F8EE00E94DB0181E0CD2B09F4DE
:100C500080E080930602B5CFDF91CF911F910F9175
:100C600008958091EF019091F001891B990B0895EF
:100C7000CF93DF93CB01EA01642F0E947405CE016C
:100C8000DF91CF910895CF93DF931F92CDB7DEB759
:100C9000698361E0CE0101960E94740581E090E0D5
:100CA0000F90DF91CF910895682F8CEB92E00C9418
:100CB000430690E080E0089580915201813081F5F3
:100CC00080914E0190914F01A0915001B09151013E
:100CD00080934A0180914E0190914F01A091500163
:100CE000B091510190934B0180914E0190914F0131
:100CF000A0915001B0915101A0934C0180914E01FF
:100D000090914F01A0915001B0915101B0934D01CC
:100D100044E050E06AE471E08CEB92E00C94380619
:100D20008230C1F480910302909104020E94540623
:100D30008091F7019091F8010E9454068091FB0187
:100D40009091FC010E9454068091FF019091000255
:100D50000C9454060895282F30E0861307C040E015
:100D600050E06EE170E0C9010C948D00862F90E098
:100D7000BC01621B730B649F9001659F300D749FD3
:100D8000300D11242F3F320729F440E050E06CE091
:100D900070E0EACF2E3F3F4F29F440E050E064E09E
:100DA00070E0E2CF40E050E0BA01DECF8091080170
:100DB000882339F18091530190915401A0915501FC
:100DC000B09156010196A11DB11D809353019093DE
:100DD0005401A0935501B093560180914E0190911A
:100DE0004F01A0915001B09151010196A11DB11D7B
:100DF00080934E0190934F01A0935001B093510105
:100E000008958091530190915401A0915501B091A2
:100E100056010197A109B1098093530190935401A0
:100E2000A0935501B093560180914E0190914F01CE
:100E3000A0915001B09151010197A109B109D8CFFA
:100E4000FC0101900020E9F73197AF01481B590BD5
:100E5000BC018FE192E00C946704CF93DF9385EDA2
:100E60008093BC0080917B0190917C01A0917D01D9
:100E7000B0917E010796A11DB11D23E0B695A795FF
:100E8000979587952A95D1F72091BC0024FD03C042
:100E90001092C30136C040917B0150917C0160915A
:100EA0007D0170917E01452B462B472B69F30097FE
:100EB000A105B10541F025E32A95F1F7000001975E
:100EC000A109B109E1CF80917A0191E09093790174
:100ED0008823B9F0C091B800D091BA008091BC00CD
:100EE0008A7B8093BC0060E082E10E94DB0160E0CD
:100EF00083E10E94DB010E949B05D093BA00C0935E
:100F0000B800DF91CF9108951F920F920FB60F9204
:100F100011242F933F938F939F93AF93BF9380910F
:100F2000170290911802A0911902B0911A02309103
:100F3000160223E0230F2D3758F50196A11DB11D90
:100F4000209316028093170290931802A09319021F
:100F5000B0931A0280911B0290911C02A0911D0275
:100F6000B0911E020196A11DB11D80931B029093AA
:100F70001C02A0931D02B0931E02BF91AF919F91DE
:100F80008F913F912F910F900FBE0F901F9018954A
:100F900026E8230F0296A11DB11DD2CF1F920F92FA
:100FA0000FB60F9211242F933F934F935F936F933C
:100FB0007F938F939F93AF93BF93EF93FF93E091B2
:100FC0000201F09103010995FF91EF91BF91AF915B
:100FD0009F918F917F916F915F914F913F912F9151
:100FE0000F900FBE0F901F9018951F920F920FB683
:100FF0000F9211242F933F934F935F936F937F939F
:101000008F939F93AF93BF93EF93FF93E091000172
:10101000F09101010995FF91EF91BF91AF919F91DF
:101020008F917F916F915F914F913F912F910F9091
:101030000FBE0F901F9018951F920F920FB60F9230
:1010400011242F933F934F935F936F937F938F93CD
:101050009F93AF93BF93EF93FF938FE192E00E9432
:10106000E504FF91EF91BF91AF919F918F917F9197
:101070006F915F914F913F912F910F900FBE0F9005
:101080001F9018951F920F920FB60F9211242F9355
:101090008F939F93EF93FF93E0912F02F091300293
:1010A0008081E0913502F091360282FD1BC0908173
:1010B000809138028F5F8F7320913902821741F03F
:1010C000E0913802F0E0E15EFD4F958F80933802A9
:1010D000FF91EF919F918F912F910F900FBE0F90E5
:1010E0001F9018958081F4CF1F920F920FB60F9228
:1010F00011242F933F934F935F936F937F938F931D
:101100009F93AF93BF93EF93FF938091B900887F34
:10111000803609F44AC0F0F5883209F4A7C018F502
:10112000803109F49BC0B8F4882309F4F9C08830F1
:1011300009F494C0FF91EF91BF91AF919F918F916E
:101140007F916F915F914F913F912F910F900FBEC3
:101150000F901F901895883109F488C0803251F79C
:101160008093C20114C0803409F49DC040F48033E0
:10117000B9F38833F9F68093C20185ECB0C08035AD
:1011800009F485C0883509F496C0883499F60E9420
:101190002D07D0CF883909F48CC038F5883729F06D
:1011A00050F4883611F0803729F683E08093C3012C
:1011B0001092C10157C0883809F47BC0803919F0FA
:1011C000803809F0B7CF8091C101803208F071C03A
:1011D000E091C10181E08E0F8093C1018091BB003D
:1011E000F0E0EF55FE4F80833DC0803B39F0E0F4E6
:1011F000803A09F479C0883A09F09CCF84E0809362
:10120000C3011092A00110929F01E091EB01F091B7
:10121000EC01099580919F0181110FC081E08093BD
:101220009F0110927F0109C0803C09F4A6CF883C41
:1012300009F4A3CF883B09F07DCFE091A00181E0C4
:101240008E0F8093A001F0E0E158FE4F80818093E3
:10125000BB009091A00180919F0129C08091E8017D
:101260008093BB0085EC8093BC0064CF9091E70134
:101270008091E601981758F5E091E70181E08E0F23
:101280008093E701F0E0EA53FE4F8081E9CFE091DF
:10129000E70181E08E0F8093E7018091BB00F0E0D1
:1012A000EA53FE4F80839091E7018091E601981701
:1012B000C8F285E8D8CFE091E70181E08E0F8093F6
:1012C000E7018091BB00F0E0EA53FE4F80838091FC
:1012D000C50181115CCF81E08093C40184EA8093D1
:1012E000BC001092C30126CF85EC8093BC00109205
:1012F000C3018091C101803230F4E091C101F0E07E
:10130000EF55FE4F10826091C10170E0E091E9015C
:10131000F091EA0181EA91E009951092C1010ACFAA
:101320001092C20134CF1F920F920FB60F92112468
:101330002F933F934F935F936F937F938F939F93DD
:10134000AF93BF93CF93DF93EF93FF9380915801B7
:10135000C091EC02D0E087FF24C01092850010926B
:101360008400809158018F5F8093580180915801CB
:10137000082E000C990B8C179D0724F480915801BE
:101380008C30C4F180918400909185000496803463
:101390009C4908F47AC0809184009091850004965D
:1013A00076C080915801082E000C990B8C179D0770
:1013B000C4F6E09158018E2FEE0F990BFC01EE0F51
:1013C000FF1FE80FF91FE853FD4F808186FFC9CF4B
:1013D000E09158018E2FEE0F990BFC01EE0FFF1FCD
:1013E000E80FF91FE853FD4F808160E08F730E9482
:1013F000DB01B7CF2091840030918500E091580146
:101400008E2FEE0F990BFC01EE0FFF1FE80FF91F57
:10141000E853FD4F81819281820F931F9093890041
:1014200080938800E09158018E2FEE0F990BFC01FC
:10143000EE0FFF1FE80FF91FE853FD4F808186FF75
:1014400011C0E09158018E2FEE0F990BFC01EE0FA9
:10145000FF1FE80FF91FE853FD4F808161E08F7394
:101460000E94DB01FF91EF91DF91CF91BF91AF918E
:101470009F918F917F916F915F914F913F912F91AC
:101480000F900FBE0F901F90189580E49CE99093E9
:101490008900809388008FEF80935801E3CF1F92DB
:1014A0000F920FB60F9211242F933F934F935F9398
:1014B0006F937F938F939F93AF93BF93EF93FF931C
:1014C00080915701882369F1609153017091540113
:1014D00080915501909156010E94BE1160930702C0
:1014E000709308028093090290930A0210925301AC
:1014F000109254011092550110925601109257010A
:10150000FF91EF91BF91AF919F918F917F916F91DB
:101510005F914F913F912F910F900FBE0F901F90B1
:10152000189581E080935701EBCFCF92DF92EF9235
:10153000FF92109222021092210288EE93E0A0E026
:10154000B0E08093230290932402A0932502B093ED
:10155000260225E131E03093200220931F0225EC82
:1015600030E030932C0220932B0224EC30E03093B7
:101570002E0220932D0220EC30E030933002209395
:101580002F0221EC30E0309332022093310222EC22
:1015900030E0309334022093330226EC30E0309375
:1015A00036022093350210923802109239021092BE
:1015B0003A0210923B021092BF021092BE02809338
:1015C000C0029093C102A093C202B093C30287E20B
:1015D00091E09093BD028093BC0210924003109260
:1015E0003F038091EC028C3008F00EC191E0980F1F
:1015F0009093EC028093410390E0FC01EE0FFF1FFB
:10160000E80FF91FE853FD4F88EB9BE0928381833D
:1016100089E080933E0310923203109233031092BC
:1016200034031092350385E080932F0380E180938B
:10163000300381E18093310361E085E00E9409027B
:1016400061E080E10E94090261E081E10E940902FB
:1016500010921A031092210310922803109229036A
:1016600010922A0310922B0381E08093270380932A
:1016700024031092250392E090932603809319038C
:1016800088E190E090931E0380931D030E94E01276
:101690009093230380932203009709F4B9C028E1B3
:1016A000FC0111922A95E9F788E090E090931C03E1
:1016B00080931B038CE090E09093200380931F03A2
:1016C00080911A03882341F061E08CE00E940902B6
:1016D00060E08CE00E94DB01EAEBF0E0E491F0E0F6
:1016E000EE0FFF1FEC55FF4F8591949190932D03C2
:1016F00080932C03ECE9F0E0E491E0932E0387E083
:1017000080930E0386E080930F031092100361E034
:1017100087E00E94090260E080910F030E940902A5
:1017200098E2C92E93E2D92EE12CF12CC092150338
:10173000D0921603E0921703F09218038BE0809387
:10174000030384E0809304031092050361E08BE0BF
:101750000E94090260E0809104030E940902C09285
:101760000A03D0920B03E0920C03F0920D0383E086
:101770008093F80288E08093F9021092FA0261E007
:1017800083E00E94090260E08091F9020E94090250
:10179000C092FF02D0920003E0920103F092020394
:1017A0008DE08093ED028FE08093EE021092EF02C5
:1017B00061E08DE00E94090260E08091EE020E94EB
:1017C0000902C092F402D092F502E092F602F09281
:1017D000F7028FEF80934403109246031092450363
:1017E0001092500310924F038FEF9FEFDC01809314
:1017F0004B0390934C03A0934D03B0934E03FF9083
:10180000EF90DF90CF9008958FEF8093410300CF4A
:1018100010921E0310921D0310921C0310921B03C2
:1018200049CFCF93DF93CDB7DEB7A1970FB6F8942A
:10183000DEBF0FBECDBF789484B5826084BD84B511
:10184000816084BD85B5826085BD85B5816085BDBB
:1018500080916E00816080936E0010928100809173
:1018600081008260809381008091810081608093FB
:101870008100809180008160809380008091B10020
:1018800084608093B1008091B00081608093B0004B
:1018900080917A00846080937A0080917A008260DF
:1018A00080937A0080917A00816080937A008091A1
:1018B0007A00806880937A001092C10080911F03A3
:1018C0009091200397FD08C061E00E94090260E04A
:1018D00080911F030E94DB0181E080931A0364E67C
:1018E00070E080E090E00E94FE0340911D03509163
:1018F0001E0370E060E080912203909123030E9418
:101900000514E0912F02F091300282E08083E09193
:101910002B02F0912C021082E0912D02F0912E0208
:1019200080E1808310923702E0913302F09134021B
:1019300086E08083E0913102F09132028081806103
:101940008083E0913102F09132028081886080834F
:10195000E0913102F0913202808180688083E091D1
:101960003102F091320280818F7D808385E391E0A6
:101970000E94200784E491E00E94200761E08EE04D
:101980000E94090286ED96E0909301018093000188
:10199000809169008C7F816080936900E89A60E0A3
:1019A00082E00E94090210913E03809141038C3035
:1019B00008F050C061E0812F0E940902209141038C
:1019C000822F90E0FC01EE0FFF1FE80FF91FE85394
:1019D000FD4F1F738081807C812B80831092420396
:1019E000109243033CE0822F632F0E94EE10839FEE
:1019F000B001112450E040E0DB01A40FB51FFD0150
:101A0000EE0FFF1FEA0FFB1FE853FD4F908196FD7D
:101A100016C04F5F5F4F4C30510571F781110FC0F9
:101A20001092800082E080938100109285001092D5
:101A30008400B19A80916F00826080936F0030E0E3
:101A4000F901EE0FFF1FE20FF31FE853FD4F8081F6
:101A50008064808390E080E00E94F6001092F001A4
:101A60001092EF011092EE011092ED010E949B0581
:101A700080E394E09093EC018093EB018CE394E09D
:101A80009093EA018093E90188E08093BA008CED9D
:101A900095E09093F2018093F1018CE596E09093AC
:101AA000F4018093F30175E0372E8EE093E00E94FD
:101AB000B7026C018DEE92E00E94B7027C0188EFC4
:101AC00092E00E94B7028C0183E093E00E94B7028B
:101AD0002C0168EC70E080E090E00E94FE038EE054
:101AE00093E00E94B7024C018DEE92E00E94B70293
:101AF0005C0188EF92E00E94B7023C0183E093E032
:101B00000E94B702DD249924960128193909275F1C
:101B10003F4F2331310540F4C80CD91CD594C794EC
:101B2000D0920402C0920302FF24BB2497012A1919
:101B30003B09275F3F4F2331310540F4EA0CFB1C82
:101B4000F594E794F0920002E092FF0111277724C8
:101B5000980126193709275F3F4F2331310540F49B
:101B6000060D171D159507951093FC010093FB01B9
:101B7000552499279201281B390B275F3F4F2331AA
:101B8000310540F4480E591E559447945092F8017F
:101B90004092F7016CE271E080E090E00E94FE0369
:101BA0003A94311082CF01E0E12C10E080910602DE
:101BB000811120C0F12C402F5E2D6F2D812F0E94AE
:101BC000AB06F39428E0F212F6CF0E942B0368E7ED
:101BD00070E080E090E00E94FE03173021F01123B6
:101BE00031F0100FE3CF0FEFEE24EA94FACF01E0CB
:101BF000E12CF7CF10E000E044E654E664E670E044
:101C0000C8010E948D000F5F1F4F08301105A1F71A
:101C10000E942B03F8941092B0001092B1008091B2
:101C2000B10087608093B1008091700084608093E0
:101C300070008FEF8093B40078942AE0822E912C6C
:101C4000A12CB12C11E02FB7F8948091170290913C
:101C50001802A0911902B0911A022FBF40911202EE
:101C600050911302609114027091150248175907A0
:101C70006A077B0708F0A4C0009111028091080157
:101C8000882309F4D0C10111BAC18EE093E00E940B
:101C9000B702909304028093030280910302909113
:101CA0000402873991057CF080910401882309F4AE
:101CB000C3C180910102909102029093040280932B
:101CC0000302109204018091FF0190910002873974
:101CD00091057CF080910501882309F4B0C18091C1
:101CE000FD019091FE01909300028093FF011092FC
:101CF00005018091FB019091FC01873991057CF0F1
:101D000080910601882309F49DC18091F901909189
:101D1000FA019093FC018093FB01109206018091DF
:101D2000F7019091F801873991057CF080910701C6
:101D3000882309F48AC18091F5019091F60190936E
:101D4000F8018093F70110920701809103029091AE
:101D5000040290930202809301028091FF0190910E
:101D600000029093FE018093FD018091FB01909110
:101D7000FC019093FA018093F9018091F701909111
:101D8000F8019093F6018093F501023009F060C1EB
:101D9000109211022FB7F8948091170290911802B7
:101DA000A0911902B0911A022FBF0796A11DB11D73
:101DB0008093120290931302A0931402B093150221
:101DC0002FB7F8948091170290911802A0911902F0
:101DD000B0911A022FBF40910D0250910E026091F6
:101DE0000F0270911002481759076A077B0708F025
:101DF000D0C020900B0230900C02609107027091CD
:101E000008028091090290910A020E948611F10154
:101E1000E61BF70BBF01072E000C880B990B0E94E5
:101E2000BE112B013C014092360350923703609261
:101E30003803709239032AE939E949E95EE30E94DF
:101E40007312209132033091330340913403509147
:101E500035030E9415116B017C0120913A033091EA
:101E60003B0340913C0350913D03C301B2010E94EA
:101E700014119B01AC010E9415119B01AC01C7011B
:101E8000B6010E9415116B017C0120E030E046E1B3
:101E900053EC0E94811187FDDFC020E030E046E175
:101EA00053E4C701B6010E946E12181634F4C12C17
:101EB000D12C96E1E92E93E4F92EC0923203D09210
:101EC0003303E0923403F092350340923A03509288
:101ED0003B0360923C0370923D03232809F0C3C08A
:101EE00088EC90E00E943A0260E080E10E94DB0111
:101EF00060E081E10E94DB0187E491E00E9420071D
:101F0000C0903F03D09040030D2C000CEE08FF085A
:101F1000F7FED2C06DE28FE192E00E940705222712
:101F20003327A9012C193D094E095F0919A2CE01D9
:101F300081967C01CA01B901A50194010E94BD10DE
:101F4000605DF70162937F0121153105410551055F
:101F500089F7E114F10419F0C7010E94200784E415
:101F600091E00E9420072FB7F8948091170290917A
:101F70001802A0911902B0911A022FBF0F96A11D4D
:101F8000B11D80930D0290930E02A0930F02B093A7
:101F9000100280910602811125C0F12C00910502EA
:101FA0004091090150910A016F2D802F0E94AB06CC
:101FB000F394F8E0FF12F2CF0E942B0368E770E081
:101FC00080E090E00E94FE03073009F08BC02FEF05
:101FD0003FEF30930A012093090180910901080F16
:101FE00000930502E0E0F0E0EF2B09F42CCE0E9414
:101FF000D104882309F427CE0E94000024CE0130AA
:1020000049F488EF92E00E94B7029093FC0180931C
:10201000FB0143CE83E093E00E94B7029093F80166
:102020008093F7013ACE8DEE92E00E94B702909332
:1020300000028093FF0131CE1093040144CE10932F
:10204000050157CE109306016ACE109307017DCE8D
:102050000F5F009311029ECEC12CD12C86E1E82E99
:1020600083ECF82E2ACFC701B6010E9486116B01BE
:10207000CB011816190674F41093080161E080E191
:102080000E94DB0160E081E10E94DB01C6010E9449
:102090003A0232CF892B09F423CF1092080160E075
:1020A00080E10E94DB0161E081E10E94DB01882781
:1020B00099278C199D09EBCFA701960119A2CE0192
:1020C00081967C01CA01B901A50194010E94BD104D
:1020D000605DF70162937F012115310541055105CE
:1020E00089F737CF011179CF81E090E090930A0111
:1020F0008093090172CF80912203909123030E9463
:102100007C1380911F039091200397FD03C060E032
:102110000C9409020895052E97FB1EF400940E946A
:10212000A21057FD07D00E94BD1007FC03D04EF44B
:102130000C94A21050954095309521953F4F4F4FEC
:102140005F4F089590958095709561957F4F8F4F63
:102150009F4F08950E94DF10A59F900DB49F900D92
:10216000A49F800D911D11240895B7FF0C94AA100F
:102170000E94AA10821B930B0895A1E21A2EAA1B9B
:10218000BB1BFD010DC0AA1FBB1FEE1FFF1FA21727
:10219000B307E407F50720F0A21BB30BE40BF50B24
:1021A000661F771F881F991F1A9469F760957095AD
:1021B000809590959B01AC01BD01CF010895A29F30
:1021C000B001B39FC001A39F700D811D1124911D0B
:1021D000B29F700D811D1124911D0895991B79E006
:1021E00004C0991F961708F0961B881F7A95C9F7A7
:1021F00080950895AA1BBB1B51E107C0AA1FBB1FF6
:10220000A617B70710F0A61BB70B881F991F5A9582
:10221000A9F780959095BC01CD010895EE0FFF1FA1
:102220000590F491E02D09945058BB27AA270E94ED
:102230002C110C9434120E94261238F00E942D1298
:1022400020F039F49F3F19F426F40C9423120EF475
:10225000E095E7FB0C941D12E92F0E94451258F3FC
:10226000BA17620773078407950720F079F4A6F57B
:102270000C9467120EF4E0950B2EBA2FA02D0B01D3
:10228000B90190010C01CA01A0011124FF27591BBB
:1022900099F0593F50F4503E68F11A16F040A22FC1
:1022A000232F342F4427585FF3CF46953795279532
:1022B000A795F0405395C9F77EF41F16BA0B620B31
:1022C000730B840BBAF09150A1F0FF0FBB1F661F78
:1022D000771F881FC2F70EC0BA0F621F731F841FBB
:1022E00048F4879577956795B795F7959E3F08F0E1
:1022F000B0CF9395880F08F09927EE0F97958795A3
:1023000008950E94F91108F481E008950E948D114A
:102310006894B1110C94681208950E944D1288F0CF
:102320009F5798F0B92F9927B751B0F0E1F0660F99
:10233000771F881F991F1AF0BA95C9F714C0B130DA
:1023400091F00E946712B1E008950C946712672F14
:10235000782F8827B85F39F0B93FCCF38695779509
:102360006795B395D9F73EF49095809570956195F2
:102370007F4F8F4F9F4F0895E89409C097FB3EF41D
:1023800090958095709561957F4F8F4F9F4F9923C2
:10239000A9F0F92F96E9BB279395F6958795779540
:1023A0006795B795F111F8CFFAF4BB0F11F460FF00
:1023B0001BC06F5F7F4F8F4F9F4F16C0882311F058
:1023C00096E911C0772321F09EE8872F762F05C06C
:1023D000662371F096E8862F70E060E02AF09A9507
:1023E000660F771F881FDAF7880F9695879597F9FC
:1023F0000895990F0008550FAA0BE0E8FEEF161696
:102400001706E807F907C0F012161306E407F507E8
:1024100098F0621B730B840B950B39F40A2661F05C
:10242000232B242B252B21F408950A2609F4A140FF
:10243000A6958FEF811D811D089597F99F6780E80C
:1024400070E060E008959FEF80EC089500240A9406
:102450001616170618060906089500240A9412167F
:102460001306140605060895092E0394000C11F4B2
:10247000882352F0BB0F40F4BF2B11F460FF04C05F
:102480006F5F7F4F8F4F9F4F089557FD9058440FB8
:10249000551F59F05F3F71F04795880F97FB991FC3
:1024A00061F09F3F79F08795089512161306140680
:1024B000551FF2CF4695F1DF08C01616170618060D
:1024C000991FF1CF86957105610508940895E894E8
:1024D000BB2766277727CB0197F908950E94F9114A
:1024E00008F48FEF08950E9486120C9434120E9413
:1024F000261238F00E942D1220F0952311F00C9432
:102500001D120C94231211240C9468120E9445127F
:1025100070F3959FC1F3950F50E0551F629FF00136
:10252000729FBB27F00DB11D639FAA27F00DB11D4F
:10253000AA1F649F6627B00DA11D661F829F2227D8
:10254000B00DA11D621F739FB00DA11D621F839F5F
:10255000A00D611D221F749F3327A00D611D231F35
:10256000849F600D211D822F762F6A2F11249F5783
:1025700050409AF0F1F088234AF0EE0FFF1FBB1F86
:10258000661F771F881F91505040A9F79E3F510545
:1025900080F00C941D120C9468125F3FE4F3983E97
:1025A000D4F3869577956795B795F795E7959F5FEF
:1025B000C1F7FE2B880F911D9695879597F9089581
:1025C0000F931F93CF93DF938230910510F482E035
:1025D00090E0E0915303F091540330E020E0B0E04C
:1025E000A0E0309799F42115310509F44AC0281B61
:1025F000390B24303105D8F58A819B81611571052D
:1026000089F1FB0193838283FE0111C040815181D6
:102610000281138148175907E0F04817590799F4C8
:10262000109761F012960C93129713961C933296A2
:10263000CF01DF91CF911F910F9108950093530324
:1026400010935403F4CF2115310551F0421753076D
:1026500038F0A901DB019A01BD01DF01F801C1CF0A
:10266000EF01F9CF9093540380935303CDCFFE0134
:10267000E20FF31F8193919322503109398328830C
:10268000D7CF2091510330915203232B41F4209155
:102690000D0130910E01309352032093510320918C
:1026A0000B0130910C012115310541F42DB73EB7D6
:1026B00040910F0150911001241B350BE091510303
:1026C000F0915203E217F307A0F42E1B3F0B2817DB
:1026D000390778F0AC014E5F5F4F2417350748F09B
:1026E0004E0F5F1F50935203409351038193919378
:1026F0009FCFF0E0E0E09CCFCF93DF930097E9F02D
:10270000FC01329713821282A0915303B0915403BB
:10271000ED0130E020E01097A1F420813181820F9B
:10272000931F20915103309152032817390709F064
:1027300061C0F0935203E0935103DF91CF9108956C
:10274000EA01CE17DF07E8F54A815B819E0141155A
:102750005105B1F7E901FB83EA8349915991C40F0F
:10276000D51FEC17FD0761F4808191810296840FDB
:10277000951FE90199838883828193819B838A8352
:10278000F0E0E0E012968D919C9113970097B9F5D7
:102790002D913C911197CD010296820F931F2091AC
:1027A0005103309152032817390739F6309751F504
:1027B0001092540310925303B0935203A093510309
:1027C000BCCFD383C28340815181840F951FC8172A
:1027D000D90761F44E5F5F4F88819981480F591F77
:1027E000518340838A819B819383828321153105A4
:1027F00009F0B0CFF0935403E09353039ECFFD0153
:10280000DC01C0CF13821282D7CFDC0101C06D93EF
:1028100041505040E0F7089510E0C2E6D0E004C017
:10282000FE010E940E112196C336D107C9F7F89414
:02283000FFCFD8
:1028320066046604010101010101000000550380E4
:1028420000000000000705670494045405C504A3B2
:1028520004B70400000000430638065906B90531E2
:1028620006C905BA0553657269616C2061207075ED
:0A2872006E746F000D0A00090000EB
:00000001FF
