:100000000C9463000C9412070C94EB060C948B0078
:100010000C948B000C948B000C948B000C948B0034
:100020000C9414090C948B000C948B000C945808BD
:100030000C948B000C948B000C948B000C948B0014
:100040000C94A1060C948B000C948B000C948B00E8
:100050000C948B000C948B000C948B000C948B00F4
:100060000C9439070C948B0000000000240027003A
:100070002A000000000023002600290000000008DC
:10008000000201000003040700000000000000005F
:10009000010204081020408001020408102001021F
:1000A0000408102000000000250028002B00040494
:1000B0000404040404040202020202020303030310
:1000C00003036D09130D11241FBECFEFD8E0DEBF6F
:1000D000CDBF11E0A0E0B1E0E2E5F1E202C00590A1
:1000E0000D92A032B107D9F722E0A0E2B1E001C041
:1000F0001D92A138B207E1F710E0C2E6D0E004C0DB
:100100002197FE010E949E0DC136D107C9F70E94BA
:10011000A70A0C949C100C9400004F925F926F926F
:100120007F928F929F92AF92BF92FF92209149024D
:1001300030914A028217930708F043C02B016624CE
:100140007724852E962EA72EBB24B82DA42F209180
:100150004F02F42C222391F0E22FF0E0E49DD00135
:10016000E59DB00DF49DB00D1124FB2E289D40019E
:100170001124B92D249F90011124A32FE091550241
:10018000209150023091510250915202E51323C048
:10019000FC01EE0FFF1F8E0F9F1F820F931FE09138
:1001A0005202E80FF92FF11DF082E0915302E80F9F
:1001B000F92FF11DB08320915402820F911DFC0193
:1001C000A083FF90BF90AF909F908F907F906F9093
:1001D0005F904F900895880F991F880F991F820F85
:1001E000931FE80FF92FF11D1082D9CF8F929F92A4
:1001F000AF92BF92FF920F931F93CF93DF93F09034
:100200006D022BE02F1508F458C020916F0208E50D
:1002100012E0021B110927FD1395000F111F000F9B
:10022000111F20916E02C8E8D0E0C21BD10927FD42
:10023000D395CC0FDD1FCC0FDD1F4E010D2E000C12
:10024000AA08BB08DC01819714F0A0E2B0E0A03E50
:100250008FEFB80714F4A0EEBFEFAC5ABF4F980170
:10026000012E000C440B550B281939094A095B096A
:100270000E94420D24EB30E040E050E00E94230D4C
:10028000820E931EA41EB51E8C169D062CF0E8014E
:10029000801691060CF4E4012297CC0FDD1F2FB7D6
:1002A000F8948F2D90E0FC01EE0FFF1FE80FF91F6F
:1002B000EA50FE4FD283C1832FBFDF91CF911F91B0
:1002C0000F91FF90BF90AF909F908F9008958330D3
:1002D00081F028F4813099F08230A9F008958730B8
:1002E000A9F08830C9F08430B1F4809180008F7D0E
:1002F00003C0809180008F7780938000089584B53B
:100300008F7784BD089584B58F7DFBCF8091B00039
:100310008F778093B00008958091B0008F7DF9CFE2
:10032000CF93DF93282F30E0F901E458FF4F8491F9
:10033000F901E057FF4FD491F901E255FF4FC49105
:10034000CC23A1F081110E946701EC2FF0E0EE0FA9
:10035000FF1FEE58FF4FA591B491EC91ED2381E082
:1003600090E009F480E0DF91CF91089580E090E083
:10037000FACF1F93CF93DF93282F30E0F901E45891
:10038000FF4F8491F901E057FF4FD491F901E255F5
:10039000FF4FC491CC23A9F0162F81110E94670151
:1003A000EC2FF0E0EE0FFF1FEC55FF4FA591B4913D
:1003B0008FB7F894EC91111108C0D095DE23DC932F
:1003C0008FBFDF91CF911F910895DE2BF8CFCF9390
:1003D000DF9390E0FC01E057FF4F249182559F4F3F
:1003E000FC0184918823D1F090E0880F991FFC01D3
:1003F000E859FF4FA591B491FC01EC55FF4FC59111
:10040000D49161110EC09FB7F8948C91E22FE095C2
:100410008E238C932881E223E8839FBFDF91CF91C5
:1004200008958FB7F894EC91E22BEC938FBFF6CF41
:10043000CF93DF93EC0161E085E00E94E701209714
:1004400031F460E085E0DF91CF910C94B901CF3FAA
:10045000D10511F461E0F6CFE1E8F0E0E491E3309A
:1004600029F140F4E130B1F0E230D9F0C038D105E3
:100470008CF7E7CFE73021F1E83051F1E430B1F704
:1004800080918000806280938000D0938B00C09325
:100490008A0004C084B5806884BDC7BDDF91CF9158
:1004A000089584B5806284BDC8BDF8CF8091800076
:1004B000806880938000D0938900C0938800EECF3D
:1004C0008091B00080688093B000C093B300E6CF05
:1004D0008091B00080628093B000C093B400DECF02
:1004E000CF93DF93EC0197FD10C081E0809306016C
:1004F00061E080E10E94B90160E081E10E94B90100
:10050000CE01DF91CF910C9418021092060160E0A9
:1005100080E10E94B90161E081E10E94B901882770
:1005200099278C1B9D0BEDCF3FB7F8948091E60186
:100530009091E701A091E801B091E90126B5A89B4F
:1005400005C02F3F19F00196A11DB11D3FBFBA2F65
:10055000A92F982F8827BC01CD01620F711D811D25
:10056000911D42E0660F771F881F991F4A95D1F7AA
:1005700008950F931F93CF93DF93CDB7DEB72997DD
:100580000FB6F894DEBF0FBECDBF809150029091A0
:100590005102892B09F47CC00E94940200915602FA
:1005A000109157022091580230915902601771073B
:1005B0008207930740F4609356027093570280932A
:1005C00058029093590200915602109157022091BF
:1005D000580230915902601B710B820B930B6C32E5
:1005E000714081059105C0F2F89480914B02909181
:1005F0004C029A838983E0915002F0915102DF010D
:1006000011968081898790914702E0915A02F0917A
:100610005B0280915C02992309F445C09081982B7C
:1006200098879081809589238F838F818C8388E040
:100630008B8358856F8149853B812C8189819A8183
:10064000508347FD252F3A952083262F39F0441FEC
:1006500000C000006083000000C0F2CF38E04D9180
:1006600060830000019761F7F0935B02E0935A0208
:1006700049873B832C839A83898378940E949402D0
:1006800060935602709357028093580290935902D8
:1006900029960FB6F894DEBF0FBECDBFDF91CF9184
:1006A0001F910F9108959081982B98879081809544
:1006B00089238F838F818E8388E08D8358856F8116
:1006C00049853D812E8189819A81508347FD252F5F
:1006D00000C000C0208300C000C000C000C000C037
:1006E00060830000262F3A9541F0441F000000C0AF
:1006F00000C000C000C000C0E8CF38E04D9100C08D
:10070000608300C0019709F7F0935B02E0935A02FF
:1007100049873D832E83AFCF8F929F92AF92BF9236
:10072000CF92DF92EF92FF924B015C010E94940204
:100730006B017C010E9494026C197D098E099F094E
:10074000683E734081059105A8F321E0821A910863
:10075000A108B10888EEC80E83E0D81EE11CF11C88
:1007600081149104A104B10429F7FF90EF90DF9068
:10077000CF90BF90AF909F908F900895E091D3015C
:10078000F091D401309729F01092CE011092CD0152
:1007900009940895CF93DF93AC01E091D101F091DA
:1007A000D2013097F1F09091D0018091CF0198174C
:1007B000C0F090E0292F30E02617370754F4D90114
:1007C000A75CBE4F240F351FE90128812C939F5F42
:1007D000F1CF1092D0016093CF01CB01DF91CF9187
:1007E0000994DF91CF910895089520917F01260FFC
:1007F0003327331F21323105ECF42091A301FC0192
:1008000090E080E0243069F082E00895A0917F01BB
:100810002191AC01415A5E4FA40FB52FB11D2C930D
:100820000196861798F380917F01680F60937F018E
:1008300080E0089581E008951092A30181E0809303
:10084000A5011092A40161E082E10E94B90161E07A
:1008500083E10E94B901E9EBF0E080818E7F808323
:1008600080818D7F808388E48093B80085E48093C5
:10087000BC0008950895E091D0018091CF01E81760
:1008800030F4F0E0E75CFE4F808190E008958FEF58
:100890009FEF08959091D0018091CF012FEF3FEF0E
:1008A000981748F4E92FF0E0E75CFE4F208130E034
:1008B0009F5F9093D001C90108950F931F93CF9329
:1008C000DF93EC011C161D060CF048C08AEE91E087
:1008D0000E944A048093280121978330B1F48AEE64
:1008E00091E00E944A048C018AEE91E00E944A0441
:1008F0000197809F9001819F300D909F300D1124B2
:100900003093DC012093DB01DDCF8430A9F48AEE43
:1009100091E00E944A048C018AEE91E00E944A0410
:1009200001979C01209FC001219F900D309F900D49
:1009300011240E94F600C6CF853021F68AEE91E0A0
:100940000E944A048C01682F8EE00E94B90181E068
:10095000012B09F480E08093D601B4CFDF91CF91D1
:100960001F910F9108958091CF019091D001891B23
:10097000990B0895CF93DF93CB01EA01642F0E9476
:10098000F503CE01DF91CF910895CF93DF931F92AE
:10099000CDB7DEB7698361E0CE0101960E94F50311
:1009A00081E090E00F90DF91CF910895682F8AEE5B
:1009B00091E00C94C50490E080E008950F931F939C
:1009C000CF93DF93EC018A81882321F061E0888155
:1009D0000E94E70160E088810E94B90183E090E015
:1009E0000197F1F761E088810E94B90183E290E00C
:1009F0000197F1F760E088810E94B9018A8188231C
:100A000021F060E088810E94E7010E9494026B83DC
:100A10007C838D839E8389810E949001892B99F428
:100A20000E9494020B811C812D813E81601B710B01
:100A3000820B930B0F81188529853A8506171707B6
:100A40002807390740F70E9494026B837C838D83CB
:100A50009E8389810E949001892B99F00E949402C3
:100A60000B811C812D813E81601B710B820B930BCE
:100A70000F81188529853A85061717072807390732
:100A800040F70E9494022B813C81CB01821B930B87
:100A9000DF91CF911F910F910895CF93DF938091B4
:100AA0000601882331F18CE392E00E94DE04C8E362
:100AB000D0E0BE010E948A0D70933501609334012D
:100AC00081E392E00E94DE04BE010E948A0D7093D1
:100AD00033016093320186E292E00E94DE04BE019F
:100AE0000E948A0D7093310160933001DF91CF91A4
:100AF00008958BE192E00E94DE0468E370E00E94BA
:100B00008A0D7093370160933601F0CF80912801F0
:100B1000813081F58091240190912501A0912601D9
:100B2000B0912701809320018091240190912501AB
:100B3000A0912601B0912701909321018091240179
:100B400090912501A0912601B0912701A093220147
:100B50008091240190912501A0912601B091270157
:100B6000B093230144E050E060E271E08AEE91E04E
:100B70000C94BA048230C1F4809134019091350113
:100B80000E94D60480913201909133010E94D604D4
:100B900080913001909131010E94D60480913601FC
:100BA000909137010C94D6040895282F30E08613D5
:100BB00007C040E050E06EE170E0C9010C948D0088
:100BC000862F90E0BC01621B730B649F9001659FB0
:100BD000300D749F300D11242F3F320729F440E06F
:100BE00050E06CE070E0EACF2E3F3F4F29F440E048
:100BF00050E064E070E0E2CF40E050E0BA01DECFC8
:100C000080910601882339F180912B0190912C016C
:100C1000A0912D01B0912E010196A11DB11D8093CF
:100C20002B0190932C01A0932D01B0932E01809164
:100C3000240190912501A0912601B09127010196F0
:100C4000A11DB11D8093240190932501A09326013D
:100C5000B0932701089580912B0190912C01A091D0
:100C60002D01B0912E010197A109B10980932B01AB
:100C700090932C01A0932D01B0932E01809124011B
:100C800090912501A0912601B09127010197A1091A
:100C9000B109D8CFCF93DF9385ED8093BC008091CD
:100CA0005B0190915C01A0915D01B0915E0107969E
:100CB000A11DB11D23E0B695A795979587952A9517
:100CC000D1F72091BC0024FD03C01092A30136C0CF
:100CD00040915B0150915C0160915D0170915E01FA
:100CE000452B462B472B69F30097A105B10541F031
:100CF00025E32A95F1F700000197A109B109E1CF99
:100D000080915A0191E0909359018823B9F0C091E4
:100D1000B800D091BA008091BC008A7B8093BC005F
:100D200060E082E10E94B90160E083E10E94B901C4
:100D30000E941C04D093BA00C093B800DF91CF91F9
:100D400008951F920F920FB60F9211242F933F9385
:100D50008F939F93AF93BF938091E2019091E301B2
:100D6000A091E401B091E5013091E10123E0230F6E
:100D70002D3758F50196A11DB11D2093E1018093F7
:100D8000E2019093E301A093E401B093E501809127
:100D9000E6019091E701A091E801B091E901019687
:100DA000A11DB11D8093E6019093E701A093E80196
:100DB000B093E901BF91AF919F918F913F912F9196
:100DC0000F900FBE0F901F90189526E8230F0296E4
:100DD000A11DB11DD2CF1F920F920FB60F921124F9
:100DE0002F933F934F935F936F937F938F939F9333
:100DF000AF93BF93EF93FF93E0910201F091030152
:100E00000995FF91EF91BF91AF919F918F917F9144
:100E10006F915F914F913F912F910F900FBE0F9067
:100E20001F9018951F920F920FB60F9211242F93B7
:100E30003F934F935F936F937F938F939F93AF9362
:100E4000BF93EF93FF93E0910001F09101010995A9
:100E5000FF91EF91BF91AF919F918F917F916F9192
:100E60005F914F913F912F910F900FBE0F901F9068
:100E700018951F920F920FB60F9211242F933F9344
:100E80004F935F936F937F938F939F93AF93BF9392
:100E9000EF93FF938091B900887F803609F44AC0B0
:100EA000F0F5883209F4A7C018F5803109F49BC029
:100EB000B8F4882309F4F9C0883009F494C0FF918C
:100EC000EF91BF91AF919F918F917F916F915F91C2
:100ED0004F913F912F910F900FBE0F901F9018953B
:100EE000883109F488C0803251F78093A20114C080
:100EF000803409F49DC040F48033B9F38833F9F6A7
:100F00008093A20185ECB0C0803509F485C0883596
:100F100009F496C0883499F60E944A06D0CF8839E1
:100F200009F48CC038F5883729F050F4883611F070
:100F3000803729F683E08093A3011092A10157C066
:100F4000883809F47BC0803919F0803809F0B7CFB0
:100F50008091A101803208F071C0E091A10181E08F
:100F60008E0F8093A1018091BB00F0E0EF57FE4F00
:100F700080833DC0803B39F0E0F4803A09F479C0C9
:100F8000883A09F09CCF84E08093A30110928001FD
:100F900010927F01E091CB01F091CC0109958091F5
:100FA0007F0181110FC081E080937F0110925F016A
:100FB00009C0803C09F4A6CF883C09F4A3CF883B44
:100FC00009F07DCFE091800181E08E0F8093800158
:100FD000F0E0E15AFE4F80818093BB009091800148
:100FE00080917F0129C08091C8018093BB0085EC6E
:100FF0008093BC0064CF9091C7018091C60198177F
:1010000058F5E091C70181E08E0F8093C701F0E0B1
:10101000EA55FE4F8081E9CFE091C70181E08E0F54
:101020008093C7018091BB00F0E0EA55FE4F8083BA
:101030009091C7018091C6019817C8F285E8D8CF72
:10104000E091C70181E08E0F8093C7018091BB00C2
:10105000F0E0EA55FE4F80838091A50181115CCFBD
:1010600081E08093A40184EA8093BC001092A301E4
:1010700026CF85EC8093BC001092A3018091A10142
:10108000803230F4E091A101F0E0EF57FE4F108282
:101090006091A10170E0E091C901F091CA0181E87D
:1010A00091E009951092A1010ACF1092A20134CFCC
:1010B0001F920F920FB60F9211242F933F934F93CD
:1010C0005F936F937F938F939F93AF93BF93CF93D0
:1010D000DF93EF93FF9380913801C0911A02D0E023
:1010E00087FF24C0109285001092840080913801FF
:1010F0008F5F8093380180913801082E000C990B86
:101100008C179D0724F4809138018C30C4F18091B4
:10111000840090918500049680349C4908F47AC03C
:101120008091840090918500049676C0809138016A
:10113000082E000C990B8C179D07C4F6E09138011E
:101140008E2FEE0F990BFC01EE0FFF1FE80FF91F1A
:10115000EA50FE4F808186FFC9CFE09138018E2F83
:10116000EE0F990BFC01EE0FFF1FE80FF91FEA507D
:10117000FE4F808160E08F730E94B901B7CF20914C
:10118000840030918500E09138018E2FEE0F990B8D
:10119000FC01EE0FFF1FE80FF91FEA50FE4F81819F
:1011A0009281820F931F9093890080938800E09131
:1011B00038018E2FEE0F990BFC01EE0FFF1FE80F89
:1011C000F91FEA50FE4F808186FF11C0E09138017F
:1011D0008E2FEE0F990BFC01EE0FFF1FE80FF91F8A
:1011E000EA50FE4F808161E08F730E94B901FF9148
:1011F000EF91DF91CF91BF91AF919F918F917F91AF
:101200006F915F914F913F912F910F900FBE0F9073
:101210001F90189580E49CE9909389008093880042
:101220008FEF80933801E3CF1F920F920FB60F928A
:1012300011242F933F934F935F936F937F938F93DB
:101240009F93AF93BF93EF93FF9380912F018823D8
:1012500009F43FC060912B0170912C0180912D0108
:1012600090912E010E944E0E6093D7017093D80189
:101270008093D9019093DA0180912B0190912C01F8
:10128000A0912D01B0912E012091290130912A01C8
:10129000820F931F90932A018093290110922B01B2
:1012A00010922C0110922D0110922E0110922F01FC
:1012B000FF91EF91BF91AF919F918F917F916F912E
:1012C0005F914F913F912F910F900FBE0F901F9004
:1012D000189581E080932F01EBCFCF92DF92EF92B0
:1012E000FF921092ED011092EC0188EE93E0A0E0E5
:1012F000B0E08093EE019093EF01A093F001B093E2
:10130000F10181E191E09093EB018093EA018091FA
:101310001A028C3008F00EC191E0980F90931A02D7
:1013200080936D0290E0FC01EE0FFF1FE80FF91FA4
:10133000EA50FE4F88EB9BE09283818389E08093A3
:101340006C0210926002109261021092620210927E
:10135000630285E080935D0280E180935E0281E11B
:1013600080935F0261E085E00E94E70161E080E137
:101370000E94E70161E081E10E94E70110924802CA
:1013800010924F0210925602109257021092580279
:101390001092590281E0809355028093520210927C
:1013A000530292E0909354028093470288E190E0C8
:1013B00090934C0280934B020E94700F90935102C5
:1013C00080935002009709F4B9C028E1FC01119202
:1013D0002A95E9F788E090E090934A0280934902C9
:1013E0008CE090E090934E0280934D0280914802F1
:1013F000882341F061E08CE00E94E70160E08CE02E
:101400000E94B901EAEBF0E0E491F0E0EE0FFF1F7B
:10141000EC55FF4F8591949190935B0280935A0213
:10142000ECE9F0E0E491E0935C028BE080933C0215
:1014300084E080933D0210923E0261E08BE00E94C6
:10144000E70160E080913D020E94E70190E1C92E32
:1014500097E2D92EE12CF12CC0924302D0924402A3
:10146000E0924502F092460283E08093310288E0E8
:10147000809332021092330261E083E00E94E70120
:1014800060E0809132020E94E701C0923802D0925F
:101490003902E0923A02F0923B0287E08093260202
:1014A00086E0809327021092280261E087E00E9484
:1014B000E70160E0809127020E94E701C0922D02BF
:1014C000D0922E02E0922F02F09230028DE08093B3
:1014D0001B028FE080931C0210921D0261E08DE0E0
:1014E0000E94E70160E080911C020E94E701C09227
:1014F0002202D0922302E0922402F09225028FEF82
:1015000080937002109272021092710210927C020B
:1015100010927B028FEF9FEFDC0180937702909314
:101520007802A0937902B0937A02FF90EF90DF9057
:10153000CF9008958FEF80936D0200CF10924C02F0
:1015400010924B0210924A021092490249CF7894AD
:1015500084B5826084BD84B5816084BD85B58260B8
:1015600085BD85B5816085BD80916E008160809369
:101570006E001092810080918100826080938100D2
:1015800080918100816080938100809180008160E2
:10159000809380008091B10084608093B10080913D
:1015A000B00081608093B00080917A008460809365
:1015B0007A0080917A00826080937A0080917A002C
:1015C000816080937A0080917A00806880937A00AD
:1015D0001092C10080914D0290914E0297FD08C07B
:1015E00061E00E94E70160E080914D020E94B90134
:1015F00081E08093480264E670E080E090E00E9421
:101600008C0340914B0250914C0270E060E080915D
:101610005002909151020E94951061E08EE00E946C
:10162000E70161E08EE00E94B90160E082E00E9483
:10163000E70180E096E090930101809300018091A2
:1016400069008C7F816080936900E89AC0916C0288
:1016500080916D028C3008F052C061E08C2F0E94A6
:10166000E70180916D02282F30E0F901EE0FFF1F96
:10167000E20FF31FEA50FE4FCF739081907C9C2BBA
:10168000908310926E0210926F022CE0622F0E94E3
:101690007E0D829FB001112430E020E0AB01420FAB
:1016A000531FFA01EE0FFF1FE40FF51FEA50FE4F24
:1016B000908196FD16C02F5F3F4F2C30310571F79A
:1016C00081110FC01092800082E0809381001092FF
:1016D000850010928400B19A80916F00826080939F
:1016E0006F00E0916D028E2F90E0FC01EE0FFF1F66
:1016F000E80FF91FEA50FE4F80818064808390E0FC
:1017000080E00E94F6001092D0011092CF0110925A
:10171000CE011092CD010E941C048EEB93E09093B9
:10172000CC018093CB018AEC93E09093CA01809323
:10173000C90188E08093BA008DE594E09093D201CE
:101740008093D10186E895E09093D4018093D301F2
:101750000E944D05D1E000E0C0E08091D6018111EA
:101760001DC010E04D2F502F612F8C2F0E94D505EA
:101770001F5F1830B9F70E94B90268E770E080E097
:1017800090E00E948C03C73031F0C11102C0D1E05B
:1017900000E0CD0FE2CFDFEF0FEFFBCFD0E0C0E0F6
:1017A00044E654E664E670E0CE010E948D00219686
:1017B000C830D105A9F70E94B902F8941092B00080
:1017C0001092B1008091B10087608093B100809148
:1017D00070008460809370008FEF8093B4007894E1
:1017E00020E0822E20E0922E01E010E0AA24AA94AC
:1017F000BA2C2FB7F8948091E2019091E301A09167
:10180000E401B091E5012FBF4091DD015091DE016F
:101810006091DF017091E001481759076A077B0763
:10182000C0F40E944D052FB7F8948091E201909189
:10183000E301A091E401B091E5012FBF0596A11D40
:10184000B11D8093DD019093DE01A093DF01B09381
:10185000E0012FB7F8948091E2019091E301A0910B
:10186000E401B091E5012FBF4091DD015091DE010F
:101870006091DF017091E001481759076A077B0703
:1018800008F090C0C091DB01D091DC016091D701DC
:101890007091D8018091D9019091DA010E94160EC1
:1018A0009E01261B370BB901072E000C880B990BE4
:1018B0000E944E0E2B013C01409264025092650240
:1018C00060926602709267022AE939E949E95EE3AB
:1018D0000E94030F209160023091610240916202E8
:1018E000509163020E94A50D6B017C01209168025A
:1018F0003091690240916A0250916B02C301B201BA
:101900000E94A40D9B01AC010E94A50D9B01AC019E
:10191000C701B6010E94A50D6B017C0120E030E0FB
:1019200046E153EC0E94110E87FD68C020E030E0D4
:1019300046E153E4C701B6010E94FE0E18160CF4EE
:1019400064C0C0926002D0926102E0926202F092A2
:101950006302409268025092690260926A02709239
:101960006B0290E080E0CD2B29F0C701B6010E9408
:10197000160ECB010E9470022FB7F8948091E201FD
:101980009091E301A091E401B091E5012FBF0F9682
:10199000A11DB11D8093DD019093DE01A093DF01B5
:1019A000B093E0018091D601811121C0D0E0C091B7
:1019B000D50140910401509105016D2F8C2F0E949B
:1019C000D505DF5FD83099F70E94B90268E770E06B
:1019D00080E090E00E948C03C730F1F4B0920501E2
:1019E000A092040180910401C80FC093D501811415
:1019F000910409F4FECE0E940000FBCEC12CD12C34
:101A000096E1E92E93ECF92E9CCFC12CD12C86E1E6
:101A1000E82E83E4F82E95CFC111E4CF1093050191
:101A200000930401DFCF80915002909151020E94F7
:101A30000C1080914D0290914E0297FD03C060E022
:101A40000C94E7010895052E97FB1EF400940E9464
:101A50003A0D57FD07D00E944D0D07FC03D04EF400
:101A60000C943A0D50954095309521953F4F4F4F2E
:101A70005F4F089590958095709561957F4F8F4F3A
:101A80009F4F08950E946F0DA59F900DB49F900DDC
:101A9000A49F800D911D11240895A1E21A2EAA1B66
:101AA000BB1BFD010DC0AA1FBB1FEE1FFF1FA2170E
:101AB000B307E407F50720F0A21BB30BE40BF50B0B
:101AC000661F771F881F991F1A9469F76095709594
:101AD000809590959B01AC01BD01CF010895A29F17
:101AE000B001B39FC001A39F700D811D1124911DF2
:101AF000B29F700D811D1124911D0895991B79E0ED
:101B000004C0991F961708F0961B881F7A95C9F78D
:101B100080950895AA1BBB1B51E107C0AA1FBB1FDC
:101B2000A617B70710F0A61BB70B881F991F5A9569
:101B3000A9F780959095BC01CD010895EE0FFF1F88
:101B40000590F491E02D09945058BB27AA270E94D4
:101B5000BC0D0C94C40E0E94B60E38F00E94BD0E4F
:101B600020F039F49F3F19F426F40C94B30E0EF4D0
:101B7000E095E7FB0C94AD0EE92F0E94D50E58F3CB
:101B8000BA17620773078407950720F079F4A6F562
:101B90000C94F70E0EF4E0950B2EBA2FA02D0B012E
:101BA000B90190010C01CA01A0011124FF27591BA2
:101BB00099F0593F50F4503E68F11A16F040A22FA8
:101BC000232F342F4427585FF3CF46953795279519
:101BD000A795F0405395C9F77EF41F16BA0B620B18
:101BE000730B840BBAF09150A1F0FF0FBB1F661F5F
:101BF000771F881FC2F70EC0BA0F621F731F841FA2
:101C000048F4879577956795B795F7959E3F08F0C7
:101C1000B0CF9395880F08F09927EE0F9795879589
:101C200008950E94890E08F481E008950E941D0E17
:101C30006894B1110C94F80E08950E94DD0E88F09E
:101C40009F5798F0B92F9927B751B0F0E1F0660F80
:101C5000771F881F991F1AF0BA95C9F714C0B130C1
:101C600091F00E94F70EB1E008950C94F70E672FE3
:101C7000782F8827B85F39F0B93FCCF386957795F0
:101C80006795B395D9F73EF49095809570956195D9
:101C90007F4F8F4F9F4F0895E89409C097FB3EF404
:101CA00090958095709561957F4F8F4F9F4F9923A9
:101CB000A9F0F92F96E9BB279395F6958795779527
:101CC0006795B795F111F8CFFAF4BB0F11F460FFE7
:101CD0001BC06F5F7F4F8F4F9F4F16C0882311F03F
:101CE00096E911C0772321F09EE8872F762F05C053
:101CF000662371F096E8862F70E060E02AF09A95EE
:101D0000660F771F881FDAF7880F9695879597F9E2
:101D10000895990F0008550FAA0BE0E8FEEF16167C
:101D20001706E807F907C0F012161306E407F507CF
:101D300098F0621B730B840B950B39F40A2661F043
:101D4000232B242B252B21F408950A2609F4A140E6
:101D5000A6958FEF811D811D089597F99F6780E8F3
:101D600070E060E008959FEF80EC089500240A94ED
:101D70001616170618060906089500240A94121666
:101D80001306140605060895092E0394000C11F499
:101D9000882352F0BB0F40F4BF2B11F460FF04C046
:101DA0006F5F7F4F8F4F9F4F089557FD9058440F9F
:101DB000551F59F05F3F71F04795880F97FB991FAA
:101DC00061F09F3F79F08795089512161306140667
:101DD000551FF2CF4695F1DF08C0161617061806F4
:101DE000991FF1CF86957105610508940895E894CF
:101DF000BB2766277727CB0197F908950E94890EA4
:101E000008F48FEF08950E94160F0C94C40E0E94E0
:101E1000B60E38F00E94BD0E20F0952311F00C9400
:101E2000AD0E0C94B30E11240C94F80E0E94D50E36
:101E300070F3959FC1F3950F50E0551F629FF0011D
:101E4000729FBB27F00DB11D639FAA27F00DB11D36
:101E5000AA1F649F6627B00DA11D661F829F2227BF
:101E6000B00DA11D621F739FB00DA11D621F839F46
:101E7000A00D611D221F749F3327A00D611D231F1C
:101E8000849F600D211D822F762F6A2F11249F576A
:101E900050409AF0F1F088234AF0EE0FFF1FBB1F6D
:101EA000661F771F881F91505040A9F79E3F51052C
:101EB00080F00C94AD0E0C94F80E5F3FE4F3983E66
:101EC000D4F3869577956795B795F795E7959F5FD6
:101ED000C1F7FE2B880F911D9695879597F9089568
:101EE0000F931F93CF93DF938230910510F482E01C
:101EF00090E0E0917F02F091800230E020E0B0E0DD
:101F0000A0E0309799F42115310509F44AC0281B47
:101F1000390B24303105D8F58A819B816115710513
:101F200089F1FB0193838283FE0111C040815181BD
:101F30000281138148175907E0F04817590799F4AF
:101F4000109761F012960C93129713961C93329689
:101F5000CF01DF91CF911F910F91089500937F02E0
:101F600010938002F4CF2115310551F04217530729
:101F700038F0A901DB019A01BD01DF01F801C1CFF1
:101F8000EF01F9CF9093800280937F02CDCFFE01C5
:101F9000E20FF31F819391932250310939832883F3
:101FA000D7CF20917D0230917E02232B41F42091E6
:101FB000090130910A0130937E0220937D02209125
:101FC0000701309108012115310541F42DB73EB7C5
:101FD00040910B0150910C01241B350BE0917D02C7
:101FE000F0917E02E217F307A0F42E1B3F0B281797
:101FF000390778F0AC014E5F5F4F2417350748F082
:102000004E0F5F1F50937E0240937D028193919308
:102010009FCFF0E0E0E09CCFCF93DF930097E9F013
:10202000FC01329713821282A0917F02B09180024C
:10203000ED0130E020E01097A1F420813181820F82
:10204000931F20917D0230917E022817390709F0F5
:1020500061C0F0937E02E0937D02DF91CF910895FD
:10206000EA01CE17DF07E8F54A815B819E01411541
:102070005105B1F7E901FB83EA8349915991C40FF6
:10208000D51FEC17FD0761F4808191810296840FC2
:10209000951FE90199838883828193819B838A8339
:1020A000F0E0E0E012968D919C9113970097B9F5BE
:1020B0002D913C911197CD010296820F931F209193
:1020C0007D0230917E022817390739F6309751F595
:1020D0001092800210927F02B0937E02A0937D0244
:1020E000BCCFD383C28340815181840F951FC81711
:1020F000D90761F44E5F5F4F88819981480F591F5E
:10210000518340838A819B8193838283211531058A
:1021100009F0B0CFF0938002E0937F029ECFFD01E3
:10212000DC01C0CF13821282D7CFDC0101C06D93D6
:1021300041505040E0F7089510E0C2E6D0E004C0FE
:10214000FE010E949E0D2196C336D107C9F7F8946F
:02215000FFCFBF
:10215200F403F4030100010000810280000000008A
:1021620000C504BA04DB043A04B3044A043B040085
:00000001FF
