:100000000C9463000C949D080C9476080C948B005F
:100010000C948B000C948B000C948B000C948B0034
:100020000C94F70A0C948B000C948B000C943B0AF4
:100030000C948B000C948B000C948B000C948B0014
:100040000C942C080C948B000C94EA080C94C408B3
:100050000C948B000C948B000C948B000C948B00F4
:100060000C941C090C948B00000000002400270055
:100070002A000000000023002600290000000008DC
:10008000000201000003040700000000000000005F
:10009000010204081020408001020408102001021F
:1000A0000408102000000000250028002B00040494
:1000B0000404040404040202020202020303030310
:1000C0000303500B891011241FBECFEFD8E0DEBF11
:1000D000CDBF11E0A0E0B1E0EEE4F8E202C005908F
:1000E0000D92AC33B107D9F723E0ACE3B1E001C026
:1000F0001D92A634B207E1F710E0C2E6D0E004C0DA
:100100002197FE010E941C11C136D107C9F70E9438
:10011000C80C0C941A140C9400004F925F926F92CA
:100120007F928F929F92AF92BF92FF9220910E0387
:1001300030910F038217930708F043C02B01662408
:100140007724852E962EA72EBB24B82DA42F209180
:100150001403F42C222391F0E22FF0E0E49DD0016F
:10016000E59DB00DF49DB00D1124FB2E289D40019E
:100170001124B92D249F90011124A32FE0911A037B
:10018000209115033091160350911703E51323C0F6
:10019000FC01EE0FFF1F8E0F9F1F820F931FE09138
:1001A0001703E80FF92FF11DF082E0911803E80F13
:1001B000F92FF11DB08320911903820F911DFC01CD
:1001C000A083FF90BF90AF909F908F907F906F9093
:1001D0005F904F900895880F991F880F991F820F85
:1001E000931FE80FF92FF11D1082D9CF8F929F92A4
:1001F000AF92BF92FF920F931F93CF93DF939C0117
:10020000F09032038BE08F1508F46CC080913403BA
:1002100008E512E0081B110987FD1395000F111F57
:10022000000F111F80913303C8E8D0E0C81BD1092B
:1002300087FDD395CC0FDD1FCC0FDD1F4E010D2E9A
:10024000000CAA08BB08032E000C440B550B2C59BC
:100250003F4F4F4F5F4FA1E3B0E00E94B81028EC32
:1002600030E040E050E00E9499102A5B3F4F4F4F32
:100270005F4FD9012837310514F0A7E7B0E0A63465
:10028000B10514F4A6E4B0E09801012E000C440B73
:10029000550B281939094A095B090E94C31024EB40
:1002A00030E040E050E00E949910820E931EA41EA0
:1002B000B51E8C169D062CF0E801801691060CF4F4
:1002C000E4012297CC0FDD1F2FB7F8948F2D90E01B
:1002D000FC01EE0FFF1FE80FF91FE554FD4FD2831D
:1002E000C1832FBFDF91CF911F910F91FF90BF90DE
:1002F000AF909F908F900895833081F028F48130E3
:1003000099F08230A9F008958730A9F08830C9F0BB
:100310008430B1F4809180008F7D03C08091800093
:100320008F7780938000089584B58F7784BD08957A
:1003300084B58F7DFBCF8091B0008F778093B00024
:1003400008958091B0008F7DF9CFCF93DF93282F50
:1003500030E0F901E458FF4F8491F901E057FF4F75
:10036000D491F901E255FF4FC491CC23A1F0811142
:100370000E947C01EC2FF0E0EE0FFF1FEE58FF4FC4
:10038000A591B491EC91ED2381E090E009F480E037
:10039000DF91CF91089580E090E0FACF1F93CF9343
:1003A000DF93282F30E0F901E458FF4F8491F901E1
:1003B000E057FF4FD491F901E255FF4FC491CC2390
:1003C000A9F0162F81110E947C01EC2FF0E0EE0FB6
:1003D000FF1FEC55FF4FA591B4918FB7F894EC91A6
:1003E000111108C0D095DE23DC938FBFDF91CF9130
:1003F0001F910895DE2BF8CFCF93DF9390E0FC019F
:10040000E057FF4F249182559F4FFC018491882330
:10041000D1F090E0880F991FFC01E859FF4FA5919A
:10042000B491FC01EC55FF4FC591D49161110EC000
:100430009FB7F8948C91E22FE0958E238C932881BE
:10044000E223E8839FBFDF91CF9108958FB7F8949F
:10045000EC91E22BEC938FBFF6CFCF93DF93EC01BF
:1004600061E085E00E94FC01209731F460E085E0C6
:10047000DF91CF910C94CE01CF3FD10511F461E013
:10048000F6CFE1E8F0E0E491E33029F140F4E13027
:10049000B1F0E230D9F0C038D1058CF7E7CFE730C2
:1004A00021F1E83051F1E430B1F7809180008062B1
:1004B00080938000D0938B00C0938A0004C084B5E1
:1004C000806884BDC7BDDF91CF91089584B58062F7
:1004D00084BDC8BDF8CF8091800080688093800083
:1004E000D0938900C0938800EECF8091B0008068DF
:1004F0008093B000C093B300E6CF8091B0008062DB
:100500008093B000C093B400DECF3FB7F8948091E1
:100510000E0290910F02A0911002B091110226B527
:10052000A89B05C02F3F19F00196A11DB11D3FBF2B
:10053000BA2FA92F982F8827BC01CD01620F711DFA
:10054000811D911D42E0660F771F881F991F4A95F4
:10055000D1F708950F931F93CF93DF93CDB7DEB7F5
:1005600029970FB6F894DEBF0FBECDBF809115035B
:1005700090911603892B09F47CC00E94850200919A
:100580001B0310911C0320911D0330911E03601763
:1005900071078207930740F460931B0370931C0359
:1005A00080931D0390931E0300911B0310911C0365
:1005B00020911D0330911E03601B710B820B930B66
:1005C0006C32714081059105C0F2F894809110035E
:1005D000909111039A838983E0911503F09116039A
:1005E000DF0111968081898790910C03E0911F03B0
:1005F000F091200380912103992309F445C0908153
:10060000982B98879081809589238F838F818C8305
:1006100088E08B8358856F8149853B812C81898156
:100620009A81508347FD252F3A952083262F39F054
:10063000441F00C000006083000000C0F2CF38E01B
:100640004D9160830000019761F7F0932003E093E0
:100650001F0349873B832C839A83898378940E9464
:10066000850260931B0370931C0380931D0390937A
:100670001E0329960FB6F894DEBF0FBECDBFDF91E3
:10068000CF911F910F9108959081982B9887908119
:10069000809589238F838F818E8388E08D83588511
:1006A0006F8149853D812E8189819A81508347FDE3
:1006B000252F00C000C0208300C000C000C000C0C3
:1006C00000C060830000262F3A9541F0441F0000CF
:1006D00000C000C000C000C000C0E8CF38E04D91AD
:1006E00000C0608300C0019709F7F0932003E093F6
:1006F0001F0349873D832E83AFCF8F929F92AF9286
:10070000BF92CF92DF92EF92FF924B015C010E9469
:1007100085026B017C010E9485026C197D098E099E
:100720009F09683E734081059105A8F321E0821A74
:100730009108A108B10888EEC80E83E0D81EE11C1C
:10074000F11C81149104A104B10429F7FF90EF90EA
:10075000DF90CF90BF90AF909F908F900895E091E1
:10076000E701F091E801309729F01092E201109230
:10077000E10109940895CF93DF93AC01E091E50185
:10078000F091E6013097F1F09091E4018091E3015E
:100790009817C0F090E0292F30E02617370754F45F
:1007A000D901A35BBE4F240F351FE90128812C938B
:1007B0009F5FF1CF1092E4016093E301CB01DF91E1
:1007C000CF910994DF91CF9108950895AF92BF9290
:1007D000CF92DF92EF92FF920F931F93CF93DF930D
:1007E0006C017B018B01040F151FEB015E01AE183C
:1007F000BF08C017D10759F06991D601ED91FC915E
:100800000190F081E02DC6010995892B79F7C5018A
:10081000DF91CF911F910F91FF90EF90DF90CF90DC
:10082000BF90AF900895FC01538D448D252F30E08B
:10083000842F90E0821B930B541710F0CF960895ED
:1008400001970895FC01918D828D981761F0A28D1A
:10085000AE0FBF2FB11D5D968C91928D9F5F9F73E0
:10086000928F90E008958FEF9FEF0895FC01918D96
:10087000828D981731F0828DE80FF11D858D90E003
:1008800008958FEF9FEF0895FC01918D228D892FA0
:1008900090E0805C9F4F821B91098F739927089588
:1008A00082E192E00E94440421E0892B09F420E0D7
:1008B000822F089580E090E0892B29F00E94500457
:1008C00081110C9400000895FC01A48DA80FB92F8C
:1008D000B11DA35ABF4F2C91848D90E001968F7368
:1008E0009927848FA689B7892C93A089B1898C9187
:1008F000837080648C93938D848D981306C00288D6
:10090000F389E02D80818F7D80830895EF92FF929F
:100910000F931F93CF93DF93EC0181E0888F9B8D22
:100920008C8D98131AC0E889F989808185FF15C0DC
:100930009FB7F894EE89FF896083E889F9898081FF
:100940008370806480839FBF81E090E0DF91CF91CE
:100950001F910F91FF90EF900895F62E0B8D10E0F0
:100960000F5F1F4F0F731127E02E8C8D8E110CC05F
:100970000FB607FCFACFE889F989808185FFF5CFAA
:10098000CE010E946404F1CFEB8DEC0FFD2FF11D21
:10099000E35AFF4FF0829FB7F8940B8FEA89FB89E7
:1009A00080818062CFCFCF93DF93EC01888D882345
:1009B000B9F0AA89BB89E889F9898C9185FD03C0C2
:1009C000808186FD0DC00FB607FCF7CF8C9185FFA7
:1009D000F2CF808185FFEDCFCE010E946404E9CF84
:1009E000DF91CF91089520919301260F3327331F74
:1009F00021323105ECF42091B701FC0190E080E058
:100A0000243069F082E00895A09193012191AC0116
:100A10004D585E4FA40FB52FB11D2C93019686172C
:100A200098F380919301680F6093930180E008959B
:100A300081E008951092B70181E08093B90110928E
:100A4000B80161E082E10E94CE0161E083E10E9491
:100A5000CE01E9EBF0E080818E7F808380818D7F05
:100A6000808388E48093B80085E48093BC00089577
:100A70000895E091E4018091E301E81730F4F0E09B
:100A8000E35BFE4F808190E008958FEF9FEF089524
:100A90009091E4018091E3012FEF3FEF981748F424
:100AA000E92FF0E0E35BFE4F208130E09F5F909301
:100AB000E401C90108950F931F93CF93DF93EC01D5
:100AC0001C161D060CF045C08FEA92E00E944805F6
:100AD0008093440121978330B1F48FEA92E00E9421
:100AE00048058C018FEA92E00E9448050197809F9B
:100AF0009001819F300D909F300D112430930002A2
:100B00002093FF01DDCF843091F48FEA92E00E94C0
:100B100048058C018FEA92E00E944805892B19F460
:100B2000119501951109C8010E94F600C9CF8530C1
:100B300039F68FEA92E00E9448058C01682F8EE01A
:100B40000E94CE0181E0012B09F480E08093FA013C
:100B5000B7CFDF91CF911F910F9108958091E3015D
:100B60009091E401891B990B0895CF93DF93CB01FA
:100B7000EA01642F0E94F304CE01DF91CF91089522
:100B8000CF93DF931F92CDB7DEB7698361E0CE01CB
:100B900001960E94F30481E090E00F90DF91CF91E5
:100BA0000895682F8FEA92E00C94C00590E080E0F1
:100BB00008950F931F93CF93DF93EC018A818823CD
:100BC00021F061E088810E94FC0160E088810E9440
:100BD000CE0183E090E00197F1F761E088810E9407
:100BE000CE0183E290E00197F1F760E088810E94F6
:100BF000CE018A81882321F060E088810E94FC0177
:100C00000E9485026B837C838D839E8389810E94F1
:100C1000A501892B99F40E9485020B811C812D81ED
:100C20003E81601B710B820B930B0F811885298508
:100C30003A85061717072807390740F70E948502EB
:100C40006B837C838D839E8389810E94A501892B80
:100C500099F00E9485020B811C812D813E81601BD1
:100C6000710B820B930B0F81188529853A85061726
:100C700017072807390740F70E9485022B813C811E
:100C8000CB01821B930BDF91CF911F910F910895A0
:100C9000809104018823E1F1809101029091020288
:100CA000A0910302B09104020097A105B10569F477
:100CB00081E093E00E94D90568E370E00E9408118A
:100CC0007093F8016093F701089581309105A105B3
:100CD000B10569F48BEE92E00E94D90568E370E0FB
:100CE0000E9408117093F2016093F1010895029738
:100CF000A105B105C9F486EF92E00E94D90568E329
:100D000070E00E9408117093F4016093F30108955C
:100D100080EE92E00E94D90568E370E00E9408111D
:100D20007093F6016093F50108958091440181303C
:100D300081F58091400190914101A0914201B091D3
:100D4000430180933C018091400190914101A09129
:100D50004201B091430190933D01809140019091F7
:100D60004101A0914201B0914301A0933E018091C5
:100D7000400190914101A0914201B0914301B09393
:100D80003F0144E050E06CE371E08FEA92E00C94A4
:100D9000B5058230C1F48091F7019091F8010E946D
:100DA000D1058091F1019091F2010E94D1058091CD
:100DB000F3019091F4010E94D1058091F501909189
:100DC000F6010C94D1050895282F30E0861307C052
:100DD00040E050E06EE170E0C9010C948D00862F78
:100DE00090E0BC01621B730B649F9001659F300D06
:100DF000749F300D11242F3F320729F440E050E05A
:100E00006CE070E0EACF2E3F3F4F29F440E050E025
:100E100064E070E0E2CF40E050E0BA01DECF8091C4
:100E20000401882339F18091470190914801A091F4
:100E30004901B0914A010196A11DB11D809347015E
:100E400090934801A0934901B0934A0180914001D9
:100E500090914101A0914201B09143010196A11DE1
:100E6000B11D8093400190934101A0934201B09342
:100E7000430108958091470190914801A091490153
:100E8000B0914A010197A109B1098093470190935C
:100E90004801A0934901B0934A018091400190918B
:100EA0004101A0914201B09143010197A109B1090B
:100EB000D8CFFC0101900020E9F73197AF01481B22
:100EC000590BBC0182E192E00C94E6038F929F9251
:100ED000AF92BF920F931F93CF93DF93CDB7DEB73F
:100EE000A1970FB6F894DEBF0FBECDBF19A2423056
:100EF00008F44AE08E010F5D1F4F842E912CB12C17
:100F0000A12CA50194010E94CB10E62FB901CA01C2
:100F1000EA30F4F4E05DD801EE938D01232B242B0D
:100F2000252B79F790E080E0109719F0CD010E9411
:100F30005907A1960FB6F894DEBF0FBECDBFDF9163
:100F4000CF911F910F91BF90AF909F908F90089578
:100F5000E95CE1CFCF92DF92EF92FF92CF93DF93E4
:100F60006B017C016DE282E192E00E948604EC015B
:100F700066277727CB016C197D098E099F094AE006
:100F80000E9466078C0F9D1FDF91CF91FF90EF901D
:100F9000DF90CF900895BC01990F880B990B97FDB6
:100FA0000C94AA074AE00C946607CF93DF9385ED73
:100FB0008093BC0080916F0190917001A0917101AC
:100FC000B09172010796A11DB11D23E0B695A795BA
:100FD000979587952A95D1F72091BC0024FD03C0F1
:100FE0001092B70136C040916F015091700160912D
:100FF000710170917201452B462B472B69F30097C5
:10100000A105B10541F025E32A95F1F7000001970C
:10101000A109B109E1CF80916E0191E090936D013A
:101020008823B9F0C091B800D091BA008091BC007B
:101030008A7B8093BC0060E082E10E94CE0160E088
:1010400083E10E94CE010E941A05D093BA00C0939A
:10105000B800DF91CF9108951F920F920FB60F92B3
:1010600011242F933F938F939F93AF93BF938091BE
:101070000A0290910B02A0910C02B0910D023091E6
:10108000090223E0230F2D3758F50196A11DB11D4C
:101090002093090280930A0290930B02A0930C0202
:1010A000B0930D0280910E0290910F02A091100258
:1010B000B09111020196A11DB11D80930E02909373
:1010C0000F02A0931002B0931102BF91AF919F91B4
:1010D0008F913F912F910F900FBE0F901F901895F9
:1010E00026E8230F0296A11DB11DD2CF1F920F92A9
:1010F0000FB60F9211242F933F934F935F936F93EB
:101100007F938F939F93AF93BF93EF93FF93E09160
:101110000201F09103010995FF91EF91BF91AF9109
:101120009F918F917F916F915F914F913F912F91FF
:101130000F900FBE0F901F9018951F920F920FB631
:101140000F9211242F933F934F935F936F937F934D
:101150008F939F93AF93BF93EF93FF93E091000121
:10116000F09101010995FF91EF91BF91AF919F918E
:101170008F917F916F915F914F913F912F910F9040
:101180000FBE0F901F9018951F920F920FB60F92DF
:1011900011242F933F934F935F936F937F938F937C
:1011A0009F93AF93BF93EF93FF9382E192E00E94EE
:1011B0006404FF91EF91BF91AF919F918F917F91C7
:1011C0006F915F914F913F912F910F900FBE0F90B4
:1011D0001F9018951F920F920FB60F9211242F9304
:1011E0008F939F93EF93FF93E0912202F09123025C
:1011F0008081E0912802F091290282FD1BC090813C
:1012000080912B028F5F8F7320912C02821741F007
:10121000E0912B02F0E0EE5EFD4F958F80932B0264
:10122000FF91EF919F918F912F910F900FBE0F9093
:101230001F9018958081F4CF1F920F920FB60F92D6
:1012400011242F933F934F935F936F937F938F93CB
:101250009F93AF93BF93EF93FF938091B900887FE3
:10126000803609F44AC0F0F5883209F4A7C018F5B1
:10127000803109F49BC0B8F4882309F4F9C08830A0
:1012800009F494C0FF91EF91BF91AF919F918F911D
:101290007F916F915F914F913F912F910F900FBE72
:1012A0000F901F901895883109F488C0803251F74B
:1012B0008093B60114C0803409F49DC040F480339B
:1012C000B9F38833F9F68093B60185ECB0C0803568
:1012D00009F485C0883509F496C0883499F60E94CF
:1012E000D507D0CF883909F48CC038F5883729F074
:1012F00050F4883611F0803729F683E08093B701E7
:101300001092B50157C0883809F47BC0803919F0B4
:10131000803809F0B7CF8091B501803208F071C0F4
:10132000E091B50181E08E0F8093B5018091BB0003
:10133000F0E0EB56FE4F80833DC0803B39F0E0F497
:10134000803A09F479C0883A09F09CCF84E0809310
:10135000B7011092940110929301E091DF01F09196
:10136000E00109958091930181110FC081E0809384
:1013700093011092730109C0803C09F4A6CF883C08
:1013800009F4A3CF883B09F07DCFE091940181E07F
:101390008E0F80939401F0E0ED58FE4F8081809392
:1013A000BB00909194018091930129C08091DC0150
:1013B0008093BB0085EC8093BC0064CF9091DB01EF
:1013C0008091DA01981758F5E091DB0181E08E0FEA
:1013D0008093DB01F0E0E654FE4F8081E9CFE0919D
:1013E000DB0181E08E0F8093DB018091BB00F0E098
:1013F000E654FE4F80839091DB018091DA019817CB
:10140000C8F285E8D8CFE091DB0181E08E0F8093B0
:10141000DB018091BB00F0E0E654FE4F80838091B9
:10142000B90181115CCF81E08093B80184EA809397
:10143000BC001092B70126CF85EC8093BC001092BF
:10144000B7018091B501803230F4E091B501F0E050
:10145000EB56FE4F10826091B50170E0E091DD0126
:10146000F091DE0185E991E009951092B5010ACF6E
:101470001092B60134CF1F920F920FB60F92112423
:101480002F933F934F935F936F937F938F939F938C
:10149000AF93BF93CF93DF93EF93FF9380914C0172
:1014A000C091DF02D0E087FF24C010928500109227
:1014B000840080914C018F5F80934C0180914C019E
:1014C000082E000C990B8C179D0724F480914C0179
:1014D0008C30C4F180918400909185000496803412
:1014E0009C4908F47AC0809184009091850004960C
:1014F00076C080914C01082E000C990B8C179D072B
:10150000C4F6E0914C018E2FEE0F990BFC01EE0F0B
:10151000FF1FE80FF91FE554FD4F808186FFC9CFFB
:10152000E0914C018E2FEE0F990BFC01EE0FFF1F87
:10153000E80FF91FE554FD4F808160E08F730E9432
:10154000CE01B7CF2091840030918500E0914C010D
:101550008E2FEE0F990BFC01EE0FFF1FE80FF91F06
:10156000E554FD4F81819281820F931F90938900F2
:1015700080938800E0914C018E2FEE0F990BFC01B7
:10158000EE0FFF1FE80FF91FE554FD4F808186FF26
:1015900011C0E0914C018E2FEE0F990BFC01EE0F64
:1015A000FF1FE80FF91FE554FD4F808161E08F7345
:1015B0000E94CE01FF91EF91DF91CF91BF91AF914A
:1015C0009F918F917F916F915F914F913F912F915B
:1015D0000F900FBE0F901F90189580E49CE9909398
:1015E0008900809388008FEF80934C01E3CF1F9296
:1015F0000F920FB60F9211242F933F934F935F9347
:101600006F937F938F939F93AF93BF93EF93FF93CA
:1016100080914B01882309F43FC06091470170918C
:1016200048018091490190914A010E94CC11609338
:10163000FB017093FC018093FD019093FE0180916A
:10164000470190914801A0914901B0914A01209130
:10165000450130914601820F931F9093460180937C
:1016600045011092470110924801109249011092D1
:101670004A0110924B01FF91EF91BF91AF919F9161
:101680008F917F916F915F914F913F912F910F902B
:101690000FBE0F901F90189581E080934B01EBCF08
:1016A000CF92DF92EF92FF921092150210921402E5
:1016B00088EE93E0A0E0B0E08093160290931702CA
:1016C000A0931802B093190221E131E03093130284
:1016D0002093120225EC30E030931F0220931E026B
:1016E00024EC30E0309321022093200220EC30E003
:1016F000309323022093220221EC30E03093250224
:101700002093240222EC30E030932702209326021B
:1017100026EC30E0309329022093280210922B020D
:1017200010922C0210922D0210922E021092B202F0
:101730001092B1028093B3029093B402A093B502C9
:10174000B093B60283E291E09093B0028093AF022F
:101750008091DF028C3008F00EC191E0980F9093D9
:10176000DF028093320390E0FC01EE0FFF1FE80FD1
:10177000F91FE554FD4F88EB9BE09283818389E05C
:1017800080933103109225031092260310922703B1
:101790001092280385E08093220380E18093230345
:1017A00081E18093240361E085E00E94FC0161E017
:1017B00080E10E94FC0161E081E10E94FC01109245
:1017C0000D031092140310921B0310921C0310922D
:1017D0001D0310921E0381E080931A038093170368
:1017E0001092180392E09093190380930C0388E100
:1017F00090E090931103809310030E94EE12909357
:10180000160380931503009709F4B9C028E1FC0181
:1018100011922A95E9F788E090E090930F03809366
:101820000E038CE090E09093130380931203809159
:101830000D03882341F061E08CE00E94FC0160E030
:101840008CE00E94CE01EAEBF0E0E491F0E0EE0FD4
:10185000FF1FEC55FF4F8591949190932003809347
:101860001F03ECE9F0E0E491E093210387E080932B
:10187000010386E0809302031092030361E087E096
:101880000E94FC0160E0809102030E94FC0190E450
:10189000C92E9FE1D92EE12CF12CC0920803D092E1
:1018A0000903E0920A03F0920B038BE08093F602A7
:1018B00084E08093F7021092F80261E08BE00E94CE
:1018C000FC0160E08091F7020E94FC01C092FD02E1
:1018D000D092FE02E092FF02F092000383E0809338
:1018E000EB0288E08093EC021092ED0261E083E06D
:1018F0000E94FC0160E08091EC020E94FC01C09219
:10190000F202D092F302E092F402F092F5028DE03E
:101910008093E0028FE08093E1021092E20261E0A6
:101920008DE00E94FC0160E08091E1020E94FC01D8
:10193000C092E702D092E802E092E902F092EA0255
:101940008FEF809335031092370310923603109275
:101950004103109240038FEF9FEFDC0180933C0323
:1019600090933D03A0933E03B0933F03FF90EF900D
:10197000DF90CF9008958FEF8093320300CF1092C5
:1019800011031092100310920F0310920E0349CF0F
:10199000789484B5826084BD84B5816084BD85B54A
:1019A000826085BD85B5816085BD80916E00816056
:1019B00080936E00109281008091810082608093FC
:1019C00081008091810081608093810080918000FE
:1019D0008160809380008091B10084608093B10029
:1019E0008091B00081608093B00080917A00846023
:1019F00080937A0080917A00826080937A0080914F
:101A00007A00816080937A0080917A008068809368
:101A10007A001092C100809112039091130397FDF8
:101A200008C061E00E94FC0160E0809112030E9406
:101A3000CE0181E080930D0364E670E080E090E0E9
:101A40000E947D03409110035091110370E060E00B
:101A500080911503909116030E941314E0912202C5
:101A6000F091230282E08083E0911E02F0911F0238
:101A70001082E0912002F091210280E18083109297
:101A80002A02E0912602F091270286E08083E0910D
:101A90002402F0912502808180618083E0912402FC
:101AA000F0912502808188608083E0912402F0918A
:101AB0002502808180688083E0912402F0912502D4
:101AC00080818F7D808381E391E00E94590786E3C6
:101AD00091E00E94590761E08EE00E94FC0161E004
:101AE0008EE00E94CE018FE097E0909301018093F9
:101AF0000001809169008C7F816080936900E89A81
:101B000060E082E00E94FC01C091310380913203C9
:101B10008C3008F052C061E08C2F0E94FC01809153
:101B20003203282F30E0F901EE0FFF1FE20FF31F01
:101B3000E554FD4FCF739081907C9C2B9083109245
:101B40003303109234032CE0622F0E94FC10829F1A
:101B5000B001112430E020E0AB01420F531FFA0125
:101B6000EE0FFF1FE40FF51FE554FD4F908196FD2A
:101B700016C02F5F3F4F2C30310571F781110FC018
:101B80001092800082E08093810010928500109274
:101B90008400B19A80916F00826080936F00E09121
:101BA00032038E2F90E0FC01EE0FFF1FE80FF91FAC
:101BB000E554FD4F80818064808390E080E00E9446
:101BC000F6001092E4011092E3011092E2011092EB
:101BD000E1010E941A058FEA93E09093E00180935F
:101BE000DF018BEB93E09093DE018093DD0188E0D1
:101BF0008093BA008BE595E09093E6018093E50130
:101C000085E996E09093E8018093E7010E944806F9
:101C1000D1E000E0C0E08091FA0181111DC010E028
:101C20004D2F502F612F8C2F0E94E4061F5F18301C
:101C3000B9F70E94AA0268E770E080E090E00E9495
:101C40007D03C73031F0C11102C0D1E000E0CD0FFB
:101C5000E2CFDFEF0FEFFBCFD0E0C0E044E654E689
:101C600064E670E0CE010E948D002196C830D10557
:101C7000A9F70E94AA02F8941092B0001092B10045
:101C80008091B10087608093B10080917000846082
:101C9000809370008FEF8093B4007894C8E3D0E015
:101CA00020E0222E20E0322E88248394912CAA2436
:101CB000AA94BA2C2FB7F89480910A0290910B0243
:101CC000A0910C02B0910D022FBF409105025091DE
:101CD00006026091070270910802481759076A07C7
:101CE0007B0708F0E8C00E9448062091F701309178
:101CF000F8018091EF019091F001A901481B590B67
:101D0000CA0157FF03C091958195910981359105CD
:101D10007CF03093F0012093EF0181E093E00E948A
:101D2000D905BE010E9408117093F8016093F70174
:101D30002091F5013091F6018091ED019091EE0135
:101D4000A901481B590BCA0157FF03C09195819502
:101D50009109813591057CF03093EE012093ED01DE
:101D600080EE92E00E94D905BE010E940811709396
:101D7000F6016093F5012091F3013091F401809117
:101D8000EB019091EC01A901481B590BCA0157FFC7
:101D900003C0919581959109813591057CF030932F
:101DA000EC012093EB018BEE92E00E94D905BE017D
:101DB0000E9408117093F4016093F3012091F101E6
:101DC0003091F2018091E9019091EA01A901481B4B
:101DD000590BCA0157FF03C091958195910981352F
:101DE00091057CF03093EA012093E90186EF92E0BF
:101DF0000E94D905BE010E9408117093F201609300
:101E0000F1018091F7019091F8010E94CB0789E3DD
:101E100091E00E9459078091F5019091F6010E948E
:101E2000CB0789E391E00E9459078091F3019091DB
:101E3000F4010E94CB0789E391E00E945907609169
:101E4000F1017091F201072E000C880B990B97FF9E
:101E500011C10E94AA0786E391E00E945907809170
:101E6000010290910202A0910302B091040282301B
:101E70009105A105B10509F001C11092010210926E
:101E8000020210920302109204022FB7F89480917C
:101E90000A0290910B02A0910C02B0910D022FBF8B
:101EA0000796A11DB11D8093050290930602A09391
:101EB0000702B09308022FB7F89480910A0290911C
:101EC0000B02A0910C02B0910D022FBF40910502B0
:101ED0005091060260910702709108024817590755
:101EE0006A077B0708F094C00091FF01109100027F
:101EF0006091FB017091FC018091FD019091FE01C8
:101F00000E9494119801261B370BB901072E000C73
:101F1000880B990B0E94CC112B013C0140922903A4
:101F200050922A0360922B0370922C032AE939E91C
:101F300049E95EE30E948112209125033091260336
:101F400040912703509128030E9423116B017C01CB
:101F500020912D0330912E0340912F035091300397
:101F6000C301B2010E9422119B01AC010E94231106
:101F70009B01AC01C701B6010E9423116B017C01DA
:101F800020E030E046E153EC0E948F1187FD82C0D3
:101F900020E030E046E153E4C701B6010E947C1224
:101FA00018160CF47EC0C0922503D0922603E0924E
:101FB0002703F092280340922D0350922E03609243
:101FC0002F0370923003012B09F072C088EC90E06F
:101FD0000E942D0260E080E10E94CE0160E081E17C
:101FE0000E94CE012FB7F89480910A0290910B02C3
:101FF000A0910C02B0910D022FBF0F96A11DB11D33
:102000008093050290930602A0930702B093080202
:102010008091FA01811122C000E01091F9014091F4
:10202000050150910601602F812F0E94E4060F5F89
:10203000083099F70E94AA0268E770E080E090E01B
:102040000E947D03173009F05DC0B0920601A09296
:10205000050180910501180F1093F9012114310435
:1020600009F428CE0E945004882309F423CE0E944C
:10207000000020CE4AE00E946607EDCE0196A11D29
:10208000B11D8093010290930202A0930302B093CA
:102090000402FBCEC12CD12C96E1E92E93ECF92E53
:1020A00082CFC12CD12C86E1E82E83E4F82E7BCFA1
:1020B000C701B6010E9494116B01CB0118161906D5
:1020C0007CF481E08093040161E080E10E94CE0114
:1020D00060E081E10E94CE01C6010E942D0282CF04
:1020E000892B09F473CF1092040160E080E10E9413
:1020F000CE0161E081E10E94CE01882799278C19E9
:102100009D09EBCF1111A5CF909206018092050198
:10211000A0CF80911503909116030E948A1380919D
:1021200012039091130397FD03C060E00C94FC012F
:102130000895052E97FB1EF400940E94B01057FDE1
:1021400007D00E94CB1007FC03D04EF40C94B010C3
:1021500050954095309521953F4F4F4F5F4F0895D3
:1021600090958095709561957F4F8F4F9F4F089503
:102170000E94ED10A59F900DB49F900DA49F800D1F
:10218000911D11240895B7FF0C94B8100E94B81047
:10219000821B930B0895A1E21A2EAA1BBB1BFD0103
:1021A0000DC0AA1FBB1FEE1FFF1FA217B307E40736
:1021B000F50720F0A21BB30BE40BF50B661F771F8E
:1021C000881F991F1A9469F760957095809590956E
:1021D0009B01AC01BD01CF010895A29FB001B39F47
:1021E000C001A39F700D811D1124911DB29F700D20
:1021F000811D1124911D0895991B79E004C0991F38
:10220000961708F0961B881F7A95C9F78095089550
:10221000AA1BBB1B51E107C0AA1FBB1FA617B7070C
:1022200010F0A61BB70B881F991F5A95A9F7809528
:102230009095BC01CD010895EE0FFF1F0590F4911C
:10224000E02D09945058BB27AA270E943A110C94FC
:1022500042120E94341238F00E943B1220F039F4EE
:102260009F3F19F426F40C9431120EF4E095E7FB2D
:102270000C942B12E92F0E94531258F3BA176207DD
:1022800073078407950720F079F4A6F50C9475126E
:102290000EF4E0950B2EBA2FA02D0B01B901900181
:1022A0000C01CA01A0011124FF27591B99F0593FC5
:1022B00050F4503E68F11A16F040A22F232F342F0D
:1022C0004427585FF3CF469537952795A795F0405B
:1022D0005395C9F77EF41F16BA0B620B730B840B70
:1022E000BAF09150A1F0FF0FBB1F661F771F881F28
:1022F000C2F70EC0BA0F621F731F841F48F4879580
:1023000077956795B795F7959E3F08F0B0CF939571
:10231000880F08F09927EE0F9795879508950E94EA
:10232000071208F481E008950E949B116894B1118E
:102330000C94761208950E945B1288F09F5798F0D3
:10234000B92F9927B751B0F0E1F0660F771F881FBA
:10235000991F1AF0BA95C9F714C0B13091F00E94D4
:102360007512B1E008950C947512672F782F8827A5
:10237000B85F39F0B93FCCF3869577956795B395FB
:10238000D9F73EF490958095709561957F4F8F4F6A
:102390009F4F0895E89409C097FB3EF4909580956F
:1023A000709561957F4F8F4F9F4F9923A9F0F92F1B
:1023B00096E9BB279395F695879577956795B79599
:1023C000F111F8CFFAF4BB0F11F460FF1BC06F5F7F
:1023D0007F4F8F4F9F4F16C0882311F096E911C091
:1023E000772321F09EE8872F762F05C0662371F0B2
:1023F00096E8862F70E060E02AF09A95660F771FC6
:10240000881FDAF7880F9695879597F90895990FA1
:102410000008550FAA0BE0E8FEEF16161706E807AE
:10242000F907C0F012161306E407F50798F0621BCF
:10243000730B840B950B39F40A2661F0232B242BA4
:10244000252B21F408950A2609F4A140A6958FEFC3
:10245000811D811D089597F99F6780E870E060E015
:1024600008959FEF80EC089500240A94161617062D
:1024700018060906089500240A9412161306140675
:1024800005060895092E0394000C11F4882352F0D8
:10249000BB0F40F4BF2B11F460FF04C06F5F7F4F90
:1024A0008F4F9F4F089557FD9058440F551F59F077
:1024B0005F3F71F04795880F97FB991F61F09F3F31
:1024C00079F087950895121613061406551FF2CF5A
:1024D0004695F1DF08C0161617061806991FF1CFAA
:1024E00086957105610508940895E894BB276627D1
:1024F0007727CB0197F908950E94071208F48FEF10
:1025000008950E9494120C9442120E94341238F0E2
:102510000E943B1220F0952311F00C942B120C9486
:10252000311211240C9476120E94531270F3959F6D
:10253000C1F3950F50E0551F629FF001729FBB27BA
:10254000F00DB11D639FAA27F00DB11DAA1F649F56
:102550006627B00DA11D661F829F2227B00DA11D09
:10256000621F739FB00DA11D621F839FA00D611D8F
:10257000221F749F3327A00D611D231F849F600DB0
:10258000211D822F762F6A2F11249F5750409AF0D9
:10259000F1F088234AF0EE0FFF1FBB1F661F771F65
:1025A000881F91505040A9F79E3F510580F00C9430
:1025B0002B120C9476125F3FE4F3983ED4F3869589
:1025C00077956795B795F795E7959F5FC1F7FE2BD0
:1025D000880F911D9695879597F908950F931F93EE
:1025E000CF93DF938230910510F482E090E0E09188
:1025F0004403F091450330E020E0B0E0A0E03097E4
:1026000099F42115310509F44AC0281B390B2430EF
:102610003105D8F58A819B816115710589F1FB012E
:1026200093838283FE0111C0408151810281138115
:1026300048175907E0F04817590799F4109761F0C7
:1026400012960C93129713961C933296CF01DF913A
:10265000CF911F910F910895009344031093450368
:10266000F4CF2115310551F04217530738F0A90175
:10267000DB019A01BD01DF01F801C1CFEF01F9CF04
:102680009093450380934403CDCFFE01E20FF31FE7
:10269000819391932250310939832883D7CF209198
:1026A000420330914303232B41F4209109013091DF
:1026B0000A01309343032093420320910701309194
:1026C00008012115310541F42DB73EB740910B01AA
:1026D00050910C01241B350BE0914203F091430310
:1026E000E217F307A0F42E1B3F0B2817390778F0E9
:1026F000AC014E5F5F4F2417350748F04E0F5F1F48
:102700005093430340934203819391939FCFF0E012
:10271000E0E09CCFCF93DF930097E9F0FC01329784
:1027200013821282A0914403B0914503ED0130E081
:1027300020E01097A1F420813181820F931F209116
:102740004203309143032817390709F061C0F09321
:102750004303E0934203DF91CF910895EA01CE173E
:10276000DF07E8F54A815B819E0141155105B1F70C
:10277000E901FB83EA8349915991C40FD51FEC17F6
:10278000FD0761F4808191810296840F951FE90114
:1027900099838883828193819B838A83F0E0E0E040
:1027A00012968D919C9113970097B9F52D913C91BC
:1027B0001197CD010296820F931F20914203309111
:1027C00043032817390739F6309751F5109245031E
:1027D00010924403B0934303A0934203BCCFD3832E
:1027E000C28340815181840F951FC817D90761F4B6
:1027F0004E5F5F4F88819981480F591F51834083F5
:102800008A819B81938382832115310509F0B0CFA2
:10281000F0934503E09344039ECFFD01DC01C0CF5C
:1028200013821282D7CFDC0101C06D93415050401A
:10283000E0F7089510E0C2E6D0E004C0FE010E9477
:0E2840001C112196C336D107C9F7F894FFCFBB
:10284E00E503E503010100000046038000000000DF
:10285E00008604E6031304D3044404220436040061
:10286E00000000C005B505D6053805AE054805398A
:0C287E0005486F6C61000D0A003B000073
:00000001FF
