:100000000C9463000C949D080C9476080C948B005F
:100010000C948B000C948B000C948B000C948B0034
:100020000C94F70A0C948B000C948B000C943B0AF4
:100030000C948B000C948B000C948B000C948B0014
:100040000C942C080C948B000C94EA080C94C408B3
:100050000C948B000C948B000C948B000C948B00F4
:100060000C941C090C948B00000000002400270055
:100070002A000000000023002600290000000008DC
:10008000000201000003040700000000000000005F
:10009000010204081020408001020408102001021F
:1000A0000408102000000000250028002B00040494
:1000B0000404040404040202020202020303030310
:1000C0000303500B811011241FBECFEFD8E0DEBF19
:1000D000CDBF11E0A0E0B1E0EEE3F8E202C0059090
:1000E0000D92A633B107D9F723E0A6E3B1E001C032
:1000F0001D92A034B207E1F710E0C2E6D0E004C0E0
:100100002197FE010E941411C136D107C9F70E9440
:10011000C80C0C9412140C9400004F925F926F92D2
:100120007F928F929F92AF92BF92FF92209108038D
:10013000309109038217930708F043C02B0166240E
:100140007724852E962EA72EBB24B82DA42F209180
:100150000E03F42C222391F0E22FF0E0E49DD00175
:10016000E59DB00DF49DB00D1124FB2E289D40019E
:100170001124B92D249F90011124A32FE091140381
:1001800020910F033091100350911103E51323C008
:10019000FC01EE0FFF1F8E0F9F1F820F931FE09138
:1001A0001103E80FF92FF11DF082E0911203E80F1F
:1001B000F92FF11DB08320911303820F911DFC01D3
:1001C000A083FF90BF90AF909F908F907F906F9093
:1001D0005F904F900895880F991F880F991F820F85
:1001E000931FE80FF92FF11D1082D9CF8F929F92A4
:1001F000AF92BF92FF920F931F93CF93DF939C0117
:10020000F0902C038BE08F1508F46CC080912E03C6
:1002100008E512E0081B110987FD1395000F111F57
:10022000000F111F80912D03C8E8D0E0C81BD10931
:1002300087FDD395CC0FDD1FCC0FDD1F4E010D2E9A
:10024000000CAA08BB08032E000C440B550B2C59BC
:100250003F4F4F4F5F4FA1E3B0E00E94B01028EC3A
:1002600030E040E050E00E9491102A5B3F4F4F4F3A
:100270005F4FD9012837310514F0A7E7B0E0A63465
:10028000B10514F4A6E4B0E09801012E000C440B73
:10029000550B281939094A095B090E94BB1024EB48
:1002A00030E040E050E00E949110820E931EA41EA8
:1002B000B51E8C169D062CF0E801801691060CF4F4
:1002C000E4012297CC0FDD1F2FB7F8948F2D90E01B
:1002D000FC01EE0FFF1FE80FF91FEB54FD4FD28317
:1002E000C1832FBFDF91CF911F910F91FF90BF90DE
:1002F000AF909F908F900895833081F028F48130E3
:1003000099F08230A9F008958730A9F08830C9F0BB
:100310008430B1F4809180008F7D03C08091800093
:100320008F7780938000089584B58F7784BD08957A
:1003300084B58F7DFBCF8091B0008F778093B00024
:1003400008958091B0008F7DF9CFCF93DF93282F50
:1003500030E0F901E458FF4F8491F901E057FF4F75
:10036000D491F901E255FF4FC491CC23A1F0811142
:100370000E947C01EC2FF0E0EE0FFF1FEE58FF4FC4
:10038000A591B491EC91ED2381E090E009F480E037
:10039000DF91CF91089580E090E0FACF1F93CF9343
:1003A000DF93282F30E0F901E458FF4F8491F901E1
:1003B000E057FF4FD491F901E255FF4FC491CC2390
:1003C000A9F0162F81110E947C01EC2FF0E0EE0FB6
:1003D000FF1FEC55FF4FA591B4918FB7F894EC91A6
:1003E000111108C0D095DE23DC938FBFDF91CF9130
:1003F0001F910895DE2BF8CFCF93DF9390E0FC019F
:10040000E057FF4F249182559F4FFC018491882330
:10041000D1F090E0880F991FFC01E859FF4FA5919A
:10042000B491FC01EC55FF4FC591D49161110EC000
:100430009FB7F8948C91E22FE0958E238C932881BE
:10044000E223E8839FBFDF91CF9108958FB7F8949F
:10045000EC91E22BEC938FBFF6CFCF93DF93EC01BF
:1004600061E085E00E94FC01209731F460E085E0C6
:10047000DF91CF910C94CE01CF3FD10511F461E013
:10048000F6CFE1E8F0E0E491E33029F140F4E13027
:10049000B1F0E230D9F0C038D1058CF7E7CFE730C2
:1004A00021F1E83051F1E430B1F7809180008062B1
:1004B00080938000D0938B00C0938A0004C084B5E1
:1004C000806884BDC7BDDF91CF91089584B58062F7
:1004D00084BDC8BDF8CF8091800080688093800083
:1004E000D0938900C0938800EECF8091B0008068DF
:1004F0008093B000C093B300E6CF8091B0008062DB
:100500008093B000C093B400DECF3FB7F8948091E1
:10051000080290910902A0910A02B0910B0226B53F
:10052000A89B05C02F3F19F00196A11DB11D3FBF2B
:10053000BA2FA92F982F8827BC01CD01620F711DFA
:10054000811D911D42E0660F771F881F991F4A95F4
:10055000D1F708950F931F93CF93DF93CDB7DEB7F5
:1005600029970FB6F894DEBF0FBECDBF80910F0361
:1005700090911003892B09F47CC00E9485020091A0
:10058000150310911603209117033091180360177B
:1005900071078207930740F4609315037093160365
:1005A000809317039093180300911503109116037D
:1005B0002091170330911803601B710B820B930B72
:1005C0006C32714081059105C0F2F89480910A0364
:1005D00090910B039A838983E0910F03F0911003AC
:1005E000DF0111968081898790910603E0911903BC
:1005F000F0911A0380911B03992309F445C090815F
:10060000982B98879081809589238F838F818C8305
:1006100088E08B8358856F8149853B812C81898156
:100620009A81508347FD252F3A952083262F39F054
:10063000441F00C000006083000000C0F2CF38E01B
:100640004D9160830000019761F7F0931A03E093E6
:10065000190349873B832C839A83898378940E946A
:10066000850260931503709316038093170390938C
:10067000180329960FB6F894DEBF0FBECDBFDF91E9
:10068000CF911F910F9108959081982B9887908119
:10069000809589238F838F818E8388E08D83588511
:1006A0006F8149853D812E8189819A81508347FDE3
:1006B000252F00C000C0208300C000C000C000C0C3
:1006C00000C060830000262F3A9541F0441F0000CF
:1006D00000C000C000C000C000C0E8CF38E04D91AD
:1006E00000C0608300C0019709F7F0931A03E093FC
:1006F000190349873D832E83AFCF8F929F92AF928C
:10070000BF92CF92DF92EF92FF924B015C010E9469
:1007100085026B017C010E9485026C197D098E099E
:100720009F09683E734081059105A8F321E0821A74
:100730009108A108B10888EEC80E83E0D81EE11C1C
:10074000F11C81149104A104B10429F7FF90EF90EA
:10075000DF90CF90BF90AF909F908F900895E091E1
:10076000E101F091E201309729F01092DC01109242
:10077000DB0109940895CF93DF93AC01E091DF0191
:10078000F091E0013097F1F09091DE018091DD0170
:100790009817C0F090E0292F30E02617370754F45F
:1007A000D901A95BBE4F240F351FE90128812C9385
:1007B0009F5FF1CF1092DE016093DD01CB01DF91ED
:1007C000CF910994DF91CF9108950895AF92BF9290
:1007D000CF92DF92EF92FF920F931F93CF93DF930D
:1007E0006C017B018B01040F151FEB015E01AE183C
:1007F000BF08C017D10759F06991D601ED91FC915E
:100800000190F081E02DC6010995892B79F7C5018A
:10081000DF91CF911F910F91FF90EF90DF90CF90DC
:10082000BF90AF900895FC01538D448D252F30E08B
:10083000842F90E0821B930B541710F0CF960895ED
:1008400001970895FC01918D828D981761F0A28D1A
:10085000AE0FBF2FB11D5D968C91928D9F5F9F73E0
:10086000928F90E008958FEF9FEF0895FC01918D96
:10087000828D981731F0828DE80FF11D858D90E003
:1008800008958FEF9FEF0895FC01918D228D892FA0
:1008900090E0805C9F4F821B91098F739927089588
:1008A0008CE092E00E94440421E0892B09F420E0CE
:1008B000822F089580E090E0892B29F00E94500457
:1008C00081110C9400000895FC01A48DA80FB92F8C
:1008D000B11DA35ABF4F2C91848D90E001968F7368
:1008E0009927848FA689B7892C93A089B1898C9187
:1008F000837080648C93938D848D981306C00288D6
:10090000F389E02D80818F7D80830895EF92FF929F
:100910000F931F93CF93DF93EC0181E0888F9B8D22
:100920008C8D98131AC0E889F989808185FF15C0DC
:100930009FB7F894EE89FF896083E889F9898081FF
:100940008370806480839FBF81E090E0DF91CF91CE
:100950001F910F91FF90EF900895F62E0B8D10E0F0
:100960000F5F1F4F0F731127E02E8C8D8E110CC05F
:100970000FB607FCFACFE889F989808185FFF5CFAA
:10098000CE010E946404F1CFEB8DEC0FFD2FF11D21
:10099000E35AFF4FF0829FB7F8940B8FEA89FB89E7
:1009A00080818062CFCFCF93DF93EC01888D882345
:1009B000B9F0AA89BB89E889F9898C9185FD03C0C2
:1009C000808186FD0DC00FB607FCF7CF8C9185FFA7
:1009D000F2CF808185FFEDCFCE010E946404E9CF84
:1009E000DF91CF91089520918D01260F3327331F7A
:1009F00021323105ECF42091B101FC0190E080E05E
:100A0000243069F082E00895A0918D012191AC011C
:100A100043595E4FA40FB52FB11D2C930196861735
:100A200098F380918D01680F60938D0180E00895A7
:100A300081E008951092B10181E08093B30110929A
:100A4000B20161E082E10E94CE0161E083E10E9497
:100A5000CE01E9EBF0E080818E7F808380818D7F05
:100A6000808388E48093B80085E48093BC00089577
:100A70000895E091DE018091DD01E81730F4F0E0A7
:100A8000E95BFE4F808190E008958FEF9FEF08951E
:100A90009091DE018091DD012FEF3FEF981748F430
:100AA000E92FF0E0E95BFE4F208130E09F5F9093FB
:100AB000DE01C90108950F931F93CF93DF93EC01DB
:100AC0001C161D060CF045C089EA92E00E944805FC
:100AD00080933E0121978330B1F489EA92E00E942D
:100AE00048058C0189EA92E00E9448050197809FA1
:100AF0009001819F300D909F300D11243093FA01A9
:100B00002093F901DDCF843091F489EA92E00E94CC
:100B100048058C0189EA92E00E944805892B19F466
:100B2000119501951109C8010E94F600C9CF8530C1
:100B300039F689EA92E00E9448058C01682F8EE020
:100B40000E94CE0181E0012B09F480E08093F40142
:100B5000B7CFDF91CF911F910F9108958091DD0163
:100B60009091DE01891B990B0895CF93DF93CB0100
:100B7000EA01642F0E94F304CE01DF91CF91089522
:100B8000CF93DF931F92CDB7DEB7698361E0CE01CB
:100B900001960E94F30481E090E00F90DF91CF91E5
:100BA0000895682F89EA92E00C94C00590E080E0F7
:100BB00008950F931F93CF93DF93EC018A818823CD
:100BC00021F061E088810E94FC0160E088810E9440
:100BD000CE0183E090E00197F1F761E088810E9407
:100BE000CE0183E290E00197F1F760E088810E94F6
:100BF000CE018A81882321F060E088810E94FC0177
:100C00000E9485026B837C838D839E8389810E94F1
:100C1000A501892B99F40E9485020B811C812D81ED
:100C20003E81601B710B820B930B0F811885298508
:100C30003A85061717072807390740F70E948502EB
:100C40006B837C838D839E8389810E94A501892B80
:100C500099F00E9485020B811C812D813E81601BD1
:100C6000710B820B930B0F81188529853A85061726
:100C700017072807390740F70E9485022B813C811E
:100C8000CB01821B930BDF91CF911F910F910895A0
:100C9000809104018823E1F18091FB019091FC0196
:100CA000A091FD01B091FE010097A105B10569F485
:100CB0008BEF92E00E94D90568E370E00E9400117A
:100CC0007093F2016093F101089581309105A105BF
:100CD000B10569F480EF92E00E94D90568E370E005
:100CE0000E9400117093EC016093EB01089502974C
:100CF000A105B105C9F485EE92E00E94D90568E32B
:100D000070E00E9400117093EE016093ED01089570
:100D10008AED92E00E94D90568E370E00E9400111C
:100D20007093F0016093EF01089580913E0181304E
:100D300081F580913A0190913B01A0913C01B091E5
:100D40003D018093360180913A0190913B01A09141
:100D50003C01B0913D019093370180913A0190910F
:100D60003B01A0913C01B0913D01A09338018091DD
:100D70003A0190913B01A0913C01B0913D01B093AB
:100D8000390144E050E066E371E089EA92E00C94B6
:100D9000B5058230C1F48091F1019091F2010E9479
:100DA000D1058091EB019091EC010E94D1058091D9
:100DB000ED019091EE010E94D1058091EF0190919B
:100DC000F0010C94D1050895282F30E0861307C058
:100DD00040E050E06EE170E0C9010C948D00862F78
:100DE00090E0BC01621B730B649F9001659F300D06
:100DF000749F300D11242F3F320729F440E050E05A
:100E00006CE070E0EACF2E3F3F4F29F440E050E025
:100E100064E070E0E2CF40E050E0BA01DECF8091C4
:100E20000401882339F18091410190914201A09100
:100E30004301B09144010196A11DB11D8093410170
:100E400090934201A0934301B093440180913A01F1
:100E500090913B01A0913C01B0913D010196A11DF3
:100E6000B11D80933A0190933B01A0933C01B09354
:100E70003D0108958091410190914201A09143016B
:100E8000B09144010197A109B10980934101909368
:100E90004201A0934301B093440180913A019091A3
:100EA0003B01A0913C01B0913D010197A109B1091D
:100EB000D8CFFC0101900020E9F73197AF01481B22
:100EC000590BBC018CE092E00C94E6038F929F9248
:100ED000AF92BF920F931F93CF93DF93CDB7DEB73F
:100EE000A1970FB6F894DEBF0FBECDBF19A2423056
:100EF00008F44AE08E010F5D1F4F842E912CB12C17
:100F0000A12CA50194010E94C310E62FB901CA01CA
:100F1000EA30F4F4E05DD801EE938D01232B242B0D
:100F2000252B79F790E080E0109719F0CD010E9411
:100F30005907A1960FB6F894DEBF0FBECDBFDF9163
:100F4000CF911F910F91BF90AF909F908F90089578
:100F5000E95CE1CFCF92DF92EF92FF92CF93DF93E4
:100F60006B017C016DE28CE092E00E948604EC0152
:100F700066277727CB016C197D098E099F094AE006
:100F80000E9466078C0F9D1FDF91CF91FF90EF901D
:100F9000DF90CF900895BC01990F880B990B97FDB6
:100FA0000C94AA074AE00C946607CF93DF9385ED73
:100FB0008093BC008091690190916A01A0916B01BE
:100FC000B0916C010796A11DB11D23E0B695A795C0
:100FD000979587952A95D1F72091BC0024FD03C0F1
:100FE0001092B10136C04091690150916A0160913F
:100FF0006B0170916C01452B462B472B69F30097D1
:10100000A105B10541F025E32A95F1F7000001970C
:10101000A109B109E1CF8091680191E09093670146
:101020008823B9F0C091B800D091BA008091BC007B
:101030008A7B8093BC0060E082E10E94CE0160E088
:1010400083E10E94CE010E941A05D093BA00C0939A
:10105000B800DF91CF9108951F920F920FB60F92B3
:1010600011242F933F938F939F93AF93BF938091BE
:10107000040290910502A0910602B09107023091FE
:10108000030223E0230F2D3758F50196A11DB11D52
:10109000209303028093040290930502A09306021A
:1010A000B09307028091080290910902A0910A0270
:1010B000B0910B020196A11DB11D8093080290937F
:1010C0000902A0930A02B0930B02BF91AF919F91C6
:1010D0008F913F912F910F900FBE0F901F901895F9
:1010E00026E8230F0296A11DB11DD2CF1F920F92A9
:1010F0000FB60F9211242F933F934F935F936F93EB
:101100007F938F939F93AF93BF93EF93FF93E09160
:101110000201F09103010995FF91EF91BF91AF9109
:101120009F918F917F916F915F914F913F912F91FF
:101130000F900FBE0F901F9018951F920F920FB631
:101140000F9211242F933F934F935F936F937F934D
:101150008F939F93AF93BF93EF93FF93E091000121
:10116000F09101010995FF91EF91BF91AF919F918E
:101170008F917F916F915F914F913F912F910F9040
:101180000FBE0F901F9018951F920F920FB60F92DF
:1011900011242F933F934F935F936F937F938F937C
:1011A0009F93AF93BF93EF93FF938CE092E00E94E5
:1011B0006404FF91EF91BF91AF919F918F917F91C7
:1011C0006F915F914F913F912F910F900FBE0F90B4
:1011D0001F9018951F920F920FB60F9211242F9304
:1011E0008F939F93EF93FF93E0911C02F0911D0268
:1011F0008081E0912202F091230282FD1BC0908148
:10120000809125028F5F8F7320912602821741F013
:10121000E0912502F0E0E45FFD4F958F8093250279
:10122000FF91EF919F918F912F910F900FBE0F9093
:101230001F9018958081F4CF1F920F920FB60F92D6
:1012400011242F933F934F935F936F937F938F93CB
:101250009F93AF93BF93EF93FF938091B900887FE3
:10126000803609F44AC0F0F5883209F4A7C018F5B1
:10127000803109F49BC0B8F4882309F4F9C08830A0
:1012800009F494C0FF91EF91BF91AF919F918F911D
:101290007F916F915F914F913F912F910F900FBE72
:1012A0000F901F901895883109F488C0803251F74B
:1012B0008093B00114C0803409F49DC040F48033A1
:1012C000B9F38833F9F68093B00185ECB0C080356E
:1012D00009F485C0883509F496C0883499F60E94CF
:1012E000D507D0CF883909F48CC038F5883729F074
:1012F00050F4883611F0803729F683E08093B101ED
:101300001092AF0157C0883809F47BC0803919F0BA
:10131000803809F0B7CF8091AF01803208F071C0FA
:10132000E091AF0181E08E0F8093AF018091BB000F
:10133000F0E0E157FE4F80833DC0803B39F0E0F4A0
:10134000803A09F479C0883A09F09CCF84E0809310
:10135000B10110928E0110928D01E091D901F091AE
:10136000DA01099580918D0181110FC081E0809390
:101370008D0110926D0109C0803C09F4A6CF883C14
:1013800009F4A3CF883B09F07DCFE0918E0181E085
:101390008E0F80938E01F0E0E359FE4F80818093A1
:1013A000BB0090918E0180918D0129C08091D60162
:1013B0008093BB0085EC8093BC0064CF9091D501F5
:1013C0008091D401981758F5E091D50181E08E0FF6
:1013D0008093D501F0E0EC54FE4F8081E9CFE0919D
:1013E000D50181E08E0F8093D5018091BB00F0E0A4
:1013F000EC54FE4F80839091D5018091D4019817D1
:10140000C8F285E8D8CFE091D50181E08E0F8093B6
:10141000D5018091BB00F0E0EC54FE4F80838091B9
:10142000B30181115CCF81E08093B20184EA8093A3
:10143000BC001092B10126CF85EC8093BC001092C5
:10144000B1018091AF01803230F4E091AF01F0E062
:10145000E157FE4F10826091AF0170E0E091D7013B
:10146000F091D8018FE891E009951092AF010ACF71
:101470001092B00134CF1F920F920FB60F92112429
:101480002F933F934F935F936F937F938F939F938C
:10149000AF93BF93CF93DF93EF93FF938091460178
:1014A000C091D902D0E087FF24C01092850010922D
:1014B0008400809146018F5F8093460180914601B0
:1014C000082E000C990B8C179D0724F4809146017F
:1014D0008C30C4F180918400909185000496803412
:1014E0009C4908F47AC0809184009091850004960C
:1014F00076C080914601082E000C990B8C179D0731
:10150000C4F6E09146018E2FEE0F990BFC01EE0F11
:10151000FF1FE80FF91FEB54FD4F808186FFC9CFF5
:10152000E09146018E2FEE0F990BFC01EE0FFF1F8D
:10153000E80FF91FEB54FD4F808160E08F730E942C
:10154000CE01B7CF2091840030918500E091460113
:101550008E2FEE0F990BFC01EE0FFF1FE80FF91F06
:10156000EB54FD4F81819281820F931F90938900EC
:1015700080938800E09146018E2FEE0F990BFC01BD
:10158000EE0FFF1FE80FF91FEB54FD4F808186FF20
:1015900011C0E09146018E2FEE0F990BFC01EE0F6A
:1015A000FF1FE80FF91FEB54FD4F808161E08F733F
:1015B0000E94CE01FF91EF91DF91CF91BF91AF914A
:1015C0009F918F917F916F915F914F913F912F915B
:1015D0000F900FBE0F901F90189580E49CE9909398
:1015E0008900809388008FEF80934601E3CF1F929C
:1015F0000F920FB60F9211242F933F934F935F9347
:101600006F937F938F939F93AF93BF93EF93FF93CA
:1016100080914501882309F43FC060914101709198
:10162000420180914301909144010E94C411609352
:10163000F5017093F6018093F7019093F801809182
:10164000410190914201A0914301B0914401209148
:101650003F0130914001820F931F9093400180938E
:101660003F011092410110924201109243011092E9
:10167000440110924501FF91EF91BF91AF919F916D
:101680008F917F916F915F914F913F912F910F902B
:101690000FBE0F901F90189581E080934501EBCF0E
:1016A000CF92DF92EF92FF9210920F0210920E02F1
:1016B00088EE93E0A0E0B0E08093100290931102D6
:1016C000A0931202B093130221E131E030930D0296
:1016D00020930C0225EC30E030931902209318027D
:1016E00024EC30E030931B0220931A0220EC30E00F
:1016F00030931D0220931C0221EC30E030931F0236
:1017000020931E0222EC30E030932102209320022D
:1017100026EC30E03093230220932202109225021F
:101720001092260210922702109228021092AC0208
:101730001092AB028093AD029093AE02A093AF02E1
:10174000B093B00283E291E09093AA028093A90241
:101750008091D9028C3008F00EC191E0980F9093DF
:10176000D90280932C0390E0FC01EE0FFF1FE80FDD
:10177000F91FEB54FD4F88EB9BE09283818389E056
:1017800080932B0310921F031092200310922103C9
:101790001092220385E080931C0380E180931D0357
:1017A00081E180931E0361E085E00E94FC0161E01D
:1017B00080E10E94FC0161E081E10E94FC01109245
:1017C000070310920E031092150310921603109245
:1017D00017031092180381E0809314038093110380
:1017E0001092120392E0909313038093060388E112
:1017F00090E090930B0380930A030E94E61290936B
:10180000100380930F03009709F4B9C028E1FC018D
:1018100011922A95E9F788E090E09093090380936C
:1018200008038CE090E090930D0380930C0380916B
:101830000703882341F061E08CE00E94FC0160E036
:101840008CE00E94CE01EAEBF0E0E491F0E0EE0FD4
:10185000FF1FEC55FF4F8591949190931A0380934D
:101860001903ECE9F0E0E491E0931B0387E0809337
:10187000FB0286E08093FC021092FD0261E087E0AB
:101880000E94FC0160E08091FC020E94FC0198E251
:10189000C92E93E2D92EE12CF12CC0920203D092F2
:1018A0000303E0920403F09205038BE08093F002BF
:1018B00084E08093F1021092F20261E08BE00E94DA
:1018C000FC0160E08091F1020E94FC01C092F702ED
:1018D000D092F802E092F902F092FA0283E080934B
:1018E000E50288E08093E6021092E70261E083E07F
:1018F0000E94FC0160E08091E6020E94FC01C0921F
:10190000EC02D092ED02E092EE02F092EF028DE056
:101910008093DA028FE08093DB021092DC0261E0B8
:101920008DE00E94FC0160E08091DB020E94FC01DE
:10193000C092E102D092E202E092E302F092E4026D
:101940008FEF80932F031092310310923003109287
:101950003B0310923A038FEF9FEFDC018093360335
:1019600090933703A0933803B0933903FF90EF901F
:10197000DF90CF9008958FEF80932C0300CF1092CB
:101980000B0310920A03109209031092080349CF27
:10199000789484B5826084BD84B5816084BD85B54A
:1019A000826085BD85B5816085BD80916E00816056
:1019B00080936E00109281008091810082608093FC
:1019C00081008091810081608093810080918000FE
:1019D0008160809380008091B10084608093B10029
:1019E0008091B00081608093B00080917A00846023
:1019F00080937A0080917A00826080937A0080914F
:101A00007A00816080937A0080917A008068809368
:101A10007A001092C10080910C0390910D0397FD04
:101A200008C061E00E94FC0160E080910C030E940C
:101A3000CE0181E08093070364E670E080E090E0EF
:101A40000E947D0340910A0350910B0370E060E017
:101A500080910F03909110030E940B14E0911C02DF
:101A6000F0911D0282E08083E0911802F09119024A
:101A70001082E0911A02F0911B0280E180831092A3
:101A80002402E0912002F091210286E08083E0911F
:101A90001E02F0911F02808180618083E0911E020E
:101AA000F0911F02808188608083E0911E02F09196
:101AB0001F02808180688083E0911E02F0911F02E6
:101AC00080818F7D808361E08EE00E94FC0161E077
:101AD0008EE00E94CE018FE097E090930101809309
:101AE0000001809169008C7F816080936900E89A91
:101AF00060E082E00E94FC01C0912B0380912C03E6
:101B00008C3008F052C061E08C2F0E94FC01809163
:101B10002C03282F30E0F901EE0FFF1FE20FF31F17
:101B2000EB54FD4FCF739081907C9C2B908310924F
:101B30002D0310922E032CE0622F0E94F410829F3E
:101B4000B001112430E020E0AB01420F531FFA0135
:101B5000EE0FFF1FE40FF51FEB54FD4F908196FD34
:101B600016C02F5F3F4F2C30310571F781110FC028
:101B70001092800082E08093810010928500109284
:101B80008400B19A80916F00826080936F00E09131
:101B90002C038E2F90E0FC01EE0FFF1FE80FF91FC2
:101BA000EB54FD4F80818064808390E080E00E9450
:101BB000F6001092DE011092DD011092DC0110920D
:101BC000DB010E941A058FEA93E09093DA0180937B
:101BD000D9018BEB93E09093D8018093D70188E0F3
:101BE0008093BA008BE595E09093E0018093DF014C
:101BF00085E996E09093E2018093E1010E94480616
:101C0000D1E000E0C0E08091F40181111DC010E03E
:101C10004D2F502F612F8C2F0E94E4061F5F18302C
:101C2000B9F70E94AA0268E770E080E090E00E94A5
:101C30007D03C73031F0C11102C0D1E000E0CD0F0B
:101C4000E2CFDFEF0FEFFBCFD0E0C0E044E654E699
:101C500064E670E0CE010E948D002196C830D10567
:101C6000A9F70E94AA02F8941092B0001092B10055
:101C70008091B10087608093B10080917000846092
:101C8000809370008FEF8093B4007894C8E3D0E025
:101C900020E0222E20E0322E88248394912CAA2446
:101CA000AA94BA2C2FB7F89480910402909105025F
:101CB000A0910602B09107022FBF4091FF01509101
:101CC00000026091010270910202481759076A07E9
:101CD0007B0708F0E8C00E9448062091F10130918E
:101CE000F2018091E9019091EA01A901481B590B89
:101CF000CA0157FF03C091958195910981359105DE
:101D00007CF03093EA012093E9018BEF92E00E948E
:101D1000D905BE010E9400117093F2016093F10198
:101D20002091EF013091F0018091E7019091E8015D
:101D3000A901481B590BCA0157FF03C09195819512
:101D40009109813591057CF03093E8012093E701FA
:101D50008AED92E00E94D905BE010E9400117093A5
:101D6000F0016093EF012091ED013091EE0180913F
:101D7000E5019091E601A901481B590BCA0157FFE3
:101D800003C0919581959109813591057CF030933F
:101D9000E6012093E50185EE92E00E94D905BE019F
:101DA0000E9400117093EE016093ED012091EB0110
:101DB0003091EC018091E3019091E401A901481B6D
:101DC000590BCA0157FF03C091958195910981353F
:101DD00091057CF03093E4012093E30180EF92E0E1
:101DE0000E94D905BE010E9400117093EC0160931E
:101DF000EB018091F1019091F2010E94CB0781E308
:101E000091E00E9459078091EF019091F0010E94AA
:101E1000CB0781E391E00E9459078091ED019091F9
:101E2000EE010E94CB0781E391E00E945907609187
:101E3000EB017091EC01072E000C880B990B97FFBA
:101E400011C10E94AA0783E391E00E945907809183
:101E5000FB019091FC01A091FD01B091FE01823047
:101E60009105A105B10509F001C11092FB01109285
:101E7000FC011092FD011092FE012FB7F8948091A1
:101E8000040290910502A0910602B09107022FBFB3
:101E90000796A11DB11D8093FF0190930002A093AE
:101EA0000102B09302022FB7F8948091040290913E
:101EB0000502A0910602B09107022FBF4091FF01D9
:101EC0005091000260910102709102024817590777
:101ED0006A077B0708F094C00091F9011091FA019C
:101EE0006091F5017091F6018091F7019091F801F0
:101EF0000E948C119801261B370BB901072E000C8C
:101F0000880B990B0E94C4112B013C0140922303C2
:101F10005092240360922503709226032AE939E93E
:101F200049E95EE30E94791220911F03309120035A
:101F300040912103509122030E941B116B017C01EF
:101F400020912703309128034091290350912A03BF
:101F5000C301B2010E941A119B01AC010E941B1126
:101F60009B01AC01C701B6010E941B116B017C01F2
:101F700020E030E046E153EC0E94871187FD82C0EB
:101F800020E030E046E153E4C701B6010E9474123C
:101F900018160CF47EC0C0921F03D0922003E0926A
:101FA0002103F0922203409227035092280360926B
:101FB000290370922A03012B09F072C088EC90E08B
:101FC0000E942D0260E080E10E94CE0160E081E18C
:101FD0000E94CE012FB7F8948091040290910502DF
:101FE000A0910602B09107022FBF0F96A11DB11D4F
:101FF0008093FF0190930002A0930102B09302022C
:102000008091F401811122C000E01091F301409110
:10201000050150910601602F812F0E94E4060F5F99
:10202000083099F70E94AA0268E770E080E090E02B
:102030000E947D03173009F05DC0B0920601A092A6
:10204000050180910501180F1093F301211431044B
:1020500009F428CE0E945004882309F423CE0E945C
:10206000000020CE4AE00E946607EDCE0196A11D39
:10207000B11D8093FB019093FC01A093FD01B093EF
:10208000FE01FBCEC12CD12C96E1E92E93ECF92E6A
:1020900082CFC12CD12C86E1E82E83E4F82E7BCFB1
:1020A000C701B6010E948C116B01CB0118161906ED
:1020B0007CF481E08093040161E080E10E94CE0124
:1020C00060E081E10E94CE01C6010E942D0282CF14
:1020D000892B09F473CF1092040160E080E10E9423
:1020E000CE0161E081E10E94CE01882799278C19F9
:1020F0009D09EBCF1111A5CF9092060180920501A9
:10210000A0CF80910F03909110030E9482138091C1
:102110000C0390910D0397FD03C060E00C94FC014B
:102120000895052E97FB1EF400940E94A81057FDF9
:1021300007D00E94C31007FC03D04EF40C94A810E3
:1021400050954095309521953F4F4F4F5F4F0895E3
:1021500090958095709561957F4F8F4F9F4F089513
:102160000E94E510A59F900DB49F900DA49F800D37
:10217000911D11240895B7FF0C94B0100E94B01067
:10218000821B930B0895A1E21A2EAA1BBB1BFD0113
:102190000DC0AA1FBB1FEE1FFF1FA217B307E40746
:1021A000F50720F0A21BB30BE40BF50B661F771F9E
:1021B000881F991F1A9469F760957095809590957E
:1021C0009B01AC01BD01CF010895A29FB001B39F57
:1021D000C001A39F700D811D1124911DB29F700D30
:1021E000811D1124911D0895991B79E004C0991F48
:1021F000961708F0961B881F7A95C9F78095089561
:10220000AA1BBB1B51E107C0AA1FBB1FA617B7071C
:1022100010F0A61BB70B881F991F5A95A9F7809538
:102220009095BC01CD010895EE0FFF1F0590F4912C
:10223000E02D09945058BB27AA270E9432110C9414
:102240003A120E942C1238F00E94331220F039F416
:102250009F3F19F426F40C9429120EF4E095E7FB45
:102260000C942312E92F0E944B1258F3BA176207FD
:1022700073078407950720F079F4A6F50C946D1286
:102280000EF4E0950B2EBA2FA02D0B01B901900191
:102290000C01CA01A0011124FF27591B99F0593FD5
:1022A00050F4503E68F11A16F040A22F232F342F1D
:1022B0004427585FF3CF469537952795A795F0406B
:1022C0005395C9F77EF41F16BA0B620B730B840B80
:1022D000BAF09150A1F0FF0FBB1F661F771F881F38
:1022E000C2F70EC0BA0F621F731F841F48F4879590
:1022F00077956795B795F7959E3F08F0B0CF939582
:10230000880F08F09927EE0F9795879508950E94FA
:10231000FF1108F481E008950E9493116894B111AF
:102320000C946E1208950E94531288F09F5798F0F3
:10233000B92F9927B751B0F0E1F0660F771F881FCA
:10234000991F1AF0BA95C9F714C0B13091F00E94E4
:102350006D12B1E008950C946D12672F782F8827C5
:10236000B85F39F0B93FCCF3869577956795B3950B
:10237000D9F73EF490958095709561957F4F8F4F7A
:102380009F4F0895E89409C097FB3EF4909580957F
:10239000709561957F4F8F4F9F4F9923A9F0F92F2B
:1023A00096E9BB279395F695879577956795B795A9
:1023B000F111F8CFFAF4BB0F11F460FF1BC06F5F8F
:1023C0007F4F8F4F9F4F16C0882311F096E911C0A1
:1023D000772321F09EE8872F762F05C0662371F0C2
:1023E00096E8862F70E060E02AF09A95660F771FD6
:1023F000881FDAF7880F9695879597F90895990FB2
:102400000008550FAA0BE0E8FEEF16161706E807BE
:10241000F907C0F012161306E407F50798F0621BDF
:10242000730B840B950B39F40A2661F0232B242BB4
:10243000252B21F408950A2609F4A140A6958FEFD3
:10244000811D811D089597F99F6780E870E060E025
:1024500008959FEF80EC089500240A94161617063D
:1024600018060906089500240A9412161306140685
:1024700005060895092E0394000C11F4882352F0E8
:10248000BB0F40F4BF2B11F460FF04C06F5F7F4FA0
:102490008F4F9F4F089557FD9058440F551F59F087
:1024A0005F3F71F04795880F97FB991F61F09F3F41
:1024B00079F087950895121613061406551FF2CF6A
:1024C0004695F1DF08C0161617061806991FF1CFBA
:1024D00086957105610508940895E894BB276627E1
:1024E0007727CB0197F908950E94FF1108F48FEF29
:1024F00008950E948C120C943A120E942C1238F00B
:102500000E94331220F0952311F00C9423120C94A6
:10251000291211240C946E120E944B1270F3959F95
:10252000C1F3950F50E0551F629FF001729FBB27CA
:10253000F00DB11D639FAA27F00DB11DAA1F649F66
:102540006627B00DA11D661F829F2227B00DA11D19
:10255000621F739FB00DA11D621F839FA00D611D9F
:10256000221F749F3327A00D611D231F849F600DC0
:10257000211D822F762F6A2F11249F5750409AF0E9
:10258000F1F088234AF0EE0FFF1FBB1F661F771F75
:10259000881F91505040A9F79E3F510580F00C9440
:1025A00023120C946E125F3FE4F3983ED4F38695A9
:1025B00077956795B795F795E7959F5FC1F7FE2BE0
:1025C000880F911D9695879597F908950F931F93FE
:1025D000CF93DF938230910510F482E090E0E09198
:1025E0003E03F0913F0330E020E0B0E0A0E0309700
:1025F00099F42115310509F44AC0281B390B243000
:102600003105D8F58A819B816115710589F1FB013E
:1026100093838283FE0111C0408151810281138125
:1026200048175907E0F04817590799F4109761F0D7
:1026300012960C93129713961C933296CF01DF914A
:10264000CF911F910F91089500933E0310933F0384
:10265000F4CF2115310551F04217530738F0A90185
:10266000DB019A01BD01DF01F801C1CFEF01F9CF14
:1026700090933F0380933E03CDCFFE01E20FF31F03
:10268000819391932250310939832883D7CF2091A8
:102690003C0330913D03232B41F4209109013091FB
:1026A0000A0130933D0320933C03209107013091B0
:1026B00008012115310541F42DB73EB740910B01BA
:1026C00050910C01241B350BE0913C03F0913D032C
:1026D000E217F307A0F42E1B3F0B2817390778F0F9
:1026E000AC014E5F5F4F2417350748F04E0F5F1F58
:1026F00050933D0340933C03819391939FCFF0E02F
:10270000E0E09CCFCF93DF930097E9F0FC01329794
:1027100013821282A0913E03B0913F03ED0130E09D
:1027200020E01097A1F420813181820F931F209126
:102730003C0330913D032817390709F061C0F0933D
:102740003D03E0933C03DF91CF910895EA01CE175A
:10275000DF07E8F54A815B819E0141155105B1F71C
:10276000E901FB83EA8349915991C40FD51FEC1706
:10277000FD0761F4808191810296840F951FE90124
:1027800099838883828193819B838A83F0E0E0E050
:1027900012968D919C9113970097B9F52D913C91CC
:1027A0001197CD010296820F931F20913C03309127
:1027B0003D032817390739F6309751F510923F033A
:1027C00010923E03B0933D03A0933C03BCCFD38350
:1027D000C28340815181840F951FC817D90761F4C6
:1027E0004E5F5F4F88819981480F591F5183408305
:1027F0008A819B81938382832115310509F0B0CFB3
:10280000F0933F03E0933E039ECFFD01DC01C0CF78
:1028100013821282D7CFDC0101C06D93415050402A
:10282000E0F7089510E0C2E6D0E004C0FE010E9487
:0E28300014112196C336D107C9F7F894FFCFD3
:10283E00E503E503010100000040038000000000F5
:10284E00008604E6031304D3044404220436040071
:10285E00000000C005B505D6053805AE054805399A
:06286E00053B000D0A000D
:00000001FF
