:100000000C9463000C9462090C943B090C948B00D3
:100010000C948B000C948B000C948B000C948B0034
:100020000C94BC0B0C948B000C948B000C94000B68
:100030000C948B000C948B000C948B000C948B0014
:100040000C94F1080C948B000C94AF090C94890962
:100050000C948B000C948B000C948B000C948B00F4
:100060000C94E1090C948B00000000002400270090
:100070002A000000000023002600290000000008DC
:10008000000201000003040700000000000000005F
:10009000010204081020408001020408102001021F
:1000A0000408102000000000250028002B00040494
:1000B0000404040404040202020202020303030310
:1000C0000303020C9A1011241FBECFEFD8E0DEBF4D
:1000D000CDBF11E0A0E0B1E0E0E7F8E202C005909A
:1000E0000D92A634B107D9F723E0A6E4B1E001C030
:1000F0001D92A934B207E1F710E0C2E6D0E004C0D7
:100100002197FE010E942D11C136D107C9F70E9427
:100110007E0D0C942B140C9400004F925F926F9202
:100120007F928F929F92AF92BF92FF9220910F0386
:10013000309110038217930708F043C02B01662407
:100140007724852E962EA72EBB24B82DA42F209180
:100150001503F42C222391F0E22FF0E0E49DD0016E
:10016000E59DB00DF49DB00D1124FB2E289D40019E
:100170001124B92D249F90011124A32FE0911B037A
:10018000209116033091170350911803E51323C0F3
:10019000FC01EE0FFF1F8E0F9F1F820F931FE09138
:1001A0001803E80FF92FF11DF082E0911903E80F11
:1001B000F92FF11DB08320911A03820F911DFC01CC
:1001C000A083FF90BF90AF909F908F907F906F9093
:1001D0005F904F900895880F991F880F991F820F85
:1001E000931FE80FF92FF11D1082D9CF8F929F92A4
:1001F000AF92BF92FF920F931F93CF93DF939C0117
:10020000990F440B550B2C593F4F4F4F5F4FA1E3B4
:10021000B0E00E94C91028EC30E040E050E00E94BD
:10022000AA10DA01C9018A5B9F4FAF4FBF4F8634D6
:1002300091050CF063C086E490E0909334038093C2
:100240003303A6E4B0E0F09035038BE08F1508F49B
:100250004BC08091370308E512E0081B110987FDA8
:100260001395000F111F000F111F80913603C8E86E
:10027000D0E0C81BD10987FDD395CC0FDD1FCC0F73
:10028000DD1F4E010D2E000CAA08BB089801012E9F
:10029000000C440B550B281939094A095B090E94C7
:1002A000D41024EB30E040E050E00E94AA10820E0F
:1002B000931EA41EB51E8C169D062CF0E801801618
:1002C00091060CF4E4012297CC0FDD1F2FB7F894B0
:1002D0008F2D90E0FC01EE0FFF1FE80FF91FE45493
:1002E000FD4FD283C1832FBFDF91CF911F910F911B
:1002F000FF90BF90AF909F908F900895DC0188375A
:10030000910514F0A7E7B0E0B0933403A093330352
:100310009ACF833081F028F4813099F08230A9F0AF
:1003200008958730A9F08830C9F08430B1F4809105
:1003300080008F7D03C0809180008F778093800044
:10034000089584B58F7784BD089584B58F7DFBCFE4
:100350008091B0008F778093B00008958091B000B5
:100360008F7DF9CFCF93DF93282F30E0F901E45848
:10037000FF4F8491F901E057FF4FD491F901E25505
:10038000FF4FC491CC23A1F081110E948901EC2F71
:10039000F0E0EE0FFF1FEE58FF4FA591B491EC91E6
:1003A000ED2381E090E009F480E0DF91CF910895A2
:1003B00080E090E0FACF1F93CF93DF93282F30E0B7
:1003C000F901E458FF4F8491F901E057FF4FD491B0
:1003D000F901E255FF4FC491CC23A9F0162F8111EA
:1003E0000E948901EC2FF0E0EE0FFF1FEC55FF4F4C
:1003F000A591B4918FB7F894EC91111108C0D095E4
:10040000DE23DC938FBFDF91CF911F910895DE2B08
:10041000F8CFCF93DF9390E0FC01E057FF4F24919A
:1004200082559F4FFC0184918823D1F090E0880F82
:10043000991FFC01E859FF4FA591B491FC01EC55BF
:10044000FF4FC591D49161110EC09FB7F8948C9164
:10045000E22FE0958E238C932881E223E8839FBFCF
:10046000DF91CF9108958FB7F894EC91E22BEC9344
:100470008FBFF6CF1F93CF93DF93182FEB0161E06F
:100480000E940902209739F460E0812FDF91CF911B
:100490001F910C94DB01CF3FD10511F461E0F5CF42
:1004A000E12FF0E0E458FF4FE491E33031F140F404
:1004B000E130B1F0E230E1F0C038D1057CF7E4CFB3
:1004C000E73029F1E83059F1E430B1F7809180004C
:1004D000806280938000D0938B00C0938A0004C018
:1004E00084B5806884BDC7BDDF91CF911F91089509
:1004F00084B5806284BDC8BDF7CF809180008068DC
:1005000080938000D0938900C0938800EDCF8091C4
:10051000B00080688093B000C093B300E5CF8091B5
:10052000B00080628093B000C093B400DDCF3FB7CD
:10053000F89480910F0290911002A0911102B09155
:10054000120226B5A89B05C02F3F19F00196A11DE8
:10055000B11D3FBFBA2FA92F982F8827BC01CD010D
:10056000620F711D811D911D42E0660F771F881F6C
:10057000991F4A95D1F708950F931F93CF93DF9357
:10058000EC018A81882321F061E088810E940902C0
:1005900060E088810E94DB0183E090E00197F1F741
:1005A00061E088810E94DB0183E290E00197F1F72E
:1005B00060E088810E94DB018A81882321F060E06D
:1005C00088810E9409020E9497026B837C838D833D
:1005D0009E8389810E94B201892B99F40E9497021F
:1005E0000B811C812D813E81601B710B820B930B53
:1005F0000F81188529853A850617170728073907B7
:1006000040F70E9497026B837C838D839E83898150
:100610000E94B201892B99F00E9497020B811C81E4
:100620002D813E81601B710B820B930B0F8118850E
:1006300029853A85061717072807390740F70E94CA
:1006400097022B813C81CB01821B930B68E370E006
:100650000E941911CB01DF91CF911F910F91089545
:100660000F931F93CF93DF93CDB7DEB729970FB6C4
:10067000F894DEBF0FBECDBF809116039091170393
:10068000892B09F47CC00E94970200911C031091F1
:100690001D0320911E0330911F036017710782070D
:1006A000930740F460931C0370931D0380931E0313
:1006B00090931F0300911C0310911D0320911E03B2
:1006C00030911F03601B710B820B930B6C327140D6
:1006D00081059105C0F2F894809111039091120365
:1006E0009A838983E0911603F0911703DF01119635
:1006F0008081898790910D03E0912003F09121037F
:1007000080912203992309F445C09081982B988702
:100710009081809589238F838F818C8388E08B8360
:1007200058856F8149853B812C8189819A815083CD
:1007300047FD252F3A952083262F39F0441F00C00E
:1007400000006083000000C0F2CF38E04D9160836C
:100750000000019761F7F0932103E093200349879C
:100760003B832C839A83898378940E9497026093B9
:100770001C0370931D0380931E0390931F032996FF
:100780000FB6F894DEBF0FBECDBFDF91CF911F91A2
:100790000F9108959081982B988790818095892357
:1007A0008F838F818E8388E08D8358856F81498503
:1007B0003D812E8189819A81508347FD252F00C07C
:1007C00000C0208300C000C000C000C000C0608323
:1007D0000000262F3A9541F0441F000000C000C0E1
:1007E00000C000C000C0E8CF38E04D9100C0608379
:1007F00000C0019709F7F0932103E0932003498794
:100800003D832E83AFCF8F929F92AF92BF92CF92B4
:10081000DF92EF92FF924B015C010E9497026B0105
:100820007C010E9497026C197D098E099F09683E20
:10083000734081059105A8F321E0821A9108A1086F
:10084000B10888EEC80E83E0D81EE11CF11C8114AB
:100850009104A104B10429F7FF90EF90DF90CF90AD
:10086000BF90AF909F908F900895E091EF01F0912D
:10087000F001309729F01092EA011092E9010994F1
:100880000895CF93DF93AC01E091ED01F091EE017B
:100890003097F1F09091EC018091EB019817C0F046
:1008A00090E0292F30E02617370754F4D901AB5ACE
:1008B000BE4F240F351FE90128812C939F5FF1CF94
:1008C0001092EC016093EB01CB01DF91CF91099481
:1008D000DF91CF9108950895AF92BF92CF92DF92AA
:1008E000EF92FF920F931F93CF93DF936C017B01E5
:1008F0008B01040F151FEB015E01AE18BF08C01776
:10090000D10759F06991D601ED91FC910190F081E8
:10091000E02DC6010995892B79F7C501DF91CF91AB
:100920001F910F91FF90EF90DF90CF90BF90AF900D
:100930000895FC01538D448D252F30E0842F90E0E5
:10094000821B930B541710F0CF96089501970895CA
:10095000FC01918D828D981761F0A28DAE0FBF2F93
:10096000B11D5D968C91928D9F5F9F73928F90E0E9
:1009700008958FEF9FEF0895FC01918D828D981758
:1009800031F0828DE80FF11D858D90E008958FEF95
:100990009FEF0895FC01918D228D892F90E0805C5E
:1009A0009F4F821B91098F739927089583E192E0ED
:1009B0000E94CA0421E0892B09F420E0822F0895C7
:1009C00080E090E0892B29F00E94D60481110C94DC
:1009D00000000895FC01A48DA80FB92FB11DA35AE2
:1009E000BF4F2C91848D90E001968F739927848F4F
:1009F000A689B7892C93A089B1898C918370806472
:100A00008C93938D848D981306C00288F389E02D12
:100A100080818F7D80830895EF92FF920F931F93C3
:100A2000CF93DF93EC0181E0888F9B8D8C8D9813A1
:100A30001AC0E889F989808185FF15C09FB7F894AD
:100A4000EE89FF896083E889F989808183708064F9
:100A500080839FBF81E090E0DF91CF911F910F9144
:100A6000FF90EF900895F62E0B8D10E00F5F1F4F53
:100A70000F731127E02E8C8D8E110CC00FB607FC62
:100A8000FACFE889F989808185FFF5CFCE010E94F0
:100A9000EA04F1CFEB8DEC0FFD2FF11DE35AFF4F70
:100AA000F0829FB7F8940B8FEA89FB89808180627E
:100AB000CFCFCF93DF93EC01888D8823B9F0AA893B
:100AC000BB89E889F9898C9185FD03C0808186FD09
:100AD0000DC00FB607FCF7CF8C9185FFF2CF808158
:100AE00085FFEDCFCE010E94EA04E9CFDF91CF91DF
:100AF000089520919B01260F3327331F21323105A2
:100B0000ECF42091BF01FC0190E080E0243069F01A
:100B100082E00895A0919B012191AC0145585E4F60
:100B2000A40FB52FB11D2C930196861798F38091D1
:100B30009B01680F60939B0180E0089581E0089518
:100B40001092BF0181E08093C1011092C00161E069
:100B500082E10E94DB0161E083E10E94DB01E9EBBD
:100B6000F0E080818E7F808380818D7F808388E428
:100B70008093B80085E48093BC0008950895E091C7
:100B8000EC018091EB01E81730F4F0E0EB5AFE4FF6
:100B9000808190E008958FEF9FEF08959091EC0190
:100BA0008091EB012FEF3FEF981748F4E92FF0E029
:100BB000EB5AFE4F208130E09F5F9093EC01C9011A
:100BC00008958091EB019091EC01891B990B089598
:100BD000CF93DF93CB01EA01642F0E947905CE0108
:100BE000DF91CF910895CF93DF931F92CDB7DEB7FA
:100BF000698361E0CE0101960E94790581E090E071
:100C00000F90DF91CF910895682F80EB92E00C94C4
:100C1000F30590E080E00895282F30E0861307C0A8
:100C200040E050E06FE070E0C9010C948D00862F29
:100C300090E0BC01621B730B649F9001659F300DB7
:100C4000749F300D11242F3F320729F440E050E00B
:100C500068E070E0EACF2E3F4FEF340729F440E020
:100C600050E064E070E0E1CF2D3F3F4FC1F340E042
:100C700050E0BA01DACF80910401882339F18091E4
:100C80004F0190915001A0915101B09152010196F4
:100C9000A11DB11D80934F0190935001A09351016C
:100CA000B093520180914A0190914B01A0914C0167
:100CB000B0914D010196A11DB11D80934A01909301
:100CC0004B01A0934C01B0934D01089580914F01C9
:100CD00090915001A0915101B09152010197A10949
:100CE000B10980934F0190935001A0935101B093AB
:100CF000520180914A0190914B01A0914C01B09119
:100D00004D010197A109B109D8CFEF92FF920F933E
:100D10001F93CF93DF938C018BE3E82E86E0F82EB0
:100D2000101611060CF054C080EB92E00E94CE0524
:100D300080934E01015011098330B9F480EB92E0A9
:100D40000E94CE05EC01909301028093000280EB9B
:100D500092E00E94CE05892B19F7D195C195D10952
:100D6000D0930102C0930002DBCF843091F480EB7A
:100D700092E00E94CE05EC0180EB92E00E94CE054D
:100D8000892B19F4D195C195D109CE010E94F600A5
:100D9000C7CF853029F680EB92E00E94CE05EC01AA
:100DA000019779F461E08EE00E94DB01F09201018D
:100DB000E0920001809169008C7F816080936900DE
:100DC000E89A81E0CD2B09F480E08093FB01A8CF65
:100DD000DF91CF911F910F91FF90EF900895FC014B
:100DE00001900020E9F73197AF01481B590BBC0176
:100DF00083E192E00C946C048F929F92AF92BF9229
:100E0000CF92DF92EF92FF920F931F93CF93DF93D6
:100E1000CDB7DEB7A1970FB6F894DEBF0FBECDBF3A
:100E20006B017C01F7FE41C06DE283E192E00E941C
:100E30000C058C0122273327A9012C193D094E09E5
:100E40005F0919A2CE0181967C019AE0892E912C2E
:100E5000A12CB12CCA01B901A50194010E94DC109A
:100E6000605DF70162937F01211531054105510550
:100E700089F790E080E0309719F0CF010E94EF06EB
:100E8000800F911FA1960FB6F894DEBF0FBECDBFA5
:100E9000DF91CF911F910F91FF90EF90DF90CF9056
:100EA000BF90AF909F908F900895AC019B0119A2C5
:100EB0008E010F5D1F4F8AE0C82ED12CE12CF12C42
:100EC000CA01B901A70196010E94DC10605DF8011A
:100ED00062938F01211531054105510589F790E095
:100EE00080E0309779F2CF010E94EF06CBCF6F926E
:100EF0007F928F929F92AF92BF92CF92DF92EF92AA
:100F0000FF920F931F93CF93DF9382E093E00E94B1
:100F1000BC027C0181EE92E00E94BC028C018CEE4E
:100F200092E00E94BC02EC0187EF92E00E94BC02BA
:100F30003C0168EC70E080E090E00E94030482E0F5
:100F400093E00E94BC025C0181EE92E00E94BC0230
:100F50006C018CEE92E00E94BC024C0187EF92E0A3
:100F60000E94BC02FF24BB2497012A193B09275F7A
:100F70003F4F2331310540F4EA0CFB1CF594E79414
:100F8000F092F801E092F7011127DD2498012C1965
:100F90003D09275F3F4F2331310540F40C0D1D1DE6
:100FA000159507951093F2010093F101DD2799241F
:100FB0009E0128193909275F3F4F2331310540F43D
:100FC000C80DD91DD595C795D093F601C093F501ED
:100FD000772499279301281B390B275F3F4F233133
:100FE000310540F4680E791E759467947092F4018F
:100FF0006092F3016091F7017091F801072E000CE7
:10100000880B990B0E94FC0681E391E00E94EF0699
:101010006091F5017091F601072E000C880B990B79
:101020000E94FC0681E391E00E94EF066091F301CB
:101030007091F401072E000C880B990B0E94FC069E
:1010400081E391E00E94EF066091F1017091F2015D
:10105000072E000C880B990B0E94FC0684E391E09C
:10106000DF91CF911F910F91FF90EF90DF90CF9084
:10107000BF90AF909F908F907F906F900C94EF06F1
:1010800080914E01813081F580914A0190914B0110
:10109000A0914C01B0914D018093460180914A018D
:1010A00090914B01A0914C01B0914D01909347015B
:1010B00080914A0190914B01A0914C01B0914D015A
:1010C000A093480180914A0190914B01A0914C015D
:1010D000B0914D01B093490144E050E066E471E005
:1010E00080EB92E00C94E8058230C1F48091F70126
:1010F0009091F8010E9404068091F5019091F6010B
:101100000E9404068091F3019091F4010E9404066C
:101110008091F1019091F2010C940406863049F41B
:101120000E94770764E670E080E090E00E9403048C
:10113000DDCF0895CF93DF9385ED8093BC00809140
:10114000770190917801A0917901B0917A01079689
:10115000A11DB11D23E0B695A795979587952A9572
:10116000D1F72091BC0024FD03C01092BF0136C00E
:1011700040917701509178016091790170917A01E5
:10118000452B462B472B69F30097A105B10541F08C
:1011900025E32A95F1F700000197A109B109E1CFF4
:1011A0008091760191E0909375018823B9F0C09108
:1011B000B800D091BA008091BC008A7B8093BC00BB
:1011C00060E082E10E94DB0160E083E10E94DB01DC
:1011D0000E94A005D093BA00C093B800DF91CF91D0
:1011E00008951F920F920FB60F9211242F933F93E1
:1011F0008F939F93AF93BF9380910B0290910C02BA
:10120000A0910D02B0910E0230910A0223E0230F4B
:101210002D3758F50196A11DB11D20930A02809328
:101220000B0290930C02A0930D02B0930E028091DA
:101230000F0290911002A0911102B091120201963A
:10124000A11DB11D80930F0290931002A093110273
:10125000B0931202BF91AF919F918F913F912F91C7
:101260000F900FBE0F901F90189526E8230F02963F
:10127000A11DB11DD2CF1F920F920FB60F92112454
:101280002F933F934F935F936F937F938F939F938E
:10129000AF93BF93EF93FF93E0910201F0910301AD
:1012A0000995FF91EF91BF91AF919F918F917F91A0
:1012B0006F915F914F913F912F910F900FBE0F90C3
:1012C0001F9018951F920F920FB60F9211242F9313
:1012D0003F934F935F936F937F938F939F93AF93BE
:1012E000BF93EF93FF93E0910001F0910101099505
:1012F000FF91EF91BF91AF919F918F917F916F91EE
:101300005F914F913F912F910F900FBE0F901F90C3
:1013100018951F920F920FB60F9211242F933F939F
:101320004F935F936F937F938F939F93AF93BF93ED
:10133000EF93FF9383E192E00E94EA04FF91EF9123
:10134000BF91AF919F918F917F916F915F914F91DD
:101350003F912F910F900FBE0F901F9018951F92E5
:101360000F920FB60F9211242F938F939F93EF93A9
:10137000FF93E0912302F09124028081E091290201
:10138000F0912A0282FD1BC0908180912C028F5F18
:101390008F7320912D02821741F0E0912C02F0E032
:1013A000ED5EFD4F958F80932C02FF91EF919F9101
:1013B0008F912F910F900FBE0F901F9018958081E5
:1013C000F4CF1F920F920FB60F9211242F933F93D9
:1013D0004F935F936F937F938F939F93AF93BF933D
:1013E000EF93FF938091B900887F803609F44AC05B
:1013F000F0F5883209F4A7C018F5803109F49BC0D4
:10140000B8F4882309F4F9C0883009F494C0FF9136
:10141000EF91BF91AF919F918F917F916F915F916C
:101420004F913F912F910F900FBE0F901F901895E5
:10143000883109F488C0803251F78093BE0114C00E
:10144000803409F49DC040F48033B9F38833F9F651
:101450008093BE0185ECB0C0803509F485C0883525
:1014600009F496C0883499F60E949A08D0CF88393A
:1014700009F48CC038F5883729F050F4883611F01B
:10148000803729F683E08093BF011092BD0157C0D9
:10149000883809F47BC0803919F0803809F0B7CF5B
:1014A0008091BD01803208F071C0E091BD0181E002
:1014B0008E0F8093BD018091BB00F0E0E356FE4F9C
:1014C00080833DC0803B39F0E0F4803A09F479C074
:1014D000883A09F09CCF84E08093BF0110929C0170
:1014E00010929B01E091E701F091E801099580914C
:1014F0009B0181110FC081E080939B0110927B01C1
:1015000009C0803C09F4A6CF883C09F4A3CF883BEE
:1015100009F07DCFE0919C0181E08E0F80939C01CA
:10152000F0E0E558FE4F80818093BB0090919C01D4
:1015300080919B0129C08091E4018093BB0085ECE0
:101540008093BC0064CF9091E3018091E2019817F1
:1015500058F5E091E30181E08E0F8093E301F0E024
:10156000EE53FE4F8081E9CFE091E30181E08E0FE1
:101570008093E3018091BB00F0E0EE53FE4F808347
:101580009091E3018091E2019817C8F285E8D8CFE5
:10159000E091E30181E08E0F8093E3018091BB0035
:1015A000F0E0EE53FE4F80838091C10181115CCF4A
:1015B00081E08093C00184EA8093BC001092BF0157
:1015C00026CF85EC8093BC001092BF018091BD01B5
:1015D000803230F4E091BD01F0E0E356FE4F10821E
:1015E0006091BD0170E0E091E501F091E6018DE9C7
:1015F00091E009951092BD010ACF1092BE0134CF3F
:101600001F920F920FB60F9211242F933F934F9377
:101610005F936F937F938F939F93AF93BF93CF937A
:10162000DF93EF93FF9380915401C091E002D0E0EB
:1016300087FF24C01092850010928400809154018D
:101640008F5F8093540180915401082E000C990BF8
:101650008C179D0724F4809154018C30C4F1809143
:10166000840090918500049680349C4908F47AC0E7
:101670008091840090918500049676C080915401F9
:10168000082E000C990B8C179D07C4F6E0915401AD
:101690008E2FEE0F990BFC01EE0FFF1FE80FF91FC5
:1016A000E454FD4F808186FFC9CFE09154018E2F15
:1016B000EE0F990BFC01EE0FFF1FE80FF91FE4542A
:1016C000FD4F808160E08F730E94DB01B7CF2091D6
:1016D000840030918500E09154018E2FEE0F990B1C
:1016E000FC01EE0FFF1FE80FF91FE454FD4F81814D
:1016F0009281820F931F9093890080938800E091DC
:1017000054018E2FEE0F990BFC01EE0FFF1FE80F17
:10171000F91FE454FD4F808186FF11C0E091540110
:101720008E2FEE0F990BFC01EE0FFF1FE80FF91F34
:10173000E454FD4F808161E08F730E94DB01FF91D3
:10174000EF91DF91CF91BF91AF919F918F917F9159
:101750006F915F914F913F912F910F900FBE0F901E
:101760001F90189580E49CE99093890080938800ED
:101770008FEF80935401E3CF1F920F920FB60F9219
:1017800011242F933F934F935F936F937F938F9386
:101790009F93AF93BF93EF93FF938091530188235F
:1017A00069F160914F0170915001809151019091C8
:1017B00052010E94DD116093FC017093FD01809342
:1017C000FE019093FF0110924F0110925001109270
:1017D00051011092520110925301FF91EF91BF916C
:1017E000AF919F918F917F916F915F914F913F91B9
:1017F0002F910F900FBE0F901F90189581E080934E
:101800005301EBCFCF92DF92EF92FF92109216022C
:101810001092150288EE93E0A0E0B0E080931702EA
:1018200090931802A0931902B0931A0221E131E0BB
:10183000309314022093130225EC30E03093200201
:1018400020931F0224EC30E03093220220932102E7
:1018500020EC30E0309324022093230221EC30E08E
:10186000309326022093250222EC30E030932802A8
:101870002093270226EC30E030932A02209329029D
:1018800010922C0210922D0210922E0210922F0212
:101890001092B3021092B2028093B4029093B502F8
:1018A000A093B602B093B70283E291E09093B102A5
:1018B0008093B00210923403109233038091E002BF
:1018C0008C3008F00EC191E0980F9093E002809365
:1018D000350390E0FC01EE0FFF1FE80FF91FE45401
:1018E000FD4F88EB9BE09283818389E080933203F4
:1018F00010922603109227031092280310922903B6
:1019000085E08093230380E18093240381E1809329
:10191000250361E085E00E94090261E080E10E9408
:10192000090261E081E10E94090210920E03109207
:10193000150310921C0310921D0310921E031092A7
:101940001F0381E080931B038093180310921903F7
:1019500092E090931A0380930D038BE190E09093B3
:101960001203809311030E94FF1290931703809338
:101970001603009709F4B9C02BE1FC0111922A95D6
:10198000E9F789E090E09093100380930F038CE0D7
:1019900090E0909314038093130380910E038823A7
:1019A00041F061E08CE00E94090260E08CE00E945E
:1019B000DB01EAEBF0E0E491F0E0EE0FFF1FEC5505
:1019C000FF4F859194919093210380932003ECE93C
:1019D000F0E0E491E093220387E08093020386E045
:1019E000809303031092040361E087E00E940902E0
:1019F00060E0809103030E94090298E2C92E93E2FD
:101A0000D92EE12CF12CC0920903D0920A03E09266
:101A10000B03F0920C038BE08093F70284E0809339
:101A2000F8021092F90261E08BE00E94090260E086
:101A30008091F8020E940902C092FE02D092FF0239
:101A4000E0920003F092010383E08093EC0288E0CF
:101A50008093ED021092EE0261E083E00E940902A1
:101A600060E08091ED020E940902C092F302D092E0
:101A7000F402E092F502F092F6028DE08093E1022A
:101A80008FE08093E2021092E30261E08DE00E9419
:101A9000090260E08091E2020E940902C092E8021D
:101AA000D092E902E092EA02F092EB028FEF80938B
:101AB000380310923A0310923903109244031092A3
:101AC00043038FEF9FEFDC0180933F03909340032C
:101AD000A0934103B0934203FF90EF90DF90CF902B
:101AE00008958FEF8093350300CF10921203109268
:101AF00011031092100310920F0349CF789484B50C
:101B0000826084BD84B5816084BD85B5826085BDF9
:101B100085B5816085BD80916E00816080936E0087
:101B20001092810080918100826080938100809179
:101B3000810081608093810080918000816080932A
:101B400080008091B10084608093B1008091B000EA
:101B500081608093B00080917A00846080937A00E5
:101B600080917A00826080937A0080917A0081600F
:101B700080937A0080917A00806880937A00109236
:101B8000C100809113039091140397FD08C061E098
:101B90000E94090260E0809113030E94DB0181E052
:101BA00080930E0364E670E080E090E00E940304FE
:101BB000409111035091120370E060E08091160390
:101BC000909117030E942414E0912302F0912402C3
:101BD00082E08083E0911F02F09120021082E09168
:101BE0002102F091220280E1808310922B02E09189
:101BF0002702F091280286E08083E0912502F0918F
:101C00002602808180618083E0912502F091260286
:101C1000808188608083E0912502F0912602808196
:101C200080688083E0912502F091260280818F7D7B
:101C3000808387E391E00E94EF0684E391E00E94B5
:101C4000EF0661E08EE00E94090260E082E00E94FF
:101C50000902C0913203809135038C3008F051C0E5
:101C600061E08C2F0E940902E09135038E2F90E0F5
:101C7000DC01AA0FBB1FA80FB91FA454BD4FCF731F
:101C80008C91807C8C2B8C931092360310923703AE
:101C90002CE08E2F622F0E940D11829FB001112423
:101CA00030E020E0AB01420F531FDA01AA0FBB1F47
:101CB000A40FB51FA454BD4F9C9196FD16C02F5F75
:101CC0003F4F2C30310571F781110FC01092800009
:101CD00082E0809381001092850010928400B19A76
:101CE00080916F00826080936F008E2F90E0FC01E6
:101CF000EE0FFF1FE80FF91FE454FD4F8081806451
:101D0000808390E080E00E94F6001092EC01109237
:101D1000EB011092EA011092E9010E94A00585E30F
:101D200094E09093E8018093E70181E494E090933C
:101D3000E6018093E50188E08093BA0085E896E0AB
:101D40009093EE018093ED0180E498E09093F00190
:101D50008093EF01C5E00E9477076CE271E080E0BC
:101D600090E00E940304C150B1F7D1E000E08091FF
:101D7000FB0181111EC010E04D2F502F612F8C2FC1
:101D80000E940C061F5F1930B9F70E94300368E704
:101D900070E080E090E00E940304C83021F0CC2382
:101DA00029F0CD0FE4CFDFEF0FEFFBCFD1E000E064
:101DB000F8CFD0E0C0E04FE05FE06FE070E0CE0130
:101DC0000E948D002196C930D105A9F70E943003E9
:101DD000F8941092B0001092B1008091B100876029
:101DE0008093B100809170008460809370008FEFC9
:101DF0008093B400789420E0822E20E0922E01E0BF
:101E000010E0AA24AA94BA2C2FB7F89480910B0260
:101E100090910C02A0910D02B0910E022FBF409143
:101E2000060250910702609108027091090248175A
:101E300059076A077B0708F042C080910401882394
:101E400009F4DAC0C091F901C1110CC082E093E03D
:101E50000E94BC029093F8018093F701CF5FC0937A
:101E6000F90117C0C13049F48CEE92E00E94BC0227
:101E70009093F6018093F501F1CF87EF92E00E94F5
:101E8000BC029093F4018093F301C23039F71092B1
:101E9000F9012FB7F89480910B0290910C02A09158
:101EA0000D02B0910E022FBF0796A11DB11D8093A8
:101EB000060290930702A0930802B09309022FB77D
:101EC000F89480910B0290910C02A0910D02B091B8
:101ED0000E022FBF40910202509103026091040252
:101EE00070910502481759076A077B0708F0D7C0A9
:101EF000C0910002D09101026091FC017091FD013E
:101F00008091FE019091FF010E94A5119E01261B68
:101F1000370BB901072E000C880B990B0E94DD11BD
:101F20002B013C0140922A0350922B0360922C0318
:101F300070922D032AE939E949E95EE30E94921281
:101F400020912603309127034091280350912903C3
:101F50000E9434116B017C0120912E0330912F03DC
:101F60004091300350913103C301B2010E943311FB
:101F70009B01AC010E9434119B01AC01C701B60169
:101F80000E9434116B017C0120E030E04FE753ECFC
:101F90000E94A01187FD39C020E030E04FE753E4F4
:101FA000C701B6010E948D12181634F4C12CD12C31
:101FB0009FE7E92E93E4F92EC0922603D0922703DF
:101FC000E0922803F092290340922E0350922F03AF
:101FD000609230037092310370902403CD2BE1F4B2
:101FE00060E0872D0E94DB0160E0809125030E9464
:101FF000DB0168EC70E027C081EE92E00E94BC0239
:102000009093F2018093F10144CFC12CD12C8FE742
:10201000E82E83ECF82ED0CFC701B6010E94A5119F
:102020006B01CB01181619060CF06AC081E0809391
:10203000040161E0872D0E94DB0160E080912503AF
:102040000E94DB01B601809123030E943A0282E3E1
:1020500091E00E94EF066091330370913403072EE4
:10206000000C880B990B0E94FC0684E391E00E940F
:10207000EF062FB7F89480910B0290910C02A0917B
:102080000D02B0910E022FBF0F96A11DB11D8093BE
:10209000020290930302A0930402B0930502809180
:1020A000FB01811121C0D0E0C091FA0140910501EE
:1020B000509106016D2F8C2F0E940C06DF5FD930E6
:1020C00099F70E94300368E770E080E090E00E949A
:1020D0000304C83041F5B0920601A0920501809139
:1020E0000501C80FC093FA018114910409F48CCE44
:1020F0000E94D604882309F487CE0E94000084CE73
:10210000892B09F46DCF1092040160E0872D0E94A5
:10211000DB0161E0809125030E94DB0166277727C0
:102120006C197D0990CFC111DACF1093060100938D
:102130000501D5CF80911603909117030E949B1340
:10214000809113039091140397FD03C060E00C94F9
:1021500009020895052E97FB1EF400940E94C110F9
:1021600057FD07D00E94DC1007FC03D04EF40C94FE
:10217000C11050954095309521953F4F4F4F5F4F7F
:10218000089590958095709561957F4F8F4F9F4FE3
:1021900008950E94FE10A59F900DB49F900DA49FDE
:1021A000800D911D11240895B7FF0C94C9100E9451
:1021B000C910821B930B0895A1E21A2EAA1BBB1B08
:1021C000FD010DC0AA1FBB1FEE1FFF1FA217B30703
:1021D000E407F50720F0A21BB30BE40BF50B661F19
:1021E000771F881F991F1A9469F7609570958095DD
:1021F00090959B01AC01BD01CF010895A29FB00154
:10220000B39FC001A39F700D811D1124911DB29F2A
:10221000700D811D1124911D0895991B79E004C052
:10222000991F961708F0961B881F7A95C9F7809515
:102230000895AA1BBB1B51E107C0AA1FBB1FA6170D
:10224000B70710F0A61BB70B881F991F5A95A9F75F
:1022500080959095BC01CD010895EE0FFF1F05906C
:10226000F491E02D09945058BB27AA270E944B11E6
:102270000C9453120E94451238F00E944C1220F028
:1022800039F49F3F19F426F40C9442120EF4E095B1
:10229000E7FB0C943C12E92F0E94641258F3BA1722
:1022A000620773078407950720F079F4A6F50C946C
:1022B00086120EF4E0950B2EBA2FA02D0B01B9015A
:1022C00090010C01CA01A0011124FF27591B99F0AC
:1022D000593F50F4503E68F11A16F040A22F232FB8
:1022E000342F4427585FF3CF469537952795A79508
:1022F000F0405395C9F77EF41F16BA0B620B730BAF
:10230000840BBAF09150A1F0FF0FBB1F661F771F1F
:10231000881FC2F70EC0BA0F621F731F841F48F4D4
:10232000879577956795B795F7959E3F08F0B0CF5D
:102330009395880F08F09927EE0F97958795089544
:102340000E94181208F481E008950E94AC1168946C
:10235000B1110C94871208950E946C1288F09F5757
:1023600098F0B92F9927B751B0F0E1F0660F771FB9
:10237000881F991F1AF0BA95C9F714C0B13091F0AF
:102380000E948612B1E008950C948612672F782F70
:102390008827B85F39F0B93FCCF386957795679574
:1023A000B395D9F73EF490958095709561957F4FE0
:1023B0008F4F9F4F0895E89409C097FB3EF4909586
:1023C0008095709561957F4F8F4F9F4F9923A9F00E
:1023D000F92F96E9BB279395F6958795779567959D
:1023E000B795F111F8CFFAF4BB0F11F460FF1BC0E1
:1023F0006F5F7F4F8F4F9F4F16C0882311F096E974
:1024000011C0772321F09EE8872F762F05C0662321
:1024100071F096E8862F70E060E02AF09A95660FDA
:10242000771F881FDAF7880F9695879597F9089593
:10243000990F0008550FAA0BE0E8FEEF16161706D5
:10244000E807F907C0F012161306E407F50798F03D
:10245000621B730B840B950B39F40A2661F0232B56
:10246000242B252B21F408950A2609F4A140A695D2
:102470008FEF811D811D089597F99F6780E870E0B7
:1024800060E008959FEF80EC089500240A941616EA
:10249000170618060906089500240A941216130652
:1024A000140605060895092E0394000C11F48823E0
:1024B00052F0BB0F40F4BF2B11F460FF04C06F5FFC
:1024C0007F4F8F4F9F4F089557FD9058440F551FD2
:1024D00059F05F3F71F04795880F97FB991F61F0A6
:1024E0009F3F79F087950895121613061406551F1D
:1024F000F2CF4695F1DF08C0161617061806991F89
:10250000F1CF86957105610508940895E894BB277D
:1025100066277727CB0197F908950E94181208F4CF
:102520008FEF08950E94A5120C9453120E94451239
:1025300038F00E944C1220F0952311F00C943C12BC
:102540000C94421211240C9487120E94641270F3AE
:10255000959FC1F3950F50E0551F629FF001729F48
:10256000BB27F00DB11D639FAA27F00DB11DAA1F57
:10257000649F6627B00DA11D661F829F2227B00DA4
:10258000A11D621F739FB00DA11D621F839FA00D2F
:10259000611D221F749F3327A00D611D231F849F7F
:1025A000600D211D822F762F6A2F11249F575040D6
:1025B0009AF0F1F088234AF0EE0FFF1FBB1F661F51
:1025C000771F881F91505040A9F79E3F510580F01A
:1025D0000C943C120C9487125F3FE4F3983ED4F3C2
:1025E000869577956795B795F795E7959F5FC1F7BE
:1025F000FE2B880F911D9695879597F908950F9357
:102600001F93CF93DF938230910510F482E090E026
:10261000E0914703F091480330E020E0B0E0A0E013
:10262000309799F42115310509F44AC0281B390B5C
:1026300024303105D8F58A819B816115710589F1B6
:10264000FB0193838283FE0111C04081518102818D
:10265000138148175907E0F04817590799F4109764
:1026600061F012960C93129713961C933296CF0139
:10267000DF91CF911F910F9108950093470310931D
:102680004803F4CF2115310551F04217530738F0B4
:10269000A901DB019A01BD01DF01F801C1CFEF0102
:1026A000F9CF9093480380934703CDCFFE01E20F0B
:1026B000F31F819391932250310939832883D7CF17
:1026C0002091450330914603232B41F420910901C9
:1026D00030910A013093460320934503209107016E
:1026E000309108012115310541F42DB73EB74091D5
:1026F0000B0150910C01241B350BE0914503F09127
:102700004603E217F307A0F42E1B3F0B28173907E7
:1027100078F0AC014E5F5F4F2417350748F04E0F3D
:102720005F1F5093460340934503819391939FCF3E
:10273000F0E0E0E09CCFCF93DF930097E9F0FC015D
:10274000329713821282A0914703B0914803ED01A2
:1027500030E020E01097A1F420813181820F931F97
:1027600020914503309146032817390709F061C0CD
:10277000F0934603E0934503DF91CF910895EA017A
:10278000CE17DF07E8F54A815B819E0141155105AF
:10279000B1F7E901FB83EA8349915991C40FD51F31
:1027A000EC17FD0761F4808191810296840F951FDB
:1027B000E90199838883828193819B838A83F0E0F6
:1027C000E0E012968D919C9113970097B9F52D91A9
:1027D0003C911197CD010296820F931F20914503E2
:1027E000309146032817390739F6309751F5109282
:1027F000480310924703B0934603A0934503BCCF10
:10280000D383C28340815181840F951FC817D90794
:1028100061F44E5F5F4F88819981480F591F518342
:1028200040838A819B81938382832115310509F03E
:10283000B0CFF0934803E09347039ECFFD01DC0146
:10284000C0CF13821282D7CFDC0101C06D934150FB
:102850005040E0F7089510E0C2E6D0E004C0FE0169
:102860000E942D112196C336D107C9F7F894FFCFE6
:102870006B046B04010100000049038000000000AC
:10288000000C056C0499045905CA04A804BC040092
:10289000000000F305E8050906BE05E105CE05BF09
:1028A000053B09000D0A0053657269616C206120C7
:0628B00070756E746F00EC
:00000001FF
