:100000000C9463000C940D080C94E6070C948B0080
:100010000C948B000C948B000C948B000C948B0034
:100020000C94670A0C948B000C948B000C94AB0915
:100030000C948B000C948B000C948B000C948B0014
:100040000C949C070C948B000C945A080C94340864
:100050000C948B000C948B000C948B000C948B00F4
:100060000C948C080C948B000000000024002700E6
:100070002A000000000023002600290000000008DC
:10008000000201000003040700000000000000005F
:10009000010204081020408001020408102001021F
:1000A0000408102000000000250028002B00040494
:1000B0000404040404040202020202020303030310
:1000C0000303C00A9D0F11241FBECFEFD8E0DEBF8F
:1000D000CDBF11E0A0E0B1E0E6E7F6E202C0059096
:1000E0000D92A233B107D9F723E0A2E3B1E001C03A
:1000F0001D92A833B207E1F710E0C2E6D0E004C0D9
:100100002197FE010E943010C136D107C9F70E9425
:10011000380C0C942E130C9400004F925F926F9247
:100120007F928F929F92AF92BF92FF922091000395
:10013000309101038217930708F043C02B01662416
:100140007724852E962EA72EBB24B82DA42F209180
:100150000603F42C222391F0E22FF0E0E49DD0017D
:10016000E59DB00DF49DB00D1124FB2E289D40019E
:100170001124B92D249F90011124A32FE0910C0389
:10018000209107033091080350910903E51323C020
:10019000FC01EE0FFF1F8E0F9F1F820F931FE09138
:1001A0000903E80FF92FF11DF082E0910A03E80F2F
:1001B000F92FF11DB08320910B03820F911DFC01DB
:1001C000A083FF90BF90AF909F908F907F906F9093
:1001D0005F904F900895880F991F880F991F820F85
:1001E000931FE80FF92FF11D1082D9CF8F929F92A4
:1001F000AF92BF92FF920F931F93CF93DF939C0117
:10020000F09024038BE08F1508F46CC080912603D6
:1002100008E512E0081B110987FD1395000F111F57
:10022000000F111F80912503C8E8D0E0C81BD10939
:1002300087FDD395CC0FDD1FCC0FDD1F4E010D2E9A
:10024000000CAA08BB08032E000C440B550B2C59BC
:100250003F4F4F4F5F4FA1E3B0E00E94CC0F28EC1F
:1002600030E040E050E00E94AD0F2A5B3F4F4F4F1F
:100270005F4FD9012837310514F0A7E7B0E0A63465
:10028000B10514F4A6E4B0E09801012E000C440B73
:10029000550B281939094A095B090E94D70F24EB2D
:1002A00030E040E050E00E94AD0F820E931EA41E8D
:1002B000B51E8C169D062CF0E801801691060CF4F4
:1002C000E4012297CC0FDD1F2FB7F8948F2D90E01B
:1002D000FC01EE0FFF1FE80FF91FE355FD4FD2831E
:1002E000C1832FBFDF91CF911F910F91FF90BF90DE
:1002F000AF909F908F900895833081F028F48130E3
:1003000099F08230A9F008958730A9F08830C9F0BB
:100310008430B1F4809180008F7D03C08091800093
:100320008F7780938000089584B58F7784BD08957A
:1003300084B58F7DFBCF8091B0008F778093B00024
:1003400008958091B0008F7DF9CFCF93DF93282F50
:1003500030E0F901E458FF4F8491F901E057FF4F75
:10036000D491F901E255FF4FC491CC23A1F0811142
:100370000E947C01EC2FF0E0EE0FFF1FEE58FF4FC4
:10038000A591B491EC91ED2381E090E009F480E037
:10039000DF91CF91089580E090E0FACF1F93CF9343
:1003A000DF93282F30E0F901E458FF4F8491F901E1
:1003B000E057FF4FD491F901E255FF4FC491CC2390
:1003C000A9F0162F81110E947C01EC2FF0E0EE0FB6
:1003D000FF1FEC55FF4FA591B4918FB7F894EC91A6
:1003E000111108C0D095DE23DC938FBFDF91CF9130
:1003F0001F910895DE2BF8CFCF93DF9390E0FC019F
:10040000E057FF4F249182559F4FFC018491882330
:10041000D1F090E0880F991FFC01E859FF4FA5919A
:10042000B491FC01EC55FF4FC591D49161110EC000
:100430009FB7F8948C91E22FE0958E238C932881BE
:10044000E223E8839FBFDF91CF9108958FB7F8949F
:10045000EC91E22BEC938FBFF6CFCF93DF93EC01BF
:1004600061E085E00E94FC01209731F460E085E0C6
:10047000DF91CF910C94CE01CF3FD10511F461E013
:10048000F6CFE1E8F0E0E491E33029F140F4E13027
:10049000B1F0E230D9F0C038D1058CF7E7CFE730C2
:1004A00021F1E83051F1E430B1F7809180008062B1
:1004B00080938000D0938B00C0938A0004C084B5E1
:1004C000806884BDC7BDDF91CF91089584B58062F7
:1004D00084BDC8BDF8CF8091800080688093800083
:1004E000D0938900C0938800EECF8091B0008068DF
:1004F0008093B000C093B300E6CF8091B0008062DB
:100500008093B000C093B400DECF3FB7F8948091E1
:10051000000290910102A0910202B091030226B55F
:10052000A89B05C02F3F19F00196A11DB11D3FBF2B
:10053000BA2FA92F982F8827BC01CD01620F711DFA
:10054000811D911D42E0660F771F881F991F4A95F4
:10055000D1F708950F931F93CF93DF93CDB7DEB7F5
:1005600029970FB6F894DEBF0FBECDBF8091070369
:1005700090910803892B09F47CC00E9485020091A8
:100580000D0310910E0320910F033091100360179B
:1005900071078207930740F460930D0370930E0375
:1005A00080930F039093100300910D0310910E039D
:1005B00020910F0330911003601B710B820B930B82
:1005C0006C32714081059105C0F2F894809102036C
:1005D000909103039A838983E0910703F0910803C4
:1005E000DF011196808189879091FE02E0911103CD
:1005F000F091120380911303992309F445C090816F
:10060000982B98879081809589238F838F818C8305
:1006100088E08B8358856F8149853B812C81898156
:100620009A81508347FD252F3A952083262F39F054
:10063000441F00C000006083000000C0F2CF38E01B
:100640004D9160830000019761F7F0931203E093EE
:10065000110349873B832C839A83898378940E9472
:10066000850260930D0370930E0380930F039093A4
:10067000100329960FB6F894DEBF0FBECDBFDF91F1
:10068000CF911F910F9108959081982B9887908119
:10069000809589238F838F818E8388E08D83588511
:1006A0006F8149853D812E8189819A81508347FDE3
:1006B000252F00C000C0208300C000C000C000C0C3
:1006C00000C060830000262F3A9541F0441F0000CF
:1006D00000C000C000C000C000C0E8CF38E04D91AD
:1006E00000C0608300C0019709F7F0931203E09304
:1006F000110349873D832E83AFCF8F929F92AF9294
:10070000BF92CF92DF92EF92FF924B015C010E9469
:1007100085026B017C010E9485026C197D098E099E
:100720009F09683E734081059105A8F321E0821A74
:100730009108A108B10888EEC80E83E0D81EE11C1C
:10074000F11C81149104A104B10429F7FF90EF90EA
:10075000DF90CF90BF90AF909F908F900895E091E1
:10076000DD01F091DE01309729F01092D80110924E
:10077000D70109940895CF93DF93AC01E091DB0199
:10078000F091DC013097F1F09091DA018091D9017C
:100790009817C0F090E0292F30E02617370754F45F
:1007A000D901AD5BBE4F240F351FE90128812C9381
:1007B0009F5FF1CF1092DA016093D901CB01DF91F5
:1007C000CF910994DF91CF9108950895AF92BF9290
:1007D000CF92DF92EF92FF920F931F93CF93DF930D
:1007E0006C017B018B01040F151FEB015E01AE183C
:1007F000BF08C017D10759F06991D601ED91FC915E
:100800000190F081E02DC6010995892B79F7C5018A
:10081000DF91CF911F910F91FF90EF90DF90CF90DC
:10082000BF90AF900895FC01538D448D252F30E08B
:10083000842F90E0821B930B541710F0CF960895ED
:1008400001970895FC01918D828D981761F0A28D1A
:10085000AE0FBF2FB11D5D968C91928D9F5F9F73E0
:10086000928F90E008958FEF9FEF0895FC01918D96
:10087000828D981731F0828DE80FF11D858D90E003
:1008800008958FEF9FEF0895FC01918D228D892FA0
:1008900090E0805C9F4F821B91098F739927089588
:1008A00084E092E00E94440421E0892B09F420E0D6
:1008B000822F089580E090E0892B29F00E94500457
:1008C00081110C9400000895FC01A48DA80FB92F8C
:1008D000B11DA35ABF4F2C91848D90E001968F7368
:1008E0009927848FA689B7892C93A089B1898C9187
:1008F000837080648C93938D848D981306C00288D6
:10090000F389E02D80818F7D80830895EF92FF929F
:100910000F931F93CF93DF93EC0181E0888F9B8D22
:100920008C8D98131AC0E889F989808185FF15C0DC
:100930009FB7F894EE89FF896083E889F9898081FF
:100940008370806480839FBF81E090E0DF91CF91CE
:100950001F910F91FF90EF900895F62E0B8D10E0F0
:100960000F5F1F4F0F731127E02E8C8D8E110CC05F
:100970000FB607FCFACFE889F989808185FFF5CFAA
:10098000CE010E946404F1CFEB8DEC0FFD2FF11D21
:10099000E35AFF4FF0829FB7F8940B8FEA89FB89E7
:1009A00080818062CFCFCF93DF93EC01888D882345
:1009B000B9F0AA89BB89E889F9898C9185FD03C0C2
:1009C000808186FD0DC00FB607FCF7CF8C9185FFA7
:1009D000F2CF808185FFEDCFCE010E946404E9CF84
:1009E000DF91CF91089520918901260F3327331F7E
:1009F00021323105ECF42091AD01FC0190E080E062
:100A0000243069F082E00895A09189012191AC0120
:100A100047595E4FA40FB52FB11D2C930196861731
:100A200098F380918901680F6093890180E00895AF
:100A300081E008951092AD0181E08093AF011092A2
:100A4000AE0161E082E10E94CE0161E083E10E949B
:100A5000CE01E9EBF0E080818E7F808380818D7F05
:100A6000808388E48093B80085E48093BC00089577
:100A70000895E091DA018091D901E81730F4F0E0AF
:100A8000ED5BFE4F808190E008958FEF9FEF08951A
:100A90009091DA018091D9012FEF3FEF981748F438
:100AA000E92FF0E0ED5BFE4F208130E09F5F9093F7
:100AB000DA01C90108950F931F93CF93DF93EC01DF
:100AC0001C161D060CF045C081EA92E00E94480504
:100AD00080933A0121978330B1F481EA92E00E9439
:100AE00048058C0181EA92E00E9448050197809FA9
:100AF0009001819F300D909F300D11243093F601AD
:100B00002093F501DDCF843091F481EA92E00E94D8
:100B100048058C0181EA92E00E944805892B19F46E
:100B2000119501951109C8010E94F600C9CF8530C1
:100B300039F681EA92E00E9448058C01682F8EE028
:100B40000E94CE0181E0012B09F480E08093F00146
:100B5000B7CFDF91CF911F910F9108958091D90167
:100B60009091DA01891B990B0895CF93DF93CB0104
:100B7000EA01642F0E94F304CE01DF91CF91089522
:100B8000CF93DF931F92CDB7DEB7698361E0CE01CB
:100B900001960E94F30481E090E00F90DF91CF91E5
:100BA0000895682F81EA92E00C94C00590E080E0FF
:100BB00008950F931F93CF93DF93EC018A818823CD
:100BC00021F061E088810E94FC0160E088810E9440
:100BD000CE0183E090E00197F1F761E088810E9407
:100BE000CE0183E290E00197F1F760E088810E94F6
:100BF000CE018A81882321F060E088810E94FC0177
:100C00000E9485026B837C838D839E8389810E94F1
:100C1000A501892B99F40E9485020B811C812D81ED
:100C20003E81601B710B820B930B0F811885298508
:100C30003A85061717072807390740F70E948502EB
:100C40006B837C838D839E8389810E94A501892B80
:100C500099F00E9485020B811C812D813E81601BD1
:100C6000710B820B930B0F81188529853A85061726
:100C700017072807390740F70E9485022B813C811E
:100C8000CB01821B930BDF91CF911F910F910895A0
:100C9000CF93DF9380910401882331F183EF92E0B9
:100CA0000E94D905C8E3D0E0BE010E941C107093D9
:100CB000EE016093ED0188EE92E00E94D905BE013D
:100CC0000E941C107093E2016093E1018DED92E0AF
:100CD0000E94D905BE010E941C107093E60160932A
:100CE000E501DF91CF91089582ED92E00E94D90550
:100CF00068E370E00E941C107093EA016093E901C0
:100D0000F0CF80913A01813081F580913601909148
:100D10003701A0913801B09139018093320180915F
:100D2000360190913701A0913801B091390190932B
:100D300033018091360190913701A0913801B09133
:100D40003901A09334018091360190913701A0912F
:100D50003801B0913901B093350144E050E062E3CD
:100D600071E081EA92E00C94B5058230C1F4809183
:100D7000ED019091EE010E94D1058091E1019091E9
:100D8000E2010E94D1058091E5019091E6010E9467
:100D9000D1058091E9019091EA010C94D105089563
:100DA000282F30E0861307C040E050E06EE170E08D
:100DB000C9010C948D00862F90E0BC01621B730B5F
:100DC000649F9001659F300D749F300D11242F3F5B
:100DD000320729F440E050E06CE070E0EACF2E3FAB
:100DE0003F4F29F440E050E064E070E0E2CF40E0A3
:100DF00050E0BA01DECF80910401882339F180915F
:100E00003D0190913E01A0913F01B09140010196BA
:100E1000A11DB11D80933D0190933E01A0933F0120
:100E2000B09340018091360190913701A091380133
:100E3000B09139010196A11DB11D809336019093A7
:100E40003701A0933801B0933901089580913D0195
:100E500090913E01A0913F01B09140010197A109FD
:100E6000B10980933D0190933E01A0933F01B0935F
:100E700040018091360190913701A0913801B091E5
:100E800039010197A109B109D8CFCF93DF9385ED3F
:100E90008093BC008091650190916601A0916701EB
:100EA000B09168010796A11DB11D23E0B695A795E5
:100EB000979587952A95D1F72091BC0024FD03C012
:100EC0001092AD0136C0409165015091660160916C
:100ED000670170916801452B462B472B69F30097FA
:100EE000A105B10541F025E32A95F1F7000001972E
:100EF000A109B109E1CF8091640191E09093630170
:100F00008823B9F0C091B800D091BA008091BC009C
:100F10008A7B8093BC0060E082E10E94CE0160E0A9
:100F200083E10E94CE010E941A05D093BA00C093BB
:100F3000B800DF91CF9108951F920F920FB60F92D4
:100F400011242F933F938F939F93AF93BF938091DF
:100F5000FC019091FD01A091FE01B091FF01309143
:100F6000FB0123E0230F2D3758F50196A11DB11D7C
:100F70002093FB018093FC019093FD01A093FE015F
:100F8000B093FF018091000290910102A0910202B2
:100F9000B09103020196A11DB11D809300029093B0
:100FA0000102A0930202B0930302BF91AF919F91FF
:100FB0008F913F912F910F900FBE0F901F9018951A
:100FC00026E8230F0296A11DB11DD2CF1F920F92CA
:100FD0000FB60F9211242F933F934F935F936F930C
:100FE0007F938F939F93AF93BF93EF93FF93E09182
:100FF0000201F09103010995FF91EF91BF91AF912B
:101000009F918F917F916F915F914F913F912F9120
:101010000F900FBE0F901F9018951F920F920FB652
:101020000F9211242F933F934F935F936F937F936E
:101030008F939F93AF93BF93EF93FF93E091000142
:10104000F09101010995FF91EF91BF91AF919F91AF
:101050008F917F916F915F914F913F912F910F9061
:101060000FBE0F901F9018951F920F920FB60F9200
:1010700011242F933F934F935F936F937F938F939D
:101080009F93AF93BF93EF93FF9384E092E00E940E
:101090006404FF91EF91BF91AF919F918F917F91E8
:1010A0006F915F914F913F912F910F900FBE0F90D5
:1010B0001F9018951F920F920FB60F9211242F9325
:1010C0008F939F93EF93FF93E0911402F091150299
:1010D0008081E0911A02F0911B0282FD1BC0908179
:1010E00080911D028F5F8F7320911E02821741F045
:1010F000E0911D02F0E0EC5FFD4F958F80931D02A3
:10110000FF91EF919F918F912F910F900FBE0F90B4
:101110001F9018958081F4CF1F920F920FB60F92F7
:1011200011242F933F934F935F936F937F938F93EC
:101130009F93AF93BF93EF93FF938091B900887F04
:10114000803609F44AC0F0F5883209F4A7C018F5D2
:10115000803109F49BC0B8F4882309F4F9C08830C1
:1011600009F494C0FF91EF91BF91AF919F918F913E
:101170007F916F915F914F913F912F910F900FBE93
:101180000F901F901895883109F488C0803251F76C
:101190008093AC0114C0803409F49DC040F48033C6
:1011A000B9F38833F9F68093AC0185ECB0C0803593
:1011B00009F485C0883509F496C0883499F60E94F0
:1011C0004507D0CF883909F48CC038F5883729F025
:1011D00050F4883611F0803729F683E08093AD0112
:1011E0001092AB0157C0883809F47BC0803919F0E0
:1011F000803809F0B7CF8091AB01803208F071C020
:10120000E091AB0181E08E0F8093AB018091BB0038
:10121000F0E0E557FE4F80833DC0803B39F0E0F4BD
:10122000803A09F479C0883A09F09CCF84E0809331
:10123000AD0110928A0110928901E091D501F091DF
:10124000D60109958091890181110FC081E08093B9
:1012500089011092690109C0803C09F4A6CF883C3D
:1012600009F4A3CF883B09F07DCFE0918A0181E0AA
:101270008E0F80938A01F0E0E759FE4F80818093C2
:10128000BB0090918A018091890129C08091D2018F
:101290008093BB0085EC8093BC0064CF9091D1011A
:1012A0008091D001981758F5E091D10181E08E0F1F
:1012B0008093D101F0E0E055FE4F8081E9CFE091CD
:1012C000D10181E08E0F8093D1018091BB00F0E0CD
:1012D000E055FE4F80839091D1018091D001981705
:1012E000C8F285E8D8CFE091D10181E08E0F8093DC
:1012F000D1018091BB00F0E0E055FE4F80838091EA
:10130000AF0181115CCF81E08093AE0184EA8093CC
:10131000BC001092AD0126CF85EC8093BC001092EA
:10132000AD018091AB01803230F4E091AB01F0E08F
:10133000E557FE4F10826091AB0170E0E091D30160
:10134000F091D4018BE891E009951092AB010ACF9E
:101350001092AC0134CF1F920F920FB60F9211244E
:101360002F933F934F935F936F937F938F939F93AD
:10137000AF93BF93CF93DF93EF93FF93809142019D
:10138000C091D102D0E087FF24C010928500109256
:101390008400809142018F5F8093420180914201DD
:1013A000082E000C990B8C179D0724F480914201A4
:1013B0008C30C4F180918400909185000496803433
:1013C0009C4908F47AC0809184009091850004962D
:1013D00076C080914201082E000C990B8C179D0756
:1013E000C4F6E09142018E2FEE0F990BFC01EE0F37
:1013F000FF1FE80FF91FE355FD4F808186FFC9CF1E
:10140000E09142018E2FEE0F990BFC01EE0FFF1FB2
:10141000E80FF91FE355FD4F808160E08F730E9454
:10142000CE01B7CF2091840030918500E091420138
:101430008E2FEE0F990BFC01EE0FFF1FE80FF91F27
:10144000E355FD4F81819281820F931F9093890014
:1014500080938800E09142018E2FEE0F990BFC01E2
:10146000EE0FFF1FE80FF91FE355FD4F808186FF48
:1014700011C0E09142018E2FEE0F990BFC01EE0F8F
:10148000FF1FE80FF91FE355FD4F808161E08F7367
:101490000E94CE01FF91EF91DF91CF91BF91AF916B
:1014A0009F918F917F916F915F914F913F912F917C
:1014B0000F900FBE0F901F90189580E49CE99093B9
:1014C0008900809388008FEF80934201E3CF1F92C1
:1014D0000F920FB60F9211242F933F934F935F9368
:1014E0006F937F938F939F93AF93BF93EF93FF93EC
:1014F00080914101882309F43FC060913D017091C2
:101500003E0180913F01909140010E94E010609364
:10151000F1017093F2018093F3019093F4018091B3
:101520003D0190913E01A0913F01B0914001209179
:101530003B0130913C01820F931F90933C018093BB
:101540003B0110923D0110923E0110923F0110921A
:10155000400110924101FF91EF91BF91AF919F9196
:101560008F917F916F915F914F913F912F910F904C
:101570000FBE0F901F90189581E080934101EBCF33
:10158000CF92DF92EF92FF92109207021092060222
:1015900088EE93E0A0E0B0E0809308029093090207
:1015A000A0930A02B0930B0221E131E030930502CF
:1015B0002093040225EC30E03093110220931002B6
:1015C00024EC30E0309313022093120220EC30E040
:1015D000309315022093140221EC30E0309317026F
:1015E0002093160222EC30E0309319022093180267
:1015F00026EC30E030931B0220931A0210921D0259
:1016000010921E0210921F02109220021092A40249
:101610001092A3028093A5029093A602A093A70222
:10162000B093A80283E291E09093A2028093A1027A
:101630008091D1028C3008F00EC191E0980F909308
:10164000D1028093240390E0FC01EE0FFF1FE80F0E
:10165000F91FE355FD4F88EB9BE09283818389E07E
:10166000809323031092170310921803109219030A
:1016700010921A0385E08093140380E18093150390
:1016800081E18093160361E085E00E94FC0161E046
:1016900080E10E94FC0161E081E10E94FC01109266
:1016A000FF021092060310920D0310920E03109287
:1016B0000F031092100381E080930C0380930903C1
:1016C00010920A0392E090930B038093FE0288E14C
:1016D00090E090930303809302030E940212909380
:1016E000080380930703009709F4B9C028E1FC01BF
:1016F00011922A95E9F788E090E090930103809396
:1017000000038CE090E090930503809304038091A4
:10171000FF02882341F061E08CE00E94FC0160E060
:101720008CE00E94CE01EAEBF0E0E491F0E0EE0FF5
:10173000FF1FEC55FF4F8591949190931203809376
:101740001103ECE9F0E0E491E093130387E0809368
:10175000F30286E08093F4021092F50261E087E0E4
:101760000E94FC0160E08091F4020E94FC0190E480
:10177000C92E9FE1D92EE12CF12CC092FA02D09211
:10178000FB02E092FC02F092FD028BE08093E80203
:1017900084E08093E9021092EA0261E08BE00E940B
:1017A000FC0160E08091E9020E94FC01C092EF021E
:1017B000D092F002E092F102F092F20283E0809384
:1017C000DD0288E08093DE021092DF0261E083E0B8
:1017D0000E94FC0160E08091DE020E94FC01C09248
:1017E000E402D092E502E092E602F092E7028DE098
:1017F0008093D2028FE08093D3021092D40261E0F2
:101800008DE00E94FC0160E08091D3020E94FC0107
:10181000C092D902D092DA02E092DB02F092DC02AE
:101820008FEF8093270310922903109228031092C0
:101830003303109232038FEF9FEFDC0180932E036E
:1018400090932F03A0933003B0933103FF90EF9058
:10185000DF90CF9008958FEF8093240300CF1092F4
:10186000030310920203109201031092000349CF68
:10187000789484B5826084BD84B5816084BD85B56B
:10188000826085BD85B5816085BD80916E00816077
:1018900080936E001092810080918100826080931D
:1018A000810080918100816080938100809180001F
:1018B0008160809380008091B10084608093B1004A
:1018C0008091B00081608093B00080917A00846044
:1018D00080937A0080917A00826080937A00809170
:1018E0007A00816080937A0080917A00806880938A
:1018F0007A001092C100809104039091050397FD36
:1019000008C061E00E94FC0160E0809104030E9435
:10191000CE0181E08093FF0264E670E080E090E019
:101920000E947D03409102035091030370E060E048
:1019300080910703909108030E942713E0911402FD
:10194000F091150282E08083E0911002F091110283
:101950001082E0911202F091130280E180831092D4
:101960001C02E0911802F091190286E08083E09158
:101970001602F0911702808180618083E091160247
:10198000F0911702808188608083E0911602F091C7
:101990001702808180688083E0911602F09117021F
:1019A00080818F7D808361E08EE00E94FC0161E098
:1019B0008EE00E94CE018BEF96E090930101809320
:1019C0000001809169008C7F816080936900E89AB2
:1019D00060E082E00E94FC01C09123038091240317
:1019E0008C3008F052C061E08C2F0E94FC01809185
:1019F0002403282F30E0F901EE0FFF1FE20FF31F41
:101A0000E355FD4FCF739081907C9C2B9083109277
:101A10002503109226032CE0622F0E941010829F53
:101A2000B001112430E020E0AB01420F531FFA0156
:101A3000EE0FFF1FE40FF51FE355FD4F908196FD5C
:101A400016C02F5F3F4F2C30310571F781110FC049
:101A50001092800082E080938100109285001092A5
:101A60008400B19A80916F00826080936F00E09152
:101A700024038E2F90E0FC01EE0FFF1FE80FF91FEB
:101A8000E355FD4F80818064808390E080E00E9478
:101A9000F6001092DA011092D9011092D80110923A
:101AA000D7010E941A058FEA93E09093D6018093A4
:101AB000D5018BEB93E09093D4018093D30188E020
:101AC0008093BA008BE595E09093DC018093DB0175
:101AD00081E896E09093DE018093DD010E94480644
:101AE000D1E000E0C0E08091F00181111DC010E064
:101AF0004D2F502F612F8C2F0E94D0061F5F183062
:101B0000B9F70E94AA0268E770E080E090E00E94C6
:101B10007D03C73031F0C11102C0D1E000E0CD0F2C
:101B2000E2CFDFEF0FEFFBCFD0E0C0E044E654E6BA
:101B300064E670E0CE010E948D002196C830D10588
:101B4000A9F70E94AA02F8941092B0001092B10076
:101B50008091B10087608093B100809170008460B3
:101B6000809370008FEF8093B4007894C8E3D0E046
:101B700020E0222E20E0322E88248394912CAA2467
:101B8000AA94BA2C2FB7F8948091FC019091FD0192
:101B9000A091FE01B091FF012FBF4091F70150913C
:101BA000F8016091F9017091FA01481759076A0725
:101BB0007B0708F0A4C00E9448062091ED013091F7
:101BC000EE018091EB019091EC01A901481B590BAA
:101BD000CA0157FF03C091958195910981359105FF
:101BE0007CF03093EC012093EB0183EF92E00E94B4
:101BF000D905BE010E941C107093EE016093ED01A7
:101C00002091E9013091EA018091E7019091E8018A
:101C1000A901481B590BCA0157FF03C09195819533
:101C20009109813591057CF03093E8012093E7011B
:101C300082ED92E00E94D905BE010E941C107093B3
:101C4000EA016093E9012091E5013091E60180917C
:101C5000E3019091E401A901481B590BCA0157FF08
:101C600003C0919581959109813591057CF0309360
:101C7000E4012093E3018DED92E00E94D905BE01BD
:101C80000E941C107093E6016093E5012091E10130
:101C90003091E2018091DF019091E001A901481BA0
:101CA000590BCA0157FF03C0919581959109813560
:101CB00091057CF03093E0012093DF0188EE92E003
:101CC0000E94D905BE010E941C107093E20160932E
:101CD000E1012FB7F8948091FC019091FD01A09152
:101CE000FE01B091FF012FBF0796A11DB11D80938A
:101CF000F7019093F801A093F901B093FA012FB77F
:101D0000F8948091FC019091FD01A091FE01B091A9
:101D1000FF012FBF4091F7015091F8016091F90147
:101D20007091FA01481759076A077B0708F094C0B9
:101D30000091F5011091F6016091F1017091F201AD
:101D40008091F3019091F4010E94A8109801261B44
:101D5000370BB901072E000C880B990B0E94E0107D
:101D60002B013C0140921B0350921C0360921D0307
:101D700070921E032AE939E949E95EE30E94951150
:101D800020911703309118034091190350911A03C1
:101D90000E9437106B017C0120911F0330912003BA
:101DA0004091210350912203C301B2010E943610D9
:101DB0009B01AC010E9437109B01AC01C701B60129
:101DC0000E9437106B017C0120E030E046E153ECCB
:101DD0000E94A31087FD72C020E030E046E153E48A
:101DE000C701B6010E94901118160CF46EC0C09283
:101DF0001703D0921803E0921903F0921A0340924D
:101E00001F03509220036092210370922203012B42
:101E100009F062C088EC90E00E942D0260E080E151
:101E20000E94CE0160E081E10E94CE012FB7F894BC
:101E30008091FC019091FD01A091FE01B091FF0104
:101E40002FBF0F96A11DB11D8093F7019093F8014C
:101E5000A093F901B093FA018091F001811122C0A1
:101E600000E01091EF014091050150910601602FB3
:101E7000812F0E94D0060F5F083099F70E94AA02B6
:101E800068E770E080E090E00E947D03173009F081
:101E90004DC0B0920601A092050180910501180F76
:101EA0001093EF012114310409F46CCE0E94500408
:101EB000882309F467CE0E94000064CEC12CD12C87
:101EC00096E1E92E93ECF92E92CFC12CD12C86E12C
:101ED000E82E83E4F82E8BCFC701B6010E94A8102C
:101EE0006B01CB01181619067CF481E08093040184
:101EF00061E080E10E94CE0160E081E10E94CE01BC
:101F0000C6010E942D0292CF892B09F483CF109233
:101F1000040160E080E10E94CE0161E081E10E9465
:101F2000CE01882799278C199D09EBCF1111B5CFC8
:101F30009092060180920501B0CF809107039091A5
:101F400008030E949E12809104039091050397FD5F
:101F500003C060E00C94FC010895052E97FB1EF46D
:101F600000940E94C40F57FD07D00E94DF0F07FCAA
:101F700003D04EF40C94C40F5095409530952195A4
:101F80003F4F4F4F5F4F08959095809570956195A5
:101F90007F4F8F4F9F4F08950E940110A59F900D76
:101FA000B49F900DA49F800D911D11240895B7FF3B
:101FB0000C94CC0F0E94CC0F821B930B0895A1E2CE
:101FC0001A2EAA1BBB1BFD010DC0AA1FBB1FEE1FB3
:101FD000FF1FA217B307E407F50720F0A21BB30BFE
:101FE000E40BF50B661F771F881F991F1A9469F77A
:101FF00060957095809590959B01AC01BD01CF01D6
:102000000895A29FB001B39FC001A39F700D811DD1
:102010001124911DB29F700D811D1124911D0895F1
:10202000991B79E004C0991F961708F0961B881F2A
:102030007A95C9F780950895AA1BBB1B51E107C08B
:10204000AA1FBB1FA617B70710F0A61BB70B881F48
:10205000991F5A95A9F780959095BC01CD010895D7
:10206000EE0FFF1F0590F491E02D09945058BB2707
:10207000AA270E944E100C9456110E94481138F065
:102080000E944F1120F039F49F3F19F426F40C946C
:1020900045110EF4E095E7FB0C943F11E92F0E94E7
:1020A000671158F3BA17620773078407950720F082
:1020B00079F4A6F50C9489110EF4E0950B2EBA2F45
:1020C000A02D0B01B90190010C01CA01A00111243E
:1020D000FF27591B99F0593F50F4503E68F11A16EA
:1020E000F040A22F232F342F4427585FF3CF46957B
:1020F00037952795A795F0405395C9F77EF41F169D
:10210000BA0B620B730B840BBAF09150A1F0FF0F66
:10211000BB1F661F771F881FC2F70EC0BA0F621F52
:10212000731F841F48F4879577956795B795F79542
:102130009E3F08F0B0CF9395880F08F09927EE0FD7
:102140009795879508950E941B1108F481E00895E2
:102150000E94AF106894B1110C948A1108950E94E6
:102160006F1188F09F5798F0B92F9927B751B0F0A9
:10217000E1F0660F771F881F991F1AF0BA95C9F70B
:1021800014C0B13091F00E948911B1E008950C940F
:102190008911672F782F8827B85F39F0B93FCCF3C2
:1021A000869577956795B395D9F73EF49095809588
:1021B000709561957F4F8F4F9F4F0895E89409C0A8
:1021C00097FB3EF490958095709561957F4F8F4F6A
:1021D0009F4F9923A9F0F92F96E9BB279395F69580
:1021E000879577956795B795F111F8CFFAF4BB0FFE
:1021F00011F460FF1BC06F5F7F4F8F4F9F4F16C062
:10220000882311F096E911C0772321F09EE8872FEB
:10221000762F05C0662371F096E8862F70E060E0A7
:102220002AF09A95660F771F881FDAF7880F969520
:10223000879597F90895990F0008550FAA0BE0E8C4
:10224000FEEF16161706E807F907C0F01216130678
:10225000E407F50798F0621B730B840B950B39F4B8
:102260000A2661F0232B242B252B21F408950A261E
:1022700009F4A140A6958FEF811D811D089597F95E
:102280009F6780E870E060E008959FEF80EC08951C
:1022900000240A9416161706180609060895002445
:1022A0000A9412161306140605060895092E0394BF
:1022B000000C11F4882352F0BB0F40F4BF2B11F433
:1022C00060FF04C06F5F7F4F8F4F9F4F089557FD92
:1022D0009058440F551F59F05F3F71F04795880F94
:1022E00097FB991F61F09F3F79F08795089512162B
:1022F00013061406551FF2CF4695F1DF08C01616D7
:1023000017061806991FF1CF869571056105089487
:102310000895E894BB2766277727CB0197F908959E
:102320000E941B1108F48FEF08950E94A8110C94CD
:1023300056110E94481138F00E944F1120F0952349
:1023400011F00C943F110C94451111240C948A1136
:102350000E94671170F3959FC1F3950F50E0551FD0
:10236000629FF001729FBB27F00DB11D639FAA27EA
:10237000F00DB11DAA1F649F6627B00DA11D661F39
:10238000829F2227B00DA11D621F739FB00DA11D5A
:10239000621F839FA00D611D221F749F3327A00D14
:1023A000611D231F849F600D211D822F762F6A2FB0
:1023B00011249F5750409AF0F1F088234AF0EE0F15
:1023C000FF1FBB1F661F771F881F91505040A9F742
:1023D0009E3F510580F00C943F110C948A115F3F91
:1023E000E4F3983ED4F3869577956795B795F7957E
:1023F000E7959F5FC1F7FE2B880F911D96958795F6
:1024000097F908950F931F93CF93DF93823091052F
:1024100010F482E090E0E0913603F091370330E071
:1024200020E0B0E0A0E0309799F42115310509F4DF
:102430004AC0281B390B24303105D8F58A819B818D
:102440006115710589F1FB0193838283FE0111C03F
:10245000408151810281138148175907E0F04817E4
:10246000590799F4109761F012960C9312971396EE
:102470001C933296CF01DF91CF911F910F91089558
:102480000093360310933703F4CF2115310551F033
:102490004217530738F0A901DB019A01BD01DF01A2
:1024A000F801C1CFEF01F9CF909337038093360342
:1024B000CDCFFE01E20FF31F81939193225031099A
:1024C00039832883D7CF2091340330913503232BD0
:1024D00041F42091090130910A0130933503209392
:1024E000340320910701309108012115310541F491
:1024F0002DB73EB740910B0150910C01241B350BB9
:10250000E0913403F0913503E217F307A0F42E1B9A
:102510003F0B2817390778F0AC014E5F5F4F241747
:10252000350748F04E0F5F1F509335034093340337
:10253000819391939FCFF0E0E0E09CCFCF93DF9326
:102540000097E9F0FC01329713821282A0913603C2
:10255000B0913703ED0130E020E01097A1F4208125
:102560003181820F931F2091340330913503281756
:10257000390709F061C0F0933503E0933403DF912C
:10258000CF910895EA01CE17DF07E8F54A815B8114
:102590009E0141155105B1F7E901FB83EA83499199
:1025A0005991C40FD51FEC17FD0761F4808191810B
:1025B0000296840F951FE901998388838281938114
:1025C0009B838A83F0E0E0E012968D919C911397B3
:1025D0000097B9F52D913C911197CD010296820F8C
:1025E000931F20913403309135032817390739F6AA
:1025F000309751F51092370310923603B09335039C
:10260000A0933403BCCFD383C28340815181840F14
:10261000951FC817D90761F44E5F5F4F8881998174
:10262000480F591F518340838A819B819383828302
:102630002115310509F0B0CFF0933703E09336034D
:102640009ECFFD01DC01C0CF13821282D7CFDC0107
:1026500001C06D9341505040E0F7089510E0C2E68C
:10266000D0E004C0FE010E9430102196C336D1078D
:06267000C9F7F894FFCF4A
:10267600E503E503010100000038038000000000C7
:10268600008604E6031304D304440422043604003B
:10269600000000C005B505D6053805AE0548053964
:0226A60005002D
:00000001FF
