:100000000C9463000C94DE060C94B7060C948B00E1
:100010000C948B000C948B000C948B000C948B0034
:100020000C94E0080C948B000C948B000C94240826
:100030000C948B000C948B000C948B000C948B0014
:100040000C946D060C948B000C948B000C948B001C
:100050000C948B000C948B000C948B000C948B00F4
:100060000C9405070C948B0000000000240027006E
:100070002A000000000023002600290000000008DC
:10008000000201000003040700000000000000005F
:10009000010204081020408001020408102001021F
:1000A0000408102000000000250028002B00040494
:1000B0000404040404040202020202020303030310
:1000C00003033909D70C11241FBECFEFD8E0DEBFE0
:1000D000CDBF11E0A0E0B1E0EAEDF0E202C0059092
:1000E0000D92AE31B107D9F722E0AEE1B1E001C027
:1000F0001D92AE37B207E1F710E0C2E6D0E004C0CF
:100100002197FE010E94620DC136D107C9F70E94F6
:10011000730A0C9460100C9400004F925F926F92DF
:100120007F928F929F92AF92BF92FF922091460250
:10013000309147028217930708F043C02B016624D1
:100140007724852E962EA72EBB24B82DA42F209180
:100150004C02F42C222391F0E22FF0E0E49DD00138
:10016000E59DB00DF49DB00D1124FB2E289D40019E
:100170001124B92D249F90011124A32FE091520244
:1001800020914D0230914E0250914F02E51323C051
:10019000FC01EE0FFF1F8E0F9F1F820F931FE09138
:1001A0004F02E80FF92FF11DF082E0915002E80FA5
:1001B000F92FF11DB08320915102820F911DFC0196
:1001C000A083FF90BF90AF909F908F907F906F9093
:1001D0005F904F900895880F991F880F991F820F85
:1001E000931FE80FF92FF11D1082D9CF8F929F92A4
:1001F000AF92BF92FF920F931F93CF93DF93F09034
:100200006A022BE02F1508F458C020916C0208E513
:1002100012E0021B110927FD1395000F111F000F9B
:10022000111F20916B02C8E8D0E0C21BD10927FD45
:10023000D395CC0FDD1FCC0FDD1F4E010D2E000C12
:10024000AA08BB08DC01819714F0A0E2B0E0A03E50
:100250008FEFB80714F4A0EEBFEFAC5ABF4F980170
:10026000012E000C440B550B281939094A095B096A
:100270000E94060D24EB30E040E050E00E94E70CC5
:10028000820E931EA41EB51E8C169D062CF0E8014E
:10029000801691060CF4E4012297CC0FDD1F2FB7D6
:1002A000F8948F2D90E0FC01EE0FFF1FE80FF91F6F
:1002B000ED50FE4FD283C1832FBFDF91CF911F91AD
:1002C0000F91FF90BF90AF909F908F9008958330D3
:1002D00081F028F4813099F08230A9F008958730B8
:1002E000A9F08830C9F08430B1F4809180008F7D0E
:1002F00003C0809180008F7780938000089584B53B
:100300008F7784BD089584B58F7DFBCF8091B00039
:100310008F778093B00008958091B0008F7DF9CFE2
:10032000CF93DF93282F30E0F901E458FF4F8491F9
:10033000F901E057FF4FD491F901E255FF4FC49105
:10034000CC23A1F081110E946701EC2FF0E0EE0FA9
:10035000FF1FEE58FF4FA591B491EC91ED2381E082
:1003600090E009F480E0DF91CF91089580E090E083
:10037000FACF1F93CF93DF93282F30E0F901E45891
:10038000FF4F8491F901E057FF4FD491F901E255F5
:10039000FF4FC491CC23A9F0162F81110E94670151
:1003A000EC2FF0E0EE0FFF1FEC55FF4FA591B4913D
:1003B0008FB7F894EC91111108C0D095DE23DC932F
:1003C0008FBFDF91CF911F910895DE2BF8CFCF9390
:1003D000DF9390E0FC01E057FF4F249182559F4F3F
:1003E000FC0184918823D1F090E0880F991FFC01D3
:1003F000E859FF4FA591B491FC01EC55FF4FC59111
:10040000D49161110EC09FB7F8948C91E22FE095C2
:100410008E238C932881E223E8839FBFDF91CF91C5
:1004200008958FB7F894EC91E22BEC938FBFF6CF41
:10043000CF93DF93EC0161E085E00E94E701209714
:1004400031F460E085E0DF91CF910C94B901CF3FAA
:10045000D10511F461E0F6CFE1E8F0E0E491E3309A
:1004600029F140F4E130B1F0E230D9F0C038D105E3
:100470008CF7E7CFE73021F1E83051F1E430B1F704
:1004800080918000806280938000D0938B00C09325
:100490008A0004C084B5806884BDC7BDDF91CF9158
:1004A000089584B5806284BDC8BDF8CF8091800076
:1004B000806880938000D0938900C0938800EECF3D
:1004C0008091B00080688093B000C093B300E6CF05
:1004D0008091B00080628093B000C093B400DECF02
:1004E000CF93DF93EC0197FD10C081E0809304016E
:1004F00061E080E10E94B90160E081E10E94B90100
:10050000CE01DF91CF910C9418021092040160E0AB
:1005100080E10E94B90161E081E10E94B901882770
:1005200099278C1B9D0BEDCF3FB7F8948091E30189
:100530009091E401A091E501B091E60126B5A89B58
:1005400005C02F3F19F00196A11DB11D3FBFBA2F65
:10055000A92F982F8827BC01CD01620F711D811D25
:10056000911D42E0660F771F881F991F4A95D1F7AA
:1005700008950F931F93CF93DF93CDB7DEB72997DD
:100580000FB6F894DEBF0FBECDBF0E94940200915B
:100590005302109154022091550230915602601777
:1005A00071078207930740F46093530270935402DB
:1005B0008093550290935602009153021091540279
:1005C0002091550230915602601B710B820B930BE8
:1005D0006C32714081059105C0F2F8948091480217
:1005E000909149029A838983E0914D02F0914E02E5
:1005F000DF0111968081898790914402E091570232
:10060000F091580280915902992309F445C09081D4
:10061000982B98879081809589238F838F818C83F5
:1006200088E08B8358856F8149853B812C81898146
:100630009A81508347FD252F3A952083262F39F044
:10064000441F00C000006083000000C0F2CF38E00B
:100650004D9160830000019761F7F0935802E09399
:10066000570249873B832C839A83898378940E941D
:1006700094026093530270935402809355029093B6
:10068000560229960FB6F894DEBF0FBECDBFDF919C
:10069000CF911F910F9108959081982B9887908109
:1006A000809589238F838F818E8388E08D83588501
:1006B0006F8149853D812E8189819A81508347FDD3
:1006C000252F00C000C0208300C000C000C000C0B3
:1006D00000C060830000262F3A9541F0441F0000BF
:1006E00000C000C000C000C000C0E8CF38E04D919D
:1006F00000C0608300C0019709F7F0935802E093AF
:10070000570249873D832E83AFCF8F929F92AF923E
:10071000BF92CF92DF92EF92FF924B015C010E9459
:1007200094026B017C010E9494026C197D098E0970
:100730009F09683E734081059105A8F321E0821A64
:100740009108A108B10888EEC80E83E0D81EE11C0C
:10075000F11C81149104A104B10429F7FF90EF90DA
:10076000DF90CF90BF90AF909F908F900895E091D1
:10077000D101F091D201309729F01092CC01109262
:10078000CB0109940895CF93DF93AC01E091CF01A1
:10079000F091D0013097F1F09091CE018091CD0190
:1007A0009817C0F090E0292F30E02617370754F44F
:1007B000D901A95CBE4F240F351FE90128812C9374
:1007C0009F5FF1CF1092CE016093CD01CB01DF91FD
:1007D000CF910994DF91CF910895089520917D01E3
:1007E000260F3327331F21323105ECF42091A1016C
:1007F000FC0190E080E0243069F082E00895A0914F
:100800007D012191AC01435A5E4FA40FB52FB11D5C
:100810002C930196861798F380917D01680F609361
:100820007D0180E0089581E008951092A10181E0AA
:100830008093A3011092A20161E082E10E94B901BC
:1008400061E083E10E94B901E9EBF0E080818E7FF5
:10085000808380818D7F808388E48093B80085E4E5
:100860008093BC0008950895E091CE018091CD0160
:10087000E81730F4F0E0E95CFE4F808190E00895E5
:100880008FEF9FEF08959091CE018091CD012FEFD2
:100890003FEF981748F4E92FF0E0E95CFE4F208124
:1008A00030E09F5F9093CE01C9010895EF92FF92CF
:1008B0001F93CF93DF93EC0111E01C161D060CF083
:1008C00043C087EE91E00E94430480932601219764
:1008D0008330B1F487EE91E00E9443047C0187EEFF
:1008E00091E00E94430401978E9D90018F9D300DF1
:1008F0009E9D300D11243093D9012093D801DDCF76
:100900008430A9F487EE91E00E9443047C0187EED5
:1009100091E00E94430401979C012E9DC0012F9DF0
:10092000900D3E9D900D11240E94F600C6CF85309B
:1009300021F687EE91E00E944304682F8EE00E942A
:10094000B9011093D301B9CFDF91CF911F91FF90DF
:10095000EF9008958091CD019091CE01891B990B64
:100960000895CF93DF93CB01EA01642F0E94EE0339
:10097000CE01DF91CF910895CF93DF931F92CDB732
:10098000DEB7698361E0CE0101960E94EE0381E04B
:1009900090E00F90DF91CF910895682F87EE91E05E
:1009A0000C94BC0490E080E008950F931F93CF93C4
:1009B000DF93EC018A81882321F061E088810E9425
:1009C000E70160E088810E94B90183E090E001972F
:1009D000F1F761E088810E94B90183E290E001971C
:1009E000F1F760E088810E94B9018A81882321F0B3
:1009F00060E088810E94E7010E9494026B837C83FF
:100A00008D839E8389810E949001892B99F40E9495
:100A100094020B811C812D813E81601B710B820B26
:100A2000930B0F81188529853A8506171707280724
:100A3000390740F70E9494026B837C838D839E83E9
:100A400089810E949001892B99F00E9494020B8168
:100A50001C812D813E81601B710B820B930B0F81DA
:100A6000188529853A85061717072807390740F79B
:100A70000E9494022B813C81CB01821B930BDF915E
:100A8000CF911F910F910895CF93DF93809104012F
:100A9000882331F189E392E00E94D504C8E3D0E0D5
:100AA000BE010E944E0D70933301609332018EE2BD
:100AB00092E00E94D504BE010E944E0D7093310158
:100AC0006093300183E292E00E94D504BE010E944F
:100AD0004E0D70932F0160932E01DF91CF910895F9
:100AE00088E192E00E94D50468E370E00E944E0D18
:100AF0007093350160933401F0CF809126018130ED
:100B000081F58091220190912301A0912401B0915F
:100B1000250180931E018091220190912301A091D3
:100B20002401B091250190931F01809122019091A1
:100B30002301A0912401B0912501A093200180916F
:100B4000220190912301A0912401B0912501B0933D
:100B5000210144E050E06EE171E087EE91E00C94F9
:100B6000B1048230C1F480913201909133010E942E
:100B7000CD0480913001909131010E94CD0480918B
:100B80002E0190912F010E94CD048091340190910B
:100B900035010C94CD04089580910401882339F126
:100BA0008091290190912A01A0912B01B0912C01F3
:100BB0000196A11DB11D8093290190932A01A09354
:100BC0002B01B0932C018091220190912301A091DF
:100BD0002401B09125010196A11DB11D8093220130
:100BE00090932301A0932401B0932501089580914F
:100BF000290190912A01A0912B01B0912C0101971C
:100C0000A109B1098093290190932A01A0932B0196
:100C1000B0932C018091220190912301A091240195
:100C2000B09125010197A109B109D8CFCF93DF93E6
:100C300085ED8093BC008091590190915A01A0915B
:100C40005B01B0915C010796A11DB11D23E0B69533
:100C5000A795979587952A95D1F72091BC0024FDFB
:100C600003C01092A10136C04091590150915A0120
:100C700060915B0170915C01452B462B472B69F31A
:100C80000097A105B10541F025E32A95F1F7000091
:100C90000197A109B109E1CF8091580191E09093AA
:100CA00057018823B9F0C091B800D091BA00809163
:100CB000BC008A7B8093BC0060E082E10E94B901A5
:100CC00060E083E10E94B9010E941504D093BA004C
:100CD000C093B800DF91CF9108951F920F920FB685
:100CE0000F9211242F933F938F939F93AF93BF93B2
:100CF0008091DF019091E001A091E101B091E201CA
:100D00003091DE0123E0230F2D3758F50196A11D08
:100D1000B11D2093DE018093DF019093E001A09349
:100D2000E101B093E2018091E3019091E401A0918F
:100D3000E501B091E6010196A11DB11D8093E3018B
:100D40009093E401A093E501B093E601BF91AF91C8
:100D50009F918F913F912F910F900FBE0F901F90F9
:100D6000189526E8230F0296A11DB11DD2CF1F9220
:100D70000F920FB60F9211242F933F934F935F93CF
:100D80006F937F938F939F93AF93BF93EF93FF9353
:100D9000E0910201F09103010995FF91EF91BF915C
:100DA000AF919F918F917F916F915F914F913F9103
:100DB0002F910F900FBE0F901F9018951F920F92BA
:100DC0000FB60F9211242F933F934F935F936F931E
:100DD0007F938F939F93AF93BF93EF93FF93E09194
:100DE0000001F09101010995FF91EF91BF91AF9141
:100DF0009F918F917F916F915F914F913F912F9133
:100E00000F900FBE0F901F9018951F920F920FB664
:100E10000F9211242F933F934F935F936F937F9380
:100E20008F939F93AF93BF93EF93FF938091B900FC
:100E3000887F803609F44AC0F0F5883209F4A7C0EB
:100E400018F5803109F49BC0B8F4882309F4F9C07F
:100E5000883009F494C0FF91EF91BF91AF919F91B9
:100E60008F917F916F915F914F913F912F910F9053
:100E70000FBE0F901F901895883109F488C08032FA
:100E800051F78093A00114C0803409F49DC040F450
:100E90008033B9F38833F9F68093A00185ECB0C0B4
:100EA000803509F485C0883509F496C0883499F6F0
:100EB0000E941606D0CF883909F48CC038F58837DF
:100EC00029F050F4883611F0803729F683E08093BA
:100ED000A10110929F0157C0883809F47BC0803966
:100EE00019F0803809F0B7CF80919F01803208F067
:100EF00071C0E0919F0181E08E0F80939F018091EE
:100F0000BB00F0E0E158FE4F80833DC0803B39F0EC
:100F1000E0F4803A09F479C0883A09F09CCF84E083
:100F20008093A10110927E0110927D01E091C90190
:100F3000F091CA01099580917D0181110FC081E076
:100F400080937D0110925D0109C0803C09F4A6CF19
:100F5000883C09F4A3CF883B09F07DCFE0917E0166
:100F600081E08E0F80937E01F0E0E35AFE4F808196
:100F70008093BB0090917E0180917D0129C080917A
:100F8000C6018093BB0085EC8093BC0064CF909138
:100F9000C5018091C401981758F5E091C50181E021
:100FA0008E0F8093C501F0E0EC55FE4F8081E9CFB4
:100FB000E091C50181E08E0F8093C5018091BB0057
:100FC000F0E0EC55FE4F80839091C5018091C40103
:100FD0009817C8F285E8D8CFE091C50181E08E0F5F
:100FE0008093C5018091BB00F0E0EC55FE4F8083FB
:100FF0008091A30181115CCF81E08093A20184EAFA
:101000008093BC001092A10126CF85EC8093BC0098
:101010001092A10180919F01803230F4E0919F01F4
:10102000F0E0E158FE4F108260919F0170E0E09186
:10103000C701F091C8018FE791E0099510929F01D7
:101040000ACF1092A00134CF1F920F920FB60F92C9
:1010500011242F933F934F935F936F937F938F93BD
:101060009F93AF93BF93CF93DF93EF93FF938091C1
:101070003601C0911702D0E087FF24C0109285008E
:1010800010928400809136018F5F809336018091A9
:101090003601082E000C990B8C179D0724F48091C3
:1010A00036018C30C4F180918400909185000496C3
:1010B00080349C4908F47AC0809184009091850026
:1010C000049676C080913601082E000C990B8C177F
:1010D0009D07C4F6E09136018E2FEE0F990BFC01AF
:1010E000EE0FFF1FE80FF91FED50FE4F808186FFC6
:1010F000C9CFE09136018E2FEE0F990BFC01EE0F58
:10110000FF1FE80FF91FED50FE4F808160E08F73E5
:101110000E94B901B7CF2091840030918500E09101
:1011200036018E2FEE0F990BFC01EE0FFF1FE80F1B
:10113000F91FED50FE4F81819281820F931F909392
:10114000890080938800E09136018E2FEE0F990B75
:10115000FC01EE0FFF1FE80FF91FED50FE4F8081DD
:1011600086FF11C0E09136018E2FEE0F990BFC0126
:10117000EE0FFF1FE80FF91FED50FE4F808161E079
:101180008F730E94B901FF91EF91DF91CF91BF91D1
:10119000AF919F918F917F916F915F914F913F910F
:1011A0002F910F900FBE0F901F90189580E49CE92F
:1011B00090938900809388008FEF80933601E3CF6E
:1011C0001F920F920FB60F9211242F933F934F93BC
:1011D0005F936F937F938F939F93AF93BF93EF939F
:1011E000FF9380912D01882309F43FC0609129016C
:1011F00070912A0180912B0190912C010E94120E76
:101200006093D4017093D5018093D6019093D70158
:101210008091290190912A01A0912B01B0912C017C
:101220002091270130912801820F931F909328016C
:10123000809327011092290110922A0110922B010C
:1012400010922C0110922D01FF91EF91BF91AF915F
:101250009F918F917F916F915F914F913F912F91CE
:101260000F900FBE0F901F90189581E080932D0175
:10127000EBCFCF92DF92EF92FF921092EA011092A1
:10128000E90188EE93E0A0E0B0E08093EB01909359
:10129000EC01A093ED01B093EE018FE091E090930B
:1012A000E8018093E701809117028C3008F00EC1AD
:1012B00091E0980F9093170280936A0290E0FC01EE
:1012C000EE0FFF1FE80FF91FED50FE4F88EB9BE07C
:1012D0009283818389E08093690210925D0210926B
:1012E0005E0210925F021092600285E080935A02C3
:1012F00080E180935B0281E180935C0261E085E0A4
:101300000E94E70161E080E10E94E70161E081E184
:101310000E94E7011092450210924C021092530273
:1013200010925402109255021092560281E080935E
:10133000520280934F021092500292E09093510219
:101340008093440288E190E09093490280934802A0
:101350000E94340F90934E0280934D02009709F43F
:10136000B9C028E1FC0111922A95E9F788E090E0E4
:1013700090934702809346028CE090E090934B025A
:1013800080934A0280914502882341F061E08CE01D
:101390000E94E70160E08CE00E94B901EAEBF0E016
:1013A000E491F0E0EE0FFF1FEC55FF4F8591949113
:1013B0009093580280935702ECE9F0E0E491E093B7
:1013C00059028BE08093390284E080933A021092B4
:1013D0003B0261E08BE00E94E70160E080913A020D
:1013E0000E94E70190E1C92E97E2D92EE12CF12C61
:1013F000C0924002D0924102E0924202F092430237
:1014000083E080932E0288E080932F0210923002B6
:1014100061E083E00E94E70160E080912F020E947A
:10142000E701C0923502D0923602E0923702F09284
:10143000380287E08093230286E080932402109292
:10144000250261E087E00E94E70160E080912402CC
:101450000E94E701C0922A02D0922B02E0922C0255
:10146000F0922D028DE0809318028FE08093190294
:1014700010921A0261E08DE00E94E70160E0809125
:1014800019020E94E701C0921F02D0922002E0924E
:101490002102F09222028FEF80936D0210926F0270
:1014A00010926E0210927902109278028FEF9FEFE5
:1014B000DC018093740290937502A0937602B0933E
:1014C0007702FF90EF90DF90CF9008958FEF809399
:1014D0006A0200CF1092490210924802109247020D
:1014E0001092460249CF789484B5826084BD84B559
:1014F000816084BD85B5826085BD85B5816085BD0F
:1015000080916E00816080936E00109281008091C6
:10151000810082608093810080918100816080934E
:101520008100809180008160809380008091B10073
:1015300084608093B1008091B00081608093B0009E
:1015400080917A00846080937A0080917A00826032
:1015500080937A0080917A00816080937A008091F4
:101560007A00806880937A001092C10080914A02CC
:1015700090914B0297FD08C061E00E94E70160E096
:1015800080914A020E94B90181E08093450264E69D
:1015900070E080E090E00E94850340914802509105
:1015A000490270E060E080914D0290914E020E94ED
:1015B000591061E08EE00E94E70161E08EE00E9438
:1015C000B90160E082E00E94E7018CEC95E0909325
:1015D000010180930001809169008C7F816080937C
:1015E0006900E89AC091690280916A028C3008F023
:1015F00052C061E08C2F0E94E70180916A02282F7F
:1016000030E0F901EE0FFF1FE20FF31FED50FE4F28
:10161000CF739081907C9C2B908310926B021092E0
:101620006C022CE0622F0E94420D829FB0011124B7
:1016300030E020E0AB01420F531FFA01EE0FFF1F15
:10164000E40FF51FED50FE4F908196FD16C02F5F01
:101650003F4F2C30310571F781110FC0109280007F
:1016600082E0809381001092850010928400B19AEC
:1016700080916F00826080936F00E0916A028E2FEC
:1016800090E0FC01EE0FFF1FE80FF91FED50FE4F39
:1016900080818064808390E080E00E94F600109258
:1016A000CE011092CD011092CC011092CB010E947C
:1016B000150487EB93E09093CA018093C90183ECF2
:1016C00093E09093C8018093C70188E08093BA00AB
:1016D00086E594E09093D0018093CF018DE795E06B
:1016E0009093D2018093D1010E94440501E0912C96
:1016F00010E08091D301811148C0E02EF92C1E9D8D
:1017000050011F9DB00C1124D12CC12CD0E0C0E0A1
:1017100040E050E06EE170E01C1799F0C6018A19B4
:101720009B0940E050E06CE070E08F3F980749F083
:1017300040E050E064E070E0029619F040E050E0D4
:10174000BA01CE010E948D002196CE0CDF1CC8305C
:10175000D105F1F680914D0290914E02892B11F046
:101760000E94B90268E770E080E090E00E94850383
:10177000173021F0112331F0100FBBCF0FEF992458
:101780009A94FACF01E0912CF7CFD0E0C0E044E684
:1017900054E664E670E0CE010E948D002196C830C8
:1017A000D105A9F780914D0290914E02892B11F03D
:1017B0000E94B902F8941092B0001092B10080918A
:1017C000B10087608093B100809170008460809345
:1017D00070008FEF8093B400789400E010E02FB792
:1017E000F8948091DF019091E001A091E101B09126
:1017F000E2012FBF4091DA015091DB016091DC01E1
:101800007091DD01481759076A077B07C0F40E94F1
:1018100044052FB7F8948091DF019091E001A091E9
:10182000E101B091E2012FBF0596A11DB11D80938A
:10183000DA019093DB01A093DC01B093DD012FB7B7
:10184000F8948091DF019091E001A091E101B091C5
:10185000E2012FBF4091DA015091DB016091DC0180
:101860007091DD01481759076A077B0708F091C09E
:10187000C091D801D091D9016091D4017091D50166
:101880008091D6019091D7010E94DA0D9E01261B0E
:10189000370BB901072E000C880B990B0E94120E12
:1018A0004B015C018092610290926202A0926302FD
:1018B000B09264022DEC3CEC4CEC5DE30E94C70E50
:1018C00020915D0230915E0240915F025091600272
:1018D0000E94690D6B017C012091650230916602C6
:1018E0004091670250916802C501B4010E94680DE1
:1018F0009B01AC01C701B6010E94690D6B017C011F
:1019000020E030E046E153EC0E94D50D87FD48C051
:1019100020E030E046E153E4C701B6010E94C20E68
:10192000181634F4C12CD12C96E1E92E93E4F92E4B
:10193000C0925D02D0925E02E0925F02F09260027D
:101940008092650290926602A0926702B09268024D
:1019500090E080E0CD2B29F0C701B6010E94DA0D9E
:10196000CB010E9470022FB7F8948091DF01909113
:10197000E001A091E101B091E2012FBF0F96A11DFE
:10198000B11D8093DA019093DB01A093DC01B09349
:10199000DD010115110509F422CF0E9400001FCFBF
:1019A000C12CD12C86E1E82E83ECF82EC1CF80919A
:1019B0004D0290914E020E94D00F80914A02909168
:1019C0004B0297FD03C060E00C94E7010895052EDB
:1019D00097FB1EF400940E94FE0C57FD07D00E9456
:1019E000110D07FC03D04EF40C94FE0C509540955D
:1019F000309521953F4F4F4F5F4F089590958095BB
:101A0000709561957F4F8F4F9F4F08950E94330DC2
:101A1000A59F900DB49F900DA49F800D911D112442
:101A20000895A1E21A2EAA1BBB1BFD010DC0AA1F1F
:101A3000BB1FEE1FFF1FA217B307E407F50720F037
:101A4000A21BB30BE40BF50B661F771F881F991FB2
:101A50001A9469F760957095809590959B01AC01FB
:101A6000BD01CF010895A29FB001B39FC001A39F04
:101A7000700D811D1124911DB29F700D811D1124C7
:101A8000911D0895991B79E004C0991F961708F0DD
:101A9000961B881F7A95C9F780950895AA1BBB1BD2
:101AA00051E107C0AA1FBB1FA617B70710F0A61B5E
:101AB000B70B881F991F5A95A9F780959095BC017F
:101AC000CD010895EE0FFF1F0590F491E02D0994CC
:101AD0005058BB27AA270E94800D0C94880E0E94A4
:101AE0007A0E38F00E94810E20F039F49F3F19F4ED
:101AF00026F40C94770E0EF4E095E7FB0C94710E2F
:101B0000E92F0E94990E58F3BA17620773078407EA
:101B1000950720F079F4A6F50C94BB0E0EF4E09531
:101B20000B2EBA2FA02D0B01B90190010C01CA0197
:101B3000A0011124FF27591B99F0593F50F4503E42
:101B400068F11A16F040A22F232F342F4427585F34
:101B5000F3CF469537952795A795F0405395C9F74C
:101B60007EF41F16BA0B620B730B840BBAF0915004
:101B7000A1F0FF0FBB1F661F771F881FC2F70EC0A3
:101B8000BA0F621F731F841F48F487957795679576
:101B9000B795F7959E3F08F0B0CF9395880F08F062
:101BA0009927EE0F9795879508950E944D0E08F49A
:101BB00081E008950E94E10D6894B1110C94BC0E6F
:101BC00008950E94A10E88F09F5798F0B92F992789
:101BD000B751B0F0E1F0660F771F881F991F1AF018
:101BE000BA95C9F714C0B13091F00E94BB0EB1E0B4
:101BF00008950C94BB0E672F782F8827B85F39F0B3
:101C0000B93FCCF3869577956795B395D9F73EF4B0
:101C100090958095709561957F4F8F4F9F4F089558
:101C2000E89409C097FB3EF4909580957095619576
:101C30007F4F8F4F9F4F9923A9F0F92F96E9BB272C
:101C40009395F695879577956795B795F111F8CFA8
:101C5000FAF4BB0F11F460FF1BC06F5F7F4F8F4F13
:101C60009F4F16C0882311F096E911C0772321F009
:101C70009EE8872F762F05C0662371F096E8862FA1
:101C800070E060E02AF09A95660F771F881FDAF7F8
:101C9000880F9695879597F90895990F0008550F25
:101CA000AA0BE0E8FEEF16161706E807F907C0F0E2
:101CB00012161306E407F50798F0621B730B840BEA
:101CC000950B39F40A2661F0232B242B252B21F4C4
:101CD00008950A2609F4A140A6958FEF811D811D64
:101CE000089597F99F6780E870E060E008959FEF9E
:101CF00080EC089500240A941616170618060906A3
:101D0000089500240A941216130614060506089571
:101D1000092E0394000C11F4882352F0BB0F40F4F9
:101D2000BF2B11F460FF04C06F5F7F4F8F4F9F4F39
:101D3000089557FD9058440F551F59F05F3F71F0BB
:101D40004795880F97FB991F61F09F3F79F0879522
:101D50000895121613061406551FF2CF4695F1DFAB
:101D600008C0161617061806991FF1CF869571053B
:101D7000610508940895E894BB2766277727CB016F
:101D800097F908950E944D0E08F48FEF08950E9470
:101D9000DA0E0C94880E0E947A0E38F00E94810EA2
:101DA00020F0952311F00C94710E0C94770E1124F1
:101DB0000C94BC0E0E94990E70F3959FC1F3950F81
:101DC00050E0551F629FF001729FBB27F00DB11DBF
:101DD000639FAA27F00DB11DAA1F649F6627B00D4F
:101DE000A11D661F829F2227B00DA11D621F739F38
:101DF000B00DA11D621F839FA00D611D221F749F46
:101E00003327A00D611D231F849F600D211D822F8C
:101E1000762F6A2F11249F5750409AF0F1F08823B3
:101E20004AF0EE0FFF1FBB1F661F771F881F9150E0
:101E30005040A9F79E3F510580F00C94710E0C9410
:101E4000BC0E5F3FE4F3983ED4F386957795679593
:101E5000B795F795E7959F5FC1F7FE2B880F911D0A
:101E60009695879597F908950F931F93CF93DF93D6
:101E70008230910510F482E090E0E0917C02F091D4
:101E80007D0230E020E0B0E0A0E0309799F4211529
:101E9000310509F44AC0281B390B24303105D8F527
:101EA0008A819B816115710589F1FB01938382838E
:101EB000FE0111C0408151810281138148175907E9
:101EC000E0F04817590799F4109761F012960C93B7
:101ED000129713961C933296CF01DF91CF911F91E9
:101EE0000F91089500937C0210937D02F4CF211589
:101EF000310551F04217530738F0A901DB019A016F
:101F0000BD01DF01F801C1CFEF01F9CF90937D0250
:101F100080937C02CDCFFE01E20FF31F819391935A
:101F20002250310939832883D7CF20917A0230910A
:101F30007B02232B41F4209107013091080130935B
:101F40007B0220937A022091050130910601211530
:101F5000310541F42DB73EB74091090150910A0176
:101F6000241B350BE0917A02F0917B02E217F30714
:101F7000A0F42E1B3F0B2817390778F0AC014E5FF9
:101F80005F4F2417350748F04E0F5F1F50937B02B9
:101F900040937A02819391939FCFF0E0E0E09CCF51
:101FA000CF93DF930097E9F0FC01329713821282FE
:101FB000A0917C02B0917D02ED0130E020E010970D
:101FC000A1F420813181820F931F20917A023091F8
:101FD0007B022817390709F061C0F0937B02E09378
:101FE0007A02DF91CF910895EA01CE17DF07E8F575
:101FF0004A815B819E0141155105B1F7E901FB83DF
:10200000EA8349915991C40FD51FEC17FD0761F47C
:10201000808191810296840F951FE90199838883BD
:10202000828193819B838A83F0E0E0E012968D9118
:102030009C9113970097B9F52D913C911197CD0183
:102040000296820F931F20917A0230917B0228170B
:10205000390739F6309751F510927D0210927C02C3
:10206000B0937B02A0937A02BCCFD383C28340811A
:102070005181840F951FC817D90761F44E5F5F4FD8
:1020800088819981480F591F518340838A819B81A0
:10209000938382832115310509F0B0CFF0937D023F
:1020A000E0937C029ECFFD01DC01C0CF138212823F
:1020B000D7CFDC0101C06D9341505040E0F7089547
:1020C00010E0C2E6D0E004C0FE010E94620D21963D
:0A20D000C336D107C9F7F894FFCF1B
:1020DA00ED03ED030100007E02800000000000BC59
:0E20EA0004B104D2043304AA044304340400F5
:00000001FF
