:100000000C9463000C9490080C9469080C948B0079
:100010000C948B000C948B000C948B000C948B0034
:100020000C94EA0A0C948B000C948B000C942E0A0E
:100030000C948B000C948B000C948B000C948B0014
:100040000C941F080C948B000C94DD080C94B708DA
:100050000C948B000C948B000C948B000C948B00F4
:100060000C940F090C948B00000000002400270062
:100070002A000000000023002600290000000008DC
:10008000000201000003040700000000000000005F
:10009000010204081020408001020408102001021F
:1000A0000408102000000000250028002B00040494
:1000B0000404040404040202020202020303030310
:1000C0000303300B3C1011241FBECFEFD8E0DEBF7E
:1000D000CDBF11E0A0E0B1E0E4EBF7E202C0059093
:1000E0000D92AA33B107D9F723E0AAE3B1E001C02A
:1000F0001D92A334B207E1F710E0C2E6D0E004C0DD
:100100002197FE010E94CF10C136D107C9F70E9486
:10011000A80C0C94CD130C9400004F925F926F9238
:100120007F928F929F92AF92BF92FF9220910B038A
:1001300030910C038217930708F043C02B0166240B
:100140007724852E962EA72EBB24B82DA42F209180
:100150001103F42C222391F0E22FF0E0E49DD00172
:10016000E59DB00DF49DB00D1124FB2E289D40019E
:100170001124B92D249F90011124A32FE09117037E
:10018000209112033091130350911403E51323C0FF
:10019000FC01EE0FFF1F8E0F9F1F820F931FE09138
:1001A0001403E80FF92FF11DF082E0911503E80F19
:1001B000F92FF11DB08320911603820F911DFC01D0
:1001C000A083FF90BF90AF909F908F907F906F9093
:1001D0005F904F900895880F991F880F991F820F85
:1001E000931FE80FF92FF11D1082D9CF8F929F92A4
:1001F000AF92BF92FF920F931F93CF93DF939C0117
:10020000F0902F038BE08F1508F46CC080913103C0
:1002100008E512E0081B110987FD1395000F111F57
:10022000000F111F80913003C8E8D0E0C81BD1092E
:1002300087FDD395CC0FDD1FCC0FDD1F4E010D2E9A
:10024000000CAA08BB08032E000C440B550B2C59BC
:100250003F4F4F4F5F4FA1E3B0E00E946B1028EC7F
:1002600030E040E050E00E944C102A5B3F4F4F4F7F
:100270005F4FD9012837310514F0A7E7B0E0A63465
:10028000B10514F4A6E4B0E09801012E000C440B73
:10029000550B281939094A095B090E94761024EB8D
:1002A00030E040E050E00E944C10820E931EA41EED
:1002B000B51E8C169D062CF0E801801691060CF4F4
:1002C000E4012297CC0FDD1F2FB7F8948F2D90E01B
:1002D000FC01EE0FFF1FE80FF91FE854FD4FD2831A
:1002E000C1832FBFDF91CF911F910F91FF90BF90DE
:1002F000AF909F908F900895833081F028F48130E3
:1003000099F08230A9F008958730A9F08830C9F0BB
:100310008430B1F4809180008F7D03C08091800093
:100320008F7780938000089584B58F7784BD08957A
:1003300084B58F7DFBCF8091B0008F778093B00024
:1003400008958091B0008F7DF9CFCF93DF93282F50
:1003500030E0F901E458FF4F8491F901E057FF4F75
:10036000D491F901E255FF4FC491CC23A1F0811142
:100370000E947C01EC2FF0E0EE0FFF1FEE58FF4FC4
:10038000A591B491EC91ED2381E090E009F480E037
:10039000DF91CF91089580E090E0FACF1F93CF9343
:1003A000DF93282F30E0F901E458FF4F8491F901E1
:1003B000E057FF4FD491F901E255FF4FC491CC2390
:1003C000A9F0162F81110E947C01EC2FF0E0EE0FB6
:1003D000FF1FEC55FF4FA591B4918FB7F894EC91A6
:1003E000111108C0D095DE23DC938FBFDF91CF9130
:1003F0001F910895DE2BF8CFCF93DF9390E0FC019F
:10040000E057FF4F249182559F4FFC018491882330
:10041000D1F090E0880F991FFC01E859FF4FA5919A
:10042000B491FC01EC55FF4FC591D49161110EC000
:100430009FB7F8948C91E22FE0958E238C932881BE
:10044000E223E8839FBFDF91CF9108958FB7F8949F
:10045000EC91E22BEC938FBFF6CFCF93DF93EC01BF
:1004600061E085E00E94FC01209731F460E085E0C6
:10047000DF91CF910C94CE01CF3FD10511F461E013
:10048000F6CFE1E8F0E0E491E33029F140F4E13027
:10049000B1F0E230D9F0C038D1058CF7E7CFE730C2
:1004A00021F1E83051F1E430B1F7809180008062B1
:1004B00080938000D0938B00C0938A0004C084B5E1
:1004C000806884BDC7BDDF91CF91089584B58062F7
:1004D00084BDC8BDF8CF8091800080688093800083
:1004E000D0938900C0938800EECF8091B0008068DF
:1004F0008093B000C093B300E6CF8091B0008062DB
:100500008093B000C093B400DECF3FB7F8948091E1
:100510000B0290910C02A0910D02B0910E0226B533
:10052000A89B05C02F3F19F00196A11DB11D3FBF2B
:10053000BA2FA92F982F8827BC01CD01620F711DFA
:10054000811D911D42E0660F771F881F991F4A95F4
:10055000D1F708950F931F93CF93DF93CDB7DEB7F5
:1005600029970FB6F894DEBF0FBECDBF809112035E
:1005700090911303892B09F47CC00E94850200919D
:1005800018031091190320911A0330911B0360176F
:1005900071078207930740F460931803709319035F
:1005A00080931A0390931B03009118031091190371
:1005B00020911A0330911B03601B710B820B930B6C
:1005C0006C32714081059105C0F2F89480910D0361
:1005D00090910E039A838983E0911203F0911303A3
:1005E000DF0111968081898790910903E0911C03B6
:1005F000F0911D0380911E03992309F445C0908159
:10060000982B98879081809589238F838F818C8305
:1006100088E08B8358856F8149853B812C81898156
:100620009A81508347FD252F3A952083262F39F054
:10063000441F00C000006083000000C0F2CF38E01B
:100640004D9160830000019761F7F0931D03E093E3
:100650001C0349873B832C839A83898378940E9467
:100660008502609318037093190380931A03909383
:100670001B0329960FB6F894DEBF0FBECDBFDF91E6
:10068000CF911F910F9108959081982B9887908119
:10069000809589238F838F818E8388E08D83588511
:1006A0006F8149853D812E8189819A81508347FDE3
:1006B000252F00C000C0208300C000C000C000C0C3
:1006C00000C060830000262F3A9541F0441F0000CF
:1006D00000C000C000C000C000C0E8CF38E04D91AD
:1006E00000C0608300C0019709F7F0931D03E093F9
:1006F0001C0349873D832E83AFCF8F929F92AF9289
:10070000BF92CF92DF92EF92FF924B015C010E9469
:1007100085026B017C010E9485026C197D098E099E
:100720009F09683E734081059105A8F321E0821A74
:100730009108A108B10888EEC80E83E0D81EE11C1C
:10074000F11C81149104A104B10429F7FF90EF90EA
:10075000DF90CF90BF90AF909F908F900895E091E1
:10076000E301F091E401309729F01092DE0110923C
:10077000DD0109940895CF93DF93AC01E091E1018D
:10078000F091E2013097F1F09091E0018091DF016A
:100790009817C0F090E0292F30E02617370754F45F
:1007A000D901A75BBE4F240F351FE90128812C9387
:1007B0009F5FF1CF1092E0016093DF01CB01DF91E9
:1007C000CF910994DF91CF9108950895AF92BF9290
:1007D000CF92DF92EF92FF920F931F93CF93DF930D
:1007E0006C017B018B01040F151FEB015E01AE183C
:1007F000BF08C017D10759F06991D601ED91FC915E
:100800000190F081E02DC6010995892B79F7C5018A
:10081000DF91CF911F910F91FF90EF90DF90CF90DC
:10082000BF90AF900895FC01538D448D252F30E08B
:10083000842F90E0821B930B541710F0CF960895ED
:1008400001970895FC01918D828D981761F0A28D1A
:10085000AE0FBF2FB11D5D968C91928D9F5F9F73E0
:10086000928F90E008958FEF9FEF0895FC01918D96
:10087000828D981731F0828DE80FF11D858D90E003
:1008800008958FEF9FEF0895FC01918D228D892FA0
:1008900090E0805C9F4F821B91098F739927089588
:1008A0008FE092E00E94440421E0892B09F420E0CB
:1008B000822F089580E090E0892B29F00E94500457
:1008C00081110C9400000895FC01A48DA80FB92F8C
:1008D000B11DA35ABF4F2C91848D90E001968F7368
:1008E0009927848FA689B7892C93A089B1898C9187
:1008F000837080648C93938D848D981306C00288D6
:10090000F389E02D80818F7D80830895EF92FF929F
:100910000F931F93CF93DF93EC0181E0888F9B8D22
:100920008C8D98131AC0E889F989808185FF15C0DC
:100930009FB7F894EE89FF896083E889F9898081FF
:100940008370806480839FBF81E090E0DF91CF91CE
:100950001F910F91FF90EF900895F62E0B8D10E0F0
:100960000F5F1F4F0F731127E02E8C8D8E110CC05F
:100970000FB607FCFACFE889F989808185FFF5CFAA
:10098000CE010E946404F1CFEB8DEC0FFD2FF11D21
:10099000E35AFF4FF0829FB7F8940B8FEA89FB89E7
:1009A00080818062CFCFCF93DF93EC01888D882345
:1009B000B9F0AA89BB89E889F9898C9185FD03C0C2
:1009C000808186FD0DC00FB607FCF7CF8C9185FFA7
:1009D000F2CF808185FFEDCFCE010E946404E9CF84
:1009E000DF91CF91089520918F01260F3327331F78
:1009F00021323105ECF42091B301FC0190E080E05C
:100A0000243069F082E00895A0918F012191AC011A
:100A100041595E4FA40FB52FB11D2C930196861737
:100A200098F380918F01680F60938F0180E00895A3
:100A300081E008951092B30181E08093B501109296
:100A4000B40161E082E10E94CE0161E083E10E9495
:100A5000CE01E9EBF0E080818E7F808380818D7F05
:100A6000808388E48093B80085E48093BC00089577
:100A70000895E091E0018091DF01E81730F4F0E0A3
:100A8000E75BFE4F808190E008958FEF9FEF089520
:100A90009091E0018091DF012FEF3FEF981748F42C
:100AA000E92FF0E0E75BFE4F208130E09F5F9093FD
:100AB000E001C90108950F931F93CF93DF93EC01D9
:100AC0001C161D060CF045C08CEA92E00E944805F9
:100AD0008093420121978330B1F48CEA92E00E9426
:100AE00048058C018CEA92E00E9448050197809F9E
:100AF0009001819F300D909F300D11243093FC01A7
:100B00002093FB01DDCF843091F48CEA92E00E94C7
:100B100048058C018CEA92E00E944805892B19F463
:100B2000119501951109C8010E94F600C9CF8530C1
:100B300039F68CEA92E00E9448058C01682F8EE01D
:100B40000E94CE0181E0012B09F480E08093F60140
:100B5000B7CFDF91CF911F910F9108958091DF0161
:100B60009091E001891B990B0895CF93DF93CB01FE
:100B7000EA01642F0E94F304CE01DF91CF91089522
:100B8000CF93DF931F92CDB7DEB7698361E0CE01CB
:100B900001960E94F30481E090E00F90DF91CF91E5
:100BA0000895682F8CEA92E00C94C00590E080E0F4
:100BB00008950F931F93CF93DF93EC018A818823CD
:100BC00021F061E088810E94FC0160E088810E9440
:100BD000CE0183E090E00197F1F761E088810E9407
:100BE000CE0183E290E00197F1F760E088810E94F6
:100BF000CE018A81882321F060E088810E94FC0177
:100C00000E9485026B837C838D839E8389810E94F1
:100C1000A501892B99F40E9485020B811C812D81ED
:100C20003E81601B710B820B930B0F811885298508
:100C30003A85061717072807390740F70E948502EB
:100C40006B837C838D839E8389810E94A501892B80
:100C500099F00E9485020B811C812D813E81601BD1
:100C6000710B820B930B0F81188529853A85061726
:100C700017072807390740F70E9485022B813C811E
:100C8000CB01821B930BDF91CF911F910F910895A0
:100C900080910801882379F18091010281110DC0B2
:100CA0008EEF92E00E94D90568E370E00E94BB10CD
:100CB0007093F4016093F3010895813069F483EF38
:100CC00092E00E94D90568E370E00E94BB10709327
:100CD000EE016093ED0108958230C9F488EE92E050
:100CE0000E94D90568E370E00E94BB107093F00188
:100CF0006093EF0108958DED92E00E94D90568E3BD
:100D000070E00E94BB107093F2016093F1010895AE
:100D100080914201813081F580913E0190913F01A7
:100D2000A0914001B091410180933A0180913E0130
:100D300090913F01A0914001B091410190933B01FE
:100D400080913E0190913F01A0914001B0914101FD
:100D5000A0933C0180913E0190913F01A091400100
:100D6000B0914101B0933D0144E050E06AE371E08D
:100D70008CEA92E00C94B5058230C1F48091F301C5
:100D80009091F4010E94D1058091ED019091EE01C6
:100D90000E94D1058091EF019091F0010E94D10550
:100DA0008091F1019091F2010C94D1050895282FC2
:100DB00030E0861307C040E050E06EE170E0C9010A
:100DC0000C948D00862F90E0BC01621B730B649F16
:100DD0009001659F300D749F300D11242F3F320715
:100DE00029F440E050E06CE070E0EACF2E3F3F4F46
:100DF00029F440E050E064E070E0E2CF40E050E0F1
:100E0000BA01DECF80910801882339F18091430136
:100E100090914401A0914501B09146010196A11D18
:100E2000B11D8093430190934401A0934501B09379
:100E3000460180913E0190913F01A0914001B09107
:100E400041010196A11DB11D80933E0190933F0188
:100E5000A0934001B0934101089580914301909186
:100E60004401A0914501B09146010197A109B10942
:100E70008093430190934401A0934501B0934601B0
:100E800080913E0190913F01A0914001B0914101BC
:100E90000197A109B109D8CFFC0101900020E9F721
:100EA0003197AF01481B590BBC018FE092E00C94C5
:100EB000E6038F929F92AF92BF920F931F93CF93AF
:100EC000DF93CDB7DEB7A1970FB6F894DEBF0FBEA4
:100ED000CDBF19A2423008F44AE08E010F5D1F4FCA
:100EE000842E912CB12CA12CA50194010E947E107E
:100EF000E62FB901CA01EA30F4F4E05DD801EE93BF
:100F00008D01232B242B252B79F790E080E010977F
:100F100019F0CD010E944C07A1960FB6F894DEBFE0
:100F20000FBECDBFDF91CF911F910F91BF90AF90BA
:100F30009F908F900895E95CE1CFCF92DF92EF927E
:100F4000FF92CF93DF936B017C016DE28FE092E023
:100F50000E948604EC0166277727CB016C197D0976
:100F60008E099F094AE00E9459078C0F9D1FDF914F
:100F7000CF91FF90EF90DF90CF900895BC01990F33
:100F8000880B990B97FD0C949D074AE00C94590728
:100F9000CF93DF9385ED8093BC0080916B0190919E
:100FA0006C01A0916D01B0916E010796A11DB11D5C
:100FB00023E0B695A795979587952A95D1F7209127
:100FC000BC0024FD03C01092B30136C040916B01F8
:100FD00050916C0160916D0170916E01452B462B13
:100FE000472B69F30097A105B10541F025E32A9548
:100FF000F1F700000197A109B109E1CF80916A01E1
:1010000091E0909369018823B9F0C091B800D09124
:10101000BA008091BC008A7B8093BC0060E082E1D2
:101020000E94CE0160E083E10E94CE010E941A0579
:10103000D093BA00C093B800DF91CF9108951F926A
:101040000F920FB60F9211242F933F938F939F937C
:10105000AF93BF938091070290910802A09109027B
:10106000B0910A023091060223E0230F2D3758F584
:101070000196A11DB11D2093060280930702909353
:101080000802A0930902B0930A0280910B0290918A
:101090000C02A0910D02B0910E020196A11DB11D8E
:1010A00080930B0290930C02A0930D02B0930E025A
:1010B000BF91AF919F918F913F912F910F900FBE54
:1010C0000F901F90189526E8230F0296A11DB11DC1
:1010D000D2CF1F920F920FB60F9211242F933F93EE
:1010E0004F935F936F937F938F939F93AF93BF9330
:1010F000EF93FF93E0910201F09103010995FF91B5
:10110000EF91BF91AF919F918F917F916F915F917F
:101110004F913F912F910F900FBE0F901F901895F8
:101120001F920F920FB60F9211242F933F934F935C
:101130005F936F937F938F939F93AF93BF93EF933F
:10114000FF93E0910001F09101010995FF91EF916A
:10115000BF91AF919F918F917F916F915F914F91CF
:101160003F912F910F900FBE0F901F9018951F92D7
:101170000F920FB60F9211242F933F934F935F93CB
:101180006F937F938F939F93AF93BF93EF93FF934F
:101190008FE092E00E946404FF91EF91BF91AF91C4
:1011A0009F918F917F916F915F914F913F912F917F
:1011B0000F900FBE0F901F9018951F920F920FB6B1
:1011C0000F9211242F938F939F93EF93FF93E091AE
:1011D0001F02F09120028081E0912502F091260209
:1011E00082FD1BC09081809128028F5F8F732091B8
:1011F0002902821741F0E0912802F0E0E15FFD4F03
:10120000958F80932802FF91EF919F918F912F915D
:101210000F900FBE0F901F9018958081F4CF1F92F2
:101220000F920FB60F9211242F933F934F935F931A
:101230006F937F938F939F93AF93BF93EF93FF939E
:101240008091B900887F803609F44AC0F0F5883271
:1012500009F4A7C018F5803109F49BC0B8F48823BD
:1012600009F4F9C0883009F494C0FF91EF91BF915F
:10127000AF919F918F917F916F915F914F913F912E
:101280002F910F900FBE0F901F901895883109F481
:1012900088C0803251F78093B20114C0803409F4C1
:1012A0009DC040F48033B9F38833F9F68093B201DE
:1012B00085ECB0C0803509F485C0883509F496C046
:1012C000883499F60E94C807D0CF883909F48CC0B9
:1012D00038F5883729F050F4883611F0803729F630
:1012E00083E08093B3011092B10157C0883809F4AC
:1012F0007BC0803919F0803809F0B7CF8091B101F7
:10130000803208F071C0E091B10181E08E0F8093CE
:10131000B1018091BB00F0E0EF56FE4F80833DC0ED
:10132000803B39F0E0F4803A09F479C0883A09F05A
:101330009CCF84E08093B3011092900110928F01B2
:10134000E091DB01F091DC01099580918F01811121
:101350000FC081E080938F0110926F0109C0803C23
:1013600009F4A6CF883C09F4A3CF883B09F07DCFD0
:10137000E091900181E08E0F80939001F0E0E159BF
:10138000FE4F80818093BB009091900180918F01EE
:1013900029C08091D8018093BB0085EC8093BC006C
:1013A00064CF9091D7018091D601981758F5E091BC
:1013B000D70181E08E0F8093D701F0E0EA54FE4F11
:1013C0008081E9CFE091D70181E08E0F8093D70132
:1013D0008091BB00F0E0EA54FE4F80839091D701EA
:1013E0008091D6019817C8F285E8D8CFE091D7014F
:1013F00081E08E0F8093D7018091BB00F0E0EA542A
:10140000FE4F80838091B50181115CCF81E0809394
:10141000B40184EA8093BC001092B30126CF85EC1E
:101420008093BC001092B3018091B101803230F4FE
:10143000E091B101F0E0EF56FE4F10826091B101F2
:1014400070E0E091D901F091DA0181E991E009952C
:101450001092B1010ACF1092B20134CF1F920F92B5
:101460000FB60F9211242F933F934F935F936F9377
:101470007F938F939F93AF93BF93CF93DF93EF931C
:10148000FF9380914801C091DC02D0E087FF24C027
:101490001092850010928400809148018F5F8093A4
:1014A000480180914801082E000C990B8C179D076C
:1014B00024F4809148018C30C4F180918400909193
:1014C0008500049680349C4908F47AC08091840099
:1014D00090918500049676C080914801082E000CFA
:1014E000990B8C179D07C4F6E09148018E2FEE0FE3
:1014F000990BFC01EE0FFF1FE80FF91FE854FD4F99
:10150000808186FFC9CFE09148018E2FEE0F990BA5
:10151000FC01EE0FFF1FE80FF91FE854FD4F80811B
:1015200060E08F730E94CE01B7CF2091840030918C
:101530008500E09148018E2FEE0F990BFC01EE0F14
:10154000FF1FE80FF91FE854FD4F81819281820F40
:10155000931F9093890080938800E09148018E2F1B
:10156000EE0F990BFC01EE0FFF1FE80FF91FE85477
:10157000FD4F808186FF11C0E09148018E2FEE0F54
:10158000990BFC01EE0FFF1FE80FF91FE854FD4F08
:10159000808161E08F730E94CE01FF91EF91DF9116
:1015A000CF91BF91AF919F918F917F916F915F91FB
:1015B0004F913F912F910F900FBE0F901F90189554
:1015C00080E49CE990938900809388008FEF80935A
:1015D0004801E3CF1F920F920FB60F9211242F9361
:1015E0003F934F935F936F937F938F939F93AF93AB
:1015F000BF93EF93FF9380914701882369F1609136
:1016000043017091440180914501909146010E94EF
:101610007F116093F7017093F8018093F901909323
:10162000FA01109243011092440110924501109268
:10163000460110924701FF91EF91BF91AF919F91A9
:101640008F917F916F915F914F913F912F910F906B
:101650000FBE0F901F90189581E080934701EBCF4C
:10166000CF92DF92EF92FF9210921202109211022B
:1016700088EE93E0A0E0B0E0809313029093140210
:10168000A0931502B093160225E131E030931002C9
:1016900020930F0225EC30E030931C0220931B02B4
:1016A00024EC30E030931E0220931D0220EC30E049
:1016B0003093200220931F0221EC30E0309322026D
:1016C0002093210222EC30E0309324022093230265
:1016D00026EC30E030932602209325021092280257
:1016E0001092290210922A0210922B021092AF023D
:1016F0001092AE028093B0029093B102A093B20216
:10170000B093B30287E291E09093AD028093AC0274
:101710008091DC028C3008F00EC191E0980F90931C
:10172000DC0280932F0390E0FC01EE0FFF1FE80F17
:10173000F91FE854FD4F88EB9BE09283818389E099
:1017400080932E03109222031092230310922403FD
:101750001092250385E080931F0380E1809320038E
:1017600081E18093210361E085E00E94FC0161E05A
:1017700080E10E94FC0161E081E10E94FC01109285
:101780000A03109211031092180310921903109279
:101790001A0310921B0381E08093170380931403B4
:1017A0001092150392E0909316038093090388E149
:1017B00090E090930E0380930D030E94A1129093EA
:1017C000130380931203009709F4B9C028E1FC01C8
:1017D00011922A95E9F788E090E090930C038093AA
:1017E0000B038CE090E09093100380930F038091A3
:1017F0000A03882341F061E08CE00E94FC0160E074
:101800008CE00E94CE01EAEBF0E0E491F0E0EE0F14
:10181000FF1FEC55FF4F8591949190931D0380938A
:101820001C03ECE9F0E0E491E0931E0387E0809371
:10183000FE0286E08093FF021092000361E087E0E1
:101840000E94FC0160E08091FF020E94FC0198E28E
:10185000C92E93E2D92EE12CF12CC0920503D0922F
:101860000603E0920703F09208038BE08093F302F3
:1018700084E08093F4021092F50261E08BE00E9414
:10188000FC0160E08091F4020E94FC01C092FA0227
:10189000D092FB02E092FC02F092FD0283E0809382
:1018A000E80288E08093E9021092EA0261E083E0B6
:1018B0000E94FC0160E08091E9020E94FC01C0925C
:1018C000EF02D092F002E092F102F092F2028DE08B
:1018D0008093DD028FE08093DE021092DF0261E0F0
:1018E0008DE00E94FC0160E08091DE020E94FC011C
:1018F000C092E402D092E502E092E602F092E702A2
:101900008FEF8093320310923403109233031092BE
:101910003E0310923D038FEF9FEFDC01809339036C
:1019200090933A03A0933B03B0933C03FF90EF9056
:10193000DF90CF9008958FEF80932F0300CF109208
:101940000E0310920D0310920C0310920B0349CF5B
:10195000789484B5826084BD84B5816084BD85B58A
:10196000826085BD85B5816085BD80916E00816096
:1019700080936E001092810080918100826080933C
:10198000810080918100816080938100809180003E
:101990008160809380008091B10084608093B10069
:1019A0008091B00081608093B00080917A00846063
:1019B00080937A0080917A00826080937A0080918F
:1019C0007A00816080937A0080917A0080688093A9
:1019D0007A001092C10080910F039091100397FD3F
:1019E00008C061E00E94FC0160E080910F030E944A
:1019F000CE0181E080930A0364E670E080E090E02D
:101A00000E947D0340910D0350910E0370E060E051
:101A100080911203909113030E94C613E0911F025C
:101A2000F091200282E08083E0911B02F0911C0281
:101A30001082E0911D02F0911E0280E180831092DD
:101A40002702E0912302F091240286E08083E09156
:101A50002102F0912202808180618083E091210245
:101A6000F0912202808188608083E0912102F091D0
:101A70002202808180688083E0912102F09122021D
:101A800080818F7D808361E08EE00E94FC0161E0B7
:101A90008EE00E94CE0182E097E090930101809356
:101AA0000001809169008C7F816080936900E89AD1
:101AB00060E082E00E94FC01C0912E0380912F0320
:101AC0008C3008F052C061E08C2F0E94FC018091A4
:101AD0002F03282F30E0F901EE0FFF1FE20FF31F55
:101AE000E854FD4FCF739081907C9C2B9083109293
:101AF0003003109231032CE0622F0E94AF10829FBE
:101B0000B001112430E020E0AB01420F531FFA0175
:101B1000EE0FFF1FE40FF51FE854FD4F908196FD77
:101B200016C02F5F3F4F2C30310571F781110FC068
:101B30001092800082E080938100109285001092C4
:101B40008400B19A80916F00826080936F00E09171
:101B50002F038E2F90E0FC01EE0FFF1FE80FF91FFF
:101B6000E854FD4F80818064808390E080E00E9493
:101B7000F6001092E0011092DF011092DE01109247
:101B8000DD010E941A058FEA93E09093DC018093B7
:101B9000DB018BEB93E09093DA018093D90188E02D
:101BA0008093BA008BE595E09093E2018093E10188
:101BB00088E896E09093E4018093E3010E94480650
:101BC000D1E000E0C0E08091F60181111DC010E07D
:101BD0004D2F502F612F8C2F0E94D7061F5F18307A
:101BE000B9F70E94AA0268E770E080E090E00E94E6
:101BF0007D03C73031F0C11102C0D1E000E0CD0F4C
:101C0000E2CFDFEF0FEFFBCFD0E0C0E044E654E6D9
:101C100064E670E0CE010E948D002196C830D105A7
:101C2000A9F70E94AA02F8941092B0001092B10095
:101C30008091B10087608093B100809170008460D2
:101C4000809370008FEF8093B400789420E0222E70
:101C500020E0322E9924939401E010E0AA24AA9463
:101C6000BA2C2FB7F8948091070290910802A091A6
:101C70000902B0910A022FBF409102025091030263
:101C80006091040270910502481759076A077B07A3
:101C900008F0C1C00E9448068091F3019091F401C0
:101CA000873991057CF080910401882309F492C161
:101CB0008091EB019091EC019093F4018093F301FA
:101CC000109204018091F1019091F2018739910500
:101CD0007CF080910501882309F47FC18091E9019E
:101CE0009091EA019093F2018093F1011092050125
:101CF0008091EF019091F001873991057CF08091FE
:101D00000601882309F46CC18091E7019091E801F4
:101D10009093F0018093EF01109206018091ED0104
:101D20009091EE01873991057CF08091070188231D
:101D300009F459C18091E5019091E6019093EE017B
:101D40008093ED01109207018091F3019091F401CD
:101D50009093EC018093EB012091F1013091F2011D
:101D60003093EA012093E9012091EF013091F001D5
:101D70003093E8012093E7012091ED013091EE01CD
:101D80003093E6012093E5010E94BE0785E391E0D0
:101D90000E944C078091F1019091F2010E94BE07D0
:101DA00085E391E00E944C078091EF019091F00152
:101DB0000E94BE0785E391E00E944C076091ED010F
:101DC0007091EE01072E000C880B990B97FF0EC146
:101DD0000E949D0787E391E00E944C0780910102D9
:101DE000823009F007C1109201022FB7F894809158
:101DF000070290910802A0910902B0910A022FBF38
:101E00000796A11DB11D8093020290930302A09337
:101E10000402B09305022FB7F894809107029091C5
:101E20000802A0910902B0910A022FBF4091FD0162
:101E30005091FE016091FF0170910002481759070F
:101E40006A077B0708F094C0C091FB01D091FC01A8
:101E50006091F7017091F8018091F9019091FA0178
:101E60000E9447119E01261B370BB901072E000C5B
:101E7000880B990B0E947F112B013C014092260395
:101E80005092270360922803709229032AE939E9C6
:101E900049E95EE30E94341220912203309123032A
:101EA00040912403509125030E94D6106B017C01C0
:101EB00020912A0330912B0340912C0350912D0344
:101EC000C301B2010E94D5109B01AC010E94D61043
:101ED0009B01AC01C701B6010E94D6106B017C01C9
:101EE00020E030E046E153EC0E94421187FD86C0BD
:101EF00020E030E046E153E4C701B6010E942F1212
:101F000018160CF482C0C0922203D0922303E092F0
:101F10002403F092250340922A0350922B036092EF
:101F20002C0370922D03CD2B09F076C088EC90E045
:101F30000E942D0260E080E10E94CE0160E081E11C
:101F40000E94CE012FB7F894809107029091080269
:101F5000A0910902B0910A022FBF0F96A11DB11DD9
:101F60008093FD019093FE01A093FF01B0930002C6
:101F70008091F601811122C0D0E0C091F50140911D
:101F8000090150910A016D2F8C2F0E94D706DF5F47
:101F9000D83099F70E94AA0268E770E080E090E0EC
:101FA0000E947D03C73009F060C0B0920A01A09280
:101FB000090180910901C80FC093F5012114310472
:101FC00009F44FCE0E945004882309F44ACE0E949F
:101FD000000047CE9092040175CE9092050188CE04
:101FE000909206019BCE90920701AECE4AE00E94ED
:101FF0005907F0CE8F5F80930102F7CEC12CD12C10
:1020000096E1E92E93ECF92E7ECFC12CD12C86E1FE
:10201000E82E83E4F82E77CFC701B6010E9447115E
:102020006B01CB011816190674F49092080161E057
:1020300080E10E94CE0160E081E10E94CE01C601F4
:102040000E942D027FCF892B09F470CF10920801D6
:1020500060E080E10E94CE0161E081E10E94CE015A
:10206000882799278C199D09EBCFC111A2CF109316
:102070000A01009309019DCF8091120390911303EF
:102080000E943D1380910F039091100397FD03C0B0
:1020900060E00C94FC010895052E97FB1EF400945B
:1020A0000E94631057FD07D00E947E1007FC03D0EA
:1020B0004EF40C94631050954095309521953F4F08
:1020C0004F4F5F4F089590958095709561957F4F24
:1020D0008F4F9F4F08950E94A010A59F900DB49F11
:1020E000900DA49F800D911D11240895B7FF0C94AD
:1020F0006B100E946B10821B930B0895A1E21A2EA5
:10210000AA1BBB1BFD010DC0AA1FBB1FEE1FFF1F9B
:10211000A217B307E407F50720F0A21BB30BE40BEB
:10212000F50B661F771F881F991F1A9469F7609532
:102130007095809590959B01AC01BD01CF010895EC
:10214000A29FB001B39FC001A39F700D811D1124F8
:10215000911DB29F700D811D1124911D0895991B31
:1021600079E004C0991F961708F0961B881F7A958E
:10217000C9F780950895AA1BBB1B51E107C0AA1F90
:10218000BB1FA617B70710F0A61BB70B881F991F18
:102190005A95A9F780959095BC01CD010895EE0F51
:1021A000FF1F0590F491E02D09945058BB27AA27F2
:1021B0000E94ED100C94F5110E94E71138F00E9476
:1021C000EE1120F039F49F3F19F426F40C94E41139
:1021D0000EF4E095E7FB0C94DE11E92F0E94061245
:1021E00058F3BA17620773078407950720F079F44C
:1021F000A6F50C9428120EF4E0950B2EBA2FA02D04
:102200000B01B90190010C01CA01A0011124FF27A3
:10221000591B99F0593F50F4503E68F11A16F0409E
:10222000A22F232F342F4427585FF3CF469537959D
:102230002795A795F0405395C9F77EF41F16BA0B62
:10224000620B730B840BBAF09150A1F0FF0FBB1F10
:10225000661F771F881FC2F70EC0BA0F621F731F59
:10226000841F48F4879577956795B795F7959E3FB6
:1022700008F0B0CF9395880F08F09927EE0F979547
:10228000879508950E94BA1108F481E008950E948C
:102290004E116894B1110C94291208950E940E12E7
:1022A00088F09F5798F0B92F9927B751B0F0E1F017
:1022B000660F771F881F991F1AF0BA95C9F714C0C7
:1022C000B13091F00E942812B1E008950C942812C8
:1022D000672F782F8827B85F39F0B93FCCF3869500
:1022E00077956795B395D9F73EF49095809570955D
:1022F00061957F4F8F4F9F4F0895E89409C097FBDA
:102300003EF490958095709561957F4F8F4F9F4FCC
:102310009923A9F0F92F96E9BB279395F695879510
:1023200077956795B795F111F8CFFAF4BB0F11F4D3
:1023300060FF1BC06F5F7F4F8F4F9F4F16C088237A
:1023400011F096E911C0772321F09EE8872F762FB0
:1023500005C0662371F096E8862F70E060E02AF0F1
:102360009A95660F771F881FDAF7880F96958795DD
:1023700097F90895990F0008550FAA0BE0E8FEEFB2
:1023800016161706E807F907C0F012161306E40739
:10239000F50798F0621B730B840B950B39F40A2632
:1023A00061F0232B242B252B21F408950A2609F410
:1023B000A140A6958FEF811D811D089597F99F6714
:1023C00080E870E060E008959FEF80EC08950024BD
:1023D0000A941616170618060906089500240A948A
:1023E00012161306140605060895092E0394000C10
:1023F00011F4882352F0BB0F40F4BF2B11F460FF9F
:1024000004C06F5F7F4F8F4F9F4F089557FD9058C7
:10241000440F551F59F05F3F71F04795880F97FBA8
:10242000991F61F09F3F79F0879508951216130662
:102430001406551FF2CF4695F1DF08C01616170691
:102440001806991FF1CF86957105610508940895C6
:10245000E894BB2766277727CB0197F908950E9458
:10246000BA1108F48FEF08950E9447120C94F511E9
:102470000E94E71138F00E94EE1120F0952311F030
:102480000C94DE110C94E41111240C9429120E9476
:10249000061270F3959FC1F3950F50E0551F629F90
:1024A000F001729FBB27F00DB11D639FAA27F00DAD
:1024B000B11DAA1F649F6627B00DA11D661F829FD4
:1024C0002227B00DA11D621F739FB00DA11D621FB9
:1024D000839FA00D611D221F749F3327A00D611DD6
:1024E000231F849F600D211D822F762F6A2F1124B8
:1024F0009F5750409AF0F1F088234AF0EE0FFF1FEB
:10250000BB1F661F771F881F91505040A9F79E3F41
:10251000510580F00C94DE110C9429125F3FE4F316
:10252000983ED4F3869577956795B795F795E79597
:102530009F5FC1F7FE2B880F911D9695879597F9A0
:1025400008950F931F93CF93DF938230910510F47A
:1025500082E090E0E0914103F091420330E020E01E
:10256000B0E0A0E0309799F42115310509F44AC094
:10257000281B390B24303105D8F58A819B816115E0
:10258000710589F1FB0193838283FE0111C04081B3
:1025900051810281138148175907E0F04817590704
:1025A00099F4109761F012960C93129713961C935E
:1025B0003296CF01DF91CF911F910F910895009333
:1025C000410310934203F4CF2115310551F0421716
:1025D000530738F0A901DB019A01BD01DF01F801C1
:1025E000C1CFEF01F9CF9093420380934103CDCF48
:1025F000FE01E20FF31F8193919322503109398339
:102600002883D7CF20913F0330914003232B41F4FF
:1026100020910D0130910E013093400320933F0330
:1026200020910B0130910C012115310541F42DB79A
:102630003EB740910F0150911001241B350BE091E2
:102640003F03F0914003E217F307A0F42E1B3F0B6A
:102650002817390778F0AC014E5F5F4F2417350714
:1026600048F04E0F5F1F5093400340933F03819308
:1026700091939FCFF0E0E0E09CCFCF93DF93009762
:10268000E9F0FC01329713821282A0914103B091CC
:102690004203ED0130E020E01097A1F42081318168
:1026A000820F931F20913F03309140032817390771
:1026B00009F061C0F0934003E0933F03DF91CF91B5
:1026C0000895EA01CE17DF07E8F54A815B819E0194
:1026D00041155105B1F7E901FB83EA83499159910D
:1026E000C40FD51FEC17FD0761F48081918102961C
:1026F000840F951FE90199838883828193819B834D
:102700008A83F0E0E0E012968D919C9113970097F8
:10271000B9F52D913C911197CD010296820F931F2F
:1027200020913F03309140032817390739F630973D
:1027300051F51092420310924103B0934003A093CD
:102740003F03BCCFD383C28340815181840F951F47
:10275000C817D90761F44E5F5F4F88819981480F90
:10276000591F518340838A819B81938382832115E2
:10277000310509F0B0CFF0934203E09341039ECFBF
:10278000FD01DC01C0CF13821282D7CFDC0101C072
:102790006D9341505040E0F7089510E0C2E6D0E05C
:1027A00004C0FE010E94CF102196C336D107C9F79D
:0427B000F894FFCFCB
:1027B400E503E50301010101010100000043038079
:1027C40000000000008604E6031304D3044404223A
:1027D40004360400000000C005B505D6053805AE72
:0A27E40005480539053B000D0A0009
:00000001FF
